:100000000C94DC020C9404030C9404030C9404037D
:100010000C9404030C9404030C9404030C94040344
:100020000C9404030C9404030C9404030C94081F14
:100030000C9404030C9404030C9404030C94040324
:100040000C947B1F0C9404030C9404030C94040381
:100050000C9404030C9404030C9404030C94040304
:100060000C9404030C940403084AD73B3BCE016E66
:1000700084BCBFFDC12F3D6C74319ABD56833DDAFF
:100080003D00C77F11BED9E4BB4C3E916BAAAABE0E
:10009000000000803F05A84CCDB2D44EB93836A937
:1000A000020C50B9918688083CA6AAAA2ABE000074
:1000B00000803F0020004849474853434F52455372
:1000C0000050524553532015004E4557204849478C
:1000D0004853434F52450050524553532015005446
:1000E000484520454E4400424F4E555320504F49FD
:1000F0004E54530008080000000000665A810808AA
:10010000181818242442428108080000000000004A
:100110002062080800000000646E7FFF4024FFF0AA
:10012000000000000FFFFC0FFFFFFFFFF03FE3FFA9
:10013000FFFFFFFFFFC79FFFFFFFFFFFFFF9779E56
:10014000EEF9C279F7BA77AE4EF6DEBAEB9A6B8E5D
:100150004D77C6DB5DAA63AEAC74DEDB5DB26BA629
:10016000ED76DEBAEBBA49B6E939C279F7BABFFF24
:10017000FFFFFFFFFFFDDFFFE0FFFF07FFFBE3FEE9
:100180001F1FF8F87FC7F8E1FFEFF7FF871FFE0F8B
:10019000FFF7EFFFF07FFFFFFFF7EFFFFFFFFFFF2E
:1001A000FFFBDFFFFFFFFFFFFFFBDFFFFFFFFFFFA7
:1001B000FE03C07FFFFFFFFFE1FBDF87FFFFFFFFC5
:1001C000DFF3CFFBFFFFFFFFDFF3CFFBFFFFFFFFFF
:1001D000DFF3CFFBFFFFFFFFE1F3CF87FFFFFFFF61
:1001E000FE17E87FFFFFFFFFFFE007FFFFFFFFFFB6
:1001F000FFF7EFFFFFFFFFFFFFE7E7FFFFFFFFFF57
:10020000FFE7E7FFFFFFFFFFFFEFF7FFFFFFFFFF46
:10021000FFEFF7FFFFFFFFFFFFEFF7FFFFFFFFFF1E
:10022000FFDFFBFFFFFFFFFFFFBFFDFFFFFFFFFF44
:10023000FE7FFE7FFFFFFFFFFDFFFFBFFFFF030508
:100240003F213F1208120A100A0E1C0E0C1E0C143D
:100250001A14161F161E131E1E1B1E1E1F1E3F21C4
:100260003F3A2F3A173D173F213F181F02040A0457
:100270001F0E04040E1F0A1F0A0E0E1F04110E2E5D
:10028000252E2F2A2E262929021F02081F08150EA7
:1002900004040E150E15151B151B040604040C048E
:1002A0000000000017000300031F0A1F16371A1969
:1002B00004130A153A000300000E11110E000A047F
:1002C0000A040E04003000040404001000180403A3
:1002D0001F111F121F101D151711151F07041F17BF
:1002E000151D1F151D01011F1F151F17151F000AC2
:1002F00000003200040A110A0A0A110A0401150258
:100300000E11171E051E1F150A0E110A1F110E1FB2
:1003100015111F05010E111D1F041F111F110810BB
:100320000F1F041B1F10101F061F1E040F0E110E9F
:100330001F09060E112E1F051A121509011F011F94
:10034000101F0F180F1F0C1F1B041B031C03191574
:1003500013001F11030418111F00020102202020A6
:100360000001020C121E1F120C0C12120C121F0C98
:100370001A14041E05242A1E1F021C141D102020FE
:100380001D1F0814111F101E041E1E021C0C120C2F
:100390003E0A040C123E1E040214160A020F120E2C
:1003A000101E0E100E1E081E120C1226281E322AB7
:1003B00026041E21001F00211E040102013F213FCF
:1003C0000A4E6F2053442063617264206F720A6E7C
:1003D0006F204C4F414445522E4845580A0A153A61
:1003E00045786974001D20466C617368696E670A00
:1003F00020206C6F616465722E2E2E0A0A444F4EC7
:100400002754205455524E204F464621000A0A15C3
:100410003A49676E6F7265006D560A0A504C454145
:100420005345205455524E204F464620004C4F57BE
:10043000204241545445525921200017736176657A
:1004400000166261636B001574797065000A0A0A10
:10045000153A6F6B617920163A6564697400596FBB
:100460007520656E74657265640A00175344001642
:10047000137800161314001510200015201000002A
:10048000540A03E181867F3E186D830F0F0E0183AE
:10049000866033186DC3198F1803C38E6033186DCF
:1004A000E330CF1803C39E603630CDE360CF300613
:1004B000C79E7E3E30CDB360CF300CC6F660333081
:1004C000D9B660CF33CFCCF66061B0DB1E60CF30E1
:1004D000D86CE6C061B0DB1E618F19986CC6C06332
:1004E000B19B0E330F0FB078C6FF7E1F1B061E0F89
:1004F0000500893008023802497868140000F6E8DF
:10050000DBCFC3B8AEA49B928A827B746E68625CB8
:1005100057524E4945413E3A3734312E2C29272532
:1005200023211F1D1C1A1917161514131211100F51
:100530000E0D0C0B0A0908070645006801000005AE
:10054000006801380100000500380168010000570B
:100550000553050101FF030101F703000000080036
:100560000201000003040700000000000000000179
:100570000204081020408001020408102001020437
:100580000810200404040404040404020202020209
:1005900002030303030303000000002300260029D5
:1005A0000000000000250028002B000000000024AF
:1005B0000027002A0000D50D11241FBECFEFD8E080
:1005C000DEBFCDBF12E0A0E0B1E0E8ECFFE402C086
:1005D00005900D92AA3BB107D9F725E0AAEBB2E04E
:1005E00001C01D92AD3AB207E1F715E0C8EBD5E0C6
:1005F00004C02297FE010E944D27C63BD107C9F7D0
:100600000E9455230C94E2270C940000DC01643511
:1006100008F053C0403308F050C090968C919097EA
:10062000342F359535953595E62FFF27E7FDF09565
:10063000242F2770823099F4DF01A256BC4F84E545
:100640003802A00DB11D11248C9190E0022E02C041
:10065000959587950A94E2F78095817009C083305B
:1006600039F446271C968C91482740FF03C014C0DC
:10067000811112C084E53802E00DF11D1124E2560B
:10068000FC4F81E090E0022E01C0880F0A94EAF747
:1006900080959081982310C084E53802E00DF11D0B
:1006A0001124E256FC4F81E090E0022E01C0880F39
:1006B0000A94EAF79081982B90830895CF93DF9363
:1006C0009091120361E0690F60931203E5E0F3E09B
:1006D000A2E7B2E081918D9323E0ED30F207D1F7EC
:1006E00081E080937402809377028AE080936E02A7
:1006F00080936F02EAE5F2E0AAEBB1E0CAEAD1E04A
:1007000084E680838C9389933296149622E0EE36A9
:10071000F207B9F76B3018F48BE0890F01C084E160
:100720008093B901633190F470E080E090E00E9422
:10073000CE242DEC3CEC4CEC5DE30E94E7252DEC47
:100740003CEC4CE45EE30E94662304C060E070E091
:1007500080E090E46093B4017093B5018093B6019A
:100760009093B701DF91CF91089510920D03E5E0CA
:10077000F3E0119283E0ED30F807D9F708958EE1A8
:1007800080936D0310926E0380910E0390910F037E
:10079000A0911003B0911103803A9648A140B10591
:1007A00040F44AE050E060E070E084E693E00E94AC
:1007B000BF2280910E0390910F03A0911003B0917E
:1007C000110380319742A105B10540F44AE050E0A1
:1007D00060E070E084E693E00E94BF2280910E0307
:1007E00090910F03A0911003B0911103883E9340A4
:1007F000A105B10540F44AE050E060E070E084E615
:1008000093E00E94BF2280910E0390910F03A0916C
:100810001003B091110384369105A105B10540F490
:100820004AE050E060E070E084E693E00E94BF227E
:1008300080910E0390910F03A0911003B0911103CA
:100840000A97A105B10540F44AE050E060E070E08D
:1008500084E693E00E94BF2240910E0350910F0363
:1008600060911003709111032AE030E084E693E078
:100870000C94C7220F931F93CF93DF936091710263
:10088000615023E04091700284E693E00E94D00F13
:1008900040917002415023E06091710284E693E040
:1008A0000E94AD0FCAEBD1E00BE512E0F8013197E1
:1008B0006081653548F48881853530F0F8014081E4
:1008C00084E693E00E94060324960E5F1F4FF1E03A
:1008D000C23EDF0759F7DF91CF911F910F91089525
:1008E000EF92FF921F93CF93DF9382E7E82E82E08F
:1008F000F82EE70112E08C2F8E19823011F085302E
:1009000049F48881882319F02EEF30E00BC024EFE2
:1009100030E008C08881882319F022E131E002C06C
:1009200028E031E048E2612F84E693E00E949212D1
:10093000165F21961235F9F6DF91CF911F91FF9046
:10094000EF9008951F93CF93DF93809174028823D3
:10095000A9F010E0DFE2C9E180916E02181770F48F
:100960004D2F6C2F84E693E00E940603C0FF03C066
:10097000CF5F1F5FF1CFC150D150FBCF8091770285
:100980008823A9F010E0DFE2C7E380916F02181717
:1009900070F44D2F6C2F84E693E00E940603C0FF95
:1009A00003C0CF5F1F5FF1CFC150D150FBCFDF91AC
:1009B000CF911F910895AF92BF92CF92DF92EF92A5
:1009C000FF920F93CF93DF9300D0CDB7DEB73AE518
:1009D000E32E32E0F32E4AEBC42E41E0D42E52EE49
:1009E000A52E51E0B52EF70180818535C8F5F601B9
:1009F00080818535A8F120E030E040E85FE3F50133
:100A000060857185828593850E942C24F501811172
:100A100012C064817581868197810E949B24062F74
:100A2000F50160817181828193810E949B24262F30
:100A300048E269E111C064817581868197810E94D5
:100A40009B24062FF50160817181828193810E9430
:100A50009B24262F48E268E384E693E00E941C1062
:100A6000F2E0EF0EF11C84E0C80ED11CECE0AE0EFB
:100A7000B11CFEE6EF16F2E0FF0609F0B4CF9AEAE9
:100A8000E92E91E0F92E2AE0C22E21E0D22EF701C4
:100A900081917F01853538F5F601648575858685F8
:100AA00097850E949B24062FF601608571858285BB
:100AB00093850E949B24262FF6016481758186818F
:100AC00097812A830E949B24462FF60160817181C1
:100AD0008281938149830E949B242A81498184E6F3
:100AE00093E00E941C10F0E1CF0ED11C84EBE816BD
:100AF00081E0F80661F60F900F90DF91CF910F9192
:100B0000FF90EF90DF90CF90BF90AF900895CF937C
:100B1000DF93CCEBD1E0FE0132976081653538F48C
:100B200028813196408184E693E00E9494102496B7
:100B300081E0C43ED80779F7DF91CF910895CF9334
:100B4000DF938091140380FD2EC06AEB71E08AE58B
:100B500092E0ECEBF1E0CDEBD1E024E641E0DB010B
:100B60003C913535B8F43881311107C030813730C8
:100B700018F43F5F308301C048833881313051F42D
:100B80003081332319F03150308304C0DB012C93C2
:100B9000DC012C936C5F7F4F029634962496B1E073
:100BA000623E7B07E1F6DF91CF91089566E080E237
:100BB00093E00E94080F882341F06CE171E086E128
:100BC00093E00E948F1B10922E0308958091B9012B
:100BD00081110EC0EAEAF1E08191853548F081E0AB
:100BE000E43BF807C9F70E94B50382E08093150340
:100BF00008951F93CF93DF9382E180936D0389E083
:100C000080936E0367EE70E084E693E00E94E42137
:100C10008AE080936D0380916E03865F80936E03FC
:100C20004AE050E060910D0384E693E00E94D422F4
:100C3000C0E080910D03C81750F46C2F660F6E5EF4
:100C400045E184E693E00E940603CF5FF2CF8AE09D
:100C500080936D0380916E03865F80936E03C0E086
:100C6000D83048F4ED2FF0E0EB5FFC4F808181112C
:100C7000CF5FDF5FF5CF4AE050E06C2F84E693E072
:100C80000E94D42212E1D0E0DC1759F022E131E0D9
:100C90004AE1612F84E693E00E949212DF5F175FC2
:100CA000F3CF0E94BF030E947004DF91CF911F9188
:100CB0000C94A204BF92CF92DF92EF92FF920F9317
:100CC0001F93CF93DF936AEBE62E62E0F62E71EF6F
:100CD000C72E72E0D72E00E010E0E801B12C89E0C9
:100CE0008B1538F0CE010E94C427F701EC0FFD1FD1
:100CF00007C0CE010E94C427F601EC0FFD1F3A97F2
:100D00008083B39421968FE0B812E9CF84E0E81A8B
:100D1000F108015F1F4F8BE0C81AD1080B34110591
:100D2000E1F6DF91CF911F910F91FF90EF90DF904F
:100D3000CF90BF90089586E193E00E940D1C0E9421
:100D40005A066CE171E086E193E00E948F1B1092DD
:100D50002E0386E193E00C947A154F925F926F9286
:100D60007F928F929F92AF92BF92CF92DF92EF923B
:100D7000FF920F931F93CF93DF93CDB7DEB72A97E0
:100D80000FB6F894DEBF0FBECDBF6B017C014A01E8
:100D900001EF12E0AAEBAA2EA2E0BA2E80E0F80141
:100DA00040805180628073804C145D046E047F0427
:100DB00010F08823B9F0B501CE0101960E94BD273D
:100DC000F801C082D182E282F382B401C5010E949F
:100DD000BD27BE016F5F7F4FC4010E94BD27730115
:100DE000620181E00C5F1F4FFBE0AF0EB11C93E08E
:100DF00005301907A1F6E1EFCE2EE2E0DE2EFAEB88
:100E0000AF2EF2E0BF2EE12CF12C8701912CE9E00E
:100E1000E91520F0F501E00FF11F04C0F601E00F25
:100E2000F11F3A976081C8010E94CC2793940F5F0D
:100E30001F4FFFE09F12EBCF84E0A81AB1089BE0A0
:100E4000C91AD108EFE0EE0EF11CFBE4EF16F10435
:100E5000E1F62A960FB6F894DEBF0FBECDBFDF9144
:100E6000CF911F910F91FF90EF90DF90CF90BF90A7
:100E7000AF909F908F907F906F905F904F9008956C
:100E8000CF93DF93CDB7DEB72B970FB6F894DEBFC5
:100E90000FBECDBF8BE180936D0383E180936E0322
:100EA0006FED70E084E693E00E94E42180911503E9
:100EB000833059F48091140364E10E94CB26911190
:100EC00087C084E08093150383C0843009F080C01C
:100ED00080911403877029F4809113038095809387
:100EE000130380911303882309F18BE180936D0331
:100EF00087E280936E0367ED70E084E693E00E94E2
:100F0000E42140910E0350910F0360911003709102
:100F100011038091010390910203A0910303B0910A
:100F2000040384179507A607B70740F164E080E241
:100F300093E00E94080F882309F44AC040910E03F1
:100F400050910F0360911003709111038091010380
:100F500090910203A0910303B091040384179507B5
:100F6000A607B707C0F010920E0310920F0310925D
:100F7000100310921103109215032AC08FE0809382
:100F80006D0381E280936E0369EC70E084E693E088
:100F90000E94E421CBCFBE016F5F7F4F86E193E0DB
:100FA0000E94681C4BE0BE016F5F7F4F86E193E0BB
:100FB0000E949A1760910E0370910F0380911003A5
:100FC00090911103AE014F5F5F4F0E94AD06CBCFF2
:100FD0002B960FB6F894DEBF0FBECDBFDF91CF9139
:100FE0000895DF92EF92FF920F931F93CF93DF93B9
:100FF00086E180936D0385E080936E0366EB70E07D
:1010000084E693E00E94E4210AEB12E0C1EFD2E013
:10101000F12CB5E0EB2E86E3D82EE0926D038CE048
:101020008F0D80936E03B80184E693E00E9407223F
:1010300064EB70E084E693E00E94E421D0926D03BB
:1010400088819981AA81BB81803A9648A140B105E7
:1010500040F44AE050E060E070E084E693E00E94F3
:10106000BF2288819981AA81BB8180319742A105E5
:10107000B10540F44AE050E060E070E084E693E0BF
:101080000E94BF2288819981AA81BB81883E9340BA
:10109000A105B10540F44AE050E060E070E084E66C
:1010A00093E00E94BF2288819981AA81BB81843606
:1010B0009105A105B10540F44AE050E060E070E020
:1010C00084E693E00E94BF2288819981AA81BB8136
:1010D0000A97A105B10540F44AE050E060E070E0F5
:1010E00084E693E00E94BF224991599169917991D8
:1010F0002AE030E084E693E00E94C72285E0F80E03
:10110000055F1F4F29E1F21288CFDF91CF911F9128
:101110000F91FF90EF90DF9008950E94F10780916A
:101120001403877029F4809113038095809313032F
:1011300080911303882361F08BE180936D0387E234
:1011400080936E0361EC70E084E693E00E94E421FA
:1011500064E080E293E00E94080F882381F08FEF23
:1011600080931203E5E0F3E081E0819393E0ED30BA
:10117000F907D9F70E945E0381E080931503089573
:101180000F93CF93DF93C82F00E020E045E060E0AD
:101190008BE393E00E94F61C20E040E062E08BE3EA
:1011A00093E00E94F61C85E0C89FE0011124C4581A
:1011B000DD4F2C814B8163E08BE393E00E94F61CB2
:1011C00020E0488161E08BE393E00E94F61C20E080
:1011D0004A8169818BE393E0DF91CF910F910C9469
:1011E000271DCF93DF93EAE5F2E0C0E0D0E09081E5
:1011F000953508F477C0813089F580917402882391
:1012000009F45FC020916E02222309F45AC0FE0146
:10121000EE0FFF1FE65AFD4F80917102808380918F
:10122000700281838CE08C9FF0018D9FF00D112462
:10123000EE51FE4F80E090E0A8ECB1E48083918312
:10124000A283B38380E090E0A0E8BFE3808791872A
:10125000A287B387215020936E0230C0823089F577
:1012600080917702882369F120916F02222349F14E
:10127000FE01EE0FFF1FE65AFD4F80917102808341
:101280008091700281838CE08C9FF0018D9FF00D26
:101290001124EE51FE4F80E090E0A0E6B2E480839E
:1012A0009183A283B38380E090E0A0E0B0E48087E4
:1012B0009187A287B387215020936F0280E00E941C
:1012C000C0088CE08C9FF0018D9FF00D1124EE5131
:1012D000FE4F80E090E0A0E2B2E484839583A68391
:1012E000B78306C021963296CA30D10509F07FCF68
:1012F000DF91CF910895CF92DF92EF92FF92CF933B
:10130000DF938091B901882309F45EC0EAEAF1E035
:101310008191853508F447C081E0E43BF807C1F7C7
:10132000EAEAF1E0C0E0D0E081918535B8F1809142
:10133000B90181508093B90168E070E080E090E0ED
:101340000E94E922FE01E655FE4F608364E570E0ED
:1013500080E090E00E94E92244E0CC0FDD1F4A9536
:10136000E1F7C65FDE4F0E94CE24688379838A83CB
:101370009B831C821D821E821F82688779878A87D1
:101380009B871C861D861E861F8681E0DF91CF917C
:10139000FF90EF90DF90CF900C94C0082196CA3058
:1013A000D10511F611C0C090B801D12CE12CF12C5F
:1013B00064E670E080E090E00E94E922C616D7065D
:1013C000E806F9060CF0ACCFDF91CF91FF90EF90DB
:1013D000DF90CF9008952F923F924F925F926F923D
:1013E0007F928F929F92AF92BF92CF92DF92EF92B5
:1013F000FF920F931F93CF93DF9300D000D000D0C4
:10140000CDB7DEB78AEB91E09A8389830DEB11E0CB
:101410006BE5262E62E0362EA2EEB1E0BE83AD83F0
:10142000F1013197B081BB83B53508F0BAC0E981CD
:10143000FA818081853508F4B4C0AD81BE814D90BC
:101440005D906D907C90BB816B2F70E080E090E0B0
:101450000E94CE24A30192010E9465236B017C01AE
:1014600020E030E0A9010E94DC25F101F081FC833D
:1014700018165CF420E030E040E850E4C701B60103
:101480000E942C2487FD0BC046C020E030E040E8DD
:1014900050ECC701B6010E94DC251816E4F52C813A
:1014A000622F70E080E090E00E94CE24AD81BE818A
:1014B00014962D913D914D915C9117970E94652353
:1014C0004B015C0120E030E0A9010E94DC251816E8
:1014D0005CF420E030E040E850E4C501B4010E9433
:1014E0002C2487FD0BC017C020E030E040E850EC12
:1014F000C501B4010E94DC2518166CF42B81E9812A
:10150000FA812083F80132978C8180833196108292
:10151000D8011C9246C0BC816B2F70E080E090E047
:101520000E94CE24ED81FE81248135814681578140
:101530000E946523A70196010E94D9236B017C01BB
:101540000E94302420E030E040E850E40E94E7258B
:101550009B01AC01C301B2010E946623AD81BE8133
:101560006D937D938D939C931397C701B6010E9451
:101570004A2620E030E040E850E40E94E7259B0145
:10158000AC01ED81FE8164817581868197810E9425
:101590006623AD81BE8114966D937D938D939C934C
:1015A0001797E981FA813496FA83E9830C5F1F4F1C
:1015B000F2E02F0E311C8D819E810C969E838D83CF
:1015C00091E0053E190709F02BCF0AEA11E0A2E1EC
:1015D000B1E0BE83AD8354E6252EF8013080F4E5FA
:1015E000F31508F4C4C0832D90E09A838983AD81FC
:1015F000BE814D905D906D907C90BAE03B9EB001B5
:1016000011246A5F7F4F882777FD8095982F0E946D
:10161000CE24A30192010E9465236B017C0120E08E
:1016200030E0A9010E94DC2518165CF420E030E0CF
:1016300040E850E4C701B6010E942C2487FD0CC08D
:101640004BC020E030E040E850ECC701B6010E94FA
:10165000DC2518160CF040C0ED81FE812481358117
:101660004681578160E070E080E392E40E94652348
:101670004B015C0120E030E0A9010E94DC25181636
:101680005CF420E030E040E850E4C501B4010E9481
:101690002C2487FD0BC020C020E030E040E850EC57
:1016A000C501B4010E94DC251816B4F4E981FA8161
:1016B000EE58FD4F1082F2E03F1203C010926E020E
:1016C00005C025E0321202C010926F02D8012C92A0
:1016D00084E00E94C0084BC0ED81FE8124813581E9
:1016E0004681578160E070E080E392E40E946523C8
:1016F000A70196010E94D9236B017C010E9430242E
:101700002091B4013091B5014091B6015091B701DB
:101710000E94E7259B01AC01C301B2010E94662330
:10172000AD81BE816D937D938D939C931397C7017B
:10173000B6010E944A262091B4013091B501409132
:10174000B6015091B7010E94E7259B01AC01ED81E4
:10175000FE8164817581868197810E946623AD81B7
:10176000BE8114966D937D938D939C9317970F5F15
:101770001F4FED81FE817096FE83ED83F1E0043B07
:101780001F0709F02ACF26960FB6F894DEBF0FBECA
:10179000CDBFDF91CF911F910F91FF90EF90DF9020
:1017A000CF90BF90AF909F908F907F906F905F9001
:1017B0004F903F902F9008952F923F924F925F92BB
:1017C0006F927F928F929F92AF92BF92CF92DF9251
:1017D000EF92FF920F931F93CF93DF9300D000D02F
:1017E00000D0CDB7DEB78AEB91E09E838D83ECEB22
:1017F0008E2EE1E09E2EED81FE818081853530F1D7
:101800008D819E8104969E838D8394E0890E911C28
:10181000ED81FE81E25EF14071F726960FB6F894F5
:10182000DEBF0FBECDBFDF91CF911F910F91FF9013
:10183000EF90DF90CF90BF90AF909F908F907F9070
:101840006F905F904F903F902F9008950AEA11E0BB
:1018500072E1A72E71E0B72E140181E0281A310839
:10186000F8018081853508F069C0ED81FE816081D5
:1018700070E080E090E00E94CE249B01AC01F50175
:1018800060817181828193810E9465232B013C01DB
:10189000F101608170E080E090E00E94CE249B0125
:1018A000AC01F50164817581868197810E94652371
:1018B0006B017C01A3019201C301B2010E94E725E3
:1018C0002B013C01A7019601C701B6010E94E72543
:1018D0009B01AC01C301B2010E9466230E94542601
:1018E0009B01AC01F401608170E080E090E029830D
:1018F0003A834B835C830E94CE2429813A814B81B9
:101900005C810E94DC2587FD19C024E6F801208354
:1019100080910E0390910F03A0911003B0911103D9
:101920004996A11DB11D80930E0390930F03A093C0
:101930001003B093110382E00E94C0080F5F1F4F95
:1019400080E1A80EB11C91E0043B190709F088CF93
:1019500057CFE2E7F2E080E0823029F0853019F0DD
:10196000908191110CC08F5F31968830A9F7109249
:10197000140383E08093150385E00C94C008089558
:1019800064E080E293E00E94080F882319F081E070
:101990000E94F10865E080E293E00E94080F88232E
:1019A00019F082E00E94F10841E060E080E293E0FB
:1019B0000E94110F882361F020917102822F90E024
:1019C00004971CF08DEF820F01C080E080937102BC
:1019D00041E062E080E293E00E94110F882369F009
:1019E00020917102822F90E0813591051CF483E0F3
:1019F000820F01C084E58093710241E061E080E2E2
:101A000093E00E94110F882361F020917002822FD1
:101A100090E004971CF08DEF820F01C080E080936E
:101A2000700241E063E080E293E00E94110F88239E
:101A300061F020917002822F90E08D971CF483E07A
:101A4000820F01C080E3809370020E947B090E9494
:101A5000EB090E949F050E94DC0B0E94BF030E94BD
:101A60003A040E9470040E94A2040E94DB040E94B7
:101A700087050E94E6050C94A90C809114038370DD
:101A800071F520916E02211104C080916F028823AC
:101A900031F180910D038F5F80930D0380910E03D0
:101AA00090910F03A0911003B09111030A96A11D0C
:101AB000B11D80930E0390930F03A0931003B09376
:101AC0001103222321F0215020936E0205C0809142
:101AD0006F02815080936F0283E00E94C008809162
:101AE00014038770E1F580916E02811138C08091F6
:101AF0006F02811134C080E090E0823031F1853096
:101B000021F1FC01EE58FD4F20812223F1F0DC0190
:101B1000AB5FBC4F21E02C9380910E0390910F039B
:101B2000A0911003B09111038C599F4FAF4FBF4F3D
:101B300080930E0390930F03A0931003B0931103AF
:101B4000108283E00E94C0080AC001968830910587
:101B5000A1F60E945E0381E08093150308950C9422
:101B6000F90586E193E00E94E0168823E9F0809170
:101B70001503823069F038F4882369F0813069F404
:101B80000E94C00C0AC0853040F40E94400705C086
:101B90000E943D0D02C00E948D080E94D6058091D2
:101BA00014038F5F809314030895109267031092BB
:101BB00066038EE992E09093650380936403089531
:101BC000CF93CFB7F89480919D03811127C0EDE8A2
:101BD000F5E08491E9E7F5E09491E82FF0E0EE0F6D
:101BE000FF1FE555FA4FA591B4918C91892321F4FB
:101BF00061E08AE00E94472161E08AE00E940E21B4
:101C00008CB580618CBD8CB580648CBD61E08DE04D
:101C10000E940E2161E08BE00E940E2180919D03C5
:101C20008F5F80939D03CFBFCF91089521E0FC018A
:101C30002083089570E085E00C948620AF92BF92D7
:101C4000CF92DF92EF92FF920F931F93CF93DF9388
:101C5000EC0189819A812FE0289F8001299F100D36
:101C6000112485E10E946920800F911F24E0969540
:101C700087952A95E1F79A8389832881222391F118
:101C8000AC81AD80B12CC12CD12CE885F9857F01C8
:101C900000E010E06E817F819B0140E050E08617FC
:101CA000970728F0BC01E817F90708F4BF0180E0A6
:101CB00090E01F921F921F92AF930E940D236B839F
:101CC0000F900F900F900F9070E085E0DF91CF9113
:101CD0001F910F91FF90EF90DF90CF90BF90AF904A
:101CE0000C948620DF91CF911F910F91FF90EF9080
:101CF000DF90CF90BF90AF900895FC018CE39FE000
:101D00009383828384E0818381E084870895CF93E5
:101D1000DF93EC018C819D81892B81F18C858F7102
:101D200051F584E10E946920BC01882777FD8095E8
:101D3000982F0E94CE2426EE3FE34EEC50E40E9402
:101D4000E7250E94A0249B017B836A8361157105AE
:101D500081F084E08983FE0140E084819581281729
:101D6000390710F449830AC04F5F32964430A9F70F
:101D700002C08FEF89838C858F5F8C87DF91CF9135
:101D80000895FC0188E0808389E0818387E0828375
:101D900086E0838384E0848382E0858381E1868397
:101DA0000895DF92EF92FF920F931F93CF93DF93EB
:101DB0007C01EC0100E010E0DD24DA9462E088812F
:101DC0000E940E2188810E947D21F701E00FF11F02
:101DD000892B21F487818F5F878308C087818823BF
:101DE00049F08F3F11F4178201C0D78260E08881EB
:101DF0000E940E210F5F1F4F219607301105F1F64B
:101E0000DF91CF911F910F91FF90EF90DF90089598
:101E1000FC01E60FF11D81E09781913009F080E02F
:101E20000895262F30E0FC01E20FF31F8781423036
:101E300028F481508E3F48F080E008958F3FE1F311
:101E4000642F0E94CB269130B9F781E008958EBDB2
:101E500000000DB407FEFDCF8EB508951F93CF93FC
:101E6000DF93EC01162FF89460E08F850E944721E4
:101E7000888918161CF460E00E944721812F0E9477
:101E8000270F888918161CF461E00E944721789476
:101E9000DF91CF911F91089528EF31E0EEE9F3E053
:101EA000DF01A9011D9241505040E1F7DC01199674
:101EB0001C9219971A961C920895DF92EF92FF9246
:101EC0000F931F93CF93DF93EC018C858F5F8C87EB
:101ED0008EE9E82E83E0F82ED12C6D2D6064CE01C2
:101EE0000E942E0F60E8CE010E942E0F61E08F85C8
:101EF0000E944721888918161CF460E00E9447213F
:101F000000E010E0F701E00FF11F80810E94270F31
:101F10000F5F1F4F04351105A9F7888918161CF4A7
:101F200061E00E944721D39484E5E80EF11C86E02D
:101F3000D812D3CF60E4CE01DF91CF911F910F91E2
:101F4000FF90EF90DF900C942E0FFC0160A361A333
:101F50000895FC0160A341A30895CF92DF92FF9200
:101F60000F931F93CF93DF931F92CDB7DEB76C0112
:101F7000062FF42E10E0121754F4412F4F0D602F4E
:101F8000C60129830E9406031F5F2981F4CF0F90A9
:101F9000DF91CF911F910F91FF90DF90CF90089527
:101FA000CF92DF92FF920F931F93CF93DF931F92F5
:101FB000CDB7DEB76C01062FF42E10E0121754F4E3
:101FC000612F600F4F2DC60129830E9406031F5FFA
:101FD0002981F4CF0F90DF91CF911F910F91FF9046
:101FE000DF90CF900895DF92EF92FF920F931F93AF
:101FF000CF93DF93EC01E62ED22EF42E112707FDAE
:102000001095040F111D47FD1A958F2D992787FDF7
:1020100090958017910744F42D2D4F2D6E2DCE01F4
:102020000E94D00FF394F1CFDF91CF911F910F91C8
:10203000FF90EF90DF900895AF92BF92CF92DF9222
:10204000EF92FF920F931F93CF93DF93EC01162F24
:10205000F42EE22EA02FBB27A7FDB095A41BB1093B
:1020600047FDB395B7FF03C0B195A195B109EE2D1A
:10207000FF27E7FDF095E11BF10917FDF395F7FF49
:1020800003C0F195E195F109BB24B394EA17FB076E
:1020900014F0B12C06C08E2DE02E082F812F1F2D9D
:1020A000F82EE11634F48F2DF02E082F812F1E2DDF
:1020B000E82ECE2CC11AE02FFF27E7FDF095EF198F
:1020C000F109F7FCF395F7FF03C0F195E195F109EC
:1020D000AE2EDC2CC7FE03C0DD24D394DC0CD594DB
:1020E000F01614F401E00FC00FEF0DC0BB2071F02B
:1020F000412F6F2DCE010E940603DA18D7FE02C0D1
:10210000F00EDC0C1F5FE1168CF703C04F2D612F22
:10211000F1CFDF91CF911F910F91FF90EF90DF9062
:10212000CF90BF90AF9008959F92AF92BF92CF9201
:10213000DF92EF92FF920F931F93CF93DF93EC0107
:10214000062FF42E122FDD24D394D21AC22EC1945E
:10215000CC0C422F4F0D0E9406034F2D411B602FC8
:10216000CE010E940603612F600F4F2DCE010E9409
:102170000603602F611B4F2DCE010E940603E12C48
:10218000E1160CF044C0D7FC04C01150C394C394B2
:10219000DC0CE3948E2D880F8F5FD80E9E2C900E52
:1021A000A12EAF0C4A2D692DCE010E940603B02E40
:1021B000BE184A2D6B2DCE010E940603AF2CA11A2A
:1021C0004A2D692DCE010E9406034A2D6B2DCE01AA
:1021D0000E940603BE2CBF0C4B2D912E900E692D34
:1021E000CE010E9406034B2DB02EB11A6B2DCE01ED
:1021F0000E940603AF2CAE184A2D692DCE010E9415
:1022000006034A2D6B2DCE010E940603B9CFDF9144
:10221000CF911F910F91FF90EF90DF90CF90BF90E3
:10222000AF909F9008958F929F92AF92BF92CF925E
:10223000DF92EF92FF920F931F93CF93DF93EC0106
:10224000E62ED42E122FCC24C394C21AB22EB194EF
:10225000BB0CF12C802F8470A82E802F8270982EBA
:10226000802F8870882E0170F1160CF04DC0C7FCCD
:1022700004C01150B394B394CB0CF3948F2D880FFA
:102280008F5FC80EAA2071F0412F4D0D6F2D6E0D7E
:10229000CE010E9406034F2D4D0D612F6E0DCE0114
:1022A0000E940603992071F04D2D411B6F2D6E0D7C
:1022B000CE010E9406034D2D4F19612F6E0DCE01E8
:1022C0000E940603882071F04F2D4D0D6E2D611B6D
:1022D000CE010E940603412F4D0D6E2D6F19CE01C8
:1022E0000E940603002309F4BFCF4D2D4F196E2D18
:1022F000611BCE010E9406034D2D411B6E2D6F19EF
:10230000CE010E940603B0CFDF91CF911F910F91B4
:10231000FF90EF90DF90CF90BF90AF909F908F9005
:1023200008958F929F92AF92BF92CF92DF92EF92D9
:10233000FF920F931F93CF93DF93EC01B62EA42E41
:10234000122FDD24D394D21AC22EC194CC0CFF24B8
:10235000F394802F8170882E992493949E0C0270A0
:102360008FEF8F0D8117C4F5D7FC04C01150C394B3
:10237000C394DC0C8F2D880F8F5FD80E882099F0C6
:10238000212F220F290D4A2D411B6F2D6B0DCE01E0
:102390000E94AD0F23E02E0D4A2D4F19612F6B0DBA
:1023A000CE010E94AD0F002399F0212F220F290D9D
:1023B0004A2D411B6B2D6F19CE010E94AD0F23E0FA
:1023C0002E0D4A2D4F196B2D611BCE010E94AD0FB2
:1023D000F394E394E394C4CFDF91CF911F910F91D5
:1023E000FF90EF90DF90CF90BF90AF909F908F9035
:1023F00008959F92AF92BF92CF92DF92EF92FF9299
:102400000F931F93CF93DF93EC01B62EF42EA22EE1
:10241000DE2CD194DD0C9D2C920E1E2D160F292D35
:10242000612F0E94D00FCC24CA94C00ECF0C292D4E
:102430004C2D612FCE010E94D00FD00EFE0C2D2D01
:102440004F2D6B2DCE010E94AD0FBA0C6FEF6B0DAF
:102450002D2D4F2DCE010E94AD0F01E02E2D4F2DC1
:10246000612FCE010E941311DE2CD094DB0C02E010
:102470002E2D4F2D6D2DCE010E941311CE1804E08C
:102480002E2D4C2D6D2DCE010E94131108E02E2D06
:102490004C2D612FCE010E941311DF91CF911F911E
:1024A0000F91FF90EF90DF90CF90BF90AF909F90F3
:1024B0000895AF92BF92CF92DF92EF92FF920F9367
:1024C0001F93CF93DF93EC01A62EC42EB22EF02ED5
:1024D0001E2DE194EE0CD12ED60E2E2D2B0D6D2D32
:1024E0000E94F30FFA94FE0CC10E6FEF6A0D6B0D94
:1024F000611BEF2C01E0212F4C2DCE010E94911188
:1025000002E0212F4C2D6D2DCE010E949111DF9103
:10251000CF911F910F91FF90EF90DF90CF90BF90E0
:10252000AF9008956F927F928F929F92AF92BF92D9
:10253000CF92DF92EF92FF920F931F93CF93DF938F
:10254000F901A49031965491FC01F0A064350CF08F
:102550000CC1BB24A7FCB094A62FBB27A7FDB09548
:10256000FD01EA0DFB1D1E161F060CF0FEC04033D8
:102570000CF0FBC0C52E042F112707FD1095E801B4
:10258000C50FD11D57FDDA951C161D060CF0EDC0C8
:10259000E90122969501295F3F4F37FF02C0295F6D
:1025A0003F4F73E0359527957A95E1F747FF0AC0CD
:1025B000C52EC40E209FA001219F500D1124C41BC5
:1025C000D50B40E00C2D112707FD1095040F111DB0
:1025D00047FD1A95013311051CF070E3C72EC41A8C
:1025E00067FD60E0E535F10514F0E4E5F0E01E2F4D
:1025F000FC0174857427862F992787FD9095FC012F
:10260000EA1BFB0BDF015F01F7E0AF22BB24E0E830
:10261000F0E002C0F595E795AA94E2F70E2FB7FD1A
:10262000179653E0B595A7955A95E1F7AC0FBD1FE6
:10263000E42FE77051E001C0550FEA95EAF74595A0
:1026400045954595E4E54E02800D911D1124825675
:102650009C4F40E0DD24C7FCD094BB24B3943327C7
:10266000E42FF0E0EC15FD050CF07FC0FD01E490D7
:10267000F1E0FF1219C0EC01A02EFD01862E881A90
:102680009C2E980C911608F067C09E2C9A2019F089
:102690009880952A9882A69429F43196E4906894BB
:1026A000AA24A7F82196ECCFF1101BC0752E7094C8
:1026B000EC01A02EFD01862E881A9C2E980C9116F6
:1026C00008F04AC09E2C9A2019F098809720988292
:1026D000A69429F43196E4906894AA24A7F8219648
:1026E000ECCFE3E0FE1631F0EC01A02EFD01862ECA
:1026F000881A2EC0752E7094962EEC01A02EFD0126
:102700009116B0F48E2C8A2049F08880692C6726B7
:1027100060FE02C0852A01C087208882A69429F421
:102720003196E4906894AA24A7F893942196E8CF70
:102730007B2512C09E2C9A2019F0988095269882AD
:10274000A69429F43196E4906894AA24A7F82196D7
:102750009C2E980C911670F3550F19F48C5A9F4FBC
:1027600051E04F5FA20FB31F7BCFDF91CF911F913D
:102770000F91FF90EF90DF90CF90BF90AF909F9020
:102780008F907F906F900895DC01FB0184918F5FA3
:1027900014968C9314973196E491EF5F1596EC9311
:1027A00015976E5F7F4F5F967C936E935E9708954B
:1027B000EF920F93CF93DF93EC014E876D872F87B6
:1027C000E98A088B81E0888788A319A28F836EE34A
:1027D00072E0CE010E94C4130E94E00D8CB58F7D83
:1027E0008CBD8CB58C7F81608CBD8DB581608DBDBD
:1027F0008CB58C608CBD61E08E850E940E2161E0FD
:102800008D850E940E2161E08F850E940E218989AD
:1028100018161CF461E00E940E21888918161CF419
:1028200061E00E940E21898918166CF460E00E9414
:1028300047216AE070E080E090E00E94F41F61E0D0
:1028400089890E9447218D85992787FD9095FC01F4
:10285000ED57FA4FE491F0E0EE0FFF1FEF55FA4FFE
:10286000259134913D8B2C8BFC01E159FA4F8491D9
:102870008B8F8E85992787FD9095FC01ED57FA4F38
:10288000E491F0E0EE0FFF1FEF55FA4F25913491E0
:102890003B8B2A8BFC01E159FA4F84918A8F8889FE
:1028A000992787FD9095FC01ED57FA4FE491F0E0F0
:1028B000EE0FFF1FEF55FA4F259134913F8B2E8B72
:1028C000FC01E159FA4F84918C8F8F85992787FD00
:1028D0009095FC01ED57FA4FE491F0E0EE0FFF1FE9
:1028E000EF55FA4F25913491398F288FFC01E1592A
:1028F000FA4F84918D8F61E2CE010E942E0F64E128
:10290000CE010E942E0F8B8587FF02C08FE78B8739
:102910006B856068CE010E942E0F60E2CE010E949E
:102920002E0F6CE0CE010E942E0FCE01DF91CF91D1
:102930000F91EF900C945D0F6F927F928F929F9208
:10294000AF92BF92CF92DF92EF92FF920F931F93BD
:10295000CF93DF93EC01162FF42EB02EE8A0643550
:102960000CF081C08FE284170CF47DC0EC81F0E0A4
:1029700031970E9FC0010F9F900D1124860F911D5E
:1029800067FD9A95181619060CF06DC08D81809F11
:10299000C0011124840F911D47FD9A951816190640
:1029A0000CF061C0A62E962EC22ED12C8A2D811B32
:1029B000992787FD90952C8130E0821793070CF0C2
:1029C00051C0215031098217930779F0C29ED0017E
:1029D000C39EB00DD29EB00D1124A80FB91FEE8D6D
:1029E000FF8DEA0FFB1F749001C0712C8F2C6F2C90
:1029F000282D2F19332727FD30958D8190E028173A
:102A000039076CF570FE11C081E0B81206C0482D80
:102A10006A2DCE010E9406031EC00B2D2B2D462DC4
:102A2000692DCE010E94F30F16C089A198A18917C4
:102A300091F088A381E0B81206C0482D6A2DCE011E
:102A40000E94060307C00B2D2B2D462D692DCE01AC
:102A50000E94F30FE8A276946B0C8394C9CF9B0C71
:102A6000A394A4CFE8A2DF91CF911F910F91FF9083
:102A7000EF90DF90CF90BF90AF909F908F907F901E
:102A80006F9008950F93CF93DF93EC01262F6A3058
:102A900039F42D8198858A85299F800D112422C0C3
:102AA0006D3011F108854A8569850E949C1448851E
:102AB0005C812985549F200D112429878F818823CB
:102AC00099F0332727FD309584E590E0459F8019E4
:102AD00091091124821793073CF49D818A85499FAF
:102AE000800D11248A87198681E090E0DF91CF91D3
:102AF0000F9108958F929F92AF92BF92CF92DF92E3
:102B0000EF92FF92CF93DF93EC01CA8CDB8CC094E1
:102B1000D094E12CF12C0E94D11F4B015C010E944A
:102B2000D11FA50194012095309540955095609551
:102B30007095809590950E94BB269B01AC01C701C2
:102B4000B6010E94BB266B017C0189809A80A12C72
:102B5000B12C0E94D11F680D791D8A1D9B1D6C0D23
:102B60007D1D8E1D9F1DDF91CF91FF90EF90DF9017
:102B7000CF90BF90AF909F908F900C94E1228F9256
:102B80009F92AF92BF92CF92DF92EF92FF920F93FC
:102B90001F93CF93DF93EC015C0186E8A80EB11C74
:102BA000D5018C91882309F44DC08C3018F41CE0B9
:102BB000181B01C010E0FE01EA5AFF4F81E080833C
:102BC0006E01BEE4CB0ED11C60E0C6010E94A50FD1
:102BD0004E01E3E58E0E911CD4018C9103E0080FA9
:102BE0009DE2F92E4F2D481B410F23E0E22E24E5F4
:102BF00060E0C6010E94591261E0C6010E94A50F63
:102C0000F401808103E0080F4F2D481B410F24E59C
:102C100060E0C6010E94F911FE01E95AFF4F84E00D
:102C200080833196D4018C91181B115D1083CC5791
:102C3000DF4F68817981C6010E94E421F50180811E
:102C400081508083DF91CF911F910F91FF90EF9082
:102C5000DF90CF90BF90AF909F908F900895DF92BC
:102C6000EF92FF920F931F93CF93DF93EC018C8D24
:102C70009D8D892B09F49CC08E01025B1F4F40E0A3
:102C800061E0C8010E94A90F85E5FE01EE5AFF4FE1
:102C90009081891B3596808331961082698D6130D1
:102CA00009F462C028F0888D653008F074C06FC0E8
:102CB000CE0185960E94AE1D81E0FE01EA5AFF4FCB
:102CC00080836EE372E0C8010E94C4131D8E1C8EC7
:102CD000FE01EC5AFF4F108238EAD32E7E018AE0C3
:102CE000E80EF11CCE010E94E0168823D9F36DE2B4
:102CF00074E0C8010E94E4216A8D7B8D4AE050E0B7
:102D0000C8010E94DB2268E174E0C8010E94E4214E
:102D10006D2D62956F7070E04AE050E0C8010E942E
:102D2000BF226DE074E0C8010E94E42164E0C701A5
:102D30000E94080F81113CC0DA94A1F660E0CE0138
:102D40000E941A0E83B7817F846083BF83B781603E
:102D500083BF83B7816083BF889583B78E7F83BF2E
:102D600083B78E7F83BFBECFCF58DF4F4881598155
:102D70006A817B814F705527662777274830510538
:102D80006105710510F467E009C068E707C0882392
:102D900079F06B5F03C0882359F06FE2C801DF91BF
:102DA000CF911F910F91FF90EF90DF900C9409222B
:102DB000DF91CF911F910F91FF90EF90DF900895D9
:102DC0008F929F92AF92BF92EF92FF920F931F93B9
:102DD000CF93DF93EC017C0100E8E00EF11CF701DA
:102DE00080809180A280B3800E94C51F95018401DC
:102DF000061B170B280B390BB901A8015E011FE751
:102E0000A10EB11CF501808190E0A0E0B0E08E0140
:102E100005581F4F84179507A607B70750F4F80108
:102E200080819181A281B381892B8A2B8B2B09F020
:102E300040C0F80180819181A281B381892B8A2BC6
:102E40008B2BA9F57E01F5E2EF0EF11CC7010E9464
:102E5000AB1DC7010E94181EC7010E94DC1ECE01D7
:102E60000E94BF15CE010E942F167E012EE4E20EB5
:102E7000F11CC7010E945D0FFE01EC5AFF4F8081DB
:102E8000811103C0C7010E944C0F0E94D11FF8019D
:102E90006083718382839383FE01EB58FF4FC9588F
:102EA000DF4F28813981621B730B7183608380E05F
:102EB00036C00E94C51FF5012081620F711D811D62
:102EC000911DF7016083718382839383FE01EF5824
:102ED000FF4F40815181628173814F5F5F4F6F4F20
:102EE0007F4F4083518362837383F8011082118284
:102EF000128213820E94D11FFE01E958FF4F6083A6
:102F0000718382839383CE010E941E0ECE010A96A6
:102F10000E94D10ECE0148960E94870E81E0DF917B
:102F2000CF911F910F91FF90EF90BF90AF909F9026
:102F30008F9008952F923F924F925F926F927F925F
:102F40008F929F92AF92BF92CF92DF92EF92FF92B9
:102F50000F931F93CF93DF93CDB7DEB763970FB671
:102F6000F894DEBF0FBECDBF6C011B01442EFC01E7
:102F7000EC5AFF4F1082842F90E0FB01E80FF91FFD
:102F80003197108230E3398734E53A8722E0622EA8
:102F9000712C512C560143E5A40EB11C460152E59B
:102FA000850E911CD601A25BBF4FBB8BAA8BF6018D
:102FB000E95AFF4FFE83ED839601285A3F4F388729
:102FC0002F839C878B8701979E878D87C6010E94E0
:102FD000E0168823D9F38601065F1F4F44E063E0C3
:102FE000C8010E94110F882329F06394C6018596B9
:102FF0000E94581F44E061E0C8010E94110F88231D
:1030000029F06A94C60185960E94581F44E062E048
:10301000C8010E94110F882329F07394C601859678
:103020000E94581F44E060E0C8010E94110F8823ED
:1030300029F07A94C60185960E94581F30E17316D4
:1030400029F077FE04C08FE0782E01C0712C48E093
:10305000641629F067FE04C0B7E06B2E01C0612C36
:10306000D5013C91F40120812095279D202D11242C
:10307000295DFA858F2F992787FD9095820F911DE5
:1030800027FD9A9597FD0196AC01559547955A8372
:10309000498359815F875A8724E1231B3095369DE8
:1030A000200D11243985832F992787FD9095820F54
:1030B000911D27FD9A9597FD0196AC015595479571
:1030C0005C834B835B81588B598764E0C8010E9405
:1030D000080F882351F1E52DFF27E7FDF0954D8579
:1030E0005E85E417F50794F4872D50E1659E800D09
:1030F0001124882309F46ACF8A3009F467CF8D3010
:1031000009F464CFE20DF31D808311825394C6014C
:1031100085960E942C1F852D992787FD9095AB855C
:10312000BC85A817B9070CF4542C65E0C8010E94AF
:10313000080F882379F05A94C60185960E94421F91
:1031400057FC07C0F101E50DF11D57FCFA951082FF
:1031500001C0512C66E0C8010E94080F882309F4C1
:1031600047C07601B5E2EB0EF11CC7010E942C1F8F
:10317000C6010E94E0168823D9F36EE574E08A89BF
:103180009B890E941422B1018A899B890E9407228F
:103190006DE474E08A899B890E94142264E0C8016E
:1031A0000E94080F8823D9F0C70163960FB6F894E0
:1031B000DEBF0FBECDBFDF91CF911F910F91FF906A
:1031C000EF90DF90CF90BF90AF909F908F907F90C7
:1031D0006F905F904F903F902F900C942C1F65E064
:1031E000C8010E94080F882319F2C7010E94421FDC
:1031F00030E0F12C10E0212F230FF50180814F2DBD
:10320000F89E400D11245889450FD4018C91612FEF
:10321000189F600D11245F85650F01E08A899B89E5
:10322000398B0E949C141F5F3989103121F7F39468
:10323000305F88E0F812DECFD4018C911AEFB981AB
:10324000819FB00D11248B2F8250ED81FE818083F0
:10325000D5018C918F5FBB818B0FEF81F8858083C7
:1032600067E474E08A899B890E94E421D4018C91EF
:10327000B981819FB00D11248B2F8250ED81FE8189
:103280008083D5018C91880F8E5FBB818B0FEF817E
:10329000F885808361E474E08A899B890E94E42137
:1032A000D4018C91B981819FB00D11248B2F825054
:1032B000ED81FE818083D5018C9190E00196982F5D
:1032C000990F980FBB819B0FEF81F88590836BE37B
:1032D00074E08A899B890E94E42160E08A899B8945
:1032E0000E94A50FD5018C91462D689E400D11249A
:1032F0004250BB814B0FF4018081672D789E600D99
:1033000011246150F9816F0F27E08A899B890E94FF
:10331000D00F61E08A899B890E94A50FD5013C915D
:10332000F4012081E22FF0E005E0030F2E5FCF01D2
:10333000019762E070E00E94EB26280F462D639E05
:10334000400D112443503B81430F672D7E9E600D3D
:10335000112462505981650FE3E0EE2E8A899B8922
:103360000E94F9114EE2D5018C91481B24E560E0E2
:103370008A899B890E94D00F60E08A899B890E947C
:10338000A50FF501808101E0080F4FE2481B24E5FD
:1033900060E08A899B890E94F30FAD81BE811C92F7
:1033A00010E3F5018081F12FF81BAF81B885FC9304
:1033B00061E08A899B890E94A50FB1018A899B8956
:1033C0000E940722F601EF58FF4F80819181A28170
:1033D000B38187709927AA27BB270497A105B10558
:1033E00008F0F4CD852D992787FD9095ED85FE8514
:1033F0008E179F070CF0EACDD5018C91412F481B09
:10340000F4016081569E602D112401E02FE58A8928
:103410009B890E949C14DACD0F931F93CF93DF9367
:103420008C01EC01C25BDF4FCE010E944C0F65EEB8
:1034300073E0CE010E94E421CE010E945D0F8CB5A5
:1034400083608CBD8DB58E7F8DBD82EA92E0EEEFFC
:10345000FFE30995F801EC5AFF4F108260EC73E02E
:10346000CE010E941422CE010E945D0F065F1F4F05
:10347000C8010E94D10E64E0C8010E94080F8111AA
:1034800007C062E370E080E090E00E94F41FF0CF9C
:10349000DF91CF911F910F9108952F923F924F92FC
:1034A0005F926F927F928F929F92AF92BF92CF92D4
:1034B000DF92EF92FF920F931F93CF93DF93CDB7DD
:1034C000DEB729970FB6F894DEBF0FBECDBF998740
:1034D00088871B012A013C0180E7680E711CF301FB
:1034E0008081882309F402C181E0E885F985EA5AE0
:1034F000FF4F8083E885F985EB5AFF4F1082E885FE
:10350000F985EC5AFF4F1082E885F985108E8F01FE
:10351000025B1F4F61E0C8010E94A50F8885998555
:103520008D5A9F4F9C838B83C884D98497E5C90E9D
:10353000D11CE884F984E8E5EE0EF11C88859985B4
:103540008E5A9F4F9A838983E885F985EF58FF4FFC
:10355000FE83ED8388849984FAE08F0E911CA88401
:10356000B98485E2A80EB11C888599850E94E01671
:103570008823D1F3F1018491882321F0EB81FC8130
:10358000508101C050E020E834E040E060E0C80134
:103590005F830E9492125F814114510439F04CE024
:1035A000450F920160E0C8010E949212F60110825C
:1035B0008CE0F7018083B101C8010E94E421E98118
:1035C000FA819081892F880F890F81958D5AF60194
:1035D0008083EB81FC819081892F880F890F8195F1
:1035E000835DF7018083ED81FE81808184FF03C0CC
:1035F0006BE774E002C067E774E0C8010E94142220
:10360000E981FA819081892F880F890F81958D5AE0
:10361000F6018083F70180818F5F8083E885F985DB
:1036200082A5882319F063E774E002C06FE674E0B6
:10363000C8010E941422E981FA819081892F880FA4
:10364000890F81958D5AF6018083F70180818F5F04
:1036500080836BE674E0C8010E94142265E0C40117
:103660000E94080F882351F0E885F98562A56F5FF5
:10367000C5010E946E1FC5010E94581F64E0C4016D
:103680000E94080F811113C0F3012081822F90E066
:10369000A0E0B0E0ED81FE814081518162817381C3
:1036A000481759076A077B07A8F02F3F99F08FEF5B
:1036B000F3018083088519850B5D1F4F60E0C80109
:1036C0000E94551DC8010E942C1F81E0E885F985E4
:1036D000808F0CC066E0C4010E94080F882309F4A3
:1036E00043CF888599850E940C1A34CF29960FB64E
:1036F000F894DEBF0FBECDBFDF91CF911F910F9128
:10370000FF90EF90DF90CF90BF90AF909F908F9001
:103710007F906F905F904F903F902F900895AB01F6
:103720006FE774E00C944D1AE0E8F7E725913491C7
:1037300081E02130304C09F080E00895CF93DF9391
:10374000EC010E94941B9E01275A3F4FDE01A059B5
:10375000BF4F882309F43CC0E6E9F7E78491F901FB
:103760008083E7E9F7E7E491EC83E8E9F7E7E491A0
:10377000ED83E9E9F7E7859194919F838E83EBE9E7
:10378000F7E78591949199878887EDE9F7E7E491C8
:10379000EBA7EEE9F7E7E491EAA7EFE9F7E7E491B1
:1037A000EC93E0EAF7E7859194919D8F8C8FE2EAA4
:1037B000F7E7859194919F8F8E8FE4EAF7E78591E3
:1037C000949199A388A3E6EAF7E78591949120C0A4
:1037D0008CE3F90180831C822FEF2D8380E293E03C
:1037E0009F838E8384ED93E09987888781E08BA700
:1037F0008AA72C938CEA9DE09D8F8C8F8EED9DE0A7
:103800009F8F8E8F84E79EE099A388A38CE39FE02F
:103810009BA38AA3DF91CF910895CF92DF92EF927D
:103820000F93CF93DF93EC01FC01E158FF4F82E34C
:103830008083349741E050E060E070E04083518342
:10384000628373833B978FEF8083CE010E949E1B20
:10385000CE010E94160E6FEFCE010E941A0E6E016D
:103860008AE0C80ED11CC6010E94C10EC6010E948A
:10387000D10ECE0148960E947D0E3EE0E32E0FE071
:1038800020E14BE06DE0CE01825B9F4F0E94D81398
:10389000A596CE010E94C11C65E0C6010E94080FDA
:1038A000882351F060E0CE01DF91CF910F91EF902E
:1038B000DF90CF900C946E1F40E060EF74E0CE017B
:1038C000DF91CF910F91EF90DF90CF900C94601D1E
:1038D000CF93DF9300D0CDB7DEB769837A830E94A0
:1038E000941B69817A81882351F0DB01EBE8F7E7CB
:1038F00084918D933196E53987E7F807C9F70F90E2
:103900000F90DF91CF910895CF93DF9350E0FA01AC
:10391000EE0FFF1FE80FF91F37852089E32FF22FE5
:10392000E60FF11DE60FF11D25913491FA01EE0F1E
:10393000FF1FE80FF91F30A3278FF90165917491DC
:10394000FC01D481D69FC02D1124E40FF51FC1A323
:10395000F901A591B4916B2F70E0EC2FF0E0DC0140
:10396000A40FB51F6E177F0720F4F901259134913C
:10397000C32FCD9FC02D11249296CC93DF91CF9170
:10398000089521E0FC01248324E020A72FE435E002
:10399000308B278740E060E00E94841C61E070E08B
:1039A00083E00E948620E1EBF0E08081887F8160E7
:1039B0008083F89410928000E1E8F0E01082109289
:1039C00085001092840088E191E0909389008093B3
:1039D0008800808188608083808181608083EFE6B9
:1039E000F0E0808182608083789408950F93FC01D9
:1039F000862F642F011129C08230D1F048F488232A
:103A000091F0813011F540E0CF010F910C94841CAE
:103A10008330A9F08430C9F48481489F602D11243B
:103A2000658F268F12C04B3008F06AE0668B0DC0A0
:103A30008481489F602D1124618F228F06C084816C
:103A4000489F602D1124638F248F0F910895FC01EE
:103A500021110EC0648B8481489F402D1124458B19
:103A600015A214A213A281E0878B8093A205108E69
:103A700008958091A205882319F080919F0501C0C7
:103A800080E08093B4000895FC0161110DC0178A95
:103A9000158A14A213A2108E10929F051092A005F1
:103AA0001092A2050C94391D0895CF93DF93EC0179
:103AB000611103C00E94441D1982DF91CF910895C6
:103AC0000F931F93CF93DF93EC018B0141110EC035
:103AD00060E00E94551D1E870D871B8A1A8A81E0AF
:103AE000898389E08E8B198E1B8E1D8EDF91CF917D
:103AF0001F910F910895CF93DF93EC01611128C0BE
:103B00008881882329F18981811122C089852F81AB
:103B10009885E22FF92FE80FF11DE80FF11D85912F
:103B200094918F3F2FEF920711F4188211C09C8758
:103B30009927880F991FEA85FB85E80FF91F659182
:103B4000749140E0CE010E94601D89858F5F898756
:103B5000DF91CF91089560E00C947B1D60E00C94A0
:103B6000551D0F93CF93DF93EC0161115DC08981E7
:103B7000882309F459C08D89811156C02D853E8551
:103B80008A899B89880F991F820F931FFC01859159
:103B900094910097D1F48989882321F01B8A1A8A8D
:103BA000F90111C01982888160E0882331F0CE01CB
:103BB0000E947B1D8A899B8925C0CE01DF91CF9110
:103BC0000F910C94441D85919491BC017695679555
:103BD0007695679580FF1DC0AC01A6E05695479588
:103BE000AA95E1F7292F26952695269520514F7104
:103BF0006F7000E0CE010E94F61C8A899B890196B5
:103C00009B8B8A8B880F991FED85FE85E80FF91F26
:103C1000DACF492F6F7320E0CE010E94271D8A89D9
:103C20009B8901969B8B8A8BDF91CF910F91089591
:103C300060E00C94B11DCF93DF93EC016111B9C02A
:103C40008F89882309F4B5C08D89811105C0CE0103
:103C5000DF91CF910C94441D81508D8B8DA18111EA
:103C600038C08BA19CA101969C01220F331FEF8DC0
:103C7000F8A1E20FF31F25913491422F47704EA314
:103C8000A90163E0569547956A95E1F7BA017695E3
:103C90006795232F269526952FA36F732C81629FFE
:103CA000602D11246DA3417040939E059CA38BA3AE
:103CB00029A130E08217930760F08AA1882329F0B8
:103CC000281B31093CA32BA304C060E0CE010E9455
:103CD000441D8DA181508DA3288D2F5F288F4C8985
:103CE0003FA1340F8C85380F3A836B8D662361F0CA
:103CF00070E0822F992787FD90950E94EB268C8D8E
:103D0000869F300D11243A838A8190E0CB966BE335
:103D100070E00E94EB268A833E893B83698D66238F
:103D200071F0772767FD7095822F992787FD909511
:103D30000E94EB268A8D869F300D11243B836D8D6A
:103D4000662391F0822F992787FD909570E00E945D
:103D5000EB26CB0162E070E00E94EB262E8D9B816A
:103D6000289F900D11249B838B814F3339F08A302B
:103D70000CF089E087FD80E08B8301C01B82F89402
:103D8000EA81F0E0E250FB4FE491E093A10598A5B1
:103D90008D81989F802D11249B81899F802D1124D6
:103DA0009EA1899F802D11248093A00580939F055B
:103DB0007894DF91CF91089560E00C941B1E609180
:103DC000A005662321F18091A3058F5F8093A30551
:103DD0009091A1058917D8F08091A20591E08927DB
:103DE0008093A2051092A30580919E05882369F017
:103DF00090917A0283E4989F802D1124895B8093AF
:103E00007A020E94CB2690939F050C94391D089549
:103E10001F920F920FB60F9211242F933F934F933F
:103E20005F936F937F938F939F93AF93BF93EF9322
:103E3000FF930E94DF1EFF91EF91BF91AF919F9181
:103E40008F917F916F915F914F913F912F910F9043
:103E50000FBE0F901F901895CF93DF93EC0160E099
:103E60000E94551D87E495E09E878D871B8A1A8ADC
:103E700081E0898389E08E8B198E1B8E1D8EDF91E8
:103E8000CF910895CF93DF93EC0160E00E94551D20
:103E90008FE395E09E878D871B8A1A8A81E089834C
:103EA00089E08E8B198E1B8E1D8EDF91CF91089528
:103EB000CF93DF93EC0160E00E94551D89E395E00C
:103EC0009E878D871B8A1A8A81E0898389E08E8B81
:103ED000198E1B8E1D8EDF91CF910895FC01862FC8
:103EE000992787FD9095668170E06F5F7F4F0E94F4
:103EF000EB26858308951F920F920FB60F9211241F
:103F00002F933F938F939F93AF93BF938091A5057A
:103F10009091A605A091A705B091A8053091A405A0
:103F200023E0230F2D3720F40196A11DB11D05C0FC
:103F300026E8230F0296A11DB11D2093A4058093AE
:103F4000A5059093A605A093A705B093A805809119
:103F5000A9059091AA05A091AB05B091AC05019679
:103F6000A11DB11D8093A9059093AA05A093AB054F
:103F7000B093AC05BF91AF919F918F913F912F91DD
:103F80000F900FBE0F901F9018952FB7F894609167
:103F9000A5057091A6058091A7059091A8052FBF52
:103FA00008953FB7F8948091A9059091AA05A09132
:103FB000AB05B091AC0526B5A89B05C02F3F19F005
:103FC0000196A11DB11D3FBF6627782F892F9A2F1B
:103FD000620F711D811D911D42E0660F771F881FC2
:103FE000991F4A95D1F708958F929F92AF92BF92F1
:103FF000CF92DF92EF92FF926B017C010E94D11F62
:104000004B015C01C114D104E104F104F1F00E9400
:1040100064230E94D11F681979098A099B09683EA7
:1040200073408105910570F321E0C21AD108E108BF
:10403000F10888EE880E83E0981EA11CB11CC11403
:10404000D104E104F10429F7DDCFFF90EF90DF9078
:10405000CF90BF90AF909F908F900895789484B543
:10406000826084BD84B5816084BD85B5826085BD74
:1040700085B5816085BDEEE6F0E08081816080835A
:10408000E1E8F0E01082808182608083808181603D
:104090008083E0E8F0E0808181608083E1EBF0E004
:1040A000808184608083E0EBF0E0808181608083A8
:1040B000EAE7F0E080818460808380818260808391
:1040C0008081816080838081806880831092C100BC
:1040D00008958E3008F08E50877020917B0290E416
:1040E000299F90011124822B80937C0080917A007B
:1040F000806480937A0080917A0086FDFCCF809165
:1041000078002091790090E0922B08951F93CF932F
:10411000DF93182FEB0161E00E940E21209711F42C
:1041200060E004C0CF3FD10539F461E0812FDF9119
:10413000CF911F910C944721E12FF0E0E55AFA4FFF
:10414000E491E330F9F048F4E130B9F0E230A1F560
:1041500084B5806284BDC8BD34C0E730E9F0E83082
:1041600019F1E43049F580918000806280938000ED
:10417000D0938B00C0938A0024C084B5806884BD2E
:10418000C7BD1FC080918000806880938000D0935D
:104190008900C093880015C08091B000806880932A
:1041A000B000C093B3000DC08091B00080628093D6
:1041B000B000C093B40005C0C038D1050CF0B5CF35
:1041C000AFCFDF91CF911F910895833081F028F414
:1041D000813099F08230A1F008958730A9F08830BD
:1041E000B9F08430D1F4809180008F7D03C080913C
:1041F00080008F7780938000089584B58F7702C008
:1042000084B58F7D84BD08958091B0008F7703C001
:104210008091B0008F7D8093B0000895CF93DF939D
:1042200090E0FC01E159FA4F2491FC01ED57FA4F5F
:104230008491882349F190E0880F991FFC01E5558E
:10424000FA4FA591B4918F559A4FFC01C591D49125
:104250009FB7611108C0F8948C91209582238C93AC
:10426000888182230AC0623051F4F8948C91322FF5
:10427000309583238C938881822B888304C0F894A3
:104280008C91822B8C939FBFDF91CF9108950F93D8
:104290001F93CF93DF931F92CDB7DEB7282F30E067
:1042A000F901E55AFA4F8491F901E159FA4F149155
:1042B000F901ED57FA4F04910023C9F0882321F04A
:1042C00069830E94E5206981E02FF0E0EE0FFF1F77
:1042D000EF55FA4FA591B4919FB7F8948C91611165
:1042E00003C01095812301C0812B8C939FBF0F9039
:1042F000DF91CF911F910F910895CF93DF93282FD6
:1043000030E0F901E55AFA4F8491F901E159FA4F89
:10431000D491F901ED57FA4FC491CC2391F081115A
:104320000E94E520EC2FF0E0EE0FFF1FE956FA4F58
:10433000A591B4912C912D2381E090E021F480E0AF
:1043400002C080E090E0DF91CF910895CF92DF929C
:10435000EF92FF920F931F93CF93DF937C016A013B
:10436000EB0100E010E00C151D0571F06991D7011B
:10437000ED91FC910190F081E02DC7010995892B09
:1043800019F00F5F1F4FEFCFC801DF91CF911F9141
:104390000F91FF90EF90DF90CF9008956115710518
:1043A00081F0DB010D900020E9F7AD01415051098A
:1043B000461B570BDC01ED91FC910280F381E02D4F
:1043C000099480E090E00895EF92FF920F931F937D
:1043D000CF93DF938C017B01C0E0D0E0F701EC0FBD
:1043E000FD1F6491662359F0F801A081B181ED9120
:1043F000FC91C8010995892B11F02196EFCFCE01D0
:10440000DF91CF911F910F91FF90EF9008950C9441
:10441000CE21DC01ED91FC910190F081E02D099419
:1044200069EA72E00C94CE210F931F93CF93DF9330
:10443000EC010E94E4218C01CE010E941022800F29
:10444000911FDF91CF911F910F9108958F929F92AD
:10445000AF92BF92DF92EF92FF920F931F93CF9391
:10446000DF93CDB7DEB7A1970FB6F894DEBF0FBECE
:10447000CDBF7C01F42FD52ECB0119A2223008F438
:104480002AE08E010F5D1F4F822E912CA12CB12CA2
:104490006F2F7D2DA50194010E94FF26F22FD32EB0
:1044A000CA01015011096A3014F4E0E301C0E7E3E6
:1044B000E60FD801EC93232B242B252B49F7B801C9
:1044C000C7010E94CE21A1960FB6F894DEBF0FBEA1
:1044D000CDBFDF91CF911F910F91FF90EF90DF90B3
:1044E000BF90AF909F908F900895CF92DF92EF9200
:1044F000FF920F931F93CF93DF93EC016A017B012F
:104500002115310579F4E881F9810190F081E02DE0
:10451000642FDF91CF911F910F91FF90EF90DF906B
:10452000CF9009942A303105E9F477FF1AC06DE283
:104530000E9409228C0144275527BA014C195D09B4
:104540006E097F092AE0CE010E942622800F911F6A
:10455000DF91CF911F910F91FF90EF90DF90CF905F
:1045600008952AE0B701A601CE01DF91CF911F91F6
:104570000F91FF90EF90DF90CF900C9426229A013C
:10458000AB01662757FD6095762F0C947522211597
:10459000310541F4DC01ED91FC910190F081E02DB9
:1045A000642F09940C9426229A01462F50E060E073
:1045B00070E00C94C7229A01AB0160E070E00C94AB
:1045C000C722611571058105910511F00C94B4277E
:1045D0000895CF93DF9300D000D0CDB7DEB79B0115
:1045E000AC01611571058105910569F069833A8314
:1045F0004B835C830E94AF2729813A814B815C8188
:104600000E94212703C060E070E0CB010F900F9063
:104610000F900F90DF91CF9108954F925F926F921C
:104620007F92AF92BF92CF92DF92EF92FF920F9361
:104630001F93CF93DF93CDB7DEB729013A01621BF9
:10464000730B840B950B29893A894B895C892A194C
:104650003B094C095D09298B3A8B4B8B5C8B9B0189
:10466000AC0169897A898B899C890E94BB26E418F0
:10467000F50806091709A80197010E9421272A0DAC
:104680003B1D4C1D5D1DCA01B901DF91CF911F91EA
:104690000F91FF90EF90DF90CF90BF90AF907F9001
:1046A0006F905F904F90089508950E942E200E9471
:1046B00054230E949B06C0E0D0E00E94B10D2097D9
:1046C000E1F30E940000F9CF08955058BB27AA27B4
:1046D0000ED027C2F0D130F0F5D120F031F49F3F59
:1046E00011F41EF4C0C10EF4E095E7FBB6C1E92F4A
:1046F0003AD280F3BA17620773078407950718F058
:1047000071F49EF552C20EF4E0950B2EBA2FA02D37
:104710000B01B90190010C01CA01A0011124FF276E
:10472000591B99F0593F50F4503E68F11A16F04069
:10473000A22F232F342F4427585FF3CF4695379568
:104740002795A795F0405395C9F77EF41F16BA0B2D
:10475000620B730B840BBAF09150A1F0FF0FBB1FDB
:10476000661F771F881FC2F70EC0BA0F621F731F24
:10477000841F48F4879577956795B795F7959E3F81
:1047800008F0B3CF9395880F08F09927EE0F97950F
:104790008795089590D158F080E891E009F49EEF54
:1047A00091D128F040E851E059F45EEF09C05BC1B7
:1047B000FCC1E92FE078D7D168F3092E052AC1F3AF
:1047C000261737074807590738F00E2E07F8E02557
:1047D00069F0E025E0640AC0EF6307F8009407FA87
:1047E000DB01B9019D01DC01CA01AD01EF934AD0A3
:1047F00098D10AD05F91552331F02BED3FE049E489
:1048000050FD49EC63CF0895DF93DD27B92FBF77C3
:1048100040E85FE31616170648075B0710F4D92F28
:10482000CFD19F938F937F936F937CD2E8E6F0E094
:104830001DD177D12F913F914F915F91D4D1DD233D
:1048400049F09058A2EA2AED3FE049EC5FE3D078C6
:104850005D274DDFDF9165C1DCD008F481E008956C
:1048600039D1E3956FC10CD05CC12CD140F023D17C
:1048700030F021F45F3F19F0F0C0511197C1F3C03F
:1048800072D198F39923C9F35523B1F3951B550BB6
:10489000BB27AA2762177307840738F09F5F5F4F13
:1048A000220F331F441FAA1FA9F333D00E2E3AF054
:1048B000E0E830D091505040E695001CCAF729D06E
:1048C000FE2F27D0660F771F881FBB1F26173707BD
:1048D0004807AB07B0E809F0BB0B802DBF01FF27ED
:1048E00093585F4F2AF09E3F510568F0B6C05EC1F5
:1048F0005F3FECF3983EDCF3869577956795B79527
:10490000F7959F5FC9F7880F911D9695879597F941
:104910000895E1E0660F771F881FBB1F62177307BA
:104920008407BA0720F0621B730B840BBA0BEE1FCF
:1049300088F7E095089504D06894B11137C10895BF
:104940001AD188F09F5790F0B92F9927B751A0F04E
:10495000D1F0660F771F881F991F1AF0BA95C9F713
:1049600012C0B13081F021D1B1E008951EC1672F8E
:10497000782F8827B85F39F0B93FCCF386957795C3
:104980006795B395D9F73EF49095809570956195AC
:104990007F4F8F4F9F4F0895E89409C097FB3EF4D7
:1049A00090958095709561957F4F8F4F9F4F99237C
:1049B000A9F0F92F96E9BB279395F69587957795FA
:1049C0006795B795F111F8CFFAF4BB0F11F460FFBA
:1049D0001BC06F5F7F4F8F4F9F4F16C0882311F012
:1049E00096E911C0772321F09EE8872F762F05C026
:1049F000662371F096E8862F70E060E02AF09A95C1
:104A0000660F771F881FDAF7880F9695879597F9B5
:104A10000895990F0008550FAA0BE0E8FEEF16164F
:104A20001706E807F907C0F012161306E407F507A2
:104A300098F0621B730B840B950B39F40A2661F016
:104A4000232B242B252B21F408950A2609F4A140B9
:104A5000A6958FEF811D811D089597F99F6780E8C6
:104A600070E060E008959FEF80EC0895DF93CF93AE
:104A70001F930F93FF92EF92DF927B018C0168945A
:104A800005C0DA2EEF01AFD0FE01E894A591259183
:104A9000359145915591AEF3EF0129DEFE01970165
:104AA000A801DA9479F7DF90EF90FF900F911F91B2
:104AB000CF91DF91089500240A9416161706180660
:104AC0000906089500240A94121613061406050612
:104AD0000895C9CF50D0E8F3E894E0E0BB279F5792
:104AE000F0F02AED3FE049EC06C0EE0FBB0F661F69
:104AF000771F881F28F0B23A62077307840728F0EF
:104B0000B25A620B730B840BE3959A9572F7803857
:104B100030F49A95BB0F661F771F881FD2F7904815
:104B200006C1092E0394000C11F4882352F0BB0F28
:104B300040F4BF2B11F460FF04C06F5F7F4F8F4FB5
:104B40009F4F0895EF93E0FF06C0A2EA2AED3FE0F1
:104B500049EC5FEBCCDDE5DF0F90039401FC90584E
:104B6000E5E9F0E0F7C057FD9058440F551F59F0A4
:104B70005F3F71F04795880F97FB991F61F09F3F4A
:104B800079F087950895121613061406551FF2CF73
:104B90004695F1DF08C0161617061806991FF1CFC3
:104BA00086957105610508940895E894BB276627EA
:104BB0007727CB0197F908952CDF08F48FEF08953C
:104BC0009B01AC0160E070E080E89FE34CCE0BD02D
:104BD000A8CF71DF28F076DF18F0952309F03DCFDC
:104BE00042CF1124E3CFBFDFA0F3959FD1F3950F00
:104BF00050E0551F629FF001729FBB27F00DB11D61
:104C0000639FAA27F00DB11DAA1F649F6627B00DF0
:104C1000A11D661F829F2227B00DA11D621F739FD9
:104C2000B00DA11D621F839FA00D611D221F749FE7
:104C30003327A00D611D231F849F600D211D822F2E
:104C4000762F6A2F11249F5750408AF0E1F0882375
:104C50004AF0EE0FFF1FBB1F661F771F881F915082
:104C60005040A9F79E3F510570F0F7CE9FCF5F3FB0
:104C7000ECF3983EDCF3869577956795B795F795B5
:104C8000E7959F5FC1F7FE2B880F911D969587953D
:104C900097F908959F931EDF0F9007FCEE5F52CFA8
:104CA00011F40EF4E0CE41C066DFD0F39923D9F3BE
:104CB000CEF39F57550B87FF46D00024A0E640EA6D
:104CC000900180585695979528F4805C660F771F61
:104CD000881F20F026173707480730F4621B730B34
:104CE000840B202931294A2BA69517940794202557
:104CF00031254A2758F7660F771F881F20F026179F
:104D00003707480730F4620B730B840B200D311DFD
:104D1000411DA09581F7B901842F9158880F969570
:104D2000879508959B01AC0152CF9F3F31F0915080
:104D300020F4879577956795B795880F911D96957F
:104D4000879597F9089591505040660F771F881FF7
:104D5000D2F708959F938F937F936F93FF93EF9371
:104D60009B01AC0134DFEF91FF9180DE2F913F91E9
:104D70004F915F912CCFDB018F939F930E9440272F
:104D8000BF91AF91A29F800D911DA39F900DB29FE7
:104D9000900D11240895991B79E004C0991F96176E
:104DA00008F0961B881F7A95C9F780950895AA1B6D
:104DB000BB1B51E107C0AA1FBB1FA617B70710F006
:104DC000A61BB70B881F991F5A95A9F78095909538
:104DD000BC01CD01089597FB072E16F4009407D06F
:104DE00077FD09D00E94D72607FC05D03EF49095A8
:104DF00081959F4F0895709561957F4F0895A1E229
:104E00001A2EAA1BBB1BFD010DC0AA1FBB1FEE1F44
:104E1000FF1FA217B307E407F50720F0A21BB30B8F
:104E2000E40BF50B661F771F881F991F1A9469F70B
:104E300060957095809590959B01AC01BD01CF0167
:104E40000895052E97FB1EF400940E94382757FD05
:104E500007D00E94FF2607FC03D04EF40C9438279D
:104E600050954095309521953F4F4F4F5F4F089596
:104E700090958095709561957F4F8F4F9F4F0895C6
:104E80000E945127A59F900DB49F900DA49F800D67
:104E9000911D11240895EE0FFF1F0590F491E02D50
:104EA0000994A29FB001B39FC001A39F700D811D03
:104EB0001124911DB29F700D811D1124911D089523
:104EC0008F929F92AF92BF92CF92DF92EF92FF921A
:104ED000CF93DF93EC01688179818A819B81611591
:104EE00071058105910521F464E279ED8BE597E088
:104EF0002DE133EF41E050E00E94212749015A01A2
:104F00009B01AC01A7EAB1E40E9440276B017C0140
:104F1000ACEEB4EFA50194010E94DD27C60ED71EAA
:104F2000E81EF91EF7FE06C081E0C81AD108E108A4
:104F300080E8F80AC882D982EA82FB82C701B601FA
:104F40009F77DF91CF91FF90EF90DF90CF90BF9050
:104F5000AF909F908F9008950E946027089586E0FB
:104F600091E00E9460270895609306017093070105
:104F700080930801909309010895FB01DC010190E1
:104F80000D920020E1F70895F999FECF92BD81BD01
:104F9000F89A992780B50895262FF999FECF1FBA60
:104FA00092BD81BD20BD0FB6F894FA9AF99A0FBE52
:104FB00001960895B7FF0C9440270E944027821B5A
:084FC000930B0895F894FFCF54
:104FC8000000AD058000010000000000C84200009C
:104FD800C8420000C8420000C8420000C8420000A1
:104FE800C8420000C8420000C8420000C842000091
:104FF800C8420000C8420000C8420000C842000081
:10500800C8420000C8420000C8420000C842000070
:10501800C8420000C8420000C8420000C842000060
:10502800C8420000C8420000C8420000C842000050
:10503800C8420000C8420000C8420000C842000040
:10504800C8420000C8420000C8420000C842000030
:10505800C8420000C8420000C8420000C842000020
:10506800C8420000C8420000C842646464646464C2
:1050780064646464CDCC4C3E0105646400006464DF
:1050880000006464000064640000646400006464F8
:1050980000006464000064640000646400006464E8
:1050A80000000000C8420000C842000000000000E4
:1050B800C8420000C842000000000000C8420000CA
:1050C800C842000000000000C8420000C8420000BA
:1050D80000000000C8420000C842000000000000B4
:1050E800C8420000C842000000000000C84200009A
:1050F800C842000000000000C8420000C84200008A
:1051080000000000C8420000C84200000000000083
:10511800C8420000C842000000006464646464641B
:1051280064646464646464646464646464640A0AEB
:10513800182A010101010101010101010014050101
:105148000100190501FF010A0501FF010A0200001B
:1051580001020A01FF00140E03FF000000004215BF
:10516800A6214C4F41444552000D0A006E616E0065
:0A517800696E66006F7666002E0077
:00000001FF
