:100000000C940A020C9432020C9432020C943202C8
:100010000C9432020C9432020C9432020C94320290
:100020000C9432020C9432020C9432020C94C513DC
:100030000C9432020C9432020C9432020C94320270
:100040000C9422140C9432020C9432020C9432025E
:100050000C9432020C9432020C9432020C94320250
:100060000C9432020C943202084AD73B3BCE016E0C
:1000700084BCBFFDC12F3D6C74319ABD56833DDAFF
:100080003D00C77F11BED9E4BB4C3E916BAAAABE0E
:10009000000000803F05A84CCDB2D44EB93836A937
:1000A000020C50B9918688083CA6AAAA2ABE000074
:1000B00000803F0041726D61676564646F6E000887
:1000C0000818181824244242810808000000002261
:1000D000767EFF03053F213F1208120A100A0E1C0C
:1000E0000E0C1E0C141A14161F161E131E1E1B1E99
:1000F0001E1F1E3F213F3A2F3A173D173F213F1841
:100100001F02040A041F0E04040E1F0A1F0A0E0E0B
:100110001F04110E2E252E2F2A2E262929021F02FA
:10012000081F08150E04040E150E15151B151B04CB
:100130000604040C040000000017000300031F0A5B
:100140001F16371A1904130A153A000300000E117E
:10015000110E000A040A040E040030000404040016
:1001600010001804031F111F121F101D1517111561
:100170001F07041F17151D1F151D01011F1F151F28
:1001800017151F000A00003200040A110A0A0A119A
:100190000A040115020E11171E051E1F150A0E1165
:1001A0000A1F110E1F15111F05010E111D1F041F1F
:1001B000111F1108100F1F041B1F10101F061F1EF8
:1001C000040F0E110E1F09060E112E1F051A12150F
:1001D00009011F011F101F0F180F1F0C1F1B041BED
:1001E000031C03191513001F11030418111F00022B
:1001F00001022020200001020C121E1F120C0C1202
:10020000120C121F0C1A14041E05242A1E1F021C95
:10021000141D1020201D1F0814111F101E041E1E67
:10022000021C0C120C3E0A040C123E1E0402141690
:100230000A020F120E101E0E100E1E081E120C12B5
:1002400026281E322A26041E21001F00211E04011A
:1002500002013F213F0A4E6F2053442063617264C4
:10026000206F720A6E6F204C4F414445522E484514
:10027000580A0A153A45786974001D20466C617366
:1002800068696E670A20206C6F616465722E2E2E7D
:100290000A0A444F4E2754205455524E204F46468A
:1002A00021000A0A153A49676E6F7265006D560A99
:1002B0000A504C45415345205455524E204F464616
:1002C00020004C4F572042415454455259212000A0
:1002D000175344001613780016131400151020004D
:1002E00015201000540A03E181867F3E186D830FAC
:1002F0000F0E0183866033186DC3198F1803C38EE8
:100300006033186DE330CF1803C39E603630CDE301
:1003100060CF3006C79E7E3E30CDB360CF300CC676
:10032000F6603330D9B660CF33CFCCF66061B0DB46
:100330001E60CF30D86CE6C061B0DB1E618F1998AB
:100340006CC6C063B19B0E330F0FB078C6FF7E1F23
:100350001B061E0F05008930080238024978681410
:100360000000F6E8DBCFC3B8AEA49B928A827B7410
:100370006E68625C57524E4945413E3A3734312EE1
:100380002C29272523211F1D1C1A19171615141394
:100390001211100F0E0D0C0B0A0908070645006814
:1003A0000100000500380168010000B303AF03013C
:1003B00001FF030101F70300000008000201000033
:1003C0000304070000000000000000010204081000
:1003D00020408001020408102001020408102004BB
:1003E00004040404040404020202020202030303DC
:1003F0000303030000000023002600290000000082
:1004000000250028002B0000000000240027002AFF
:100410000000210511241FBECFEFD8E0DEBFCDBF05
:1004200011E0A0E0B1E0EEE8F7E302C005900D9224
:10043000AC37B107D9F724E0ACE7B1E001C01D92B9
:10044000A631B207E1F714E0C4E1D4E004C022977A
:10045000FE010E944D1BC231D107C9F70E94CF1780
:100460000C94C51B0C940000DC01643508F053C0EB
:10047000403308F050C090968C919097342F35956A
:1004800035953595E62FFF27E7FDF095242F27704A
:10049000823099F4DF01A95FBD4F84E53802A00DD9
:1004A000B11D11248C9190E0022E02C09595879584
:1004B0000A94E2F78095817009C0833039F44627A9
:1004C0001C968C91482740FF03C014C0811112C0B4
:1004D00084E53802E00DF11D1124E95FFD4F81E054
:1004E00090E0022E01C0880F0A94EAF7809590816F
:1004F000982310C084E53802E00DF11D1124E95F56
:10050000FD4F81E090E0022E01C0880F0A94EAF7C7
:100510009081982B908308958FE791E00E94E610D8
:1005200064EB70E08FE791E00E94691010929701F0
:100530008FE791E00C94C60C0F931F93CF93DF933A
:1005400060917D01615023E040917C018DEC91E050
:100550000E941C0740917C01415023E060917D0185
:100560008DEC91E00E94F906CAE0D1E007E411E0C9
:10057000F80131976081653548F48881853530F020
:10058000F80140818DEC91E00E94340223960E5FC9
:100590001F4FF1E0C832DF0759F7DF91CF911F916C
:1005A0000F910895CF93DF93D2E0C0E0C23011F0F5
:1005B000C53019F42FEB30E002C029EC30E048E2FE
:1005C0006D2F8DEC91E00E94DE09CF5FD65FC830C1
:1005D00069F7DF91CF910895AF92BF92CF92DF92EA
:1005E000EF92FF920F93CF93DF9386E4A82E81E0E2
:1005F000B82E99E2C92E91E0D92E28E2E22E21E010
:10060000F22EC0E0D0E0F50180818535C0F4FE0116
:10061000E65FFE4F8081853590F0FE01E85DFE4F7C
:100620008281F6010081F701208148E2813011F4D6
:100630006AE101C068E38DEC91E00E946807F2E096
:10064000AF0EB11C239683E0C80ED11CE3E0EE0E82
:10065000F11CCE31D105B9F6DF91CF910F91FF900A
:10066000EF90DF90CF90BF90AF900895CF93DF933E
:10067000CCE0D1E0FE0132976081653538F4288105
:10068000319640818DEC91E00E94E007239681E055
:10069000CA32D80779F7DF91CF910895E6E4F1E007
:1006A00020E030E09081953510F1A901440F551FED
:1006B000FA01EA5BFE4F90917D01908390917C015D
:1006C0009183FA01E20FF31FE85DFE4F813019F4C8
:1006D0009AE1908303C088E3808382E08283FA01F9
:1006E000E20FF31FE85DFE4F88E2818308952F5FDC
:1006F0003F4F32962A303105A9F608952F923F9246
:100700004F925F926F927F928F929F92AF92BF9221
:10071000CF92DF92EF92FF920F931F93CF93DF93CD
:10072000CDB7DEB760970FB6F894DEBF0FBECDBF72
:100730007AE0272E71E0372E2CE031E03A832983CE
:1007400068E271E0788B6F8787E491E09C838B830C
:1007500009E211E0EB81FC81319790819D83953511
:1007600008F099C0D1018C91853508F494C0892F87
:1007700090E0EF85F8892081622E712CAB81BC81DD
:10078000BC91B887EB2FF0E0FA87E9879F838E83CF
:1007900086199709BC01882777FD8095982F0E94BC
:1007A0003F199B01AC01D8018C91E985FA85E81BC2
:1007B000F109BF01882777FD8095982F2B873C870B
:1007C0004D875E870E943F192B853C854D855E8550
:1007D0000E9453186B017C010E94A6184B015C011A
:1007E000B301882777FD8095982F0E943F192B0130
:1007F0003C0120E030E040E450E4C501B4010E9437
:10080000301A9B01AC01C301B2010E94E0170E94A3
:100810001119AF85B8896C93C701B6010E94931A6C
:100820004B015C01F801608170E080E090E00E9483
:100830003F196B017C0120E030E040E450E4C50149
:10084000B4010E94301A9B01AC01C701B6010E949D
:10085000E0170E941119D8016C93EF85F889808107
:100860002E813F81281B3109C9010296059798F412
:1008700089859A85861B91090296059760F4ED811A
:10088000D101EC93E981FA81319728852083E1E059
:10089000A981BA81EC93F3E02F0E311C29813A81B2
:1008A0002D5F3F4F3A8329836F8578896D5F7F4F36
:1008B000788B6F878B819C8102969C838B830D5FE5
:1008C0001F4F98E2291691E0390609F043CF609650
:1008D0000FB6F894DEBF0FBECDBFDF91CF911F9151
:1008E0000F91FF90EF90DF90CF90BF90AF909F90CF
:1008F0008F907F906F905F904F903F902F900895D2
:10090000CF93DF9380917E018823C9F0EAE0F1E084
:10091000C6E4D1E0ACE0B1E084E69081953540F4E6
:100920009C91963018F49F5F9C9302C080838883CB
:1009300033962296139691E0E832F90771F7DF912A
:10094000CF9108958FE791E00E942C0E882309F43F
:1009500077C080917E018F5F817080937E0164E01B
:1009600089E891E00E945406882319F081E00E94F2
:100970004E0365E089E891E00E945406882319F04F
:1009800082E00E944E0341E060E089E891E00E942D
:100990005D06882361F020917D01822F90E003970E
:1009A0001CF08EEF820F01C080E080937D0141E05A
:1009B00062E089E891E00E945D06882369F0209159
:1009C0007D01822F90E0823591051CF482E0820F38
:1009D00001C084E580937D0141E061E089E891E018
:1009E0000E945D06882361F020917C01822F90E0B7
:1009F00003971CF08EEF820F01C080E080937C0192
:100A000041E063E089E891E00E945D06882361F09F
:100A100020917C01822F90E08E971CF482E0820F5F
:100A200001C080E380937C010E947E030E948004C9
:100A30000E949C020E94D2020E94EC020C94360397
:100A400008951092D0011092CF0180E691E090932A
:100A5000CE018093CD010895CF93CFB7F8948091C4
:100A60000602811127C0E9EEF3E08491E5EDF3E0A1
:100A70009491E82FF0E0EE0FFF1FE95FFB4FA59187
:100A8000B4918C91892321F461E08AE00E94EE15F3
:100A900061E08AE00E94B5158CB580618CBD8CB593
:100AA00080648CBD61E08DE00E94B51561E08BE053
:100AB0000E94B515809106028F5F80930602CFBF1A
:100AC000CF91089521E0FC012083089570E085E036
:100AD0000C942D15AF92BF92CF92DF92EF92FF92BE
:100AE0000F931F93CF93DF93EC0189819A812FE0BD
:100AF000289F8001299F100D112485E10E94101567
:100B0000800F911F24E0969587952A95E1F79A83A7
:100B100089832881222391F1AC81AD80B12CC12C35
:100B2000D12CE885F9857F0100E010E06E817F819E
:100B30009B0140E050E08617970728F0BC01E817BA
:100B4000F90708F4BF0180E090E01F921F921F9206
:100B5000AF930E9487176B830F900F900F900F90A9
:100B600070E085E0DF91CF911F910F91FF90EF90A2
:100B7000DF90CF90BF90AF900C942D15DF91CF9167
:100B80001F910F91FF90EF90DF90CF90BF90AF90AB
:100B90000895FC018CE39FE09383828384E081834A
:100BA00081E084870895CF93DF93EC018C819D8150
:100BB000892B81F18C858F7151F584E10E9410158C
:100BC000BC01882777FD8095982F0E943F1926EE5B
:100BD0003FE34EEC50E40E94301A0E9411199B0131
:100BE0007B836A836115710581F084E08983FE014E
:100BF00040E0848195812817390710F449830AC0A1
:100C00004F5F32964430A9F702C08FEF89838C85FD
:100C10008F5F8C87DF91CF910895FC0188E08083FE
:100C200089E0818387E0828386E0838384E0848314
:100C300082E0858381E186830895DF92EF92FF92BF
:100C40000F931F93CF93DF937C01EC0100E010E042
:100C5000DD24DA9462E088810E94B51588810E94C3
:100C60002416F701E00FF11F892B21F487818F5F94
:100C7000878308C08781882349F08F3F11F417824A
:100C800001C0D78260E088810E94B5150F5F1F4FB9
:100C9000219607301105F1F6DF91CF911F910F9149
:100CA000FF90EF90DF900895FC01E60FF11D81E0C9
:100CB0009781913009F080E00895262F30E0FC0103
:100CC000E20FF31F8781423028F481508E3F48F0B5
:100CD00080E008958F3FE1F3642F0E94CB1A91309A
:100CE000B9F781E008958EBD00000DB407FEFDCF79
:100CF0008EB508951F93CF93DF93EC01162FF894D0
:100D000060E08F850E94EE15888918161CF460E05B
:100D10000E94EE15812F0E947306888918161CF414
:100D200061E00E94EE157894DF91CF911F910895B4
:100D300028EF31E0E7E0F2E0DF01A9011D92415028
:100D40005040E1F7DC0119961C9219971A961C92F3
:100D50000895DF92EF92FF920F931F93CF93DF934B
:100D6000EC018C858F5F8C8787E0E82E82E0F82E7F
:100D7000D12C6D2D6064CE010E947A0660E8CE0110
:100D80000E947A0661E08F850E94EE158889181608
:100D90001CF460E00E94EE1500E010E0F701E00FA7
:100DA000F11F80810E9473060F5F1F4F04351105EC
:100DB000A9F7888918161CF461E00E94EE15D394F7
:100DC00084E5E80EF11C86E0D812D3CF60E4CE01B2
:100DD000DF91CF911F910F91FF90EF90DF900C94D6
:100DE0007A06FC0160A361A30895FC0160A341A3FE
:100DF0000895CF92DF92FF920F931F93CF93DF93CB
:100E00001F92CDB7DEB76C01062FF42E10E012173B
:100E100054F4412F4F0D602FC60129830E943402E4
:100E20001F5F2981F4CF0F90DF91CF911F910F9118
:100E3000FF90DF90CF900895CF92DF92FF920F93B3
:100E40001F93CF93DF931F92CDB7DEB76C01062FB0
:100E5000F42E10E0121754F4612F600F4F2DC601CD
:100E600029830E9434021F5F2981F4CF0F90DF9104
:100E7000CF911F910F91FF90DF90CF900895DF9257
:100E8000EF92FF920F931F93CF93DF93EC01E62E27
:100E9000D22EF42E112707FD1095040F111D47FDCA
:100EA0001A958F2D992787FD90958017910744F407
:100EB0002D2D4F2D6E2DCE010E941C07F394F1CFE6
:100EC000DF91CF911F910F91FF90EF90DF900895E8
:100ED000AF92BF92CF92DF92EF92FF920F931F9348
:100EE000CF93DF93EC01162FF42EE22EA02FBB2719
:100EF000A7FDB095A41BB10947FDB395B7FF03C08B
:100F0000B195A195B109EE2DFF27E7FDF095E11B05
:100F1000F10917FDF395F7FF03C0F195E195F1098C
:100F2000BB24B394EA17FB0714F0B12C06C08E2D36
:100F3000E02E082F812F1F2DF82EE11634F48F2D6F
:100F4000F02E082F812F1E2DE82ECE2CC11AE02F57
:100F5000FF27E7FDF095EF19F109F7FCF395F7FF8F
:100F600003C0F195E195F109AE2EDC2CC7FE03C05C
:100F7000DD24D394DC0CD594F01614F401E00FC0FA
:100F80000FEF0DC0BB2071F0412F6F2DCE010E94DD
:100F90003402DA18D7FE02C0F00EDC0C1F5FE11637
:100FA0008CF703C04F2D612FF1CFDF91CF911F91AF
:100FB0000F91FF90EF90DF90CF90BF90AF9008958A
:100FC0009F92AF92BF92CF92DF92EF92FF920F93D8
:100FD0001F93CF93DF93EC01062FF42E122FDD2405
:100FE000D394D21AC22EC194CC0C422F4F0D0E9422
:100FF00034024F2D411B602FCE010E943402612F1D
:10100000600F4F2DCE010E943402602F611B4F2DC7
:10101000CE010E943402E12CE1160CF044C0D7FC52
:1010200004C01150C394C394DC0CE3948E2D880F3C
:101030008F5FD80E9E2C900EA12EAF0C4A2D692DDD
:10104000CE010E943402B02EBE184A2D6B2DCE0167
:101050000E943402AF2CA11A4A2D692DCE010E94A4
:1010600034024A2D6B2DCE010E943402BE2CBF0CDF
:101070004B2D912E900E692DCE010E9434024B2DE6
:10108000B02EB11A6B2DCE010E943402AF2CAE18D7
:101090004A2D692DCE010E9434024A2D6B2DCE01BE
:1010A0000E943402B9CFDF91CF911F910F91FF9031
:1010B000EF90DF90CF90BF90AF909F9008958F9268
:1010C0009F92AF92BF92CF92DF92EF92FF920F93D7
:1010D0001F93CF93DF93EC01E62ED42E122FCC2456
:1010E000C394C21AB22EB194BB0CF12C802F847021
:1010F000A82E802F8270982E802F8870882E0170E5
:10110000F1160CF04DC0C7FC04C01150B394B39459
:10111000CB0CF3948F2D880F8F5FC80EAA2071F02F
:10112000412F4D0D6F2D6E0DCE010E9434024F2DBB
:101130004D0D612F6E0DCE010E943402992071F089
:101140004D2D411B6F2D6E0DCE010E9434024D2D91
:101150004F19612F6E0DCE010E943402882071F06C
:101160004F2D4D0D6E2D611BCE010E943402412F7B
:101170004D0D6E2D6F19CE010E943402002309F42B
:10118000BFCF4D2D4F196E2D611BCE010E94340231
:101190004D2D411B6E2D6F19CE010E943402B0CF30
:1011A000DF91CF911F910F91FF90EF90DF90CF9043
:1011B000BF90AF909F908F9008958F929F92AF9223
:1011C000BF92CF92DF92EF92FF920F931F93CF9334
:1011D000DF93EC01B62EA42E122FDD24D394D21A65
:1011E000C22EC194CC0CFF24F394802F8170882EE2
:1011F000992493949E0C02708FEF8F0D8117C4F584
:10120000D7FC04C01150C394C394DC0C8F2D880FFD
:101210008F5FD80E882099F0212F220F290D4A2D9B
:10122000411B6F2D6B0DCE010E94F90623E02E0DA0
:101230004A2D4F19612F6B0DCE010E94F906002334
:1012400099F0212F220F290D4A2D411B6B2D6F196B
:10125000CE010E94F90623E02E0D4A2D4F196B2D69
:10126000611BCE010E94F906F394E394E394C4CF8A
:10127000DF91CF911F910F91FF90EF90DF90CF9072
:10128000BF90AF909F908F9008959F92AF92BF9222
:10129000CF92DF92EF92FF920F931F93CF93DF9342
:1012A000EC01B62EF42EA22EDE2CD194DD0C9D2C5A
:1012B000920E1E2D160F292D612F0E941C07CC2483
:1012C000CA94C00ECF0C292D4C2D612FCE010E9447
:1012D0001C07D00EFE0C2D2D4F2D6B2DCE010E9424
:1012E000F906BA0C6FEF6B0D2D2D4F2DCE010E941C
:1012F000F90601E02E2D4F2D612FCE010E945F08CF
:10130000DE2CD094DB0C02E02E2D4F2D6D2DCE0166
:101310000E945F08CE1804E02E2D4C2D6D2DCE01BD
:101320000E945F0808E02E2D4C2D612FCE010E94F7
:101330005F08DF91CF911F910F91FF90EF90DF90A9
:10134000CF90BF90AF909F900895AF92BF92CF92F1
:10135000DF92EF92FF920F931F93CF93DF93EC01F5
:10136000A62EC42EB22EF02E1E2DE194EE0CD12E00
:10137000D60E2E2D2B0D6D2D0E943F07FA94FE0CDC
:10138000C10E6FEF6A0D6B0D611BEF2C01E0212F79
:101390004C2DCE010E94DD0802E0212F4C2D6D2D39
:1013A000CE010E94DD08DF91CF911F910F91FF9038
:1013B000EF90DF90CF90BF90AF9008956F927F92A3
:1013C0008F929F92AF92BF92CF92DF92EF92FF9255
:1013D0000F931F93CF93DF93F901A490319654910B
:1013E000FC01F0A064350CF00CC1BB24A7FCB09448
:1013F000A62FBB27A7FDB095FD01EA0DFB1D1E160C
:101400001F060CF0FEC040330CF0FBC0C52E042FAD
:10141000112707FD1095E801C50FD11D57FDDA957D
:101420001C161D060CF0EDC0E90122969501295FFE
:101430003F4F37FF02C0295F3F4F73E03595279537
:101440007A95E1F747FF0AC0C52EC40E209FA00180
:10145000219F500D1124C41BD50B40E00C2D1127EA
:1014600007FD1095040F111D47FD1A950133110555
:101470001CF070E3C72EC41A67FD60E0E535F10586
:1014800014F0E4E5F0E01E2FFC0174857427862F2C
:10149000992787FD9095FC01EA1BFB0BDF015F019B
:1014A000F7E0AF22BB24E0E8F0E002C0F595E79555
:1014B000AA94E2F70E2FB7FD179653E0B595A795BE
:1014C0005A95E1F7AC0FBD1FE42FE77051E001C062
:1014D000550FEA95EAF7459545954595E4E54E02A1
:1014E000800D911D1124895F9D4F40E0DD24C7FCD4
:1014F000D094BB24B3943327E42FF0E0EC15FD0522
:101500000CF07FC0FD01E490F1E0FF1219C0EC0186
:10151000A02EFD01862E881A9C2E980C911608F09C
:1015200067C09E2C9A2019F09880952A9882A694DC
:1015300029F43196E4906894AA24A7F82196ECCF78
:10154000F1101BC0752E7094EC01A02EFD01862EAB
:10155000881A9C2E980C911608F04AC09E2C9A204E
:1015600019F0988097209882A69429F43196E490F7
:101570006894AA24A7F82196ECCFE3E0FE1631F098
:10158000EC01A02EFD01862E881A2EC0752E7094B7
:10159000962EEC01A02EFD019116B0F48E2C8A201F
:1015A00049F08880692C672660FE02C0852A01C048
:1015B00087208882A69429F43196E4906894AA241E
:1015C000A7F893942196E8CF7B2512C09E2C9A20F1
:1015D00019F0988095269882A69429F43196E49083
:1015E0006894AA24A7F821969C2E980C911670F363
:1015F000550F19F48C5A9F4F51E04F5FA20FB31F44
:101600007BCFDF91CF911F910F91FF90EF90DF90F3
:10161000CF90BF90AF909F908F907F906F900895E4
:10162000DC01FB0184918F5F14968C9314973196A3
:10163000E491EF5F1596EC9315976E5F7F4F5F9681
:101640007C936E935E970895EF920F93CF93DF9301
:10165000EC014E876D872F87E98A088B81E08887A8
:1016600088A319A28F8363ED70E0CE010E94100B56
:101670000E942C058CB58F7D8CBD8CB58C7F8160D4
:101680008CBD8DB581608DBD8CB58C608CBD61E0ED
:101690008E850E94B51561E08D850E94B51561E0CB
:1016A0008F850E94B515898918161CF461E00E9487
:1016B000B515888918161CF461E00E94B515898952
:1016C00018166CF460E00E94EE156AE070E080E0AD
:1016D00090E00E949B1461E089890E94EE158D853F
:1016E000992787FD9095FC01E152FC4FE491F0E0D1
:1016F000EE0FFF1FE350FC4F259134913D8B2C8B57
:10170000FC01E553FC4F84918B8F8E85992787FDD3
:101710009095FC01E152FC4FE491F0E0EE0FFF1FC9
:10172000E350FC4F259134913B8B2A8BFC01E55310
:10173000FC4F84918A8F8889992787FD9095FC01B9
:10174000E152FC4FE491F0E0EE0FFF1FE350FC4F3D
:10175000259134913F8B2E8BFC01E553FC4F8491F6
:101760008C8F8F85992787FD9095FC01E152FC4F66
:10177000E491F0E0EE0FFF1FE350FC4F2591349110
:10178000398F288FFC01E553FC4F84918D8F61E2E6
:10179000CE010E947A0664E1CE010E947A068B8512
:1017A00087FF02C08FE78B876B856068CE010E9440
:1017B0007A0660E2CE010E947A066CE0CE010E94B9
:1017C0007A06CE01DF91CF910F91EF900C94A9068C
:1017D0006F927F928F929F92AF92BF92CF92DF9241
:1017E000EF92FF920F931F93CF93DF93EC01162F8D
:1017F000F42EB02EE8A064350CF081C08FE284177F
:101800000CF47DC0EC81F0E031970E9FC0010F9F7A
:10181000900D1124860F911D67FD9A9518161906D3
:101820000CF06DC08D81809FC0011124840F911D2B
:1018300047FD9A95181619060CF061C0A62E962E33
:10184000C22ED12C8A2D811B992787FD90952C8142
:1018500030E0821793070CF051C0215031098217F4
:10186000930779F0C29ED001C39EB00DD29EB00DF9
:101870001124A80FB91FEE8DFF8DEA0FFB1F749086
:1018800001C0712C8F2C6F2C282D2F19332727FD89
:1018900030958D8190E0281739076CF570FE11C0E6
:1018A00081E0B81206C0482D6A2DCE010E94340294
:1018B0001EC00B2D2B2D462D692DCE010E943F07FA
:1018C00016C089A198A1891791F088A381E0B81268
:1018D00006C0482D6A2DCE010E94340207C00B2D90
:1018E0002B2D462D692DCE010E943F07E8A276944C
:1018F0006B0C8394C9CF9B0CA394A4CFE8A2DF9177
:10190000CF911F910F91FF90EF90DF90CF90BF90FC
:10191000AF909F908F907F906F9008950F93CF938B
:10192000DF93EC01262F6A3039F42D8198858A8562
:10193000299F800D112422C06D3011F108854A8540
:1019400069850E94E80B48855C812985549F200D9C
:10195000112429878F81882399F0332727FD30951B
:1019600084E590E0459F801991091124821793071F
:101970003CF49D818A85499F800D11248A871986B0
:1019800081E090E0DF91CF910F9108958F929F9227
:10199000AF92BF92CF92DF92EF92FF92CF93DF93FD
:1019A000EC01CA8CDB8CC094D094E12CF12C0E9409
:1019B00078144B015C010E947814A50194012095D4
:1019C00030954095509560957095809590950E94C2
:1019D000BB1A9B01AC01C701B6010E94BB1A6B0187
:1019E0007C0189809A80A12CB12C0E947814680D0A
:1019F000791D8A1D9B1D6C0D7D1D8E1D9F1DDF9108
:101A0000CF91FF90EF90DF90CF90BF90AF909F90DD
:101A10008F900C947F178F929F92AF92BF92CF922C
:101A2000DF92EF92FF920F931F93CF93DF93EC011E
:101A30005C0186E8A80EB11CD5018C91882309F4BD
:101A40004DC08C3018F41CE0181B01C010E0FE01E2
:101A5000EA5AFF4F81E080836E01BEE4CB0ED11CB9
:101A600060E0C6010E94F1064E01E3E58E0E911C76
:101A7000D4018C9103E0080F9DE2F92E4F2D481BF5
:101A8000410F23E0E22E24E560E0C6010E94A50993
:101A900061E0C6010E94F106F401808103E0080FB5
:101AA0004F2D481B410F24E560E0C6010E94450907
:101AB000FE01E95AFF4F84E080833196D4018C9176
:101AC000181B115D1083CC57DF4F68817981C601E7
:101AD0000E948B16F501808181508083DF91CF9128
:101AE0001F910F91FF90EF90DF90CF90BF90AF903C
:101AF0009F908F900895DF92EF92FF920F931F9324
:101B0000CF93DF93EC018C8D9D8D892B09F49CC0C4
:101B10008E01025B1F4F40E061E0C8010E94F506A4
:101B200085E5FE01EE5AFF4F9081891B3596808333
:101B300031961082698D613009F462C028F0888D79
:101B4000653008F074C06FC0CE0185960E946B129C
:101B500081E0FE01EA5AFF4F808363ED70E0C80127
:101B60000E94100B1D8E1C8EFE01EC5AFF4F10823E
:101B700038EAD32E7E018AE0E80EF11CCE010E94E5
:101B80002C0E8823D9F362EC72E0C8010E948B16F8
:101B90006A8D7B8D4AE050E0C8010E9479176DEA9A
:101BA00072E0C8010E948B166D2D62956F7070E017
:101BB0004AE050E0C8010E94641762EA72E0C8017E
:101BC0000E948B1664E0C7010E94540681113CC03C
:101BD000DA94A1F660E0CE010E94660583B7817FAA
:101BE000846083BF83B7816083BF83B7816083BF15
:101BF000889583B78E7F83BF83B78E7F83BFBECF29
:101C0000CF58DF4F488159816A817B814F705527BA
:101C100066277727483051056105710510F467E0A4
:101C200009C068E707C0882379F06B5F03C0882389
:101C300059F06FE2C801DF91CF911F910F91FF9092
:101C4000EF90DF900C94AE16DF91CF911F910F9122
:101C5000FF90EF90DF9008958F929F92AF92BF9286
:101C6000EF92FF920F931F93CF93DF93EC017C01D0
:101C700000E8E00EF11CF70180809180A280B38023
:101C80000E946C1495018401061B170B280B390B5D
:101C9000B901A8015E011FE7A10EB11CF501808109
:101CA00090E0A0E0B0E08E0105581F4F8417950723
:101CB000A607B70750F4F80180819181A281B38112
:101CC000892B8A2B8B2B09F040C0F80180819181F0
:101CD000A281B381892B8A2B8B2BA9F57E01F5E29A
:101CE000EF0EF11CC7010E946812C7010E94D512B5
:101CF000C7010E949913CE010E940B0DCE010E94D4
:101D00007B0D7E012EE4E20EF11CC7010E94A906A4
:101D1000FE01EC5AFF4F8081811103C0C7010E9470
:101D200098060E947814F8016083718382839383FC
:101D3000FE01EB58FF4FC958DF4F28813981621BE4
:101D4000730B7183608380E036C00E946C14F501D0
:101D50002081620F711D811D911DF70160837183C8
:101D600082839383FE01EF58FF4F4081518162814E
:101D700073814F5F5F4F6F4F7F4F4083518362830B
:101D80007383F80110821182128213820E947814E8
:101D9000FE01E958FF4F6083718382839383CE01F4
:101DA0000E946A05CE010A960E941D06CE01489641
:101DB0000E94D30581E0DF91CF911F910F91FF9099
:101DC000EF90BF90AF909F908F9008950F931F93C7
:101DD000CF93DF938C01EC01C25BDF4FCE010E94F9
:101DE00098066AE772E0CE010E948B16CE010E942F
:101DF000A9068CB583608CBD8DB58E7F8DBD84E6C4
:101E000091E0EEEFFFE30995F801EC5AFF4F1082E5
:101E100065E572E0CE010E94B916CE010E94A906C6
:101E2000065F1F4FC8010E941D0664E0C8010E94A2
:101E30005406811107C062E370E080E090E00E94E8
:101E40009B14F0CFDF91CF911F910F9108952F92A6
:101E50003F924F925F926F927F928F929F92AF923A
:101E6000BF92CF92DF92EF92FF920F931F93CF9387
:101E7000DF93CDB7DEB729970FB6F894DEBF0FBE5C
:101E8000CDBF998788871B012A013C0180E7680E36
:101E9000711CF3018081882309F402C181E0E88587
:101EA000F985EA5AFF4F8083E885F985EB5AFF4FA1
:101EB0001082E885F985EC5AFF4F1082E885F98594
:101EC000108E8F01025B1F4F61E0C8010E94F10676
:101ED000888599858D5A9F4F9C838B83C884D9842C
:101EE00097E5C90ED11CE884F984E8E5EE0EF11CF3
:101EF000888599858E5A9F4F9A838983E885F985CD
:101F0000EF58FF4FFE83ED8388849984FAE08F0EAB
:101F1000911CA884B98485E2A80EB11C8885998596
:101F20000E942C0E8823D1F3F1018491882321F0A3
:101F3000EB81FC81508101C050E024EE32E040E0B2
:101F400060E0C8015F830E94DE095F814114510493
:101F500039F04CE0450F920160E0C8010E94DE09B3
:101F6000F60110828CE0F7018083B101C8010E9464
:101F70008B16E981FA819081892F880F890F8195CD
:101F80008D5AF6018083EB81FC819081892F880F27
:101F9000890F8195835DF7018083ED81FE818081CA
:101FA00084FF03C060EE72E002C06CED72E0C80115
:101FB0000E94B916E981FA819081892F880F890FD3
:101FC00081958D5AF6018083F70180818F5F808330
:101FD000E885F98582A5882319F068ED72E002C0D2
:101FE00064ED72E0C8010E94B916E981FA8190811E
:101FF000892F880F890F81958D5AF6018083F7010B
:1020000080818F5F808360ED72E0C8010E94B91605
:1020100065E0C4010E945406882351F0E885F985E3
:1020200062A56F5FC5010E941514C5010E94FF13D0
:1020300064E0C4010E945406811113C0F3012081A1
:10204000822F90E0A0E0B0E0ED81FE8140815181DF
:1020500062817381481759076A077B07A8F02F3FF1
:1020600099F08FEFF3018083088519850B5D1F4F71
:1020700060E0C8010E941212C8010E94E91381E0C9
:10208000E885F985808F0CC066E0C4010E94540683
:10209000882309F443CF888599850E94E60E34CFC2
:1020A00029960FB6F894DEBF0FBECDBFDF91CF915A
:1020B0001F910F91FF90EF90DF90CF90BF90AF9066
:1020C0009F908F907F906F905F904F903F902F9058
:1020D000089540E050E00C94270FE0E8F7E72591E1
:1020E000349181E02130304C09F080E00895CF93A5
:1020F000DF93EC010E946D109E01275A3F4FDE01D5
:10210000A059BF4F882309F43CC0E6E9F7E7849162
:10211000F9018083E7E9F7E7E491EC83E8E9F7E781
:10212000E491ED83E9E9F7E7859194919F838E83AC
:10213000EBE9F7E78591949199878887EDE9F7E7CF
:10214000E491EBA7EEE9F7E7E491EAA7EFE9F7E717
:10215000E491EC93E0EAF7E7859194919D8F8C8F61
:10216000E2EAF7E7859194919F8F8E8FE4EAF7E793
:102170008591949199A388A3E6EAF7E785919491D4
:1021800020C08CE3F90180831C822FEF2D8380E235
:1021900093E09F838E8384ED93E09987888781E025
:1021A0008BA78AA72C938CEA9DE09D8F8C8F8EED58
:1021B0009DE09F8F8E8F84E79EE099A388A38CE398
:1021C0009FE09BA38AA3DF91CF910895CF92DF92E6
:1021D000EF920F93CF93DF93EC01FC01E158FF4F97
:1021E00082E38083349741E050E060E070E0408318
:1021F0005183628373833B978FEF8083CE010E946C
:102200007710CE010E9462056FEFCE010E94660535
:102210006E018AE0C80ED11CC6010E940D06C601DF
:102220000E941D06CE0148960E94C9053EE0E32E9D
:102230000FE020E14BE06DE0CE01825B9F4F0E94FA
:10224000240BA596CE010E947E1165E0C6010E9476
:102250005406882351F060E0CE01DF91CF910F91B9
:10226000EF90DF90CF900C94151440E064E573E09C
:10227000CE01DF91CF910F91EF90DF90CF900C9432
:102280001D12CF93DF9350E0FA01EE0FFF1FE80F0E
:10229000F91F37852089E32FF22FE60FF11DE60F96
:1022A000F11D25913491FA01EE0FFF1FE80FF91F80
:1022B00030A3278FF90165917491FC01D481D69FD9
:1022C000C02D1124E40FF51FC1A3F901A591B4910C
:1022D0006B2F70E0EC2FF0E0DC01A40FB51F6E1740
:1022E0007F0720F4F90125913491C32FCD9FC02D94
:1022F00011249296CC93DF91CF91089521E0FC01B7
:10230000248324E020A72BEA33E0308B278740E0AA
:1023100060E00E94411161E070E083E00E942D15B1
:10232000E1EBF0E08081887F81608083F8941092F7
:102330008000E1E8F0E010821092850010928400A5
:1023400088E191E090938900809388008081886083
:102350008083808181608083EFE6F0E0808182600D
:102360008083789408950F93FC01862F642F0111C8
:1023700029C08230D1F048F4882391F0813011F5E2
:1023800040E0CF010F910C9441118330A9F08430CB
:10239000C9F48481489F602D1124658F268F12C057
:1023A0004B3008F06AE0668B0DC08481489F602D39
:1023B0001124618F228F06C08481489F602D1124D3
:1023C000638F248F0F910895FC0121110EC0648B3F
:1023D0008481489F402D1124458B15A214A213A27D
:1023E00081E0878B80930B04108E089580910B04FD
:1023F000882319F08091080401C080E08093B40024
:102400000895FC0161110DC0178A158A14A213A248
:10241000108E109208041092090410920B040C9470
:10242000F6110895CF93DF93EC01611103C00E9470
:1024300001121982DF91CF9108950F931F93CF93CB
:10244000DF93EC018B0141110EC060E00E9412127B
:102450001E870D871B8A1A8A81E0898389E08E8B0B
:10246000198E1B8E1D8EDF91CF911F910F910895B4
:10247000CF93DF93EC01611128C08881882329F173
:102480008981811122C089852F819885E22FF92FBA
:10249000E80FF11DE80FF11D859194918F3F2FEF0B
:1024A000920711F4188211C09C879927880F991FF1
:1024B000EA85FB85E80FF91F6591749140E0CE0134
:1024C0000E941D1289858F5F8987DF91CF910895C2
:1024D00060E00C94381260E00C9412120F93CF93CA
:1024E000DF93EC0161115DC08981882309F459C033
:1024F0008D89811156C02D853E858A899B89880FDB
:10250000991F820F931FFC01859194910097D1F43C
:102510008989882321F01B8A1A8AF90111C019823E
:10252000888160E0882331F0CE010E9438128A89C8
:102530009B8925C0CE01DF91CF910F910C940112A0
:1025400085919491BC01769567957695679580FF06
:102550001DC0AC01A6E056954795AA95E1F7292F35
:1025600026952695269520514F716F7000E0CE017B
:102570000E94B3118A899B8901969B8B8A8B880F55
:10258000991FED85FE85E80FF91FDACF492F6F738C
:1025900020E0CE010E94E4118A899B8901969B8BE1
:1025A0008A8BDF91CF910F91089560E00C946E12A9
:1025B000CF93DF93EC016111B9C08F89882309F4AF
:1025C000B5C08D89811105C0CE01DF91CF910C94EA
:1025D000011281508D8B8DA1811138C08BA19CA1DE
:1025E00001969C01220F331FEF8DF8A1E20FF31F1C
:1025F00025913491422F47704EA3A90163E056956F
:1026000047956A95E1F7BA0176956795232F269548
:1026100026952FA36F732C81629F602D11246DA3CB
:102620004170409307049CA38BA329A130E082173B
:10263000930760F08AA1882329F0281B31093CA365
:102640002BA304C060E0CE010E9401128DA1815035
:102650008DA3288D2F5F288F4C893FA1340F8C8547
:10266000380F3A836B8D662361F070E0822F9927D3
:1026700087FD90950E94EB1A8C8D869F300D11245A
:102680003A838A8190E0CB966BE370E00E94EB1A6C
:102690008A833E893B83698D662371F0772767FDC6
:1026A0007095822F992787FD90950E94EB1A8A8D4D
:1026B000869F300D11243B836D8D662391F0822F10
:1026C000992787FD909570E00E94EB1ACB0162E09C
:1026D00070E00E94EB1A2E8D9B81289F900D112493
:1026E0009B838B814F3339F08A300CF089E087FD72
:1026F00080E08B8301C01B82F894EA81F0E0EE5900
:10270000FC4FE491E0930A0498A58D81989F802D59
:1027100011249B81899F802D11249EA1899F802D4A
:10272000112480930904809308047894DF91CF9159
:10273000089560E00C94D81260910904662321F199
:1027400080910C048F5F80930C0490910A04891788
:10275000D8F080910B0491E0892780930B041092AC
:102760000C0480910704882369F090915A0183E456
:10277000989F802D1124895B80935A010E94CB1A67
:10278000909308040C94F61108951F920F920FB6BF
:102790000F9211242F933F934F935F936F937F93E7
:1027A0008F939F93AF93BF93EF93FF930E949C13DC
:1027B000FF91EF91BF91AF919F918F917F916F9119
:1027C0005F914F913F912F910F900FBE0F901F90EF
:1027D0001895CF93DF93EC0160E00E94121283EA18
:1027E00093E09E878D871B8A1A8A81E0898389E01E
:1027F0008E8B198E1B8E1D8EDF91CF910895CF93F6
:10280000DF93EC0160E00E9412128DE993E09E8755
:102810008D871B8A1A8A81E0898389E08E8B198EC5
:102820001B8E1D8EDF91CF910895FC01862F992775
:1028300087FD9095668170E06F5F7F4F0E94EB1A75
:10284000858308951F920F920FB60F9211242F9334
:102850003F938F939F93AF93BF9380910E0490917A
:102860000F04A0911004B091110430910D0423E0E5
:10287000230F2D3720F40196A11DB11D05C026E8B8
:10288000230F0296A11DB11D20930D0480930E0409
:1028900090930F04A0931004B0931104809112043C
:1028A00090911304A0911404B09115040196A11DF8
:1028B000B11D8093120490931304A0931404B09359
:1028C0001504BF91AF919F918F913F912F910F90E0
:1028D0000FBE0F901F9018952FB7F89460910E04BB
:1028E00070910F0480911004909111042FBF0895EE
:1028F0003FB7F8948091120490911304A0911404AE
:10290000B091150426B5A89B05C02F3F19F001967C
:10291000A11DB11D3FBF6627782F892F9A2F620F07
:10292000711D811D911D42E0660F771F881F991F41
:102930004A95D1F708958F929F92AF92BF92CF920E
:10294000DF92EF92FF926B017C010E9478144B01A1
:102950005C01C114D104E104F104F1F00E94DE171E
:102960000E947814681979098A099B09683E7340A6
:102970008105910570F321E0C21AD108E108F10840
:1029800088EE880E83E0981EA11CB11CC114D104EE
:10299000E104F10429F7DDCFFF90EF90DF90CF90B5
:1029A000BF90AF909F908F900895789484B5826087
:1029B00084BD84B5816084BD85B5826085BD85B5E3
:1029C000816085BDEEE6F0E0808181608083E1E892
:1029D000F0E01082808182608083808181608083CA
:1029E000E0E8F0E0808181608083E1EBF0E08081CD
:1029F00084608083E0EBF0E0808181608083EAE79F
:102A0000F0E0808184608083808182608083808127
:102A1000816080838081806880831092C1000895E6
:102A20008E3008F08E50877020915B0190E4299FD2
:102A300090011124822B80937C0080917A00806425
:102A400080937A0080917A0086FDFCCF8091780097
:102A50002091790090E0922B08951F93CF93DF93FC
:102A6000182FEB0161E00E94B515209711F460E08A
:102A700004C0CF3FD10539F461E0812FDF91CF91C0
:102A80001F910C94EE15E12FF0E0E954FC4FE49116
:102A9000E330F9F048F4E130B9F0E230A1F584B563
:102AA000806284BDC8BD34C0E730E9F0E83019F178
:102AB000E43049F580918000806280938000D0935B
:102AC0008B00C0938A0024C084B5806884BDC7BDD4
:102AD0001FC080918000806880938000D09389001F
:102AE000C093880015C08091B00080688093B000CA
:102AF000C093B3000DC08091B00080628093B0009D
:102B0000C093B40005C0C038D1050CF0B5CFAFCF2D
:102B1000DF91CF911F910895833081F028F48130A7
:102B200099F08230A1F008958730A9F08830B9F08B
:102B30008430D1F4809180008F7D03C0809180002B
:102B40008F7780938000089584B58F7702C084B515
:102B50008F7D84BD08958091B0008F7703C08091F0
:102B6000B0008F7D8093B0000895CF93DF9390E005
:102B7000FC01E553FC4F2491FC01E152FC4F849190
:102B8000882349F190E0880F991FFC01E95FFB4F12
:102B9000A591B49183509C4FFC01C591D4919FB7EE
:102BA000611108C0F8948C91209582238C938881C0
:102BB00082230AC0623051F4F8948C91322F309500
:102BC00083238C938881822B888304C0F8948C9112
:102BD000822B8C939FBFDF91CF9108950F931F930A
:102BE000CF93DF931F92CDB7DEB7282F30E0F901E6
:102BF000E954FC4F8491F901E553FC4F1491F9011C
:102C0000E152FC4F04910023C9F0882321F069832D
:102C10000E948C156981E02FF0E0EE0FFF1FE3505A
:102C2000FC4FA591B4919FB7F8948C91611103C0AA
:102C30001095812301C0812B8C939FBF0F90DF9152
:102C4000CF911F910F910895CF93DF93282F30E0FC
:102C5000F901E954FC4F8491F901E553FC4FD491FB
:102C6000F901E152FC4FC491CC2391F081110E94F3
:102C70008C15EC2FF0E0EE0FFF1FED50FC4FA591EF
:102C8000B4912C912D2381E090E021F480E002C0EA
:102C900080E090E0DF91CF910895CF92DF92EF92A4
:102CA000FF920F931F93CF93DF937C016A01EB0197
:102CB00000E010E00C151D0571F06991D701ED9150
:102CC000FC910190F081E02DC7010995892B19F045
:102CD0000F5F1F4FEFCFC801DF91CF911F910F9171
:102CE000FF90EF90DF90CF9008956115710581F00E
:102CF000DB010D900020E9F7AD0141505109461B61
:102D0000570BDC01ED91FC910280F381E02D0994D9
:102D100080E090E00895EF92FF920F931F93CF937E
:102D2000DF938C017B01C0E0D0E0F701EC0FFD1FC9
:102D30006491662359F0F801A081B181ED91FC9175
:102D4000C8010995892B11F02196EFCFCE01DF91B3
:102D5000CF911F910F91FF90EF900895DC01ED91BD
:102D6000FC910190F081E02D09946BE671E00C94E8
:102D700075160F931F93CF93DF93EC010E948B1670
:102D80008C01CE010E94B516800F911FDF91CF916B
:102D90001F910F9108958F929F92AF92BF92DF92F1
:102DA000EF92FF920F931F93CF93DF93CDB7DEB7D0
:102DB000A1970FB6F894DEBF0FBECDBF7C01F42FF4
:102DC000D52ECB0119A2223008F42AE08E010F5D26
:102DD0001F4F822E912CA12CB12C6F2F7D2DA50180
:102DE00094010E94FF1AF22FD32ECA01015011093B
:102DF0006A3014F4E0E301C0E7E3E60FD801EC9396
:102E0000232B242B252B49F7B801C7010E947516E7
:102E1000A1960FB6F894DEBF0FBECDBFDF91CF9164
:102E20001F910F91FF90EF90DF90BF90AF909F9018
:102E30008F900895CF92DF92EF92FF920F931F939E
:102E4000CF93DF93EC016A017B012115310579F401
:102E5000E881F9810190F081E02D642FDF91CF911D
:102E60001F910F91FF90EF90DF90CF9009942A303F
:102E70003105E9F477FF1AC06DE20E94AE168C01AD
:102E800044275527BA014C195D096E097F092AE0CC
:102E9000CE010E94CB16800F911FDF91CF911F9121
:102EA0000F91FF90EF90DF90CF9008952AE0B70147
:102EB000A601CE01DF91CF911F910F91FF90EF906E
:102EC000DF90CF900C94CB169A01AB01662757FD8B
:102ED0006095762F0C941A172115310541F4DC0109
:102EE000ED91FC910190F081E02D642F09940C94F8
:102EF000CB169A01AB0160E070E00C946C17611581
:102F000071058105910511F00C94B41B08954F9241
:102F10005F926F927F92AF92BF92CF92DF92EF92C9
:102F2000FF920F931F93CF93DF93CDB7DEB72901A5
:102F30003A01621B730B840B950B29893A894B89E3
:102F40005C892A193B094C095D09298B3A8B4B8B0B
:102F50005C8B9B01AC0169897A898B899C890E9471
:102F6000BB1AE418F50806091709A80197010E9481
:102F7000211B2A0D3B1D4C1D5D1DCA01B901DF91AE
:102F8000CF911F910F91FF90EF90DF90CF90BF9066
:102F9000AF907F906F905F904F90089508950E943A
:102FA000D5140E94CE170E948C02C0E0D0E00E948F
:102FB000A2042097E1F30E940000F9CF0895505831
:102FC000BB27AA270ED0FAC1C3D130F0C8D120F058
:102FD00031F49F3F11F41EF493C10EF4E095E7FB2A
:102FE00089C1E92F0DD280F3BA17620773078407EE
:102FF000950718F071F49EF525C20EF4E0950B2E9E
:10300000BA2FA02D0B01B90190010C01CA01A0013A
:103010001124FF27591B99F0593F50F4503E68F195
:103020001A16F040A22F232F342F4427585FF3CFD6
:10303000469537952795A795F0405395C9F77EF4A7
:103040001F16BA0B620B730B840BBAF09150A1F0F0
:10305000FF0FBB1F661F771F881FC2F70EC0BA0F76
:10306000621F731F841F48F4879577956795B795FE
:10307000F7959E3F08F0B3CF9395880F08F09927F6
:10308000EE0F97958795089563D158F080E891E009
:1030900009F49EEF64D128F040E851E059F45EEF66
:1030A00009C02EC1CFC1E92FE078AAD168F3092E5B
:1030B000052AC1F3261737074807590738F00E2E9F
:1030C00007F8E02569F0E025E0640AC0EF6307F83F
:1030D000009407FADB01B9019D01DC01CA01AD01D1
:1030E000EF9346D06BD10AD05F91552331F02BED91
:1030F0003FE049E450FD49EC63CF0895DF93DD27BD
:10310000B92FBF7740E85FE31616170648075B073D
:1031100010F4D92F9ED19F938F937F936F9309D2F1
:10312000E8E6F0E0F0D04AD12F913F914F915F91C6
:10313000A3D1DD2349F09058A2EA2AED3FE049EC03
:103140005FE3D0785D274DDFDF9138C110D1E39583
:1031500046C10CD033C103D140F0FAD030F021F495
:103160005F3F19F0C7C051116EC1CAC049D198F371
:103170009923C9F35523B1F3951B550BBB27AA27F8
:1031800062177307840738F09F5F5F4F220F331F6A
:10319000441FAA1FA9F333D00E2E3AF0E0E830D036
:1031A00091505040E695001CCAF729D0FE2F27D039
:1031B000660F771F881FBB1F261737074807AB0707
:1031C000B0E809F0BB0B802DBF01FF2793585F4F7C
:1031D0002AF09E3F510568F08DC035C15F3FECF38A
:1031E000983EDCF3869577956795B795F7959F5F41
:1031F000C9F7880F911D9695879597F90895E1E095
:10320000660F771F881FBB1F621773078407BA07F3
:1032100020F0621B730B840BBA0BEE1F88F7E0954E
:103220000895F6D088F09F5790F0B92F9927B7519D
:10323000A0F0D1F0660F771F881F991F1AF0BA957A
:10324000C9F712C0B13081F0FDD0B1E00895FAC0E5
:10325000672F782F8827B85F39F0B93FCCF3869570
:1032600077956795B395D9F73EF4909580957095CD
:1032700061957F4F8F4F9F4F0895E89409C097FB4A
:103280003EF490958095709561957F4F8F4F9F4F3D
:103290009923A9F0F92F96E9BB279395F695879581
:1032A00077956795B795F111F8CFFAF4BB0F11F444
:1032B00060FF1BC06F5F7F4F8F4F9F4F16C08823EB
:1032C00011F096E911C0772321F09EE8872F762F21
:1032D00005C0662371F096E8862F70E060E02AF062
:1032E0009A95660F771F881FDAF7880F969587954E
:1032F00097F9089597F99F6780E870E060E0089576
:103300009FEF80EC0895DF93CF931F930F93FF926D
:10331000EF92DF927B018C01689405C0DA2EEF01F9
:10332000ABD0FE01E894A591259135914591559139
:10333000AEF3EF0156DEFE019701A801DA9479F7AA
:10334000DF90EF90FF900F911F91CF91DF91089543
:1033500000240A9416161706180609060895002474
:103360000A9412161306140605060895C9CF50D004
:10337000E8F3E894E0E0BB279F57F0F02AED3FE048
:1033800049EC06C0EE0FBB0F661F771F881F28F0A1
:10339000B23A62077307840728F0B25A620B730BC4
:1033A000840BE3959A9572F7803830F49A95BB0FA9
:1033B000661F771F881FD2F79048C0C0092E03945C
:1033C000000C11F4882352F0BB0F40F4BF2B11F412
:1033D00060FF04C06F5F7F4F8F4F9F4F0895EF9343
:1033E000E0FF06C0A2EA2AED3FE049EC5FEBF9DD21
:1033F000E5DF0F90039401FC9058E5E9F0E0AAC0E6
:1034000057FD9058440F551F59F05F3F71F0479595
:10341000880F97FB991F61F09F3F79F0879508957A
:10342000121613061406551FF2CF4695F1DF08C099
:10343000161617061806991FF1CF869571056105B6
:1034400008940895E894BB2766277727CB0197F95E
:1034500008959B01AC0160E070E080E89FE379CEC5
:103460000BD0ACCF75DF28F07ADF18F0952309F088
:1034700041CF46CF1124E7CFC3DFA0F3959FD1F30F
:10348000950F50E0551F629FF001729FBB27F00D12
:10349000B11D639FAA27F00DB11DAA1F649F662767
:1034A000B00DA11D661F829F2227B00DA11D621FB6
:1034B000739FB00DA11D621F839FA00D611D221F70
:1034C000749F3327A00D611D231F849F600D211D54
:1034D000822F762F6A2F11249F5750408AF0E1F0F7
:1034E00088234AF0EE0FFF1FBB1F661F771F881F40
:1034F00091505040A9F79E3F510570F0FBCEA3CFED
:103500005F3FECF3983EDCF3869577956795B7952A
:10351000F795E7959F5FC1F7FE2B880F911D969554
:10352000879597F908959F9322DF0F9007FCEE5F30
:1035300056CF9B01AC0194CF9F3F31F0915020F4C6
:10354000879577956795B795880F911D969587957F
:1035500097F908959F938F937F936F93FF93EF93C2
:103560009B01AC017DDFEF91FF91CDDE2F913F916B
:103570004F915F9175CFDB018F939F930E94401B0A
:10358000BF91AF91A29F800D911DA39F900DB29FFF
:10359000900D11240895991B79E004C0991F961786
:1035A00008F0961B881F7A95C9F780950895AA1B85
:1035B000BB1B51E107C0AA1FBB1FA617B70710F01E
:1035C000A61BB70B881F991F5A95A9F78095909550
:1035D000BC01CD01089597FB072E16F4009407D087
:1035E00077FD09D00E94D71A07FC05D03EF49095CC
:1035F00081959F4F0895709561957F4F0895A1E241
:103600001A2EAA1BBB1BFD010DC0AA1FBB1FEE1F5C
:10361000FF1FA217B307E407F50720F0A21BB30BA7
:10362000E40BF50B661F771F881F991F1A9469F723
:1036300060957095809590959B01AC01BD01CF017F
:103640000895052E97FB1EF400940E94381B57FD29
:1036500007D00E94FF1A07FC03D04EF40C94381BCD
:1036600050954095309521953F4F4F4F5F4F0895AE
:1036700090958095709561957F4F8F4F9F4F0895DE
:103680000E94511BA59F900DB49F900DA49F800D8B
:10369000911D11240895EE0FFF1F0590F491E02D68
:1036A0000994A29FB001B39FC001A39F700D811D1B
:1036B0001124911DB29F700D811D1124911D08953B
:1036C0008F929F92AF92BF92CF92DF92EF92FF9232
:1036D000CF93DF93EC01688179818A819B816115A9
:1036E00071058105910521F464E279ED8BE597E0A0
:1036F0002DE133EF41E050E00E94211B49015A01C6
:103700009B01AC01A7EAB1E40E94401B6B017C0164
:10371000ACEEB4EFA50194010E94C01BC60ED71EEB
:10372000E81EF91EF7FE06C081E0C81AD108E108BC
:1037300080E8F80AC882D982EA82FB82C701B60112
:103740009F77DF91CF91FF90EF90DF90CF90BF9068
:10375000AF909F908F9008950E94601B089586E01F
:1037600091E00E94601B0895609306017093070129
:1037700080930801909309010895B7FF0C94401BB2
:0E3780000E94401B821B930B0895F894FFCF0C
:10378E000000160480000100000064640064640000
:10379E0064640064640064640064640064640064CF
:1037AE0064006464006464006464006464006464BF
:1037BE000064640064640064640064640064640013
:1037CE006464006464006464646464646464646473
:1037DE0064646464646464646464010100000000F1
:1037EE008E0C4D164C4F41444552000D0A006E6131
:0C37FE006E00696E66006F7666002E009B
:00000001FF
