:100000000C94AA020C94D2020C94D2020C94D20248
:100010000C94D2020C94D2020C94D2020C94D20210
:100020000C94D2020C94D2020C94D2020C94831938
:100030000C94D2020C94D2020C94D2020C94D202F0
:100040000C94E0190C94D2020C94D2020C94D202BB
:100050000C94D2020C94D2020C94D2020C94D202D0
:100060000C94D2020C94D202084AD73B3BCE016ECC
:1000700084BCBFFDC12F3D6C74319ABD56833DDAFF
:100080003D00C77F11BED9E4BB4C3E916BAAAABE0E
:10009000000000803F05A84CCDB2D44EB93836A937
:1000A000020C50B9918688083CA6AAAA2ABE000074
:1000B00000803F0054484520454E4400424F4E5575
:1000C0005320504F494E54530008080000000000D0
:1000D000665A81080818181824244242810808002A
:1000E0000000000000206208080000000022767E68
:1000F000FF4024FFF0000000000FFFFC0FFFFFFF98
:10010000FFF03FE3FFFFFFFFFFFFC79FFFFFFFFF82
:10011000FFFFF9779EEEF9C279F7BA77AE4EF6DEB9
:10012000BAEB9A6B8E4D77C6DB5DAA63AEAC74DE1C
:10013000DB5DB26BA6ED76DEBAEBBA49B6E939C241
:1001400079F7BABFFFFFFFFFFFFFFDDFFFE0FFFF13
:1001500007FFFBE3FE1F1FF8F87FC7F8E1FFEFF78B
:10016000FF871FFE0FFFF7EFFFF07FFFFFFFF7EFA7
:10017000FFFFFFFFFFFFFBDFFFFFFFFFFFFFFBDFD7
:10018000FFFFFFFFFFFE03C07FFFFFFFFFE1FBDF7D
:1001900087FFFFFFFFDFF3CFFBFFFFFFFFDFF3CFA3
:1001A000FBFFFFFFFFDFF3CFFBFFFFFFFFE1F3CF1D
:1001B00087FFFFFFFFFE17E87FFFFFFFFFFFE0075E
:1001C000FFFFFFFFFFFFF7EFFFFFFFFFFFFFE7E787
:1001D000FFFFFFFFFFFFE7E7FFFFFFFFFFFFEFF777
:1001E000FFFFFFFFFFFFEFF7FFFFFFFFFFFFEFF74F
:1001F000FFFFFFFFFFFFDFFBFFFFFFFFFFFFBFFD75
:10020000FFFFFFFFFFFE7FFE7FFFFFFFFFFDFFFF02
:10021000BFFFFF03053F213F1208120A100A0E1C00
:100220000E0C1E0C141A14161F161E131E1E1B1E57
:100230001E1F1E3F213F3A2F3A173D173F213F18FF
:100240001F02040A041F0E04040E1F0A1F0A0E0ECA
:100250001F04110E2E252E2F2A2E262929021F02B9
:10026000081F08150E04040E150E15151B151B048A
:100270000604040C040000000017000300031F0A1A
:100280001F16371A1904130A153A000300000E113D
:10029000110E000A040A040E0400300004040400D5
:1002A00010001804031F111F121F101D1517111520
:1002B0001F07041F17151D1F151D01011F1F151FE7
:1002C00017151F000A00003200040A110A0A0A1159
:1002D0000A040115020E11171E051E1F150A0E1124
:1002E0000A1F110E1F15111F05010E111D1F041FDE
:1002F000111F1108100F1F041B1F10101F061F1EB7
:10030000040F0E110E1F09060E112E1F051A1215CD
:1003100009011F011F101F0F180F1F0C1F1B041BAB
:10032000031C03191513001F11030418111F0002E9
:1003300001022020200001020C121E1F120C0C12C0
:10034000120C121F0C1A14041E05242A1E1F021C54
:10035000141D1020201D1F0814111F101E041E1E26
:10036000021C0C120C3E0A040C123E1E040214164F
:100370000A020F120E101E0E100E1E081E120C1274
:1003800026281E322A26041E21001F00211E0401D9
:1003900002013F213F0A4E6F205344206361726483
:1003A000206F720A6E6F204C4F414445522E4845D3
:1003B000580A0A153A45786974001D20466C617325
:1003C00068696E670A20206C6F616465722E2E2E3C
:1003D0000A0A444F4E2754205455524E204F464649
:1003E00021000A0A153A49676E6F7265006D560A58
:1003F0000A504C45415345205455524E204F4646D5
:1004000020004C4F5720424154544552592120005E
:10041000175344001613780016131400151020000B
:100420001520100000540A03E181867F3E186D8379
:100430000F0F0E0183866033186DC3198F1803C325
:100440008E6033186DE330CF1803C39E603630CD15
:10045000E360CF3006C79E7E3E30CDB360CF300C18
:10046000C6F6603330D9B660CF33CFCCF66061B01A
:10047000DB1E60CF30D86CE6C061B0DB1E618F1927
:10048000986CC6C063B19B0E330F0FB078C6FF7E69
:100490001F1B061E0F0500893008023802497868C4
:1004A000140000F6E8DBCFC3B8AEA49B928A827B2F
:1004B000746E68625C57524E4945413E3A3734315A
:1004C0002E2C29272523211F1D1C1A191716151438
:1004D000131211100F0E0D0C0B0A09080706450028
:1004E000680100000500380168010000F404F00410
:1004F0000101FF030101F7030000000800020100F1
:1005000000030407000000000000000001020408CE
:10051000102040800102040810200102040810206D
:100520000404040404040404020202020202030399
:10053000030303030000000023002600290000003D
:100540000000250028002B000000000024002700E8
:100550002A00DE0A11241FBECFEFD8E0DEBFCDBFD8
:1005600012E0A0E0B1E0E4E5F4E402C005900D92F1
:10057000AC39B107D9F725E0ACE9B2E001C01D9272
:10058000A334B207E1F715E0C4E5D5E004C0229733
:10059000FE010E94B021C235D107C9F70E94B81DE3
:1005A0000C9428220C940000DC01643508F053C040
:1005B000403308F050C090968C919097342F359529
:1005C00035953595E62FFF27E7FDF095242F277009
:1005D000823099F4DF01AC5CBC4F84E53802A00D99
:1005E000B11D11248C9190E0022E02C09595879543
:1005F0000A94E2F78095817009C0833039F4462768
:100600001C968C91482740FF03C014C0811112C072
:1006100084E53802E00DF11D1124EC5CFC4F81E013
:1006200090E0022E01C0880F0A94EAF7809590812D
:10063000982310C084E53802E00DF11D1124EC5C14
:10064000FC4F81E090E0022E01C0880F0A94EAF787
:100650009081982B908308958CEA92E00E94A416D2
:1006600061EF70E08CEA92E00E9426161092C402BC
:100670008CEA92E00C9483128091A90261E0680FE9
:100680006093A902ECE9F2E0A2E7B2E091919D93B8
:1006900022E0E43AF207D1F791E09093740290934C
:1006A00077029AE090936E0290936F02EAE5F2E08F
:1006B000AAEBB1E094E690839C933296149622E0E4
:1006C000EE36F207C1F76B3010F4855F01C084E1AC
:1006D0008093B901633190F470E080E090E00E9473
:1006E000311F2DEC3CEC4CEC5DE30E944A202DECDC
:1006F0003CEC4CE45EE30E94C91D04C060E070E085
:1007000080E090E46093B4017093B5018093B601EA
:100710009093B70108951092A402ECE9F2E01192CF
:1007200082E0E43AF807D9F708958EE18093030355
:10073000109204038091A5029091A602A091A702B5
:10074000B091A802803A9648A140B10540F44AE031
:1007500050E060E070E08AEF92E00E94221D8091FC
:10076000A5029091A602A091A702B091A8028031A3
:100770009742A105B10540F44AE050E060E070E026
:100780008AEF92E00E94221D8091A5029091A6021C
:10079000A091A702B091A802883E9340A105B1059F
:1007A00040F44AE050E060E070E08AEF92E00E949E
:1007B000221D8091A5029091A602A091A702B0915E
:1007C000A80284369105A105B10540F44AE050E045
:1007D00060E070E08AEF92E00E94221D8091A50205
:1007E0009091A602A091A702B091A8020A97A10534
:1007F000B10540F44AE050E060E070E08AEF92E03A
:100800000E94221D4091A5025091A6026091A7026C
:100810007091A8022AE030E08AEF92E00C942A1D41
:100820000F931F93CF93DF9360917102615023E088
:10083000409170028AEF92E00E94D90C40917002C0
:10084000415023E0609171028AEF92E00E94B60C61
:10085000CAEBD1E00BE512E0F80131976081653514
:1008600048F48881853530F0F80140818AEF92E0C4
:100870000E94D40224960E5F1F4FF1E0C23EDF07B4
:1008800059F7DF91CF911F910F910895EF92FF9249
:100890001F93CF93DF9382E7E82E82E0F82EE701E3
:1008A00012E08C2F8E19823011F0853049F4888146
:1008B000882319F023ED30E00BC029EC30E008C0AC
:1008C0008881882319F027EE30E002C02DED30E05A
:1008D00048E2612F8AEF92E00E949B0F165F2196FB
:1008E0001235F9F6DF91CF911F91FF90EF900895A7
:1008F0001F93CF93DF93809174028823A9F010E0B7
:10090000DFE2C9E180916E02181770F44D2F6C2F51
:100910008AEF92E00E94D402C0FF03C0CF5F1F5F46
:10092000F1CFC150D150FBCF809177028823A9F03D
:1009300010E0DFE2C7E380916F02181770F44D2FCB
:100940006C2F8AEF92E00E94D402C0FF03C0CF5FF9
:100950001F5FF1CFC150D150FBCFDF91CF911F91DD
:100960000895AF92BF92CF92DF92EF92FF920F93D2
:10097000CF93DF9300D0CDB7DEB73AE5E32E32E078
:10098000F32E4AEBC42E41E0D42E52EEA52E51E0B8
:10099000B52EF70180818535C8F5F6018081853552
:1009A000A8F120E030E040E85FE3F5016085718563
:1009B000828593850E948F1EF501811112C064818A
:1009C0007581868197810E94FE1E062FF501608148
:1009D0007181828193810E94FE1E262F48E269E187
:1009E00011C064817581868197810E94FE1E062F49
:1009F000F50160817181828193810E94FE1E262F04
:100A000048E268E38AEF92E00E94250DF2E0EF0EE3
:100A1000F11C84E0C80ED11CECE0AE0EB11CFEE669
:100A2000EF16F2E0FF0609F0B4CF9AEAE92E91E062
:100A3000F92E2AE0C22E21E0D22EF70181917F010A
:100A4000853538F5F60164857585868597850E941C
:100A5000FE1E062FF60160857185828593850E94B2
:100A6000FE1E262FF60164817581868197812A8377
:100A70000E94FE1E462FF601608171818281938162
:100A800049830E94FE1E2A8149818AEF92E00E94DA
:100A9000250DF0E1CF0ED11C84EBE81681E0F806BD
:100AA00061F60F900F90DF91CF910F91FF90EF9033
:100AB000DF90CF90BF90AF900895CF93DF93CCEBB2
:100AC000D1E0FE0132976081653538F42881319696
:100AD00040818AEF92E00E949D0D249681E0C43E01
:100AE000D80779F7DF91CF910895EAE5F2E020E0A9
:100AF00030E09081953508F474C0813089F580919B
:100B00007402882309F45CC040916E02442309F406
:100B100057C0F901EE0FFF1FE65AFD4F8091710299
:100B200080838091700281838CE0829FF001839F9B
:100B3000F00D1124EE51FE4F80E090E0A8ECB1E4FE
:100B400080839183A283B38380E090E0A0E8BFE339
:100B500080879187A287B387415040936E0230C04F
:100B6000823071F580917702882351F140916F02B4
:100B7000442331F1F901EE0FFF1FE65AFD4F80913A
:100B8000710280838091700281838CE0829FF001EA
:100B9000839FF00D1124EE51FE4F80E090E0A0E61F
:100BA000B2E480839183A283B38380E090E0A0E0ED
:100BB000B0E480879187A287B387415040936F024A
:100BC0008CE0829FF001839FF00D1124EE51FE4FC7
:100BD00080E090E0A0E2B2E484839583A683B783AB
:100BE00008952F5F3F4F32962A30310509F081CFAB
:100BF0000895CF92DF92EF92FF92CF93DF9380918F
:100C0000B901882309F456C0EAEAF1E081918535FB
:100C100008F43FC081E0E43BF807C1F7EAEAF1E0FD
:100C2000C0E0D0E08191853578F18091B9018150A3
:100C30008093B90168E070E080E090E00E944C1D74
:100C4000FE01E655FE4F608364E570E080E090E0D1
:100C50000E944C1DE4E0CC0FDD1FEA95E1F7C65F72
:100C6000DE4F0E94311F688379838A839B831C82B5
:100C70001D821E821F82688779878A879B871C86D0
:100C80001D861E861F8616C02196CA30D10551F6D4
:100C900011C0C090B801D12CE12CF12C64E670E0B9
:100CA00080E090E00E944C1DC616D706E806F906C3
:100CB0000CF0B4CFDF91CF91FF90EF90DF90CF9009
:100CC00008952F923F924F925F926F927F928F92F0
:100CD0009F92AF92BF92CF92DF92EF92FF920F93CB
:100CE0001F93CF93DF93CDB7DEB72A970FB6F89453
:100CF000DEBF0FBECDBF8AEB91E09A8389830DEBF7
:100D000011E0ABE52A2EA2E03A2EA2EEB1E0BA87BE
:100D1000A987F1013197B081BB83B53508F0BAC01E
:100D2000E981FA818081853508F4B4C0A985BA8546
:100D30004D905D906D907C90BB816B2F70E080E05A
:100D400090E00E94311FA30192010E94C81D6B0117
:100D50007C0120E030E0A9010E943F20F101F081F8
:100D6000FF8318165CF420E030E040E850E4C7014F
:100D7000B6010E948F1E87FD0BC046C020E030E008
:100D800040E850ECC701B6010E943F201816E4F578
:100D90002F81622F70E080E090E00E94311FA985D2
:100DA000BA8514962D913D914D915C9117970E94B3
:100DB000C81D4B015C0120E030E0A9010E943F20EA
:100DC00018165CF420E030E040E850E4C501B401BE
:100DD0000E948F1E87FD0BC017C020E030E040E866
:100DE00050ECC501B4010E943F2018166CF42B8111
:100DF000E981FA812083F80132978F8180833196CF
:100E00001082D8011C9246C0BF816B2F70E080E039
:100E100090E00E94311FE985FA8524813581468161
:100E200057810E94C81DA70196010E943C1E6B01BC
:100E30007C010E94931E20E030E040E850E40E94D4
:100E40004A209B01AC01C301B2010E94C91DA985C2
:100E5000BA856D937D938D939C931397C701B601CB
:100E60000E94AD2020E030E040E850E40E944A209B
:100E70009B01AC01E985FA85648175818681978142
:100E80000E94C91DA985BA8514966D937D938D9393
:100E90009C931797E981FA813496FA83E9830C5F72
:100EA0001F4FF2E02F0E311C89859A850C969A8788
:100EB000898791E0053E190709F02BCF8091B40195
:100EC0009091B501A091B601B091B7018B839C833D
:100ED000AD83BE8300916E0290916F029983FAEA0E
:100EE0002F2EF1E03F2EA2E1B1E0BA87A987F101F0
:100EF0001081153508F0BAC0812F90E098878F8354
:100F0000A985BA854D905D906D907C90BAE01B9F4D
:100F1000C00111240696BC01882777FD8095982F83
:100F20000E94311FA30192010E94C81D6B017C0128
:100F300020E030E0A9010E943F2018165CF420E078
:100F400030E040E850E4C701B6010E948F1E87FDE3
:100F50000BC044C020E030E040E850ECC701B601CF
:100F60000E943F201816D4F5E985FA852481358141
:100F70004681578160E070E080E392E40E94C81DE2
:100F80004B015C0120E030E0A9010E943F201816CF
:100F90005CF420E030E040E850E4C501B4010E9478
:100FA0008F1E87FD0BC01AC020E030E040E850ECF7
:100FB000C501B4010E943F20181684F4EF81F88522
:100FC000EE58FD4F1082123021F0153019F41982BD
:100FD00001C000E0E4E6D101EC9348C0A985BA85E0
:100FE00014962D913D914D915C91179760E070E0C2
:100FF00080E392E40E94C81DA70196010E943C1E56
:101000006B017C010E94931E9B01AC016B817C8172
:101010008D819E810E944A209B01AC01C301B201D7
:101020000E94C91DE985FA85608371838283938359
:10103000C701B6010E94AD209B01AC016B817C8190
:101040008D819E810E944A209B01AC01A985BA85B1
:1010500014966D917D918D919C9117970E94C91D59
:10106000E985FA856483758386839783FFEF2F1A5A
:101070003F0A89859A8540969A87898794EB291635
:1010800091E0390609F033CF00936E02A981A09355
:101090006F022A960FB6F894DEBF0FBECDBFDF9168
:1010A000CF911F910F91FF90EF90DF90CF90BF9065
:1010B000AF909F908F907F906F905F904F903F90F8
:1010C0002F900895CF93DF938091AA0280FD2EC0C8
:1010D0006AEB71E08AE592E0ECEBF1E0CDEBD1E078
:1010E00024E641E0DB013C913535B8F4388131111B
:1010F00007C03081373018F43F5F308301C0488328
:101100003881313051F43081332319F0315030833C
:1011100004C0DB012C93DC012C936C5F7F4F0296A3
:1011200034962496B1E0623E7B07E1F6DF91CF91E1
:1011300008952F923F924F925F926F927F928F927B
:101140009F92AF92BF92CF92DF92EF92FF920F9356
:101150001F93CF93DF93CDB7DEB72C970FB6F894DC
:10116000DEBF0FBECDBFC090A502D090A602E0901A
:10117000A702F090A8022CEB31E03C872B87EB858F
:10118000FC8532978081853550F14B855C854C5FBD
:101190005F4F5C874B87445E514089F7C092A50240
:1011A000D092A602E092A702F092A8022C960FB667
:1011B000F894DEBF0FBECDBFDF91CF911F910F918D
:1011C000FF90EF90DF90CF90BF90AF909F908F9067
:1011D0007F906F905F904F903F902F9008950AEA14
:1011E00011E0B2E12B2EB1E03B2E282F30E040E0A1
:1011F00050E029833A834B835C834B855C85415067
:1012000051095E834D83F8018081853508F058C00F
:1012100069817A818B819C810E94311F9B01AC0185
:10122000F10160817181828193810E94C81D2B012F
:101230003C01ED81FE81608170E080E090E00E94E1
:10124000311F9B01AC01F101648175818681978119
:101250000E94C81D4B015C01A3019201C301B201B0
:101260000E944A202B013C01A5019401C501B40153
:101270000E944A209B01AC01C301B2010E94C91D1A
:101280000E94B7209B01AC01EB85FC85608170E07A
:1012900080E090E02F83388749875A870E94311F6A
:1012A0002F81388549855A850E943F2087FD08C0D7
:1012B00024E6F801208339E1C30ED11CE11CF11CA6
:1012C0000F5F1F4F40E1240E311C51E0043B150716
:1012D00009F099CF5ACF8091B90181110EC0EAEA85
:1012E000F1E08191853548F081E0E43BF807C9F7EA
:1012F0000E948B0381E08093AB020895E2E7F2E065
:1013000080E0823029F0853019F09081911107C07A
:101310008F5F31968830A9F782E08093AB02089501
:1013200064E086EB92E00E94110C882319F081E0C2
:101330000E94750565E086EB92E00E94110C8823FF
:1013400019F082E00E94750541E060E086EB92E0D2
:101350000E941A0C882361F020917102822F90E084
:1013600004971CF08DEF820F01C080E08093710222
:1013700041E062E086EB92E00E941A0C882369F05B
:1013800020917102822F90E0813591051CF483E059
:10139000820F01C084E58093710241E061E086EB39
:1013A00092E00E941A0C882361F020917002822F33
:1013B00090E004971CF08DEF820F01C080E08093D5
:1013C000700241E063E086EB92E00E941A0C8823F1
:1013D00061F020917002822F90E08D971CF483E0E1
:1013E000820F01C080E3809370020E94F9050E9481
:1013F00061060E9462080E9499080E9495030E945B
:1014000010040E9446040E9478040E94B1040E94C5
:101410005D050E946B090C947E09CF93DF93D2E1A6
:10142000D093030389E0809304036CEB70E08AEFB0
:1014300092E00E94491CD093030380910403865FCD
:10144000809304034AE050E06091A4028AEF92E0A6
:101450000E94371DD093030380910403865F80931D
:10146000040360E0C83048F4EC2FF0E0E456FD4F90
:10147000808181116F5FCF5FF5CF4AE050E08AEF46
:1014800092E00E94371D0E9495030E944604DF915E
:10149000CF910C9478043091AA02832F837059F570
:1014A00020916E02211104C080916F02882319F1EE
:1014B0008091A4028F5F8093A4028091A5029091F5
:1014C000A602A091A702B091A8020A96A11DB11D83
:1014D0008093A5029093A602A093A702B093A802BE
:1014E000222321F0215020936E0205C080916F02CB
:1014F000815080936F023770C1F580916E02811127
:1015000034C080916F02811130C080E090E0823061
:1015100019F1853009F1FC01EE58FD4F208122239D
:10152000D9F0DC01A456BD4F21E02C938091A50297
:101530009091A602A091A702B091A8028C599F4F4A
:10154000AF4FBF4F8093A5029093A602A093A7022E
:10155000B093A802108209C0019688309105B9F6AF
:101560000E943C031092AB0208950C940D0A8BE18B
:101570008093030383E18093040364EB70E08AEFBC
:1015800092E00C94491C8CEA92E00E94E9138823B3
:10159000A1F08091AB02813049F028F0823041F413
:1015A0000E94B70A05C00E94900902C00E944B0A1F
:1015B0008091AA028F5F8093AA0208951092FD0283
:1015C0001092FC0280E892E09093FB028093FA0272
:1015D0000895CF93CFB7F89480913303811127C03A
:1015E000EAE2F5E08491E6E1F5E09491E82FF0E09D
:1015F000EE0FFF1FE85BFA4FA591B4918C91892300
:1016000021F461E08AE00E94AC1B61E08AE00E9464
:10161000731B8CB580618CBD8CB580648CBD61E022
:101620008DE00E94731B61E08BE00E94731B809130
:1016300033038F5F80933303CFBFCF91089521E0B1
:10164000FC012083089570E085E00C94EB1AAF92C2
:10165000BF92CF92DF92EF92FF920F931F93CF939F
:10166000DF93EC0189819A812FE0289F8001299FD7
:10167000100D112485E10E94CE1A800F911F24E0E5
:10168000969587952A95E1F79A8389832881222365
:1016900091F1AC81AD80B12CC12CD12CE885F985BC
:1016A0007F0100E010E06E817F819B0140E050E00F
:1016B0008617970728F0BC01E817F90708F4BF015F
:1016C00080E090E01F921F921F92AF930E94701DC6
:1016D0006B830F900F900F900F9070E085E0DF917B
:1016E000CF911F910F91FF90EF90DF90CF90BF901F
:1016F000AF900C94EB1ADF91CF911F910F91FF9057
:10170000EF90DF90CF90BF90AF900895FC018CE3F5
:101710009FE09383828384E0818381E084870895BE
:10172000CF93DF93EC018C819D81892B81F18C8596
:101730008F7151F584E10E94CE1ABC01882777FD94
:101740008095982F0E94311F26EE3FE34EEC50E427
:101750000E944A200E94031F9B017B836A836115BC
:10176000710581F084E08983FE0140E084819581E8
:101770002817390710F449830AC04F5F3296443066
:10178000A9F702C08FEF89838C858F5F8C87DF91EB
:10179000CF910895FC0188E0808389E0818387E010
:1017A000828386E0838384E0848382E0858381E191
:1017B00086830895DF92EF92FF920F931F93CF934A
:1017C000DF937C01EC0100E010E0DD24DA9462E0BC
:1017D00088810E94731B88810E94E21BF701E00F41
:1017E000F11F892B21F487818F5F878308C0878150
:1017F000882349F08F3F11F4178201C0D78260E03F
:1018000088810E94731B0F5F1F4F219607301105BF
:10181000F1F6DF91CF911F910F91FF90EF90DF9044
:101820000895FC01E60FF11D81E09781913009F0E8
:1018300080E00895262F30E0FC01E20FF31F87813E
:10184000423028F481508E3F48F080E008958F3F69
:10185000E1F3642F0E942E219130B9F781E00895C1
:101860008EBD00000DB407FEFDCF8EB508951F9309
:10187000CF93DF93EC01162FF89460E08F850E94E0
:10188000AC1B888918161CF460E00E94AC1B812FE9
:101890000E94300C888918161CF461E00E94AC1B71
:1018A0007894DF91CF911F91089528EF31E0E4E320
:1018B000F3E0DF01A9011D9241505040E1F7DC0146
:1018C00019961C9219971A961C920895DF92EF921E
:1018D000FF920F931F93CF93DF93EC018C858F5F63
:1018E0008C8784E3E82E83E0F82ED12C6D2D606484
:1018F000CE010E94370C60E8CE010E94370C61E0F7
:101900008F850E94AC1B888918161CF460E00E9429
:10191000AC1B00E010E0F701E00FF11F80810E9496
:10192000300C0F5F1F4F04351105A9F78889181671
:101930001CF461E00E94AC1BD39484E5E80EF11C1A
:1019400086E0D812D3CF60E4CE01DF91CF911F9112
:101950000F91FF90EF90DF900C94370CFC0160A387
:1019600061A30895FC0160A341A30895CF92DF9283
:10197000FF920F931F93CF93DF931F92CDB7DEB7E4
:101980006C01062FF42E10E0121754F4412F4F0D66
:10199000602FC60129830E94D4021F5F2981F4CFE2
:1019A0000F90DF91CF911F910F91FF90DF90CF901B
:1019B0000895CF92DF92FF920F931F93CF93DF93FF
:1019C0001F92CDB7DEB76C01062FF42E10E0121770
:1019D00054F4612F600F4F2DC60129830E94D40259
:1019E0001F5F2981F4CF0F90DF91CF911F910F914D
:1019F000FF90DF90CF900895DF92EF92FF920F93C8
:101A00001F93CF93DF93EC01E62ED22EF42E1127F5
:101A100007FD1095040F111D47FD1A958F2D99276D
:101A200087FD90958017910744F42D2D4F2D6E2D35
:101A3000CE010E94D90CF394F1CFDF91CF911F9189
:101A40000F91FF90EF90DF900895AF92BF92CF92E9
:101A5000DF92EF92FF920F931F93CF93DF93EC01EE
:101A6000162FF42EE22EA02FBB27A7FDB095A41BA6
:101A7000B10947FDB395B7FF03C0B195A195B10971
:101A8000EE2DFF27E7FDF095E11BF10917FDF3951A
:101A9000F7FF03C0F195E195F109BB24B394EA1770
:101AA000FB0714F0B12C06C08E2DE02E082F812FDD
:101AB0001F2DF82EE11634F48F2DF02E082F812FD4
:101AC0001E2DE82ECE2CC11AE02FFF27E7FDF09542
:101AD000EF19F109F7FCF395F7FF03C0F195E195D4
:101AE000F109AE2EDC2CC7FE03C0DD24D394DC0C40
:101AF000D594F01614F401E00FC00FEF0DC0BB2019
:101B000071F0412F6F2DCE010E94D402DA18D7FE5A
:101B100002C0F00EDC0C1F5FE1168CF703C04F2DE6
:101B2000612FF1CFDF91CF911F910F91FF90EF9037
:101B3000DF90CF90BF90AF9008959F92AF92BF92E9
:101B4000CF92DF92EF92FF920F931F93CF93DF9389
:101B5000EC01062FF42E122FDD24D394D21AC22EBC
:101B6000C194CC0C422F4F0D0E94D4024F2D411B2B
:101B7000602FCE010E94D402612F600F4F2DCE0145
:101B80000E94D402602F611B4F2DCE010E94D4020F
:101B9000E12CE1160CF044C0D7FC04C01150C394F2
:101BA000C394DC0CE3948E2D880F8F5FD80E9E2C8F
:101BB000900EA12EAF0C4A2D692DCE010E94D402A9
:101BC000B02EBE184A2D6B2DCE010E94D402AF2C30
:101BD000A11A4A2D692DCE010E94D4024A2D6B2DE7
:101BE000CE010E94D402BE2CBF0C4B2D912E900E24
:101BF000692DCE010E94D4024B2DB02EB11A6B2D4F
:101C0000CE010E94D402AF2CAE184A2D692DCE0110
:101C10000E94D4024A2D6B2DCE010E94D402B9CF6E
:101C2000DF91CF911F910F91FF90EF90DF90CF90B8
:101C3000BF90AF909F9008958F929F92AF92BF9266
:101C4000CF92DF92EF92FF920F931F93CF93DF9388
:101C5000EC01E62ED42E122FCC24C394C21AB22E3D
:101C6000B194BB0CF12C802F8470A82E802F827031
:101C7000982E802F8870882E0170F1160CF04DC0C0
:101C8000C7FC04C01150B394B394CB0CF3948F2DC4
:101C9000880F8F5FC80EAA2071F0412F4D0D6F2D58
:101CA0006E0DCE010E94D4024F2D4D0D612F6E0D91
:101CB000CE010E94D402992071F04D2D411B6F2D51
:101CC0006E0DCE010E94D4024D2D4F19612F6E0D65
:101CD000CE010E94D402882071F04F2D4D0D6E2D43
:101CE000611BCE010E94D402412F4D0D6E2D6F1944
:101CF000CE010E94D402002309F4BFCF4D2D4F190D
:101D00006E2D611BCE010E94D4024D2D411B6E2D04
:101D10006F19CE010E94D402B0CFDF91CF911F91F5
:101D20000F91FF90EF90DF90CF90BF90AF909F907A
:101D30008F9008958F929F92AF92BF92CF92DF9231
:101D4000EF92FF920F931F93CF93DF93EC01B62E88
:101D5000A42E122FDD24D394D21AC22EC194CC0CFF
:101D6000FF24F394802F8170882E992493949E0CE5
:101D700002708FEF8F0D8117C4F5D7FC04C011508E
:101D8000C394C394DC0C8F2D880F8F5FD80E8820EE
:101D900099F0212F220F290D4A2D411B6F2D6B0D1C
:101DA000CE010E94B60C23E02E0D4A2D4F19612F53
:101DB0006B0DCE010E94B60C002399F0212F220F4B
:101DC000290D4A2D411B6B2D6F19CE010E94B60CB7
:101DD00023E02E0D4A2D4F196B2D611BCE010E9461
:101DE000B60CF394E394E394C4CFDF91CF911F91A9
:101DF0000F91FF90EF90DF90CF90BF90AF909F90AA
:101E00008F9008959F92AF92BF92CF92DF92EF9200
:101E1000FF920F931F93CF93DF93EC01B62EF42E16
:101E2000A22EDE2CD194DD0C9D2C920E1E2D160FB1
:101E3000292D612F0E94D90CCC24CA94C00ECF0C3E
:101E4000292D4C2D612FCE010E94D90CD00EFE0CF5
:101E50002D2D4F2D6B2DCE010E94B60CBA0C6FEFBD
:101E60006B0D2D2D4F2DCE010E94B60C01E02E2DB5
:101E70004F2D612FCE010E941C0EDE2CD094DB0C66
:101E800002E02E2D4F2D6D2DCE010E941C0ECE187E
:101E900004E02E2D4C2D6D2DCE010E941C0E08E06D
:101EA0002E2D4C2D612FCE010E941C0EDF91CF9163
:101EB0001F910F91FF90EF90DF90CF90BF90AF9068
:101EC0009F900895AF92BF92CF92DF92EF92FF92D0
:101ED0000F931F93CF93DF93EC01A62EC42EB22E47
:101EE000F02E1E2DE194EE0CD12ED60E2E2D2B0DA4
:101EF0006D2D0E94FC0CFA94FE0CC10E6FEF6A0D62
:101F00006B0D611BEF2C01E0212F4C2DCE010E94A7
:101F10009A0E02E0212F4C2D6D2DCE010E949A0EBB
:101F2000DF91CF911F910F91FF90EF90DF90CF90B5
:101F3000BF90AF9008956F927F928F929F92AF92D1
:101F4000BF92CF92DF92EF92FF920F931F93CF93A6
:101F5000DF93F901A49031965491FC01F0A064350F
:101F60000CF00CC1BB24A7FCB094A62FBB27A7FD87
:101F7000B095FD01EA0DFB1D1E161F060CF0FEC0FC
:101F800040330CF0FBC0C52E042F112707FD109520
:101F9000E801C50FD11D57FDDA951C161D060CF082
:101FA000EDC0E90122969501295F3F4F37FF02C03E
:101FB000295F3F4F73E0359527957A95E1F747FF05
:101FC0000AC0C52EC40E209FA001219F500D1124D0
:101FD000C41BD50B40E00C2D112707FD1095040FF5
:101FE000111D47FD1A95013311051CF070E3C72E32
:101FF000C41A67FD60E0E535F10514F0E4E5F0E0B2
:102000001E2FFC0174857427862F992787FD9095D4
:10201000FC01EA1BFB0BDF015F01F7E0AF22BB24F1
:10202000E0E8F0E002C0F595E795AA94E2F70E2FFC
:10203000B7FD179653E0B595A7955A95E1F7AC0F04
:10204000BD1FE42FE77051E001C0550FEA95EAF794
:10205000459545954595E4E54E02800D911D112469
:102060008C5C9C4F40E0DD24C7FCD094BB24B3942F
:102070003327E42FF0E0EC15FD050CF07FC0FD01E7
:10208000E490F1E0FF1219C0EC01A02EFD01862EB4
:10209000881A9C2E980C911608F067C09E2C9A20E6
:1020A00019F09880952A9882A69429F43196E490A4
:1020B0006894AA24A7F82196ECCFF1101BC0752EC6
:1020C0007094EC01A02EFD01862E881A9C2E980C8F
:1020D000911608F04AC09E2C9A2019F098809720FB
:1020E0009882A69429F43196E4906894AA24A7F8DB
:1020F0002196ECCFE3E0FE1631F0EC01A02EFD01BD
:10210000862E881A2EC0752E7094962EEC01A02E65
:10211000FD019116B0F48E2C8A2049F08880692C3C
:10212000672660FE02C0852A01C087208882A694A7
:1021300029F43196E4906894AA24A7F89394219600
:10214000E8CF7B2512C09E2C9A2019F09880952606
:102150009882A69429F43196E4906894AA24A7F86A
:1021600021969C2E980C911670F3550F19F48C5AE9
:102170009F4F51E04F5FA20FB31F7BCFDF91CF91F5
:102180001F910F91FF90EF90DF90CF90BF90AF9095
:102190009F908F907F906F900895DC01FB01849158
:1021A0008F5F14968C9314973196E491EF5F159698
:1021B000EC9315976E5F7F4F5F967C936E935E975F
:1021C0000895EF920F93CF93DF93EC014E876D87C5
:1021D0002F87E98A088B81E0888788A319A28F83DB
:1021E00063E172E0CE010E94CD100E94E90A8CB535
:1021F0008F7D8CBD8CB58C7F81608CBD8DB58160F1
:102200008DBD8CB58C608CBD61E08E850E94731B8A
:1022100061E08D850E94731B61E08F850E94731BB6
:10222000898918161CF461E00E94731B88891816AE
:102230001CF461E00E94731B898918166CF460E03D
:102240000E94AC1B6AE070E080E090E00E94591AA6
:1022500061E089890E94AC1B8D85992787FD909547
:10226000FC01E05EFA4FE491F0E0EE0FFF1FE25C4C
:10227000FA4F259134913D8B2C8BFC01E45FFA4F92
:1022800084918B8F8E85992787FD9095FC01E05E68
:10229000FA4FE491F0E0EE0FFF1FE25CFA4F259158
:1022A00034913B8B2A8BFC01E45FFA4F84918A8F37
:1022B0008889992787FD9095FC01E05EFA4FE491AB
:1022C000F0E0EE0FFF1FE25CFA4F259134913F8B57
:1022D0002E8BFC01E45FFA4F84918C8F8F859927B8
:1022E00087FD9095FC01E05EFA4FE491F0E0EE0F7F
:1022F000FF1FE25CFA4F25913491398F288FFC0142
:10230000E45FFA4F84918D8F61E2CE010E94370C19
:1023100064E1CE010E94370C8B8587FF02C08FE7F6
:102320008B876B856068CE010E94370C60E2CE011E
:102330000E94370C6CE0CE010E94370CCE01DF9179
:10234000CF910F91EF900C94660C6F927F928F92C9
:102350009F92AF92BF92CF92DF92EF92FF920F9334
:102360001F93CF93DF93EC01162FF42EB02EE8A02D
:1023700064350CF081C08FE284170CF47DC0EC81D1
:10238000F0E031970E9FC0010F9F900D1124860F32
:10239000911D67FD9A95181619060CF06DC08D8178
:1023A000809FC0011124840F911D47FD9A95181636
:1023B00019060CF061C0A62E962EC22ED12C8A2DA5
:1023C000811B992787FD90952C8130E08217930718
:1023D0000CF051C0215031098217930779F0C29E49
:1023E000D001C39EB00DD29EB00D1124A80FB91F0D
:1023F000EE8DFF8DEA0FFB1F749001C0712C8F2CA6
:102400006F2C282D2F19332727FD30958D8190E0D3
:10241000281739076CF570FE11C081E0B81206C0AC
:10242000482D6A2DCE010E94D4021EC00B2D2B2DEB
:10243000462D692DCE010E94FC0C16C089A198A1E1
:10244000891791F088A381E0B81206C0482D6A2D43
:10245000CE010E94D40207C00B2D2B2D462D692DD5
:10246000CE010E94FC0CE8A276946B0C8394C9CF39
:102470009B0CA394A4CFE8A2DF91CF911F910F9161
:10248000FF90EF90DF90CF90BF90AF909F908F9094
:102490007F906F9008950F93CF93DF93EC01262FD9
:1024A0006A3039F42D8198858A85299F800D112401
:1024B00022C06D3011F108854A8569850E94A511F9
:1024C00048855C812985549F200D112429878F819F
:1024D000882399F0332727FD309584E590E0459FC8
:1024E000801991091124821793073CF49D818A85F4
:1024F000499F800D11248A87198681E090E0DF9141
:10250000CF910F9108958F929F92AF92BF92CF92E9
:10251000DF92EF92FF92CF93DF93EC01CA8CDB8CBA
:10252000C094D094E12CF12C0E94361A4B015C012E
:102530000E94361AA501940120953095409550953A
:1025400060957095809590950E941E219B01AC012D
:10255000C701B6010E941E216B017C0189809A800F
:10256000A12CB12C0E94361A680D791D8A1D9B1D65
:102570006C0D7D1D8E1D9F1DDF91CF91FF90EF9003
:10258000DF90CF90BF90AF909F908F900C94441DA0
:102590008F929F92AF92BF92CF92DF92EF92FF9273
:1025A0000F931F93CF93DF93EC015C0186E8A80E95
:1025B000B11CD5018C91882309F44DC08C3018F4DE
:1025C0001CE0181B01C010E0FE01EA5AFF4F81E039
:1025D00080836E01BEE4CB0ED11C60E0C6010E9478
:1025E000AE0C4E01E3E58E0E911CD4018C9103E0FC
:1025F000080F9DE2F92E4F2D481B410F23E0E22EDC
:1026000024E560E0C6010E94620F61E0C6010E94FD
:10261000AE0CF401808103E0080F4F2D481B410FE1
:1026200024E560E0C6010E94020FFE01E95AFF4F57
:1026300084E080833196D4018C91181B115D108346
:10264000CC57DF4F68817981C6010E94491CF50192
:10265000808181508083DF91CF911F910F91FF90F6
:10266000EF90DF90CF90BF90AF909F908F900895A4
:10267000DF92EF92FF920F931F93CF93DF93EC01C2
:102680008C8D9D8D892B09F49CC08E01025B1F4FA0
:1026900040E061E0C8010E94B20C85E5FE01EE5AFF
:1026A000FF4F9081891B3596808331961082698D0A
:1026B000613009F462C028F0888D653008F074C07C
:1026C0006FC0CE0185960E94291881E0FE01EA5A6A
:1026D000FF4F808363E172E0C8010E94CD101D8E20
:1026E0001C8EFE01EC5AFF4F108238EAD32E7E0179
:1026F0008AE0E80EF11CCE010E94E9138823D9F389
:1027000062E074E0C8010E94491C6A8D7B8D4AE03A
:1027100050E0C8010E943E1D6DEE73E0C8010E94AA
:10272000491C6D2D62956F7070E04AE050E0C80161
:102730000E94221D62EE73E0C8010E94491C64E001
:10274000C7010E94110C81113CC0DA94A1F660E02F
:10275000CE010E94230B83B7817F846083BF83B740
:10276000816083BF83B7816083BF889583B78E7F85
:1027700083BF83B78E7F83BFBECFCF58DF4F4881E3
:1027800059816A817B814F705527662777274830AA
:1027900051056105710510F467E009C068E707C0DD
:1027A000882379F06B5F03C0882359F06FE2C8017A
:1027B000DF91CF911F910F91FF90EF90DF900C94DC
:1027C0006C1CDF91CF911F910F91FF90EF90DF90E4
:1027D00008958F929F92AF92BF92EF92FF920F93C4
:1027E0001F93CF93DF93EC017C0100E8E00EF11C16
:1027F000F70180809180A280B3800E942A1A9501FF
:102800008401061B170B280B390BB901A8015E01C7
:102810001FE7A10EB11CF501808190E0A0E0B0E0BF
:102820008E0105581F4F84179507A607B70750F468
:10283000F80180819181A281B381892B8A2B8B2B16
:1028400009F040C0F80180819181A281B381892B78
:102850008A2B8B2BA9F57E01F5E2EF0EF11CC70147
:102860000E942618C7010E949318C7010E94571999
:10287000CE010E94C812CE010E9438137E012EE4C0
:10288000E20EF11CC7010E94660CFE01EC5AFF4FDC
:102890008081811103C0C7010E94550C0E94361A25
:1028A000F8016083718382839383FE01EB58FF4FAD
:1028B000C958DF4F28813981621B730B7183608394
:1028C00080E036C00E942A1AF5012081620F711D36
:1028D000811D911DF7016083718382839383FE01C3
:1028E000EF58FF4F40815181628173814F5F5F4F8D
:1028F0006F4F7F4F4083518362837383F80110824F
:102900001182128213820E94361AFE01E958FF4F8B
:102910006083718382839383CE010E94270BCE0153
:102920000A960E94DA0BCE0148960E94900B81E035
:10293000DF91CF911F910F91FF90EF90BF90AF90DB
:102940009F908F9008950F931F93CF93DF938C01E7
:10295000EC01C25BDF4FCE010E94550C6AEB73E0C5
:10296000CE010E94491CCE010E94660C8CB583608A
:102970008CBD8DB58E7F8DBD84E892E0EEEFFFE3D8
:102980000995F801EC5AFF4F108265E973E0CE011A
:102990000E94771CCE010E94660C065F1F4FC80183
:1029A0000E94DA0B64E0C8010E94110C811107C07B
:1029B00062E370E080E090E00E94591AF0CFDF916E
:1029C000CF911F910F9108952F923F924F925F9256
:1029D0006F927F928F929F92AF92BF92CF92DF922F
:1029E000EF92FF920F931F93CF93DF93CDB7DEB794
:1029F00029970FB6F894DEBF0FBECDBF99878887A1
:102A00001B012A013C0180E7680E711CF3018081E3
:102A1000882309F402C181E0E885F985EA5AFF4F6D
:102A20008083E885F985EB5AFF4F1082E885F985A8
:102A3000EC5AFF4F1082E885F985108E8F01025BFA
:102A40001F4F61E0C8010E94AE0C888599858D5AA0
:102A50009F4F9C838B83C884D98497E5C90ED11C72
:102A6000E884F984E8E5EE0EF11C888599858E5A94
:102A70009F4F9A838983E885F985EF58FF4FFE833E
:102A8000ED8388849984FAE08F0E911CA884B98420
:102A900085E2A80EB11C888599850E94E9138823D8
:102AA000D1F3F1018491882321F0EB81FC815081E5
:102AB00001C050E025E234E040E060E0C8015F83FF
:102AC0000E949B0F5F814114510439F04CE0450F87
:102AD000920160E0C8010E949B0FF60110828CE019
:102AE000F7018083B101C8010E94491CE981FA8184
:102AF0009081892F880F890F81958D5AF6018083E7
:102B0000EB81FC819081892F880F890F8195835DEE
:102B1000F7018083ED81FE81808184FF03C060E244
:102B200074E002C06CE174E0C8010E94771CE98186
:102B3000FA819081892F880F890F81958D5AF6012E
:102B40008083F70180818F5F8083E885F98582A586
:102B5000882319F068E174E002C064E174E0C80100
:102B60000E94771CE981FA819081892F880F890F53
:102B700081958D5AF6018083F70180818F5F808374
:102B800060E174E0C8010E94771C65E0C4010E9406
:102B9000110C882351F0E885F98562A56F5FC501A6
:102BA0000E94D319C5010E94BD1964E0C4010E94AE
:102BB000110C811113C0F3012081822F90E0A0E05D
:102BC000B0E0ED81FE8140815181628173814817BF
:102BD00059076A077B07A8F02F3F99F08FEFF301A1
:102BE0008083088519850B5D1F4F60E0C8010E9436
:102BF000D017C8010E94A71981E0E885F985808F68
:102C00000CC066E0C4010E94110C882309F443CF74
:102C1000888599850E94A31434CF29960FB6F8941D
:102C2000DEBF0FBECDBFDF91CF911F910F91FF90FF
:102C3000EF90DF90CF90BF90AF909F908F907F905C
:102C40006F905F904F903F902F900895AB0164E29A
:102C500074E00C94E414E0E8F7E72591349181E006
:102C60002130304C09F080E00895CF93DF93EC01E0
:102C70000E942B169E01275A3F4FDE01A059BF4FDD
:102C8000882309F43CC0E6E9F7E78491F9018083E1
:102C9000E7E9F7E7E491EC83E8E9F7E7E491ED830E
:102CA000E9E9F7E7859194919F838E83EBE9F7E754
:102CB0008591949199878887EDE9F7E7E491EBA7EF
:102CC000EEE9F7E7E491EAA7EFE9F7E7E491EC939F
:102CD000E0EAF7E7859194919D8F8C8FE2EAF7E720
:102CE000859194919F8F8E8FE4EAF7E78591949177
:102CF00099A388A3E6EAF7E78591949120C08CE335
:102D0000F90180831C822FEF2D8380E293E09F8363
:102D10008E8384ED93E09987888781E08BA78AA7CB
:102D20002C938CEA9DE09D8F8C8F8EED9DE09F8F84
:102D30008E8F84E79EE099A388A38CE39FE09BA3FA
:102D40008AA3DF91CF910895CF92DF92EF920F93F4
:102D5000CF93DF93EC01FC01E158FF4F82E38083C6
:102D6000349741E050E060E070E04083518362833B
:102D700073833B978FEF8083CE010E943516CE017F
:102D80000E941F0B6FEFCE010E94230B6E018AE0A1
:102D9000C80ED11CC6010E94CA0BC6010E94DA0BE4
:102DA000CE0148960E94860B3EE0E32E0FE020E124
:102DB0004BE06DE0CE01825B9F4F0E94E110A59633
:102DC000CE010E943C1765E0C6010E94110C8823C9
:102DD00051F060E0CE01DF91CF910F91EF90DF9045
:102DE000CF900C94D31940E065E974E0CE01DF91F7
:102DF000CF910F91EF90DF90CF900C94DB17CF9392
:102E0000DF9350E0FA01EE0FFF1FE80FF91F37853F
:102E10002089E32FF22FE60FF11DE60FF11D25911A
:102E20003491FA01EE0FFF1FE80FF91F30A3278F2F
:102E3000F90165917491FC01D481D69FC02D1124B4
:102E4000E40FF51FC1A3F901A591B4916B2F70E0B8
:102E5000EC2FF0E0DC01A40FB51F6E177F0720F404
:102E6000F90125913491C32FCD9FC02D1124929645
:102E7000CC93DF91CF91089521E0FC01248324E0DD
:102E800020A72CEE34E0308B278740E060E00E94E2
:102E9000FF1661E070E083E00E94EB1AE1EBF0E0E6
:102EA0008081887F81608083F89410928000E1E8BF
:102EB000F0E01082109285001092840088E191E089
:102EC00090938900809388008081886080838081CE
:102ED00081608083EFE6F0E0808182608083789477
:102EE00008950F93FC01862F642F011129C08230B1
:102EF000D1F048F4882391F0813011F540E0CF0102
:102F00000F910C94FF168330A9F08430C9F48481AA
:102F1000489F602D1124658F268F12C04B3008F01A
:102F20006AE0668B0DC08481489F602D1124618FFB
:102F3000228F06C08481489F602D1124638F248FC7
:102F40000F910895FC0121110EC0648B8481489F6C
:102F5000402D1124458B15A214A213A281E0878B6A
:102F600080933805108E089580913805882319F0D4
:102F70008091350501C080E08093B4000895FC0184
:102F800061110DC0178A158A14A213A2108E109217
:102F9000350510923605109238050C94B417089533
:102FA000CF93DF93EC01611103C00E94BF17198218
:102FB000DF91CF9108950F931F93CF93DF93EC018F
:102FC0008B0141110EC060E00E94D0171E870D8753
:102FD0001B8A1A8A81E0898389E08E8B198E1B8E69
:102FE0001D8EDF91CF911F910F910895CF93DF93A5
:102FF000EC01611128C08881882329F18981811120
:1030000022C089852F819885E22FF92FE80FF11DC5
:10301000E80FF11D859194918F3F2FEF920711F4E6
:10302000188211C09C879927880F991FEA85FB8514
:10303000E80FF91F6591749140E0CE010E94DB1703
:1030400089858F5F8987DF91CF91089560E00C9427
:10305000F61760E00C94D0170F93CF93DF93EC0139
:1030600061115DC08981882309F459C08D8981115E
:1030700056C02D853E858A899B89880F991F820FAE
:10308000931FFC01859194910097D1F4898988233D
:1030900021F01B8A1A8AF90111C01982888160E027
:1030A000882331F0CE010E94F6178A899B8925C0BA
:1030B000CE01DF91CF910F910C94BF178591949120
:1030C000BC01769567957695679580FF1DC0AC012C
:1030D000A6E056954795AA95E1F7292F26952695BE
:1030E000269520514F716F7000E0CE010E9471173C
:1030F0008A899B8901969B8B8A8B880F991FED8506
:10310000FE85E80FF91FDACF492F6F7320E0CE015B
:103110000E94A2178A899B8901969B8B8A8BDF91DB
:10312000CF910F91089560E00C942C18CF93DF930A
:10313000EC016111B9C08F89882309F4B5C08D896C
:10314000811105C0CE01DF91CF910C94BF17815042
:103150008D8B8DA1811138C08BA19CA101969C0102
:10316000220F331FEF8DF8A1E20FF31F2591349149
:10317000422F47704EA3A90163E0569547956A9583
:10318000E1F7BA0176956795232F269526952FA30B
:103190006F732C81629F602D11246DA34170409349
:1031A00034059CA38BA329A130E08217930760F01C
:1031B0008AA1882329F0281B31093CA32BA304C032
:1031C00060E0CE010E94BF178DA181508DA3288D94
:1031D0002F5F288F4C893FA1340F8C85380F3A839D
:1031E0006B8D662361F070E0822F992787FD9095A3
:1031F0000E944E218C8D869F300D11243A838A8146
:1032000090E0CB966BE370E00E944E218A833E896A
:103210003B83698D662371F0772767FD7095822F58
:10322000992787FD90950E944E218A8D869F300DAB
:1032300011243B836D8D662391F0822F992787FDA2
:10324000909570E00E944E21CB0162E070E00E94F8
:103250004E212E8D9B81289F900D11249B838B8165
:103260004F3339F08A300CF089E087FD80E08B83A2
:1032700001C01B82F894EA81F0E0ED55FB4FE49128
:10328000E093370598A58D81989F802D11249B810F
:10329000899F802D11249EA1899F802D11248093C8
:1032A0003605809335057894DF91CF91089560E0DD
:1032B0000C94961860913605662321F180913905AA
:1032C0008F5F80933905909137058917D8F08091E9
:1032D000380591E08927809338051092390580914F
:1032E0003405882369F090917A0283E4989F802DB9
:1032F0001124895B80937A020E942E2190933505D8
:103300000C94B41708951F920F920FB60F921124C8
:103310002F933F934F935F936F937F938F939F93DD
:10332000AF93BF93EF93FF930E945A19FF91EF91D0
:10333000BF91AF919F918F917F916F915F914F91CD
:103340003F912F910F900FBE0F901F901895CF9324
:10335000DF93EC0160E00E94D01784EE94E09E873A
:103360008D871B8A1A8A81E0898389E08E8B198E6A
:103370001B8E1D8EDF91CF910895CF93DF93EC01CB
:1033800060E00E94D0178EED94E09E878D871B8AA7
:103390001A8A81E0898389E08E8B198E1B8E1D8E9F
:1033A000DF91CF910895FC01862F992787FD909595
:1033B000668170E06F5F7F4F0E944E218583089584
:1033C0001F920F920FB60F9211242F933F938F935A
:1033D0009F93AF93BF9380913B0590913C05A09143
:1033E0003D05B0913E0530913A0523E0230F2D377E
:1033F00020F40196A11DB11D05C026E8230F0296F9
:10340000A11DB11D20933A0580933B0590933C0587
:10341000A0933D05B0933E0580913F0590914005F6
:10342000A0914105B09142050196A11DB11D809367
:103430003F0590934005A0934105B0934205BF918D
:10344000AF919F918F913F912F910F900FBE0F9051
:103450001F9018952FB7F89460913B0570913C052B
:1034600080913D0590913E052FBF08953FB7F89498
:1034700080913F0590914005A0914105B091420592
:1034800026B5A89B05C02F3F19F00196A11DB11DBF
:103490003FBF6627782F892F9A2F620F711D811DDC
:1034A000911D42E0660F771F881F991F4A95D1F73B
:1034B00008958F929F92AF92BF92CF92DF92EF9238
:1034C000FF926B017C010E94361A4B015C01C11412
:1034D000D104E104F104F1F00E94C71D0E94361AE4
:1034E000681979098A099B09683E7340810591052D
:1034F00070F321E0C21AD108E108F10888EE880EC5
:1035000083E0981EA11CB11CC114D104E104F10494
:1035100029F7DDCFFF90EF90DF90CF90BF90AF9075
:103520009F908F900895789484B5826084BD84B50F
:10353000816084BD85B5826085BD85B5816085BDAE
:10354000EEE6F0E0808181608083E1E8F0E01082C7
:10355000808182608083808181608083E0E8F0E008
:10356000808181608083E1EBF0E0808184608083F2
:10357000E0EBF0E0808181608083EAE7F0E0808129
:103580008460808380818260808380818160808389
:103590008081806880831092C10008958E3008F089
:1035A0008E50877020917B0290E4299F9001112416
:1035B000822B80937C0080917A00806480937A00D3
:1035C00080917A0086FDFCCF80917800209179006F
:1035D00090E0922B08951F93CF93DF93182FEB0168
:1035E00061E00E94731B209711F460E004C0CF3F9C
:1035F000D10539F461E0812FDF91CF911F910C94B7
:10360000AC1BE12FF0E0E850FB4FE491E330F9F020
:1036100048F4E130B9F0E230A1F584B5806284BDB0
:10362000C8BD34C0E730E9F0E83019F1E43049F5BD
:1036300080918000806280938000D0938B00C09343
:103640008A0024C084B5806884BDC7BD1FC0809136
:103650008000806880938000D0938900C0938800A8
:1036600015C08091B00080688093B000C093B30013
:103670000DC08091B00080628093B000C093B40010
:1036800005C0C038D1050CF0B5CFAFCFDF91CF91D9
:103690001F910895833081F028F4813099F08230B1
:1036A000A1F008958730A9F08830B9F08430D1F4C2
:1036B000809180008F7D03C0809180008F77809300
:1036C0008000089584B58F7702C084B58F7D84BD56
:1036D00008958091B0008F7703C08091B0008F7DF6
:1036E0008093B0000895CF93DF9390E0FC01E45FF6
:1036F000FA4F2491FC01E05EFA4F8491882349F14E
:1037000090E0880F991FFC01E85BFA4FA591B491F6
:10371000825C9A4FFC01C591D4919FB7611108C09A
:10372000F8948C91209582238C93888182230AC0FF
:10373000623051F4F8948C91322F309583238C931E
:103740008881822B888304C0F8948C91822B8C937F
:103750009FBFDF91CF9108950F931F93CF93DF9376
:103760001F92CDB7DEB7282F30E0F901E850FB4FAC
:103770008491F901E45FFA4F1491F901E05EFA4F88
:1037800004910023C9F0882321F069830E944A1B19
:103790006981E02FF0E0EE0FFF1FE25CFA4FA59188
:1037A000B4919FB7F8948C91611103C01095812357
:1037B00001C0812B8C939FBF0F90DF91CF911F9100
:1037C0000F910895CF93DF93282F30E0F901E8504F
:1037D000FB4F8491F901E45FFA4FD491F901E05E67
:1037E000FA4FC491CC2391F081110E944A1BEC2F17
:1037F000F0E0EE0FFF1FEC5CFA4FA591B4912C9115
:103800002D2381E090E021F480E002C080E090E090
:10381000DF91CF910895CF92DF92EF92FF920F93B5
:103820001F93CF93DF937C016A01EB0100E010E06E
:103830000C151D0571F06991D701ED91FC91019076
:10384000F081E02DC7010995892B19F00F5F1F4FFB
:10385000EFCFC801DF91CF911F910F91FF90EF90B3
:10386000DF90CF9008956115710581F0DB010D9017
:103870000020E9F7AD0141505109461B570BDC010F
:10388000ED91FC910280F381E02D099480E090E0BD
:103890000895EF92FF920F931F93CF93DF938C01C4
:1038A0007B01C0E0D0E0F701EC0FFD1F64916623BF
:1038B00059F0F801A081B181ED91FC91C801099501
:1038C000892B11F02196EFCFCE01DF91CF911F917F
:1038D0000F91FF90EF900895DC01ED91FC91019024
:1038E000F081E02D09946BE872E00C94331C0F9387
:1038F0001F93CF93DF93EC010E94491C8C01CE01F2
:103900000E94731C800F911FDF91CF911F910F9127
:1039100008958F929F92AF92BF92DF92EF92FF92A3
:103920000F931F93CF93DF93CDB7DEB7A1970FB659
:10393000F894DEBF0FBECDBF7C01F42FD52ECB0196
:1039400019A2223008F42AE08E010F5D1F4F822E4B
:10395000912CA12CB12C6F2F7D2DA50194010E94DB
:103960006221F22FD32ECA01015011096A3014F4DA
:10397000E0E301C0E7E3E60FD801EC93232B242B0F
:10398000252B49F7B801C7010E94331CA1960FB639
:10399000F894DEBF0FBECDBFDF91CF911F910F9185
:1039A000FF90EF90DF90BF90AF909F908F90089521
:1039B000CF92DF92EF92FF920F931F93CF93DF93FB
:1039C000EC016A017B012115310579F4E881F98167
:1039D0000190F081E02D642FDF91CF911F910F9125
:1039E000FF90EF90DF90CF9009942A303105E9F4F1
:1039F00077FF1AC06DE20E946C1C8C01442755278A
:103A0000BA014C195D096E097F092AE0CE010E94B6
:103A1000891C800F911FDF91CF911F910F91FF9013
:103A2000EF90DF90CF9008952AE0B701A601CE0174
:103A3000DF91CF911F910F91FF90EF90DF90CF908A
:103A40000C94891C9A01AB01662757FD6095762F6F
:103A50000C94D81C2115310541F4DC01ED91FC9149
:103A60000190F081E02D642F09940C94891C9A0137
:103A7000462F50E060E070E00C942A1D9A01AB01E3
:103A800060E070E00C942A1D6115710581059105B7
:103A900011F00C9417220895CF93DF9300D000D03B
:103AA000CDB7DEB79B01AC016115710581059105AC
:103AB00069F069833A834B835C830E9412222981D7
:103AC0003A814B815C810E94842103C060E070E0F8
:103AD000CB010F900F900F900F90DF91CF91089531
:103AE0004F925F926F927F92AF92BF92CF92DF928E
:103AF000EF92FF920F931F93CF93DF93CDB7DEB773
:103B000029013A01621B730B840B950B29893A89B1
:103B10004B895C892A193B094C095D09298B3A8B31
:103B20004B8B5C8B9B01AC0169897A898B899C8961
:103B30000E941E21E418F50806091709A80197013B
:103B40000E9484212A0D3B1D4C1D5D1DCA01B90137
:103B5000DF91CF911F910F91FF90EF90DF90CF9069
:103B6000BF90AF907F906F905F904F9008950895B1
:103B70000E94931A0E94B71D0E942C03C0E0D0E05F
:103B80000E94C30A2097E1F30E940000F9CF089534
:103B90005058BB27AA270ED027C2F0D130F0F5D15C
:103BA00020F031F49F3F11F41EF4C0C10EF4E095F3
:103BB000E7FBB6C1E92F3AD280F3BA176207730761
:103BC0008407950718F071F49EF552C20EF4E09543
:103BD0000B2EBA2FA02D0B01B90190010C01CA01C7
:103BE000A0011124FF27591B99F0593F50F4503E72
:103BF00068F11A16F040A22F232F342F4427585F64
:103C0000F3CF469537952795A795F0405395C9F77B
:103C10007EF41F16BA0B620B730B840BBAF0915033
:103C2000A1F0FF0FBB1F661F771F881FC2F70EC0D2
:103C3000BA0F621F731F841F48F4879577956795A5
:103C4000B795F7959E3F08F0B3CF9395880F08F08E
:103C50009927EE0F97958795089590D158F080E8B1
:103C600091E009F49EEF91D128F040E851E059F439
:103C70005EEF09C05BC1FCC1E92FE078D7D168F3E2
:103C8000092E052AC1F3261737074807590738F0C8
:103C90000E2E07F8E02569F0E025E0640AC0EF6326
:103CA00007F8009407FADB01B9019D01DC01CA01A4
:103CB000AD01EF934AD098D10AD05F91552331F0EE
:103CC0002BED3FE049E450FD49EC63CF0895DF93CD
:103CD000DD27B92FBF7740E85FE3161617064807C0
:103CE0005B0710F4D92FCFD19F938F937F936F935E
:103CF0007CD2E8E6F0E01DD177D12F913F914F9132
:103D00005F91D4D1DD2349F09058A2EA2AED3FE03B
:103D100049EC5FE3D0785D274DDFDF9165C1DCD0F2
:103D200008F481E0089539D1E3956FC10CD05CC1EE
:103D30002CD140F023D130F021F45F3F19F0F0C0D6
:103D4000511197C1F3C072D198F39923C9F3552348
:103D5000B1F3951B550BBB27AA276217730784077E
:103D600038F09F5F5F4F220F331F441FAA1FA9F334
:103D700033D00E2E3AF0E0E830D091505040E69526
:103D8000001CCAF729D0FE2F27D0660F771F881F87
:103D9000BB1F261737074807AB07B0E809F0BB0B76
:103DA000802DBF01FF2793585F4F2AF09E3F51059A
:103DB00068F0B6C05EC15F3FECF3983EDCF38695D9
:103DC00077956795B795F7959F5FC9F7880F911D10
:103DD0009695879597F90895E1E0660F771F881FFC
:103DE000BB1F621773078407BA0720F0621B730BAF
:103DF000840BBA0BEE1F88F7E095089504D0689401
:103E0000B11137C108951AD188F09F5790F0B92F9A
:103E10009927B751A0F0D1F0660F771F881F991F1F
:103E20001AF0BA95C9F712C0B13081F021D1B1E0D2
:103E300008951EC1672F782F8827B85F39F0B93FE2
:103E4000CCF3869577956795B395D9F73EF4909521
:103E50008095709561957F4F8F4F9F4F0895E8949F
:103E600009C097FB3EF490958095709561957F4FC2
:103E70008F4F9F4F9923A9F0F92F96E9BB27939570
:103E8000F695879577956795B795F111F8CFFAF480
:103E9000BB0F11F460FF1BC06F5F7F4F8F4F9F4FB1
:103EA00016C0882311F096E911C0772321F09EE80F
:103EB000872F762F05C0662371F096E8862F70E075
:103EC00060E02AF09A95660F771F881FDAF7880F4F
:103ED0009695879597F90895990F0008550FAA0BA5
:103EE000E0E8FEEF16161706E807F907C0F012160D
:103EF0001306E407F50798F0621B730B840B950B10
:103F000039F40A2661F0232B242B252B21F4089564
:103F10000A2609F4A140A6958FEF811D811D089501
:103F200097F99F6780E870E060E008959FEF80EC6C
:103F30000895DF93CF931F930F93FF92EF92DF9239
:103F40007B018C01689405C0DA2EEF01AFD0FE0131
:103F5000E894A5912591359145915591AEF3EF01E6
:103F600029DEFE019701A801DA9479F7DF90EF903E
:103F7000FF900F911F91CF91DF91089500240A9433
:103F80001616170618060906089500240A94121634
:103F90001306140605060895C9CF50D0E8F3E89437
:103FA000E0E0BB279F57F0F02AED3FE049EC06C068
:103FB000EE0FBB0F661F771F881F28F0B23A62070B
:103FC0007307840728F0B25A620B730B840BE395D6
:103FD0009A9572F7803830F49A95BB0F661F771F59
:103FE000881FD2F7904806C1092E0394000C11F4E3
:103FF000882352F0BB0F40F4BF2B11F460FF04C0C4
:104000006F5F7F4F8F4F9F4F0895EF93E0FF06C084
:10401000A2EA2AED3FE049EC5FEBCCDDE5DF0F9053
:10402000039401FC9058E5E9F0E0F7C057FD905883
:10403000440F551F59F05F3F71F04795880F97FB6C
:10404000991F61F09F3F79F0879508951216130626
:104050001406551FF2CF4695F1DF08C01616170655
:104060001806991FF1CF869571056105089408958A
:10407000E894BB2766277727CB0197F908952CDFB3
:1040800008F48FEF08959B01AC0160E070E080E8D8
:104090009FE34CCE0BD0A8CF71DF28F076DF18F06D
:1040A000952309F03DCF42CF1124E3CFBFDFA0F32A
:1040B000959FD1F3950F50E0551F629FF001729FBD
:1040C000BB27F00DB11D639FAA27F00DB11DAA1FDC
:1040D000649F6627B00DA11D661F829F2227B00D29
:1040E000A11D621F739FB00DA11D621F839FA00DB4
:1040F000611D221F749F3327A00D611D231F849F04
:10410000600D211D822F762F6A2F11249F5750405A
:104110008AF0E1F088234AF0EE0FFF1FBB1F661FF5
:10412000771F881F91505040A9F79E3F510570F0AE
:10413000F7CE9FCF5F3FECF3983EDCF38695779503
:104140006795B795F795E7959F5FC1F7FE2B880FA9
:10415000911D9695879597F908959F931EDF0F906F
:1041600007FCEE5F52CF11F40EF4E0CE41C066DFE3
:10417000D0F39923D9F3CEF39F57550B87FF46D041
:104180000024A0E640EA900180585695979528F4BF
:10419000805C660F771F881F20F0261737074807B7
:1041A00030F4621B730B840B202931294A2BA6950E
:1041B00017940794202531254A2758F7660F771F53
:1041C000881F20F026173707480730F4620B730B5F
:1041D000840B200D311D411DA09581F7B901842F5D
:1041E0009158880F9695879508959B01AC0152CF01
:1041F0009F3F31F0915020F4879577956795B7955B
:10420000880F911D9695879597F908959150504084
:10421000660F771F881FD2F708959F938F937F9320
:104220006F93FF93EF939B01AC0134DFEF91FF910C
:1042300080DE2F913F914F915F912CCFDB018F93C7
:104240009F930E94A321BF91AF91A29F800D911DCA
:10425000A39F900DB29F900D11240895991B79E0B2
:1042600004C0991F961708F0961B881F7A95C9F706
:1042700080950895AA1BBB1B51E107C0AA1FBB1F55
:10428000A617B70710F0A61BB70B881F991F5A95E2
:10429000A9F780959095BC01CD01089597FB072E55
:1042A00016F4009407D077FD09D00E943A2107FC4C
:1042B00005D03EF4909581959F4F08957095619536
:1042C0007F4F0895A1E21A2EAA1BBB1BFD010DC052
:1042D000AA1FBB1FEE1FFF1FA217B307E407F507B6
:1042E00020F0A21BB30BE40BF50B661F771F881F92
:1042F000991F1A9469F760957095809590959B0128
:10430000AC01BD01CF010895052E97FB1EF400946A
:104310000E949B2157FD07D00E94622107FC03D019
:104320004EF40C949B2150954095309521953F4F2C
:104330004F4F5F4F089590958095709561957F4F91
:104340008F4F9F4F08950E94B421A59F900DB49F59
:10435000900DA49F800D911D11240895EE0FFF1F55
:104360000590F491E02D0994A29FB001B39FC00184
:10437000A39F700D811D1124911DB29F700D811D91
:104380001124911D08958F929F92AF92BF92CF9268
:10439000DF92EF92FF92CF93DF93EC0168817981F6
:1043A0008A819B81611571058105910521F464E283
:1043B00079ED8BE597E02DE133EF41E050E00E948D
:1043C000842149015A019B01AC01A7EAB1E40E9492
:1043D000A3216B017C01ACEEB4EFA50194010E9416
:1043E0002322C60ED71EE81EF91EF7FE06C081E086
:1043F000C81AD108E10880E8F80AC882D982EA829E
:10440000FB82C701B6019F77DF91CF91FF90EF90BC
:10441000DF90CF90BF90AF909F908F9008950E94B3
:10442000C321089586E091E00E94C321089560931E
:104430000601709307018093080190930901089584
:10444000B7FF0C94A3210E94A321821B930B089514
:04445000F894FFCF0E
:10445400000043058000010000000000C842000085
:10446400C8420000C8420000C8420000C842000020
:10447400C8420000C8420000C8420000C842000010
:10448400C8420000C8420000C8420000C842000000
:10449400C8420000C8420000C8420000C8420000F0
:1044A400C8420000C8420000C8420000C8420000E0
:1044B400C8420000C8420000C8420000C8420000D0
:1044C400C8420000C8420000C8420000C8420000C0
:1044D400C8420000C8420000C8420000C8420000B0
:1044E400C8420000C8420000C8420000C8420000A0
:1044F400C8420000C8420000C84264646464646442
:1045040064646464CDCC4C3E01056464000064645E
:104514000000646400006464000064640000646477
:104524000000646400006464000064640000646467
:1045340000000000C8420000C84200000000000063
:10454400C8420000C842000000000000C842000049
:10455400C842000000000000C8420000C842000039
:1045640000000000C8420000C84200000000000033
:10457400C8420000C842000000000000C842000019
:10458400C842000000000000C8420000C842000009
:1045940000000000C8420000C84200000000000003
:1045A400C8420000C842000000006464646464649B
:1045B40064646464646464646464646464640A0A6B
:1045C400182A01010101010101010101000000009B
:1045D4004B120B1C4C4F41444552000D0A006E61B6
:0C45E4006E00696E66006F7666002E00A7
:107E0000112484B714BE81FFF0D085E080938100F7
:107E100082E08093C00088E18093C10086E0809377
:107E2000C20080E18093C4008EE0C9D0259A86E02C
:107E300020E33CEF91E0309385002093840096BBD3
:107E4000B09BFECF1D9AA8958150A9F7CC24DD24C4
:107E500088248394B5E0AB2EA1E19A2EF3E0BF2EE7
:107E6000A2D0813461F49FD0082FAFD0023811F036
:107E7000013811F484E001C083E08DD089C08234E0
:107E800011F484E103C0853419F485E0A6D080C0E4
:107E9000853579F488D0E82EFF2485D0082F10E0AE
:107EA000102F00270E291F29000F111F8ED06801E7
:107EB0006FC0863521F484E090D080E0DECF843638
:107EC00009F040C070D06FD0082F6DD080E0C81688
:107ED00080E7D80618F4F601B7BEE895C0E0D1E017
:107EE00062D089930C17E1F7F0E0CF16F0E7DF06D8
:107EF00018F0F601B7BEE89568D007B600FCFDCFD4
:107F0000A601A0E0B1E02C9130E011968C91119780
:107F100090E0982F8827822B932B1296FA010C0160
:107F200087BEE89511244E5F5F4FF1E0A038BF0790
:107F300051F7F601A7BEE89507B600FCFDCF97BE46
:107F4000E89526C08437B1F42ED02DD0F82E2BD052
:107F50003CD0F601EF2C8F010F5F1F4F84911BD097
:107F6000EA94F801C1F70894C11CD11CFA94CF0C13
:107F7000D11C0EC0853739F428D08EE10CD085E9AC
:107F80000AD08FE07ACF813511F488E018D01DD067
:107F900080E101D065CF982F8091C00085FFFCCF94
:107FA0009093C60008958091C00087FFFCCF809118
:107FB000C00084FD01C0A8958091C6000895E0E648
:107FC000F0E098E1908380830895EDDF803219F02E
:107FD00088E0F5DFFFCF84E1DECF1F93182FE3DFCA
:107FE0001150E9F7F2DF1F91089580E0E8DFEE27F6
:047FF000FF270994CA
:027FFE00040479
:0400000300007E007B
:00000001FF
