:100000000C94E4010C940C020C940C020C940C0261
:100010000C940C020C940C020C940C020C940C0228
:100020000C940C020C940C020C940C020C94B8105E
:100030000C940C020C940C020C940C020C940C0208
:100040000C9415110C940C020C940C020C940C02E0
:100050000C940C020C940C020C940C020C940C02E8
:100060000C940C020C940C0241726D61676564641F
:100070006F6E0008081818182424424281080800EE
:1000800000000022767EFF03053F213F1208120A7E
:10009000100A0E1C0E0C1E0C141A14161F161E131A
:1000A0001E1E1B1E1E1F1E3F213F3A2F3A173D17D3
:1000B0003F213F181F02040A041F0E04040E1F0AEA
:1000C0001F0A0E0E1F04110E2E252E2F2A2E262952
:1000D00029021F02081F08150E04040E150E15151F
:1000E0001B151B040604040C040000000017000389
:1000F00000031F0A1F16371A1904130A153A0003C2
:1001000000000E11110E000A040A040E0400300053
:100110000404040010001804031F111F121F101DF7
:10012000151711151F07041F17151D1F151D010198
:100130001F1F151F17151F000A00003200040A11A7
:100140000A0A0A110A040115020E11171E051E1FC4
:10015000150A0E110A1F110E1F15111F05010E1190
:100160001D1F041F111F1108100F1F041B1F10104B
:100170001F061F1E040F0E110E1F09060E112E1F43
:10018000051A121509011F011F101F0F180F1F0C50
:100190001F1B041B031C03191513001F1103041854
:1001A000111F000201022020200001020C121E1F5C
:1001B000120C0C12120C121F0C1A14041E05242A05
:1001C0001E1F021C141D1020201D1F0814111F10BB
:1001D0001E041E1E021C0C120C3E0A040C123E1EB3
:1001E000040214160A020F120E101E0E100E1E0824
:1001F0001E120C1226281E322A26041E21001F0061
:10020000211E040102013F213F0A4E6F205344206A
:1002100063617264206F720A6E6F204C4F414445D7
:10022000522E4845580A0A153A45786974001D202F
:10023000466C617368696E670A20206C6F61646543
:10024000722E2E2E0A0A444F4E2754205455524ED9
:10025000204F464621000A0A153A49676E6F7265BB
:10026000006D560A0A504C45415345205455524E94
:10027000204F464620004C4F57204241545445528F
:100280005921200017534400161378001613140048
:100290001510200015201000540A03E181867F3ECE
:1002A000186D830F0F0E0183866033186DC3198F8D
:1002B0001803C38E6033186DE330CF1803C39E60FC
:1002C0003630CDE360CF3006C79E7E3E30CDB36082
:1002D000CF300CC6F6603330D9B660CF33CFCCF612
:1002E0006061B0DB1E60CF30D86CE6C061B0DB1E51
:1002F000618F19986CC6C063B19B0E330F0FB07835
:10030000C6FF7E1F1B061E0F05008930080238023B
:10031000497868140000F6E8DBCFC3B8AEA49B921E
:100320008A827B746E68625C57524E4945413E3A00
:100330003734312E2C29272523211F1D1C1A19176C
:10034000161514131211100F0E0D0C0B0A090807C5
:1003500006450068010000050038016801000067DB
:100360000363030101FF030101F70300000008001C
:10037000020100000304070000000000000000016B
:100380000204081020408001020408102001020429
:1003900008102004040404040404040202020202FB
:1003A00002030303030303000000002300260029C7
:1003B0000000000000250028002B000000000024A1
:1003C0000027002A0000B30211241FBECFEFD8E09F
:1003D000DEBFCDBF11E0A0E0B1E0E6EFFDE202C07C
:1003E00005900D92AC32B107D9F723E0ACE2B1E051
:1003F00001C01D92A53CB207E1F713E0C8ECD3E0C1
:1004000004C02297FE010E948116C63CD107C9F79D
:100410000E94C2140C94F9160C9400008EE291E034
:100420000E94D90D68E670E08EE291E00E945C0DBA
:10043000109246018EE291E00C94B90960912D0171
:10044000615023E040912C018CE791E00E94060569
:1004500040912C01415023E060912D018CE791E007
:100460000C94E304CF93DF93D2E0C0E0C23011F0EC
:10047000C53019F423E730E002C02DE730E048E250
:100480006D2F8CE791E00E94D106CF5FD65FC83018
:1004900069F7DF91CF9108958EE291E00E941F0BE2
:1004A000882309F45FC064E088E391E00E94E603DA
:1004B00065E088E391E00E94E60341E060E088E3C4
:1004C00091E00E94EF03882361F020912D01822F9B
:1004D00090E003971CF08EEF820F01C080E08093C4
:1004E0002D0141E062E088E391E00E94EF03882360
:1004F00069F020912D01822F90E0823591051CF446
:1005000082E0820F01C084E580932D0141E061E02B
:1005100088E391E00E94EF03882361F020912C0191
:10052000822F90E003971CF08EEF820F01C080E0D5
:1005300080932C0141E063E088E391E00E94EF03A7
:10054000882361F020912C01822F90E08E971CF47B
:1005500082E0820F01C080E380932C010E941E0282
:100560000C943202089510927F0110927E0180E176
:1005700091E090937D0180937C010895CF93CFB754
:10058000F8948091B501811127C0EDE9F3E08491E1
:10059000E9E8F3E09491E82FF0E0EE0FFF1FE55457
:1005A000FC4FA591B4918C91892321F461E08AE0FC
:1005B0000E94E11261E08AE00E94A8128CB580617D
:1005C0008CBD8CB580648CBD61E08DE00E94A8126A
:1005D00061E08BE00E94A8128091B5018F5F80934B
:1005E000B501CFBFCF91089521E0FC01208308958C
:1005F00070E085E00C942012AF92BF92CF92DF9210
:10060000EF92FF920F931F93CF93DF93EC018981B9
:100610009A812FE0289F8001299F100D112485E1E8
:100620000E940312800F911F24E0969587952A95CA
:10063000E1F79A8389832881222391F1AC81AD80EF
:10064000B12CC12CD12CE885F9857F0100E010E0A8
:100650006E817F819B0140E050E08617970728F06C
:10066000BC01E817F90708F4BF0180E090E01F9291
:100670001F921F92AF930E947A146B830F900F907A
:100680000F900F9070E085E0DF91CF911F910F9157
:10069000FF90EF90DF90CF90BF90AF900C9420121E
:1006A000DF91CF911F910F91FF90EF90DF90CF904E
:1006B000BF90AF900895FC018CE39FE09383828309
:1006C00084E0818381E084870895CF93DF93EC01F8
:1006D0008C819D81892B81F18C858F7151F584E10D
:1006E0000E940312BC01882777FD8095982F0E94F5
:1006F000001526EE3FE34EEC50E40E948C150E945C
:10070000D2149B017B836A836115710581F084E0BB
:100710008983FE0140E0848195812817390710F410
:1007200049830AC04F5F32964430A9F702C08FEF69
:1007300089838C858F5F8C87DF91CF910895FC0131
:1007400088E0808389E0818387E0828386E08383F9
:1007500084E0848382E0858381E186830895DF924B
:10076000EF92FF920F931F93CF93DF937C01EC01E5
:1007700000E010E0DD24DA9462E088810E94A81293
:1007800088810E941713F701E00FF11F892B21F4D4
:1007900087818F5F878308C08781882349F08F3FD7
:1007A00011F4178201C0D78260E088810E94A812EC
:1007B0000F5F1F4F219607301105F1F6DF91CF91A2
:1007C0001F910F91FF90EF90DF900895FC01E60FCD
:1007D000F11D81E09781913009F080E00895262F86
:1007E00030E0FC01E20FF31F8781423028F4815092
:1007F0008E3F48F080E008958F3FE1F3642F0E9420
:10080000FF159130B9F781E008958EBD00000DB459
:1008100007FEFDCF8EB50895DC01643508F053C0A6
:10082000403308F050C090968C919097342F3595B6
:1008300035953595E62FFF27E7FDF095242F277096
:10084000823099F4DF01AA54BE4F84E53802A00D2E
:10085000B11D11248C9190E0022E02C095958795D0
:100860000A94E2F78095817009C0833039F44627F5
:100870001C968C91482740FF03C014C0811112C000
:1008800084E53802E00DF11D1124EA54FE4F81E0A9
:1008900090E0022E01C0880F0A94EAF780959081BB
:1008A000982310C084E53802E00DF11D1124EA54AC
:1008B000FE4F81E090E0022E01C0880F0A94EAF713
:1008C0009081982B908308951F93CF93DF93EC0131
:1008D000162FF89460E08F850E94E112888918161F
:1008E0001CF460E00E94E112812F0E9405048889B7
:1008F00018161CF461E00E94E1127894DF91CF9108
:100900001F91089528EF31E0E6EBF1E0DF01A90146
:100910001D9241505040E1F7DC0119961C92199745
:100920001A961C920895DF92EF92FF920F931F93F5
:10093000CF93DF93EC018C858F5F8C8786EBE82E5D
:1009400081E0F82ED12C6D2D6064CE010E946404EC
:1009500060E8CE010E94640461E08F850E94E1128C
:10096000888918161CF460E00E94E11200E010E093
:10097000F701E00FF11F80810E9405040F5F1F4FF8
:1009800004351105A9F7888918161CF461E00E9446
:10099000E112D39484E5E80EF11C86E0D812D3CF9F
:1009A00060E4CE01DF91CF911F910F91FF90EF9006
:1009B000DF900C946404FC0160A361A30895FC0122
:1009C00060A341A30895CF92DF92FF920F931F93EC
:1009D000CF93DF931F92CDB7DEB76C01062FF42EB5
:1009E00010E0121754F4412F4F0D602FC6012983D8
:1009F0000E940C041F5F2981F4CF0F90DF91CF91EB
:100A00001F910F91FF90DF90CF900895CF92DF92CA
:100A1000FF920F931F93CF93DF931F92CDB7DEB753
:100A20006C01062FF42E10E0121754F4612F600FA2
:100A30004F2DC60129830E940C041F5F2981F4CF2A
:100A40000F90DF91CF911F910F91FF90DF90CF908A
:100A50000895DF92EF92FF920F931F93CF93DF934E
:100A6000EC01E62ED22EF42E112707FD1095040F6F
:100A7000111D47FD1A958F2D992787FD9095801799
:100A8000910744F42D2D4F2D6E2DCE010E940605A9
:100A9000F394F1CFDF91CF911F910F91FF90EF90E1
:100AA000DF9008958F929F92AF92BF92CF92DF9284
:100AB000EF92FF920F931F93CF93DF93EC01E62EFB
:100AC000D42E122FCC24C394C21AB22EB194BB0CD4
:100AD000F12C802F8470A82E802F8270982E802F6A
:100AE0008870882E0170F1160CF04DC0C7FC04C050
:100AF0001150B394B394CB0CF3948F2D880F8F5F68
:100B0000C80EAA2071F0412F4D0D6F2D6E0DCE0134
:100B10000E940C044F2D4D0D612F6E0DCE010E94D1
:100B20000C04992071F04D2D411B6F2D6E0DCE01DF
:100B30000E940C044D2D4F19612F6E0DCE010E94A5
:100B40000C04882071F04F2D4D0D6E2D611BCE01D0
:100B50000E940C04412F4D0D6E2D6F19CE010E9485
:100B60000C04002309F4BFCF4D2D4F196E2D611BCE
:100B7000CE010E940C044D2D411B6E2D6F19CE012C
:100B80000E940C04B0CFDF91CF911F910F91FF9085
:100B9000EF90DF90CF90BF90AF909F908F9008958F
:100BA0008F929F92AF92BF92CF92DF92EF92FF927D
:100BB0000F931F93CF93DF93EC01B62EA42E122F29
:100BC000DD24D394D21AC22EC194CC0CFF24F3940A
:100BD000802F8170882E992493949E0C02708FEF41
:100BE0008F0D8117C4F5D7FC04C01150C394C39472
:100BF000DC0C8F2D880F8F5FD80E882099F0212F65
:100C0000220F290D4A2D411B6F2D6B0DCE010E9425
:100C1000E30423E02E0D4A2D4F19612F6B0DCE01F9
:100C20000E94E304002399F0212F220F290D4A2D61
:100C3000411B6B2D6F19CE010E94E30423E02E0DA2
:100C40004A2D4F196B2D611BCE010E94E304F394D2
:100C5000E394E394C4CFDF91CF911F910F91FF9064
:100C6000EF90DF90CF90BF90AF909F908F900895BE
:100C70009F92AF92BF92CF92DF92EF92FF920F932B
:100C80001F93CF93DF93EC01B62EF42EA22EDE2C11
:100C9000D194DD0C9D2C920E1E2D160F292D612F47
:100CA0000E940605CC24CA94C00ECF0C292D4C2DD1
:100CB000612FCE010E940605D00EFE0C2D2D4F2D6A
:100CC0006B2DCE010E94E304BA0C6FEF6B0D2D2D3E
:100CD0004F2DCE010E94E30401E02E2D4F2D612FF8
:100CE000CE010E945205DE2CD094DB0C02E02E2DAA
:100CF0004F2D6D2DCE010E945205CE1804E02E2DF1
:100D00004C2D6D2DCE010E94520508E02E2D4C2D4C
:100D1000612FCE010E945205DF91CF911F910F915B
:100D2000FF90EF90DF90CF90BF90AF909F9008958D
:100D3000AF92BF92CF92DF92EF92FF920F931F93E9
:100D4000CF93DF93EC01A62EC42EB22EF02E1E2DD3
:100D5000E194EE0CD12ED60E2E2D2B0D6D2D0E9472
:100D60002905FA94FE0CC10E6FEF6A0D6B0D611B25
:100D7000EF2C01E0212F4C2DCE010E94D00502E086
:100D8000212F4C2D6D2DCE010E94D005DF91CF91EA
:100D90001F910F91FF90EF90DF90CF90BF90AF9099
:100DA00008956F927F928F929F92AF92BF92CF924F
:100DB000DF92EF92FF920F931F93CF93DF93F9018E
:100DC000A49031965491FC01F0A064350CF00CC154
:100DD000BB24A7FCB094A62FBB27A7FDB095FD01AF
:100DE000EA0DFB1D1E161F060CF0FEC040330CF072
:100DF000FBC0C52E042F112707FD1095E801C50F74
:100E0000D11D57FDDA951C161D060CF0EDC0E90149
:100E100022969501295F3F4F37FF02C0295F3F4F60
:100E200073E0359527957A95E1F747FF0AC0C52EFF
:100E3000C40E209FA001219F500D1124C41BD50B6F
:100E400040E00C2D112707FD1095040F111D47FDE3
:100E50001A95013311051CF070E3C72EC41A67FD03
:100E600060E0E535F10514F0E4E5F0E01E2FFC014B
:100E700074857427862F992787FD9095FC01EA1BBE
:100E8000FB0BDF015F01F7E0AF22BB24E0E8F0E0FD
:100E900002C0F595E795AA94E2F70E2FB7FD1796D5
:100EA00053E0B595A7955A95E1F7AC0FBD1FE42F18
:100EB000E77051E001C0550FEA95EAF74595459571
:100EC0004595E4E54E02800D911D11248A549E4FF4
:100ED00040E0DD24C7FCD094BB24B3943327E42F37
:100EE000F0E0EC15FD050CF07FC0FD01E490F1E0B1
:100EF000FF1219C0EC01A02EFD01862E881A9C2E2F
:100F0000980C911608F067C09E2C9A2019F09880D2
:100F1000952A9882A69429F43196E4906894AA249C
:100F2000A7F82196ECCFF1101BC0752E7094EC0140
:100F3000A02EFD01862E881A9C2E980C911608F082
:100F40004AC09E2C9A2019F0988097209882A694E7
:100F500029F43196E4906894AA24A7F82196ECCF5E
:100F6000E3E0FE1631F0EC01A02EFD01862E881A7A
:100F70002EC0752E7094962EEC01A02EFD019116B8
:100F8000B0F48E2C8A2049F08880692C672660FE98
:100F900002C0852A01C087208882A69429F4319650
:100FA000E4906894AA24A7F893942196E8CF7B252F
:100FB00012C09E2C9A2019F0988095269882A694AB
:100FC00029F43196E4906894AA24A7F821969C2EDF
:100FD000980C911670F3550F19F48C5A9F4F51E0ED
:100FE0004F5FA20FB31F7BCFDF91CF911F910F9166
:100FF000FF90EF90DF90CF90BF90AF909F908F9039
:101000007F906F900895DC01FB0184918F5F1496AF
:101010008C9314973196E491EF5F1596EC931597A6
:101020006E5F7F4F5F967C936E935E970895EF920D
:101030000F93CF93DF93EC014E876D872F87E98A5B
:10104000088B81E0888788A319A28F8367E870E006
:10105000CE010E9403080E94BE028CB58F7D8CBD1C
:101060008CB58C7F81608CBD8DB581608DBD8CB55C
:101070008C608CBD61E08E850E94A81261E08D8538
:101080000E94A81261E08F850E94A8128989181613
:101090001CF461E00E94A812888918161CF461E013
:1010A0000E94A812898918166CF460E00E94E1126F
:1010B0006AE070E080E090E00E948E1161E0898932
:1010C0000E94E1128D85992787FD9095FC01ED56D0
:1010D000FC4FE491F0E0EE0FFF1FEF54FC4F259121
:1010E00034913D8B2C8BFC01E158FC4F84918B8F0C
:1010F0008E85992787FD9095FC01ED56FC4FE49174
:10110000F0E0EE0FFF1FEF54FC4F259134913B8B25
:101110002A8BFC01E158FC4F84918A8F888999279A
:1011200087FD9095FC01ED56FC4FE491F0E0EE0F49
:10113000FF1FEF54FC4F259134913F8B2E8BFC0108
:10114000E158FC4F84918C8F8F85992787FD90956E
:10115000FC01ED56FC4FE491F0E0EE0FFF1FEF5461
:10116000FC4F25913491398F288FFC01E158FC4FB9
:1011700084918D8F61E2CE010E94640464E1CE010E
:101180000E9464048B8587FF02C08FE78B876B8585
:101190006068CE010E94640460E2CE010E94640493
:1011A0006CE0CE010E946404CE01DF91CF910F91DB
:1011B000EF900C9493046F927F928F929F92AF92D4
:1011C000BF92CF92DF92EF92FF920F931F93CF9334
:1011D000DF93EC01162FF42EB02EE8A064350CF04E
:1011E00081C08FE284170CF47DC0EC81F0E0319770
:1011F0000E9FC0010F9F900D1124860F911D67FD5A
:101200009A95181619060CF06DC08D81809FC0014B
:101210001124840F911D47FD9A95181619060CF09C
:1012200061C0A62E962EC22ED12C8A2D811B992705
:1012300087FD90952C8130E0821793070CF051C008
:10124000215031098217930779F0C29ED001C39EC5
:10125000B00DD29EB00D1124A80FB91FEE8DFF8DD9
:10126000EA0FFB1F749001C0712C8F2C6F2C282D5E
:101270002F19332727FD30958D8190E028173907E6
:101280006CF570FE11C081E0B81206C0482D6A2DC1
:10129000CE010E940C041EC00B2D2B2D462D692D56
:1012A000CE010E94290516C089A198A1891791F045
:1012B00088A381E0B81206C0482D6A2DCE010E9495
:1012C0000C0407C00B2D2B2D462D692DCE010E943D
:1012D0002905E8A276946B0C8394C9CF9B0CA39448
:1012E000A4CFE8A2DF91CF911F910F91FF90EF90D3
:1012F000DF90CF90BF90AF909F908F907F906F9036
:1013000008950F93CF93DF93EC01262F6A3039F4C1
:101310002D8198858A85299F800D112422C06D30EA
:1013200011F108854A8569850E94DB0848855C8142
:101330002985549F200D112429878F81882399F0B6
:10134000332727FD309584E590E0459F801991096A
:101350001124821793073CF49D818A85499F800D53
:1013600011248A87198681E090E0DF91CF910F9157
:1013700008958F929F92AF92BF92CF92DF92EF9299
:10138000FF92CF93DF93EC01CA8CDB8CC094D09496
:10139000E12CF12C0E946B114B015C010E946B113E
:1013A000A5019401209530954095509560957095D4
:1013B000809590950E94EF159B01AC01C701B60185
:1013C0000E94EF156B017C0189809A80A12CB12CC1
:1013D0000E946B11680D791D8A1D9B1D6C0D7D1D72
:1013E0008E1D9F1DDF91CF91FF90EF90DF90CF90EA
:1013F000BF90AF909F908F900C9472148F929F9299
:10140000AF92BF92CF92DF92EF92FF920F931F9312
:10141000CF93DF93EC015C0186E8A80EB11CD501E7
:101420008C91882309F44DC08C3018F41CE0181BF3
:1014300001C010E0FE01EA5AFF4F81E080836E0197
:10144000BEE4CB0ED11C60E0C6010E94DB044E015D
:10145000E3E58E0E911CD4018C9103E0080F9DE210
:10146000F92E4F2D481B410F23E0E22E24E560E0CA
:10147000C6010E94980661E0C6010E94DB04F401E7
:10148000808103E0080F4F2D481B410F24E560E0E9
:10149000C6010E943806FE01E95AFF4F84E08083AE
:1014A0003196D4018C91181B115D1083CC57DF4FFE
:1014B00068817981C6010E947E13F5018081815087
:1014C0008083DF91CF911F910F91FF90EF90DF907C
:1014D000CF90BF90AF909F908F900895DF92EF9242
:1014E000FF920F931F93CF93DF93EC018C8D9D8D13
:1014F000892B09F49CC08E01025B1F4F40E061E024
:10150000C8010E94DF0485E5FE01EE5AFF4F90817D
:10151000891B3596808331961082698D613009F47C
:1015200062C028F0888D653008F074C06FC0CE01AD
:1015300085960E945E0F81E0FE01EA5AFF4F80838C
:1015400067E870E0C8010E9403081D8E1C8EFE0132
:10155000EC5AFF4F108238EAD32E7E018AE0E80E63
:10156000F11CCE010E941F0B8823D9F366E772E0BD
:10157000C8010E947E136A8D7B8D4AE050E0C8014D
:101580000E946C1461E672E0C8010E947E136D2D0A
:1015900062956F7070E04AE050E0C8010E945714F5
:1015A00066E572E0C8010E947E1364E0C7010E94F4
:1015B000E60381113CC0DA94A1F660E0CE010E94FE
:1015C000F80283B7817F846083BF83B7816083BF64
:1015D00083B7816083BF889583B78E7F83BF83B7CE
:1015E0008E7F83BFBECFCF58DF4F488159816A813C
:1015F0007B814F7055276627772748305105610555
:10160000710510F467E009C068E707C0882379F026
:101610006B5F03C0882359F06FE2C801DF91CF915F
:101620001F910F91FF90EF90DF900C94A113DF9129
:10163000CF911F910F91FF90EF90DF9008958F92BF
:101640009F92AF92BF92EF92FF920F931F93CF930F
:10165000DF93EC017C0100E8E00EF11CF7018080D3
:101660009180A280B3800E945F1195018401061BC6
:10167000170B280B390BB901A8015E011FE7A10E5A
:10168000B11CF501808190E0A0E0B0E08E0105582A
:101690001F4F84179507A607B70750F4F8018081FC
:1016A0009181A281B381892B8A2B8B2B09F040C0B9
:1016B000F80180819181A281B381892B8A2B8B2BA8
:1016C000A9F57E01F5E2EF0EF11CC7010E945B0F48
:1016D000C7010E94C80FC7010E948C10CE010E9452
:1016E000FE09CE010E946E0A7E012EE4E20EF11C7C
:1016F000C7010E949304FE01EC5AFF4F80818111C3
:1017000003C0C7010E9482040E946B11F80160832C
:10171000718382839383FE01EB58FF4FC958DF4FDB
:1017200028813981621B730B7183608380E036C02E
:101730000E945F11F5012081620F711D811D911DB5
:10174000F7016083718382839383FE01EF58FF4F1B
:1017500040815181628173814F5F5F4F6F4F7F4F37
:101760004083518362837383F80110821182128255
:1017700013820E946B11FE01E958FF4F6083718351
:1017800082839383CE010E94FC02CE010A960E94BE
:10179000AF03CE0148960E94650381E0DF91CF91AF
:1017A0001F910F91FF90EF90BF90AF909F908F90FF
:1017B00008950F931F93CF93DF938C01EC01C25BCD
:1017C000DF4FCE010E9482046EE272E0CE010E94E1
:1017D0007E13CE010E9493048CB583608CBD8DB5C1
:1017E0008E7F8DBD84E191E0EEEFFFE30995F80176
:1017F000EC5AFF4F108269E072E0CE010E94AC13F8
:10180000CE010E949304065F1F4FC8010E94AF03E0
:1018100064E0C8010E94E603811107C062E370E042
:1018200080E090E00E948E11F0CFDF91CF911F9168
:101830000F9108952F923F924F925F926F927F92F5
:101840008F929F92AF92BF92CF92DF92EF92FF92D0
:101850000F931F93CF93DF93CDB7DEB729970FB6C2
:10186000F894DEBF0FBECDBF998788871B012A0180
:101870003C0180E7680E711CF3018081882309F424
:1018800002C181E0E885F985EA5AFF4F8083E88547
:10189000F985EB5AFF4F1082E885F985EC5AFF4F26
:1018A0001082E885F985108E8F01025B1F4F61E081
:1018B000C8010E94DB04888599858D5A9F4F9C83BF
:1018C0008B83C884D98497E5C90ED11CE884F98438
:1018D000E8E5EE0EF11C888599858E5A9F4F9A8314
:1018E0008983E885F985EF58FF4FFE83ED8388846F
:1018F0009984FAE08F0E911CA884B98485E2A80E21
:10190000B11C888599850E941F0B8823D1F3F101B2
:101910008491882321F0EB81FC81508101C050E04B
:1019200028E932E040E060E0C8015F830E94D10610
:101930005F814114510439F04CE0450F920160E0A1
:10194000C8010E94D106F60110828CE0F701808365
:10195000B101C8010E947E13E981FA819081892F2B
:10196000880F890F81958D5AF6018083EB81FC8168
:101970009081892F880F890F8195835DF70180837E
:10198000ED81FE81808184FF03C064E972E002C0C2
:1019900060E972E0C8010E94AC13E981FA8190818C
:1019A000892F880F890F81958D5AF6018083F70161
:1019B00080818F5F8083E885F98582A5882319F06F
:1019C0006CE872E002C068E872E0C8010E94AC13E3
:1019D000E981FA819081892F880F890F81958D5A2D
:1019E000F6018083F70180818F5F808364E872E075
:1019F000C8010E94AC1365E0C4010E94E60388237D
:101A000051F0E885F98562A56F5FC5010E94081154
:101A1000C5010E94F21064E0C4010E94E603811136
:101A200013C0F3012081822F90E0A0E0B0E0ED81AF
:101A3000FE814081518162817381481759076A078D
:101A40007B07A8F02F3F99F08FEFF3018083088583
:101A500019850B5D1F4F60E0C8010E94050FC8018A
:101A60000E94DC1081E0E885F985808F0CC066E07B
:101A7000C4010E94E603882309F443CF8885998531
:101A80000E94D90B34CF29960FB6F894DEBF0FBE53
:101A9000CDBFDF91CF911F910F91FF90EF90DF901D
:101AA000CF90BF90AF909F908F907F906F905F90FE
:101AB0004F903F902F90089540E050E00C941A0C06
:101AC000E0E8F7E72591349181E02130304C09F0CE
:101AD00080E00895CF93DF93EC010E94600D9E019A
:101AE000275A3F4FDE01A059BF4F882309F43CC05D
:101AF000E6E9F7E78491F9018083E7E9F7E7E49104
:101B0000EC83E8E9F7E7E491ED83E9E9F7E785910C
:101B100094919F838E83EBE9F7E785919491998760
:101B20008887EDE9F7E7E491EBA7EEE9F7E7E491C1
:101B3000EAA7EFE9F7E7E491EC93E0EAF7E78591AC
:101B400094919D8F8C8FE2EAF7E7859194919F8F16
:101B50008E8FE4EAF7E78591949199A388A3E6EA4A
:101B6000F7E78591949120C08CE3F90180831C8272
:101B70002FEF2D8380E293E09F838E8384ED93E0AB
:101B80009987888781E08BA78AA72C938CEA9DE0B0
:101B90009D8F8C8F8EED9DE09F8F8E8F84E79EE0D2
:101BA00099A388A38CE39FE09BA38AA3DF91CF91A5
:101BB0000895CF92DF92EF920F93CF93DF93EC01D2
:101BC000FC01E158FF4F82E38083349741E050E00D
:101BD00060E070E040835183628373833B978FEFB3
:101BE0008083CE010E946A0DCE010E94F4026FEF45
:101BF000CE010E94F8026E018AE0C80ED11CC60117
:101C00000E949F03C6010E94AF03CE0148960E9426
:101C10005B033EE0E32E0FE020E14BE06DE0CE0100
:101C2000825B9F4F0E941708A596CE010E94710EFD
:101C300065E0C6010E94E603882351F060E0CE0112
:101C4000DF91CF910F91EF90DF90CF900C9408111E
:101C500040E068E073E0CE01DF91CF910F91EF900B
:101C6000DF90CF900C94100FCF93DF9350E0FA01E8
:101C7000EE0FFF1FE80FF91F37852089E32FF22FA2
:101C8000E60FF11DE60FF11D25913491FA01EE0FDB
:101C9000FF1FE80FF91F30A3278FF9016591749199
:101CA000FC01D481D69FC02D1124E40FF51FC1A3E0
:101CB000F901A591B4916B2F70E0EC2FF0E0DC01FD
:101CC000A40FB51F6E177F0720F4F90125913491F9
:101CD000C32FCD9FC02D11249296CC93DF91CF912D
:101CE000089521E0FC01248324E020A72FE533E0C0
:101CF000308B278740E060E00E94340E61E070E0A6
:101D000083E00E942012E1EBF0E08081887F816017
:101D10008083F89410928000E1E8F0E01082109245
:101D200085001092840088E191E09093890080936F
:101D30008800808188608083808181608083EFE675
:101D4000F0E0808182608083789408950F93FC0195
:101D5000862F642F011129C08230D1F048F48823E6
:101D600091F0813011F540E0CF010F910C94340EC9
:101D70008330A9F08430C9F48481489F602D1124F8
:101D8000658F268F12C04B3008F06AE0668B0DC05D
:101D90008481489F602D1124618F228F06C0848129
:101DA000489F602D1124638F248F0F910895FC01AB
:101DB00021110EC0648B8481489F402D1124458BD6
:101DC00015A214A213A281E0878B8093BA03108E10
:101DD00008958091BA03882319F08091B70301C058
:101DE00080E08093B4000895FC0161110DC0178A52
:101DF000158A14A213A2108E1092B7031092B80382
:101E00001092BA030C94E90E0895CF93DF93EC017E
:101E1000611103C00E94F40E1982DF91CF910895E1
:101E20000F931F93CF93DF93EC018B0141110EC0F1
:101E300060E00E94050F1E870D871B8A1A8A81E0C9
:101E4000898389E08E8B198E1B8E1D8EDF91CF9139
:101E50001F910F910895CF93DF93EC01611128C07A
:101E60008881882329F18981811122C089852F8168
:101E70009885E22FF92FE80FF11DE80FF11D8591EC
:101E800094918F3F2FEF920711F4188211C09C8715
:101E90009927880F991FEA85FB85E80FF91F65913F
:101EA000749140E0CE010E94100F89858F5F898771
:101EB000DF91CF91089560E00C942B0F60E00C94BB
:101EC000050F0F93CF93DF93EC0161115DC0898102
:101ED000882309F459C08D89811156C02D853E850E
:101EE0008A899B89880F991F820F931FFC01859116
:101EF00094910097D1F48989882321F01B8A1A8A4A
:101F0000F90111C01982888160E0882331F0CE0187
:101F10000E942B0F8A899B8925C0CE01DF91CF912A
:101F20000F910C94F40E85919491BC017695679570
:101F30007695679580FF1DC0AC01A6E05695479544
:101F4000AA95E1F7292F26952695269520514F71C0
:101F50006F7000E0CE010E94A60E8A899B890196CF
:101F60009B8B8A8B880F991FED85FE85E80FF91FE3
:101F7000DACF492F6F7320E0CE010E94D70E8A89F5
:101F80009B8901969B8B8A8BDF91CF910F9108954E
:101F900060E00C94610FCF93DF93EC016111B9C045
:101FA0008F89882309F4B5C08D89811105C0CE01C0
:101FB000DF91CF910C94F40E81508D8B8DA1811106
:101FC00038C08BA19CA101969C01220F331FEF8D7D
:101FD000F8A1E20FF31F25913491422F47704EA3D1
:101FE000A90163E0569547956A95E1F7BA017695A0
:101FF0006795232F269526952FA36F732C81629FBB
:10200000602D11246DA341704093B6039CA38BA354
:1020100029A130E08217930760F08AA1882329F074
:10202000281B31093CA32BA304C060E0CE010E9411
:10203000F40E8DA181508DA3288D2F5F288F4C89A0
:102040003FA1340F8C85380F3A836B8D662361F086
:1020500070E0822F992787FD90950E941F168C8D26
:10206000869F300D11243A838A8190E0CB966BE3F2
:1020700070E00E941F168A833E893B83698D662328
:1020800071F0772767FD7095822F992787FD9095CE
:102090000E941F168A8D869F300D11243B836D8D03
:1020A000662391F0822F992787FD909570E00E941A
:1020B0001F16CB0162E070E00E941F162E8D9B81DF
:1020C000289F900D11249B838B814F3339F08A30E8
:1020D0000CF089E087FD80E08B8301C01B82F894BF
:1020E000EA81F0E0EA5EFC4FE491E093B90398A541
:1020F0008D81989F802D11249B81899F802D112493
:102100009EA1899F802D11248093B8038093B703EB
:102110007894DF91CF91089560E00C94CB0F60919B
:10212000B803662321F18091BB038F5F8093BB03CB
:102130009091B9038917D8F08091BA0391E089276B
:102140008093BA031092BB038091B603882369F091
:1021500090910A0183E4989F802D1124895B8093DC
:102160000A010E94FF159093B7030C94E90E08959D
:102170001F920F920FB60F9211242F933F934F93FC
:102180005F936F937F938F939F93AF93BF93EF93DF
:10219000FF930E948F10FF91EF91BF91AF919F919C
:1021A0008F917F916F915F914F913F912F910F9000
:1021B0000FBE0F901F901895CF93DF93EC0160E056
:1021C0000E94050F87E593E09E878D871B8A1A8AF8
:1021D00081E0898389E08E8B198E1B8E1D8EDF91A5
:1021E000CF910895CF93DF93EC0160E00E94050F3B
:1021F00081E593E09E878D871B8A1A8A81E0898317
:1022000089E08E8B198E1B8E1D8EDF91CF910895E4
:10221000FC01862F992787FD9095668170E06F5F9E
:102220007F4F0E941F16858308951F920F920FB64D
:102230000F9211242F933F938F939F93AF93BF934C
:102240008091BD039091BE03A091BF03B091C003E4
:102250003091BC0323E0230F2D3720F40196A11DFC
:10226000B11D05C026E8230F0296A11DB11D2093C4
:10227000BC038093BD039093BE03A093BF03B093B0
:10228000C0038091C1039091C203A091C303B09198
:10229000C4030196A11DB11D8093C1039093C20395
:1022A000A093C303B093C403BF91AF919F918F914B
:1022B0003F912F910F900FBE0F901F9018952FB741
:1022C000F8946091BD037091BE038091BF0390911B
:1022D000C0032FBF08953FB7F8948091C103909138
:1022E000C203A091C303B091C40326B5A89B05C047
:1022F0002F3F19F00196A11DB11D3FBF6627782F12
:10230000892F9A2F620F711D811D911D42E0660F6A
:10231000771F881F991F4A95D1F708958F929F9232
:10232000AF92BF92CF92DF92EF92FF926B017C014E
:102330000E946B114B015C01C114D104E104F10452
:10234000F1F00E94D1140E946B11681979098A0971
:102350009B09683E73408105910570F321E0C21A24
:10236000D108E108F10888EE880E83E0981EA11CD0
:10237000B11CC114D104E104F10429F7DDCFFF90B1
:10238000EF90DF90CF90BF90AF909F908F90089587
:10239000789484B5826084BD84B5816084BD85B540
:1023A000826085BD85B5816085BDEEE6F0E0808107
:1023B00081608083E1E8F0E0108280818260808328
:1023C000808181608083E0E8F0E0808181608083AB
:1023D000E1EBF0E0808184608083E0EBF0E08081DD
:1023E00081608083EAE7F0E080818460808380817F
:1023F0008260808380818160808380818068808327
:102400001092C10008958E3008F08E508770209190
:102410000B0190E4299F90011124822B80937C0072
:1024200080917A00806480937A0080917A0086FDA2
:10243000FCCF809178002091790090E0922B089554
:102440001F93CF93DF93182FEB0161E00E94A81236
:10245000209711F460E004C0CF3FD10539F461E06A
:10246000812FDF91CF911F910C94E112E12FF0E0C9
:10247000E559FC4FE491E330F9F048F4E130B9F06C
:10248000E230A1F584B5806284BDC8BD34C0E730B8
:10249000E9F0E83019F1E43049F58091800080627C
:1024A00080938000D0938B00C0938A0024C084B5B1
:1024B000806884BDC7BD1FC0809180008068809304
:1024C0008000D0938900C093880015C08091B0002F
:1024D00080688093B000C093B3000DC08091B000BD
:1024E00080628093B000C093B40005C0C038D105AD
:1024F0000CF0B5CFAFCFDF91CF911F91089583300E
:1025000081F028F4813099F08230A1F0089587306D
:10251000A9F08830B9F08430D1F4809180008F7DAB
:1025200003C0809180008F7780938000089584B5E8
:102530008F7702C084B58F7D84BD08958091B000EF
:102540008F7703C08091B0008F7D8093B000089595
:10255000CF93DF9390E0FC01E158FC4F2491FC0104
:10256000ED56FC4F8491882349F190E0880F991F24
:10257000FC01E554FC4FA591B4918F549C4FFC0194
:10258000C591D4919FB7611108C0F8948C912095A2
:1025900082238C93888182230AC0623051F4F8949C
:1025A0008C91322F309583238C938881822B888362
:1025B00004C0F8948C91822B8C939FBFDF91CF91B4
:1025C00008950F931F93CF93DF931F92CDB7DEB77C
:1025D000282F30E0F901E559FC4F8491F901E158C9
:1025E000FC4F1491F901ED56FC4F04910023C9F002
:1025F000882321F069830E947F126981E02FF0E037
:10260000EE0FFF1FEF54FC4FA591B4919FB7F894C4
:102610008C91611103C01095812301C0812B8C9393
:102620009FBF0F90DF91CF911F910F910895CF938E
:10263000DF93282F30E0F901E559FC4F8491F9012F
:10264000E158FC4FD491F901ED56FC4FC491CC23D5
:1026500091F081110E947F12EC2FF0E0EE0FFF1F2E
:10266000E955FC4FA591B4912C912D2381E090E088
:1026700021F480E002C080E090E0DF91CF910895E6
:10268000CF92DF92EF92FF920F931F93CF93DF933E
:102690007C016A01EB0100E010E00C151D0571F0F2
:1026A0006991D701ED91FC910190F081E02DC70176
:1026B0000995892B19F00F5F1F4FEFCFC801DF91EC
:1026C000CF911F910F91FF90EF90DF90CF900895E1
:1026D0006115710581F0DB010D900020E9F7AD0176
:1026E00041505109461B570BDC01ED91FC910280D2
:1026F000F381E02D099480E090E00895EF92FF923D
:102700000F931F93CF93DF938C017B01C0E0D0E048
:10271000F701EC0FFD1F6491662359F0F801A081C9
:10272000B181ED91FC91C8010995892B11F0219699
:10273000EFCFCE01DF91CF911F910F91FF90EF90DE
:102740000895DC01ED91FC910190F081E02D099458
:102750006BE171E00C9468130F931F93CF93DF9399
:10276000EC010E947E138C01CE010E94A813800F01
:10277000911FDF91CF911F910F9108958F929F929A
:10278000AF92BF92DF92EF92FF920F931F93CF937E
:10279000DF93CDB7DEB7A1970FB6F894DEBF0FBEBB
:1027A000CDBF7C01F42FD52ECB0119A2223008F425
:1027B0002AE08E010F5D1F4F822E912CA12CB12C8F
:1027C0006F2F7D2DA50194010E943316F22FD32E79
:1027D000CA01015011096A3014F4E0E301C0E7E3D3
:1027E000E60FD801EC93232B242B252B49F7B801B6
:1027F000C7010E946813A1960FB6F894DEBF0FBE02
:10280000CDBFDF91CF911F910F91FF90EF90DF909F
:10281000BF90AF909F908F900895CF92DF92EF92EC
:10282000FF920F931F93CF93DF93EC016A017B011B
:102830002115310579F4E881F9810190F081E02DCD
:10284000642FDF91CF911F910F91FF90EF90DF9058
:10285000CF9009942A303105E9F477FF1AC06DE270
:102860000E94A1138C0144275527BA014C195D0918
:102870006E097F092AE0CE010E94BE13800F911FCE
:10288000DF91CF911F910F91FF90EF90DF90CF904C
:1028900008952AE0B701A601CE01DF91CF911F91E3
:1028A0000F91FF90EF90DF90CF900C94BE139A01A0
:1028B000AB01662757FD6095762F0C940D142115FA
:1028C000310541F4DC01ED91FC910190F081E02DA6
:1028D000642F09940C94BE139A01AB0160E070E080
:1028E0000C945F14611571058105910511F00C942C
:1028F000E81608954F925F926F927F92AF92BF92C7
:10290000CF92DF92EF92FF920F931F93CF93DF93BB
:10291000CDB7DEB729013A01621B730B840B950B0F
:1029200029893A894B895C892A193B094C095D0937
:10293000298B3A8B4B8B5C8B9B01AC0169897A8923
:102940008B899C890E94EF15E418F5080609170980
:10295000A80197010E9455162A0D3B1D4C1D5D1DB7
:10296000CA01B901DF91CF911F910F91FF90EF90B4
:10297000DF90CF90BF90AF907F906F905F904F901F
:10298000089508950E94C8110E94C1140E940E0269
:10299000C0E0D0E00E944C022097E1F30E940000CA
:1029A000F9CF089598D088F09F5790F0B92F9927C4
:1029B000B751A0F0D1F0660F771F881F991F1AF04A
:1029C000BA95C9F712C0B13081F09FD0B1E0089537
:1029D0009CC0672F782F8827B85F39F0B93FCCF3B8
:1029E000869577956795B395D9F73EF49095809540
:1029F000709561957F4F8F4F9F4F0895E89409C060
:102A000097FB3EF490958095709561957F4F8F4F21
:102A10009F4F9923A9F0F92F96E9BB279395F69537
:102A2000879577956795B795F111F8CFFAF4BB0FB5
:102A300011F460FF1BC06F5F7F4F8F4F9F4F16C019
:102A4000882311F096E911C0772321F09EE8872FA3
:102A5000762F05C0662371F096E8862F70E060E05F
:102A60002AF09A95660F771F881FDAF7880F9695D8
:102A7000879597F9089597F99F6780E870E060E07F
:102A800008959FEF80EC089500240A941616170607
:102A900018060906089500240A941216130614064F
:102AA00005060895092E0394000C11F4882352F0B2
:102AB000BB0F40F4BF2B11F460FF04C06F5F7F4F6A
:102AC0008F4F9F4F089557FD9058440F551F59F051
:102AD0005F3F71F04795880F97FB991F61F09F3F0B
:102AE00079F087950895121613061406551FF2CF34
:102AF0004695F1DF08C0161617061806991FF1CF84
:102B000086957105610508940895E894BB276627AA
:102B10007727CB0197F908950BD0C4CFB5DF28F004
:102B2000BADF18F0952309F0A6CFABCF1124EECF72
:102B3000CADFA0F3959FD1F3950F50E0551F629F18
:102B4000F001729FBB27F00DB11D639FAA27F00D06
:102B5000B11DAA1F649F6627B00DA11D661F829F2D
:102B60002227B00DA11D621F739FB00DA11D621F12
:102B7000839FA00D611D221F749F3327A00D611D2F
:102B8000231F849F600D211D822F762F6A2F112411
:102B90009F5750408AF0E1F088234AF0EE0FFF1F64
:102BA000BB1F661F771F881F91505040A9F79E3F9B
:102BB000510570F060CFAACF5F3FECF3983EDCF395
:102BC000869577956795B795F795E7959F5FC1F7D8
:102BD000FE2B880F911D9695879597F90895DB0137
:102BE0008F939F930E947416BF91AF91A29F800D07
:102BF000911DA39F900DB29F900D11240895991BD4
:102C000079E004C0991F961708F0961B881F7A95E3
:102C1000C9F780950895AA1BBB1B51E107C0AA1FE5
:102C2000BB1FA617B70710F0A61BB70B881F991F6D
:102C30005A95A9F780959095BC01CD01089597FB11
:102C4000072E16F4009407D077FD09D00E940B16CA
:102C500007FC05D03EF4909581959F4F089570959F
:102C600061957F4F0895A1E21A2EAA1BBB1BFD019F
:102C70000DC0AA1FBB1FEE1FFF1FA217B307E4075B
:102C8000F50720F0A21BB30BE40BF50B661F771FB3
:102C9000881F991F1A9469F7609570958095909593
:102CA0009B01AC01BD01CF010895052E97FB1EF4D9
:102CB00000940E946C1657FD07D00E94331607FC43
:102CC00003D04EF40C946C16509540953095219598
:102CD0003F4F4F4F5F4F0895909580957095619548
:102CE0007F4F8F4F9F4F08950E948516A59F900D8F
:102CF000B49F900DA49F800D911D11240895EE0F97
:102D0000FF1F0590F491E02D0994A29FB001B39F9D
:102D1000C001A39F700D811D1124911DB29F700DE4
:102D2000811D1124911D08958F929F92AF92BF92A1
:102D3000CF92DF92EF92FF92CF93DF93EC01688105
:102D400079818A819B81611571058105910521F445
:102D500064E279ED8BE597E02DE133EF41E050E05F
:102D60000E94551649015A019B01AC01A7EAB1E442
:102D70000E9474166B017C01ACEEB4EFA5019401C6
:102D80000E94F416C60ED71EE81EF91EF7FE06C0F6
:102D900081E0C81AD108E10880E8F80AC882D9821F
:102DA000EA82FB82C701B6019F77DF91CF91FF9046
:102DB000EF90DF90CF90BF90AF909F908F9008954D
:102DC0000E949416089586E091E00E94941608955A
:102DD00060930601709307018093080190930901A5
:102DE0000895B7FF0C9474160E947416821B930BFF
:062DF0000895F894FFCFE6
:102DF6000000C50380000100000001010000000082
:102E0600810940134C4F41444552000D0A006E6142
:0C2E16006E00696E66006F7666002E008C
:00000001FF
