:100000000C9414020C943C020C943C020C943C02A0
:100010000C943C020C943C020C943C020C943C0268
:100020000C943C020C943C020C943C020C94AD16D3
:100030000C943C020C943C020C943C020C943C0248
:100040000C940A170C943C020C943C020C943C0255
:100050000C943C020C943C020C943C020C943C0228
:100060000C943C020C943C02084AD73B3BCE016EF8
:1000700084BCBFFDC12F3D6C74319ABD56833DDAFF
:100080003D00C77F11BED9E4BB4C3E916BAAAABE0E
:10009000000000803F05A84CCDB2D44EB93836A937
:1000A000020C50B9918688083CA6AAAA2ABE000074
:1000B00000803F0041726D61676564646F6E000887
:1000C000080000000000665A810808181818242447
:1000D0004242810808000000000000206208080079
:1000E00000000022767EFF03053F213F1208120A1E
:1000F000100A0E1C0E0C1E0C141A14161F161E13BA
:100100001E1E1B1E1E1F1E3F213F3A2F3A173D1772
:100110003F213F181F02040A041F0E04040E1F0A89
:100120001F0A0E0E1F04110E2E252E2F2A2E2629F1
:1001300029021F02081F08150E04040E150E1515BE
:100140001B151B040604040C040000000017000328
:1001500000031F0A1F16371A1904130A153A000361
:1001600000000E11110E000A040A040E04003000F3
:100170000404040010001804031F111F121F101D97
:10018000151711151F07041F17151D1F151D010138
:100190001F1F151F17151F000A00003200040A1147
:1001A0000A0A0A110A040115020E11171E051E1F64
:1001B000150A0E110A1F110E1F15111F05010E1130
:1001C0001D1F041F111F1108100F1F041B1F1010EB
:1001D0001F061F1E040F0E110E1F09060E112E1FE3
:1001E000051A121509011F011F101F0F180F1F0CF0
:1001F0001F1B041B031C03191513001F11030418F4
:10020000111F000201022020200001020C121E1FFB
:10021000120C0C12120C121F0C1A14041E05242AA4
:100220001E1F021C141D1020201D1F0814111F105A
:100230001E041E1E021C0C120C3E0A040C123E1E52
:10024000040214160A020F120E101E0E100E1E08C3
:100250001E120C1226281E322A26041E21001F0000
:10026000211E040102013F213F0A4E6F205344200A
:1002700063617264206F720A6E6F204C4F41444577
:10028000522E4845580A0A153A45786974001D20CF
:10029000466C617368696E670A20206C6F616465E3
:1002A000722E2E2E0A0A444F4E2754205455524E79
:1002B000204F464621000A0A153A49676E6F72655B
:1002C000006D560A0A504C45415345205455524E34
:1002D000204F464620004C4F57204241545445522F
:1002E00059212000175344001613780016131400E8
:1002F0001510200015201000540A03E181867F3E6E
:10030000186D830F0F0E0183866033186DC3198F2C
:100310001803C38E6033186DE330CF1803C39E609B
:100320003630CDE360CF3006C79E7E3E30CDB36021
:10033000CF300CC6F6603330D9B660CF33CFCCF6B1
:100340006061B0DB1E60CF30D86CE6C061B0DB1EF0
:10035000618F19986CC6C063B19B0E330F0FB078D4
:10036000C6FF7E1F1B061E0F0500893008023802DB
:10037000497868140000F6E8DBCFC3B8AEA49B92BE
:100380008A827B746E68625C57524E4945413E3AA0
:100390003734312E2C29272523211F1D1C1A19170C
:1003A000161514131211100F0E0D0C0B0A09080765
:1003B000064500680100000500380168010000C71B
:1003C00003C3030101FF030101F70300000008005C
:1003D000020100000304070000000000000000010B
:1003E00002040810204080010204081020010204C9
:1003F000081020040404040404040402020202029B
:100400000203030303030300000000230026002966
:100410000000000000250028002B00000000002440
:100420000027002A0000090811241FBECFEFD8E0E2
:10043000DEBFCDBF12E0A0E0B1E0EEE9FEE302C016
:1004400005900D92A03AB107D9F725E0A0EAB2E0F5
:1004500001C01D92AA33B207E1F714E0C8E2D4E06C
:1004600004C02297FE010E94D51EC632D107C9F7EB
:100470000E94DD1A0C944D1F0C940000DC016435C1
:1004800008F053C0403308F050C090968C9190977C
:10049000342F359535953595E62FFF27E7FDF095F7
:1004A000242F2770823099F4DF01A55DBC4F84E5CD
:1004B0003802A00DB11D11248C9190E0022E02C0D3
:1004C000959587950A94E2F78095817009C08330ED
:1004D00039F446271C968C91482740FF03C014C06E
:1004E000811112C084E53802E00DF11D1124E55D93
:1004F000FC4F81E090E0022E01C0880F0A94EAF7D9
:1005000080959081982310C084E53802E00DF11D9C
:100510001124E55DFC4F81E090E0022E01C0880FC0
:100520000A94EAF79081982B9083089583EA92E0E9
:100530000E94CE1364EB70E083EA92E00E945113B4
:100540001092BB0283EA92E00C94AE0F0F931F93BC
:10055000CF93DF936091A102615023E04091A0020C
:1005600081EF92E00E94040A4091A002415023E0F2
:100570006091A10281EF92E00E94E109CAEBD1E013
:100580000BE512E0F80131976081653548F4888108
:10059000853530F0F801408181EF92E00E943E0203
:1005A00024960E5F1F4FF1E0C23EDF0759F7DF913F
:1005B000CF911F910F910895CF92DF92EF921F93E9
:1005C000CF93DF938EE6C82E82E0D82EE60112E0AC
:1005D000EE24E3948C2F8C19823011F0853049F48D
:1005E0008881882319F029EC30E012C02FEB30E02D
:1005F0000FC08881882351F02DED30E048E2612F53
:1006000081EF92E00E94C60CE12C08C023ED30E09F
:1006100048E2612F81EF92E00E94C60C165F21969E
:100620001235C1F6EE2091F08BE18093FA0283E15E
:100630008093FB0268E772E081EF92E0DF91CF9157
:100640001F91EF90DF90CF900C949619DF91CF918E
:100650001F91EF90DF90CF900895AF92BF92CF920D
:10066000DF92EF92FF920F93CF93DF9300D0CDB73D
:10067000DEB73AE5E32E32E0F32E4AEBC42E41E03A
:10068000D42E52EEA52E51E0B52EF701808185358E
:10069000C8F5F60180818535A8F120E030E040E81A
:1006A0005FE3F50160857185828593850E94B41BA7
:1006B000F501811112C064817581868197810E9444
:1006C000231C062FF50160817181828193810E9434
:1006D000231C262F48E269E111C06481758186815F
:1006E00097810E94231C062FF50160817181828110
:1006F00093810E94231C262F48E268E381EF92E059
:100700000E94500AF2E0EF0EF11C84E0C80ED11CEA
:10071000ECE0AE0EB11CFEE6EF16F2E0FF0609F0CB
:10072000B4CF9AEAE92E91E0F92E2AE0C22E21E018
:10073000D22EF70181917F01853538F5F601648568
:100740007585868597850E94231C062FF601608596
:100750007185828593850E94231C262FF601648172
:100760007581868197812A830E94231C462FF6017A
:10077000608171818281938149830E94231C2A8137
:10078000498181EF92E00E94500AF0E1CF0ED11C26
:1007900084EBE81681E0F80661F60F900F90DF9188
:1007A000CF910F91FF90EF90DF90CF90BF90AF90DF
:1007B0000895CF93DF93CCEBD1E0FE0132976081B7
:1007C000653538F428813196408181EF92E00E94AE
:1007D000C80A249681E0C43ED80779F7DF91CF910B
:1007E0000895EAE5F2E020E030E09081953508F4E4
:1007F0004BC0F901EE0FFF1FE65AFD4F9091A10289
:1008000090839091A00291838130A9F48CE0829F23
:10081000F001839FF00D1124EE51FE4F80E090E037
:10082000A8ECB1E480839183A283B38380E090E05D
:10083000A0E8BFE314C08CE0829FF001839FF00D1D
:100840001124EE51FE4F80E090E0A0E6B2E48083F8
:100850009183A283B38380E090E0A0E0B0E480873E
:100860009187A287B3878CE0829FF001839FF00D70
:100870001124EE51FE4F80E090E0A0E2B2E48483C8
:100880009583A683B78308952F5F3F4F32962A3012
:10089000310509F0AACF0895CF92DF92EF92FF922F
:1008A000CF93DF93EAEAF1E08191853530F081E082
:1008B000E43BF807C9F780E001C081E09091B901FD
:1008C000992309F447C0882381F0C090B801D12C46
:1008D000E12CF12C64E670E080E090E00E94711A57
:1008E000C616D706E806F906ACF1EAEAF1E0C0E080
:1008F000D0E08191853550F168E070E080E090E0D3
:100900000E94711AFE01E655FE4F608364E570E0B7
:1009100080E090E00E94711AE4E0CC0FDD1FEA95C0
:10092000E1F7C65FDE4F0E94561C688379838A8395
:100930009B831C821D821E821F82688779878A871B
:100940009B871C861D861E861F8604C02196CA3082
:10095000D10579F6DF91CF91FF90EF90DF90CF90A6
:1009600008952F923F924F925F926F927F928F9253
:100970009F92AF92BF92CF92DF92EF92FF920F932E
:100980001F93CF93DF93CDB7DEB728970FB6F894B8
:10099000DEBF0FBECDBF8AEB91E09A8389830DEB5A
:1009A00011E0FBE52F2EF2E03F2EA2EEB1E0B8877A
:1009B000AF83F1013197B081BD83B53508F0BAC07E
:1009C000E981FA818081853508F4B4C0AF81B885AA
:1009D0004D905D906D907C90BD816B2F70E080E0BC
:1009E00090E00E94561CA30192010E94ED1A6B0137
:1009F0007C0120E030E0A9010E94641DF101F0813A
:100A0000FE8318165CF420E030E040E850E4C701B3
:100A1000B6010E94B41B87FD0BC046C020E030E049
:100A200040E850ECC701B6010E94641D1816E4F5B9
:100A30002E81622F70E080E090E00E94561CAF8112
:100A4000B88514962D913D914D915C9117970E9418
:100A5000ED1A4B015C0120E030E0A9010E94641D09
:100A600018165CF420E030E040E850E4C501B40121
:100A70000E94B41B87FD0BC017C020E030E040E8A7
:100A800050ECC501B4010E94641D18166CF42D8150
:100A9000E981FA812083F80132978E818083319633
:100AA0001082D8011C9246C0BE816B2F70E080E09E
:100AB00090E00E94561CEF81F885248135814681A3
:100AC00057810E94ED1AA70196010E94611B6B01DC
:100AD0007C010E94B81B20E030E040E850E40E9416
:100AE0006F1D9B01AC01C301B2010E94EE1AAF81E0
:100AF000B8856D937D938D939C931397C701B60131
:100B00000E94D21D20E030E040E850E40E946F1DBA
:100B10009B01AC01EF81F8856481758186819781A5
:100B20000E94EE1AAF81B88514966D937D938D93D4
:100B30009C931797E981FA813496FA83E9830C5FD5
:100B40001F4FF2E02F0E311C8F8198850C969887ED
:100B50008F8391E0053E190709F02BCF8091B401F6
:100B60009091B501A091B601B091B70189839A83A4
:100B7000AB83BC830AEA11E0A2E1B1E0B887AF839E
:100B8000F8016081653508F0B0C0262E312CAF81A8
:100B9000B8854D905D906D907C90BAE06B9FB001F0
:100BA00011246A5F7F4F882777FD8095982F0E94D8
:100BB000561CA30192010E94ED1A6B017C0120E0FA
:100BC00030E0A9010E94641D18165CF420E030E0BA
:100BD00040E850E4C701B6010E94B41B87FD0BC07A
:100BE0003CC020E030E040E850ECC701B6010E9474
:100BF000641D181694F5EF81F885248135814681AE
:100C0000578160E070E080E392E40E94ED1A4B01AE
:100C10005C0120E030E0A9010E94641D18165CF41C
:100C200020E030E040E850E4C501B4010E94B41B6C
:100C300087FD0BC012C020E030E040E850ECC50159
:100C4000B4010E94641D181644F4F101E259FD4FED
:100C50001082E4E6D801EC9348C0AF81B8851496C1
:100C60002D913D914D915C91179760E070E080E38C
:100C700092E40E94ED1AA70196010E94611B6B018C
:100C80007C010E94B81B9B01AC0169817A818B8138
:100C90009C810E946F1D9B01AC01C301B2010E94A7
:100CA000EE1AEF81F8856083718382839383C70195
:100CB000B6010E94D21D9B01AC0169817A818B81B2
:100CC0009C810E946F1D9B01AC01AF81B885149679
:100CD0006D917D918D919C9117970E94EE1AEF81F5
:100CE000F88564837583868397830F5F1F4F8F8199
:100CF0009885409698878F8391E0043B190709F007
:100D00003FCF28960FB6F894DEBF0FBECDBFDF9160
:100D1000CF911F910F91FF90EF90DF90CF90BF90F8
:100D2000AF909F908F907F906F905F904F903F908B
:100D30002F900895CF93DF938091A202882371F1C1
:100D40006AEB71E08AE592E0ECEBF1E0CDEBD1E00B
:100D500024E641E0DB013C913535B8F438813111AE
:100D600007C03081363018F43F5F308301C04883BC
:100D70003881313051F43081332319F031503083D0
:100D800004C0DB012C93DC012C936C5F7F4F029637
:100D900034962496B1E0623E7B07E1F6DF91CF9175
:100DA00008952F923F924F925F926F927F928F920F
:100DB0009F92AF92BF92CF92DF92EF92FF920F93EA
:100DC0001F93CF93DF93CDB7DEB72A970FB6F89472
:100DD000DEBF0FBECDBF8CEB91E09A878987E98596
:100DE000FA853297F08094E59F1508F5A985BA85B4
:100DF0001496BA87A987A45EB14089F72A960FB6E0
:100E0000F894DEBF0FBECDBFDF91CF911F910F9140
:100E1000FF90EF90DF90CF90BF90AF909F908F901A
:100E20007F906F905F904F903F902F900895A9858D
:100E3000BA856C9170E080E090E00E94561C2B0116
:100E40003C01E985FA853197608170E080E090E0AF
:100E50000E94561C69837A838B839C8302E111E094
:100E6000AAEA2A2EA1E03A2E8F2D90E0A0E0B0E071
:100E70008D839E83AF83B8876D817E818F819885B6
:100E80000E94561C9B01AC01D8016D917D918D9102
:100E90009C910E94ED1A4B015C0129813A814B81A2
:100EA0005C81F80164817581868197810E94ED1AC9
:100EB0006B017C01A5019401C501B4010E946F1D65
:100EC0004B015C01A7019601C701B6010E946F1D8D
:100ED0009B01AC01C501B4010E94EE1A0E94DC1D09
:100EE0009B01AC01C301B2010E94641D87FD03C0D8
:100EF000E4E6D101EC93005F1F4FFFEF2F1A3F0A8A
:100F000021E0023B120709F0B7CF70CF83EA92E0ED
:100F10000E941411882309F47BC08091A2028F5F84
:100F200081708093A20264E08DEA92E00E943C0905
:100F3000882319F081E00E94F10365E08DEA92E0D8
:100F40000E943C09882319F082E00E94F10341E0ED
:100F500060E08DEA92E00E944509882361F02091CB
:100F6000A102822F90E003971CF08EEF820F01C048
:100F700080E08093A10241E062E08DEA92E00E946D
:100F80004509882369F02091A102822F90E08235E3
:100F900091051CF482E0820F01C084E58093A102D8
:100FA00041E061E08DEA92E00E944509882361F00A
:100FB0002091A002822F90E003971CF08EEF820F09
:100FC00001C080E08093A00241E063E08DEA92E0FE
:100FD0000E944509882361F02091A002822F90E0B1
:100FE0008E971CF482E0820F01C080E38093A00200
:100FF0000E944C040E94B1040E949A060E94D106ED
:101000000E94A6020E94DC020E942D030C94D903C8
:1010100008951092F4021092F30284E892E0909303
:10102000F2028093F1020895CF93CFB7F8948091A4
:101030002A03811127C0EDEFF3E08491E9EEF3E09C
:101040009491E82FF0E0EE0FFF1FE55EFB4FA591B6
:10105000B4918C91892321F461E08AE00E94D61832
:1010600061E08AE00E949D188CB580618CBD8CB5D2
:1010700080648CBD61E08DE00E949D1861E08BE092
:101080000E949D1880912A038F5F80932A03CFBF0F
:10109000CF91089521E0FC012083089570E085E060
:1010A0000C941518AF92BF92CF92DF92EF92FF92FD
:1010B0000F931F93CF93DF93EC0189819A812FE0E7
:1010C000289F8001299F100D112485E10E94F817A7
:1010D000800F911F24E0969587952A95E1F79A83D2
:1010E00089832881222391F1AC81AD80B12CC12C60
:1010F000D12CE885F9857F0100E010E06E817F81C9
:101100009B0140E050E08617970728F0BC01E817E4
:10111000F90708F4BF0180E090E01F921F921F9230
:10112000AF930E94951A6B830F900F900F900F90C2
:1011300070E085E0DF91CF911F910F91FF90EF90CC
:10114000DF90CF90BF90AF900C941518DF91CF91A6
:101150001F910F91FF90EF90DF90CF90BF90AF90D5
:101160000895FC018CE39FE09383828384E0818374
:1011700081E084870895CF93DF93EC018C819D817A
:10118000892B81F18C858F7151F584E10E94F817CC
:10119000BC01882777FD8095982F0E94561C26EE6B
:1011A0003FE34EEC50E40E946F1D0E94281C9B01FF
:1011B0007B836A836115710581F084E08983FE0178
:1011C00040E0848195812817390710F449830AC0CB
:1011D0004F5F32964430A9F702C08FEF89838C8528
:1011E0008F5F8C87DF91CF910895FC0188E0808329
:1011F00089E0818387E0828386E0838384E084833F
:1012000082E0858381E186830895DF92EF92FF92E9
:101210000F931F93CF93DF937C01EC0100E010E06C
:10122000DD24DA9462E088810E949D1888810E9402
:101230000C19F701E00FF11F892B21F487818F5FD3
:10124000878308C08781882349F08F3F11F4178274
:1012500001C0D78260E088810E949D180F5F1F4FF8
:10126000219607301105F1F6DF91CF911F910F9173
:10127000FF90EF90DF900895FC01E60FF11D81E0F3
:101280009781913009F080E00895262F30E0FC012D
:10129000E20FF31F8781423028F481508E3F48F0DF
:1012A00080E008958F3FE1F3642F0E94531E913038
:1012B000B9F781E008958EBD00000DB407FEFDCFA3
:1012C0008EB508951F93CF93DF93EC01162FF894FA
:1012D00060E08F850E94D618888918161CF460E09B
:1012E0000E94D618812F0E945B09888918161CF469
:1012F00061E00E94D6187894DF91CF911F910895F4
:1013000028EF31E0EBE2F3E0DF01A9011D9241504B
:101310005040E1F7DC0119961C9219971A961C921D
:101320000895DF92EF92FF920F931F93CF93DF9375
:10133000EC018C858F5F8C878BE2E82E83E0F82EA2
:10134000D12C6D2D6064CE010E94620960E8CE014F
:101350000E94620961E08F850E94D618888918165C
:101360001CF460E00E94D61800E010E0F701E00FE6
:10137000F11F80810E945B090F5F1F4F043511052B
:10138000A9F7888918161CF461E00E94D618D39436
:1013900084E5E80EF11C86E0D812D3CF60E4CE01DC
:1013A000DF91CF911F910F91FF90EF90DF900C9400
:1013B0006209FC0160A361A30895FC0160A341A33D
:1013C0000895CF92DF92FF920F931F93CF93DF93F5
:1013D0001F92CDB7DEB76C01062FF42E10E0121766
:1013E00054F4412F4F0D602FC60129830E943E0205
:1013F0001F5F2981F4CF0F90DF91CF911F910F9143
:10140000FF90DF90CF900895CF92DF92FF920F93DD
:101410001F93CF93DF931F92CDB7DEB76C01062FDA
:10142000F42E10E0121754F4612F600F4F2DC601F7
:1014300029830E943E021F5F2981F4CF0F90DF9124
:10144000CF911F910F91FF90DF90CF900895DF9281
:10145000EF92FF920F931F93CF93DF93EC01E62E51
:10146000D22EF42E112707FD1095040F111D47FDF4
:101470001A958F2D992787FD90958017910744F431
:101480002D2D4F2D6E2DCE010E94040AF394F1CF25
:10149000DF91CF911F910F91FF90EF90DF90089512
:1014A000AF92BF92CF92DF92EF92FF920F931F9372
:1014B000CF93DF93EC01162FF42EE22EA02FBB2743
:1014C000A7FDB095A41BB10947FDB395B7FF03C0B5
:1014D000B195A195B109EE2DFF27E7FDF095E11B30
:1014E000F10917FDF395F7FF03C0F195E195F109B7
:1014F000BB24B394EA17FB0714F0B12C06C08E2D61
:10150000E02E082F812F1F2DF82EE11634F48F2D99
:10151000F02E082F812F1E2DE82ECE2CC11AE02F81
:10152000FF27E7FDF095EF19F109F7FCF395F7FFB9
:1015300003C0F195E195F109AE2EDC2CC7FE03C086
:10154000DD24D394DC0CD594F01614F401E00FC024
:101550000FEF0DC0BB2071F0412F6F2DCE010E9407
:101560003E02DA18D7FE02C0F00EDC0C1F5FE11657
:101570008CF703C04F2D612FF1CFDF91CF911F91D9
:101580000F91FF90EF90DF90CF90BF90AF900895B4
:101590009F92AF92BF92CF92DF92EF92FF920F9302
:1015A0001F93CF93DF93EC01062FF42E122FDD242F
:1015B000D394D21AC22EC194CC0C422F4F0D0E944C
:1015C0003E024F2D411B602FCE010E943E02612F33
:1015D000600F4F2DCE010E943E02602F611B4F2DE8
:1015E000CE010E943E02E12CE1160CF044C0D7FC73
:1015F00004C01150C394C394DC0CE3948E2D880F67
:101600008F5FD80E9E2C900EA12EAF0C4A2D692D07
:10161000CE010E943E02B02EBE184A2D6B2DCE0187
:101620000E943E02AF2CA11A4A2D692DCE010E94C4
:101630003E024A2D6B2DCE010E943E02BE2CBF0CF5
:101640004B2D912E900E692DCE010E943E024B2D06
:10165000B02EB11A6B2DCE010E943E02AF2CAE18F7
:101660004A2D692DCE010E943E024A2D6B2DCE01DE
:101670000E943E02B9CFDF91CF911F910F91FF9051
:10168000EF90DF90CF90BF90AF909F9008958F9292
:101690009F92AF92BF92CF92DF92EF92FF920F9301
:1016A0001F93CF93DF93EC01E62ED42E122FCC2480
:1016B000C394C21AB22EB194BB0CF12C802F84704B
:1016C000A82E802F8270982E802F8870882E01700F
:1016D000F1160CF04DC0C7FC04C01150B394B39484
:1016E000CB0CF3948F2D880F8F5FC80EAA2071F05A
:1016F000412F4D0D6F2D6E0DCE010E943E024F2DDC
:101700004D0D612F6E0DCE010E943E02992071F0A9
:101710004D2D411B6F2D6E0DCE010E943E024D2DB1
:101720004F19612F6E0DCE010E943E02882071F08C
:101730004F2D4D0D6E2D611BCE010E943E02412F9B
:101740004D0D6E2D6F19CE010E943E02002309F44B
:10175000BFCF4D2D4F196E2D611BCE010E943E0251
:101760004D2D411B6E2D6F19CE010E943E02B0CF50
:10177000DF91CF911F910F91FF90EF90DF90CF906D
:10178000BF90AF909F908F9008958F929F92AF924D
:10179000BF92CF92DF92EF92FF920F931F93CF935E
:1017A000DF93EC01B62EA42E122FDD24D394D21A8F
:1017B000C22EC194CC0CFF24F394802F8170882E0C
:1017C000992493949E0C02708FEF8F0D8117C4F5AE
:1017D000D7FC04C01150C394C394DC0C8F2D880F28
:1017E0008F5FD80E882099F0212F220F290D4A2DC6
:1017F000411B6F2D6B0DCE010E94E10923E02E0DE0
:101800004A2D4F19612F6B0DCE010E94E109002373
:1018100099F0212F220F290D4A2D411B6B2D6F1995
:10182000CE010E94E10923E02E0D4A2D4F196B2DA8
:10183000611BCE010E94E109F394E394E394C4CFC9
:10184000DF91CF911F910F91FF90EF90DF90CF909C
:10185000BF90AF909F908F9008959F92AF92BF924C
:10186000CF92DF92EF92FF920F931F93CF93DF936C
:10187000EC01B62EF42EA22EDE2CD194DD0C9D2C84
:10188000920E1E2D160F292D612F0E94040ACC24C2
:10189000CA94C00ECF0C292D4C2D612FCE010E9471
:1018A000040AD00EFE0C2D2D4F2D6B2DCE010E9463
:1018B000E109BA0C6FEF6B0D2D2D4F2DCE010E945B
:1018C000E10901E02E2D4F2D612FCE010E94470B23
:1018D000DE2CD094DB0C02E02E2D4F2D6D2DCE0191
:1018E0000E94470BCE1804E02E2D4C2D6D2DCE01FD
:1018F0000E94470B08E02E2D4C2D612FCE010E9437
:10190000470BDF91CF911F910F91FF90EF90DF90E8
:10191000CF90BF90AF909F900895AF92BF92CF921B
:10192000DF92EF92FF920F931F93CF93DF93EC011F
:10193000A62EC42EB22EF02E1E2DE194EE0CD12E2A
:10194000D60E2E2D2B0D6D2D0E94270AFA94FE0C1B
:10195000C10E6FEF6A0D6B0D611BEF2C01E0212FA3
:101960004C2DCE010E94C50B02E0212F4C2D6D2D78
:10197000CE010E94C50BDF91CF911F910F91FF9077
:10198000EF90DF90CF90BF90AF9008956F927F92CD
:101990008F929F92AF92BF92CF92DF92EF92FF927F
:1019A0000F931F93CF93DF93F901A4903196549135
:1019B000FC01F0A064350CF00CC1BB24A7FCB09472
:1019C000A62FBB27A7FDB095FD01EA0DFB1D1E1636
:1019D0001F060CF0FEC040330CF0FBC0C52E042FD8
:1019E000112707FD1095E801C50FD11D57FDDA95A8
:1019F0001C161D060CF0EDC0E90122969501295F29
:101A00003F4F37FF02C0295F3F4F73E03595279561
:101A10007A95E1F747FF0AC0C52EC40E209FA001AA
:101A2000219F500D1124C41BD50B40E00C2D112714
:101A300007FD1095040F111D47FD1A95013311057F
:101A40001CF070E3C72EC41A67FD60E0E535F105B0
:101A500014F0E4E5F0E01E2FFC0174857427862F56
:101A6000992787FD9095FC01EA1BFB0BDF015F01C5
:101A7000F7E0AF22BB24E0E8F0E002C0F595E7957F
:101A8000AA94E2F70E2FB7FD179653E0B595A795E8
:101A90005A95E1F7AC0FBD1FE42FE77051E001C08C
:101AA000550FEA95EAF7459545954595E4E54E02CB
:101AB000800D911D1124855D9C4F40E0DD24C7FC05
:101AC000D094BB24B3943327E42FF0E0EC15FD054C
:101AD0000CF07FC0FD01E490F1E0FF1219C0EC01B1
:101AE000A02EFD01862E881A9C2E980C911608F0C7
:101AF00067C09E2C9A2019F09880952A9882A69407
:101B000029F43196E4906894AA24A7F82196ECCFA2
:101B1000F1101BC0752E7094EC01A02EFD01862ED5
:101B2000881A9C2E980C911608F04AC09E2C9A2078
:101B300019F0988097209882A69429F43196E49021
:101B40006894AA24A7F82196ECCFE3E0FE1631F0C2
:101B5000EC01A02EFD01862E881A2EC0752E7094E1
:101B6000962EEC01A02EFD019116B0F48E2C8A2049
:101B700049F08880692C672660FE02C0852A01C072
:101B800087208882A69429F43196E4906894AA2448
:101B9000A7F893942196E8CF7B2512C09E2C9A201B
:101BA00019F0988095269882A69429F43196E490AD
:101BB0006894AA24A7F821969C2E980C911670F38D
:101BC000550F19F48C5A9F4F51E04F5FA20FB31F6E
:101BD0007BCFDF91CF911F910F91FF90EF90DF901E
:101BE000CF90BF90AF909F908F907F906F9008950F
:101BF000DC01FB0184918F5F14968C9314973196CE
:101C0000E491EF5F1596EC9315976E5F7F4F5F96AB
:101C10007C936E935E970895EF920F93CF93DF932B
:101C2000EC014E876D872F87E98A088B81E08887D2
:101C300088A319A28F8367EE70E0CE010E94F80D91
:101C40000E9414088CB58F7D8CBD8CB58C7F816013
:101C50008CBD8DB581608DBD8CB58C608CBD61E017
:101C60008E850E949D1861E08D850E949D1861E01F
:101C70008F850E949D18898918161CF461E00E94C6
:101C80009D18888918161CF461E00E949D188989A6
:101C900018166CF460E00E94D6186AE070E080E0EC
:101CA00090E00E94831761E089890E94D6188D8593
:101CB000992787FD9095FC01ED50FC4FE491F0E0F1
:101CC000EE0FFF1FEF5EFB4F259134913D8B2C8B68
:101CD000FC01E152FC4F84918B8F8E85992787FD03
:101CE0009095FC01ED50FC4FE491F0E0EE0FFF1FEA
:101CF000EF5EFB4F259134913B8B2A8BFC01E15227
:101D0000FC4F84918A8F8889992787FD9095FC01E3
:101D1000ED50FC4FE491F0E0EE0FFF1FEF5EFB4F44
:101D2000259134913F8B2E8BFC01E152FC4F849125
:101D30008C8F8F85992787FD9095FC01ED50FC4F86
:101D4000E491F0E0EE0FFF1FEF5EFB4F2591349121
:101D5000398F288FFC01E152FC4F84918D8F61E215
:101D6000CE010E94620964E1CE010E9462098B8566
:101D700087FF02C08FE78B876B856068CE010E946A
:101D8000620960E2CE010E9462096CE0CE010E940D
:101D90006209CE01DF91CF910F91EF900C949109E0
:101DA0006F927F928F929F92AF92BF92CF92DF926B
:101DB000EF92FF920F931F93CF93DF93EC01162FB7
:101DC000F42EB02EE8A064350CF081C08FE28417A9
:101DD0000CF47DC0EC81F0E031970E9FC0010F9FA5
:101DE000900D1124860F911D67FD9A9518161906FE
:101DF0000CF06DC08D81809FC0011124840F911D56
:101E000047FD9A95181619060CF061C0A62E962E5D
:101E1000C22ED12C8A2D811B992787FD90952C816C
:101E200030E0821793070CF051C02150310982171E
:101E3000930779F0C29ED001C39EB00DD29EB00D23
:101E40001124A80FB91FEE8DFF8DEA0FFB1F7490B0
:101E500001C0712C8F2C6F2C282D2F19332727FDB3
:101E600030958D8190E0281739076CF570FE11C010
:101E700081E0B81206C0482D6A2DCE010E943E02B4
:101E80001EC00B2D2B2D462D692DCE010E94270A39
:101E900016C089A198A1891791F088A381E0B81292
:101EA00006C0482D6A2DCE010E943E0207C00B2DB0
:101EB0002B2D462D692DCE010E94270AE8A276948B
:101EC0006B0C8394C9CF9B0CA394A4CFE8A2DF91A1
:101ED000CF911F910F91FF90EF90DF90CF90BF9027
:101EE000AF909F908F907F906F9008950F93CF93B6
:101EF000DF93EC01262F6A3039F42D8198858A858D
:101F0000299F800D112422C06D3011F108854A856A
:101F100069850E94D00E48855C812985549F200DDB
:101F2000112429878F81882399F0332727FD309545
:101F300084E590E0459F8019910911248217930749
:101F40003CF49D818A85499F800D11248A871986DA
:101F500081E090E0DF91CF910F9108958F929F9251
:101F6000AF92BF92CF92DF92EF92FF92CF93DF9327
:101F7000EC01CA8CDB8CC094D094E12CF12C0E9433
:101F800060174B015C010E946017A5019401209528
:101F900030954095509560957095809590950E94EC
:101FA000431E9B01AC01C701B6010E94431E6B0199
:101FB0007C0189809A80A12CB12C0E946017680D49
:101FC000791D8A1D9B1D6C0D7D1D8E1D9F1DDF9132
:101FD000CF91FF90EF90DF90CF90BF90AF909F9008
:101FE0008F900C94691A8F929F92AF92BF92CF926A
:101FF000DF92EF92FF920F931F93CF93DF93EC0149
:102000005C0186E8A80EB11CD5018C91882309F4E7
:102010004DC08C3018F41CE0181B01C010E0FE010C
:10202000EA5AFF4F81E080836E01BEE4CB0ED11CE3
:1020300060E0C6010E94D9094E01E3E58E0E911CB5
:10204000D4018C9103E0080F9DE2F92E4F2D481B1F
:10205000410F23E0E22E24E560E0C6010E948D0CD2
:1020600061E0C6010E94D909F401808103E0080FF4
:102070004F2D481B410F24E560E0C6010E942D0C46
:10208000FE01E95AFF4F84E080833196D4018C91A0
:10209000181B115D1083CC57DF4F68817981C60111
:1020A0000E947319F501808181508083DF91CF9167
:1020B0001F910F91FF90EF90DF90CF90BF90AF9066
:1020C0009F908F900895DF92EF92FF920F931F934E
:1020D000CF93DF93EC018C8D9D8D892B09F49CC0EF
:1020E0008E01025B1F4F40E061E0C8010E94DD09E4
:1020F00085E5FE01EE5AFF4F9081891B359680835E
:1021000031961082698D613009F462C028F0888DA3
:10211000653008F074C06FC0CE0185960E945315DB
:1021200081E0FE01EA5AFF4F808367EE70E0C8014C
:102130000E94F80D1D8E1C8EFE01EC5AFF4F10827E
:1021400038EAD32E7E018AE0E80EF11CCE010E940F
:1021500014118823D9F366ED72E0C8010E94731947
:102160006A8D7B8D4AE050E0C8010E94631A61ECE1
:1021700072E0C8010E9473196D2D62956F7070E056
:102180004AE050E0C8010E944E1A66EB72E0C801B6
:102190000E94731964E0C7010E943C0981113CC090
:1021A000DA94A1F660E0CE010E944E0883B7817FE9
:1021B000846083BF83B7816083BF83B7816083BF3F
:1021C000889583B78E7F83BF83B78E7F83BFBECF53
:1021D000CF58DF4F488159816A817B814F705527E5
:1021E00066277727483051056105710510F467E0CF
:1021F00009C068E707C0882379F06B5F03C08823B4
:1022000059F06FE2C801DF91CF911F910F91FF90BC
:10221000EF90DF900C949819DF91CF911F910F915F
:10222000FF90EF90DF9008958F929F92AF92BF92B0
:10223000EF92FF920F931F93CF93DF93EC017C01FA
:1022400000E8E00EF11CF70180809180A280B3804D
:102250000E94541795018401061B170B280B390B9C
:10226000B901A8015E011FE7A10EB11CF501808133
:1022700090E0A0E0B0E08E0105581F4F841795074D
:10228000A607B70750F4F80180819181A281B3813C
:10229000892B8A2B8B2B09F040C0F801808191811A
:1022A000A281B381892B8A2B8B2BA9F57E01F5E2C4
:1022B000EF0EF11CC7010E945015C7010E94BD1509
:1022C000C7010E948116CE010E94F30FCE010E9429
:1022D00063107E012EE4E20EF11CC7010E949109F9
:1022E000FE01EC5AFF4F8081811103C0C7010E949B
:1022F00080090E946017F801608371838283938351
:10230000FE01EB58FF4FC958DF4F28813981621B0E
:10231000730B7183608380E036C00E945417F5010F
:102320002081620F711D811D911DF70160837183F2
:1023300082839383FE01EF58FF4F40815181628178
:1023400073814F5F5F4F6F4F7F4F40835183628335
:102350007383F80110821182128213820E94601727
:10236000FE01E958FF4F6083718382839383CE011E
:102370000E945208CE010A960E940509CE01489695
:102380000E94BB0881E0DF91CF911F910F91FF90D8
:10239000EF90BF90AF909F908F9008950F931F93F1
:1023A000CF93DF938C01EC01C25BDF4FCE010E9423
:1023B00080096EE872E0CE010E947319CE010E947E
:1023C00091098CB583608CBD8DB58E7F8DBD88E8FD
:1023D00092E0EEEFFFE30995F801EC5AFF4F10820F
:1023E00069E672E0CE010E94A319CE010E94910914
:1023F000065F1F4FC8010E94050964E0C8010E94E2
:102400003C09811107C062E370E080E090E00E9427
:102410008317F0CFDF91CF911F910F9108952F92E5
:102420003F924F925F926F927F928F929F92AF9264
:10243000BF92CF92DF92EF92FF920F931F93CF93B1
:10244000DF93CDB7DEB729970FB6F894DEBF0FBE86
:10245000CDBF998788871B012A013C0180E7680E60
:10246000711CF3018081882309F402C181E0E885B1
:10247000F985EA5AFF4F8083E885F985EB5AFF4FCB
:102480001082E885F985EC5AFF4F1082E885F985BE
:10249000108E8F01025B1F4F61E0C8010E94D909B5
:1024A000888599858D5A9F4F9C838B83C884D98456
:1024B00097E5C90ED11CE884F984E8E5EE0EF11C1D
:1024C000888599858E5A9F4F9A838983E885F985F7
:1024D000EF58FF4FFE83ED8388849984FAE08F0ED6
:1024E000911CA884B98485E2A80EB11C88859985C1
:1024F0000E9414118823D1F3F1018491882321F0E3
:10250000EB81FC81508101C050E028EF32E040E0D7
:1025100060E0C8015F830E94C60C5F8141145104D2
:1025200039F04CE0450F920160E0C8010E94C60CF2
:10253000F60110828CE0F7018083B101C8010E948E
:102540007319E981FA819081892F880F890F81950C
:102550008D5AF6018083EB81FC819081892F880F51
:10256000890F8195835DF7018083ED81FE818081F4
:1025700084FF03C064EF72E002C060EF72E0C80144
:102580000E94A319E981FA819081892F880F890F10
:1025900081958D5AF6018083F70180818F5F80835A
:1025A000E885F98582A5882319F06CEE72E002C0F7
:1025B00068EE72E0C8010E94A319E981FA81908156
:1025C000892F880F890F81958D5AF6018083F70135
:1025D00080818F5F808364EE72E0C8010E94A3193E
:1025E00065E0C4010E943C09882351F0E885F98523
:1025F00062A56F5FC5010E94FD16C5010E94E71626
:1026000064E0C4010E943C09811113C0F3012081E0
:10261000822F90E0A0E0B0E0ED81FE814081518109
:1026200062817381481759076A077B07A8F02F3F1B
:1026300099F08FEFF3018083088519850B5D1F4F9B
:1026400060E0C8010E94FA14C8010E94D11681E01E
:10265000E885F985808F0CC066E0C4010E943C09C2
:10266000882309F443CF888599850E94CE1134CF01
:1026700029960FB6F894DEBF0FBECDBFDF91CF9184
:102680001F910F91FF90EF90DF90CF90BF90AF9090
:102690009F908F907F906F905F904F903F902F9082
:1026A000089540E050E00C940F12E0E8F7E7259120
:1026B000349181E02130304C09F080E00895CF93CF
:1026C000DF93EC010E9455139E01275A3F4FDE0114
:1026D000A059BF4F882309F43CC0E6E9F7E784918D
:1026E000F9018083E7E9F7E7E491EC83E8E9F7E7AC
:1026F000E491ED83E9E9F7E7859194919F838E83D7
:10270000EBE9F7E78591949199878887EDE9F7E7F9
:10271000E491EBA7EEE9F7E7E491EAA7EFE9F7E741
:10272000E491EC93E0EAF7E7859194919D8F8C8F8B
:10273000E2EAF7E7859194919F8F8E8FE4EAF7E7BD
:102740008591949199A388A3E6EAF7E785919491FE
:1027500020C08CE3F90180831C822FEF2D8380E25F
:1027600093E09F838E8384ED93E09987888781E04F
:102770008BA78AA72C938CEA9DE09D8F8C8F8EED82
:102780009DE09F8F8E8F84E79EE099A388A38CE3C2
:102790009FE09BA38AA3DF91CF910895CF92DF9210
:1027A000EF920F93CF93DF93EC01FC01E158FF4FC1
:1027B00082E38083349741E050E060E070E0408342
:1027C0005183628373833B978FEF8083CE010E9496
:1027D0005F13CE010E944A086FEFCE010E944E089F
:1027E0006E018AE0C80ED11CC6010E94F508C60120
:1027F0000E940509CE0148960E94B1083EE0E32EF2
:102800000FE020E14BE06DE0CE01825B9F4F0E9424
:102810000C0EA596CE010E94661465E0C6010E94CA
:102820003C09882351F060E0CE01DF91CF910F91F8
:10283000EF90DF90CF900C94FD1640E068E673E0D7
:10284000CE01DF91CF910F91EF90DF90CF900C945C
:102850000515CF93DF9350E0FA01EE0FFF1FE80F4D
:10286000F91F37852089E32FF22FE60FF11DE60FC0
:10287000F11D25913491FA01EE0FFF1FE80FF91FAA
:1028800030A3278FF90165917491FC01D481D69F03
:10289000C02D1124E40FF51FC1A3F901A591B49136
:1028A0006B2F70E0EC2FF0E0DC01A40FB51F6E176A
:1028B0007F0720F4F90125913491C32FCD9FC02DBE
:1028C00011249296CC93DF91CF91089521E0FC01E1
:1028D000248324E020A72FEB33E0308B278740E0D0
:1028E00060E00E94291461E070E083E00E94151806
:1028F000E1EBF0E08081887F81608083F894109222
:102900008000E1E8F0E010821092850010928400CF
:1029100088E191E0909389008093880080818860AD
:102920008083808181608083EFE6F0E08081826037
:102930008083789408950F93FC01862F642F0111F2
:1029400029C08230D1F048F4882391F0813011F50C
:1029500040E0CF010F910C9429148330A9F084300A
:10296000C9F48481489F602D1124658F268F12C081
:102970004B3008F06AE0668B0DC08481489F602D63
:102980001124618F228F06C08481489F602D1124FD
:10299000638F248F0F910895FC0121110EC0648B69
:1029A0008481489F402D1124458B15A214A213A2A7
:1029B00081E0878B80932F05108E089580912F05DD
:1029C000882319F080912C0501C080E08093B40029
:1029D0000895FC0161110DC0178A158A14A213A273
:1029E000108E10922C0510922D0510922F050C942C
:1029F000DE140895CF93DF93EC01611103C00E94B0
:102A0000E9141982DF91CF9108950F931F93CF930B
:102A1000DF93EC018B0141110EC060E00E94FA14BB
:102A20001E870D871B8A1A8A81E0898389E08E8B35
:102A3000198E1B8E1D8EDF91CF911F910F910895DE
:102A4000CF93DF93EC01611128C08881882329F19D
:102A50008981811122C089852F819885E22FF92FE4
:102A6000E80FF11DE80FF11D859194918F3F2FEF35
:102A7000920711F4188211C09C879927880F991F1B
:102A8000EA85FB85E80FF91F6591749140E0CE015E
:102A90000E94051589858F5F8987DF91CF91089501
:102AA00060E00C94201560E00C94FA140F93CF931F
:102AB000DF93EC0161115DC08981882309F459C05D
:102AC0008D89811156C02D853E858A899B89880F05
:102AD000991F820F931FFC01859194910097D1F467
:102AE0008989882321F01B8A1A8AF90111C0198269
:102AF000888160E0882331F0CE010E9420158A8908
:102B00009B8925C0CE01DF91CF910F910C94E914E0
:102B100085919491BC01769567957695679580FF30
:102B20001DC0AC01A6E056954795AA95E1F7292F5F
:102B300026952695269520514F716F7000E0CE01A5
:102B40000E949B148A899B8901969B8B8A8B880F94
:102B5000991FED85FE85E80FF91FDACF492F6F73B6
:102B600020E0CE010E94CC148A899B8901969B8B20
:102B70008A8BDF91CF910F91089560E00C945615E8
:102B8000CF93DF93EC016111B9C08F89882309F4D9
:102B9000B5C08D89811105C0CE01DF91CF910C9414
:102BA000E91481508D8B8DA1811138C08BA19CA11E
:102BB00001969C01220F331FEF8DF8A1E20FF31F46
:102BC00025913491422F47704EA3A90163E0569599
:102BD00047956A95E1F7BA0176956795232F269573
:102BE00026952FA36F732C81629F602D11246DA3F6
:102BF000417040932B059CA38BA329A130E0821741
:102C0000930760F08AA1882329F0281B31093CA38F
:102C10002BA304C060E0CE010E94E9148DA1815075
:102C20008DA3288D2F5F288F4C893FA1340F8C8571
:102C3000380F3A836B8D662361F070E0822F9927FD
:102C400087FD90950E94731E8C8D869F300D1124F8
:102C50003A838A8190E0CB966BE370E00E94731E0A
:102C60008A833E893B83698D662371F0772767FDF0
:102C70007095822F992787FD90950E94731E8A8DEB
:102C8000869F300D11243B836D8D662391F0822F3A
:102C9000992787FD909570E00E94731ECB0162E03A
:102CA00070E00E94731E2E8D9B81289F900D112431
:102CB0009B838B814F3339F08A300CF089E087FD9C
:102CC00080E08B8301C01B82F894EA81F0E0EA582F
:102CD000FC4FE491E0932E0598A58D81989F802D5F
:102CE00011249B81899F802D11249EA1899F802D75
:102CF000112480932D0580932C057894DF91CF913A
:102D0000089560E00C94C01560912D05662321F1B3
:102D1000809130058F5F8093300590912E05891743
:102D2000D8F080912F0591E0892780932F0510928C
:102D3000300580912B05882369F09091760283E419
:102D4000989F802D1124895B809376020E94531EE8
:102D500090932C050C94DE1408951F920F920FB6D9
:102D60000F9211242F933F934F935F936F937F9311
:102D70008F939F93AF93BF93EF93FF930E9484161B
:102D8000FF91EF91BF91AF919F918F917F916F9143
:102D90005F914F913F912F910F900FBE0F901F9019
:102DA0001895CF93DF93EC0160E00E94FA1487EB53
:102DB00093E09E878D871B8A1A8A81E0898389E048
:102DC0008E8B198E1B8E1D8EDF91CF910895CF9320
:102DD000DF93EC0160E00E94FA1481EB93E09E87A0
:102DE0008D871B8A1A8A81E0898389E08E8B198EF0
:102DF0001B8E1D8EDF91CF910895FC01862F9927A0
:102E000087FD9095668170E06F5F7F4F0E94731E13
:102E1000858308951F920F920FB60F9211242F935E
:102E20003F938F939F93AF93BF938091320590917F
:102E30003305A0913405B09135053091310523E07B
:102E4000230F2D3720F40196A11DB11D05C026E8E2
:102E5000230F0296A11DB11D2093310580933205E9
:102E600090933305A0933405B093350580913605D2
:102E700090913705A0913805B09139050196A11DB3
:102E8000B11D8093360590933705A0933805B09314
:102E90003905BF91AF919F918F913F912F910F90E5
:102EA0000FBE0F901F9018952FB7F89460913205C0
:102EB0007091330580913405909135052FBF0895A9
:102EC0003FB7F8948091360590913705A091380569
:102ED000B091390526B5A89B05C02F3F19F0019682
:102EE000A11DB11D3FBF6627782F892F9A2F620F32
:102EF000711D811D911D42E0660F771F881F991F6C
:102F00004A95D1F708958F929F92AF92BF92CF9238
:102F1000DF92EF92FF926B017C010E9460174B01E0
:102F20005C01C114D104E104F104F1F00E94EC1A37
:102F30000E946017681979098A099B09683E7340E5
:102F40008105910570F321E0C21AD108E108F1086A
:102F500088EE880E83E0981EA11CB11CC114D10418
:102F6000E104F10429F7DDCFFF90EF90DF90CF90DF
:102F7000BF90AF909F908F900895789484B58260B1
:102F800084BD84B5816084BD85B5826085BD85B50D
:102F9000816085BDEEE6F0E0808181608083E1E8BC
:102FA000F0E01082808182608083808181608083F4
:102FB000E0E8F0E0808181608083E1EBF0E08081F7
:102FC00084608083E0EBF0E0808181608083EAE7C9
:102FD000F0E0808184608083808182608083808152
:102FE000816080838081806880831092C100089511
:102FF0008E3008F08E5087702091770290E4299FE0
:1030000090011124822B80937C0080917A0080644F
:1030100080937A0080917A0086FDFCCF80917800C1
:103020002091790090E0922B08951F93CF93DF9326
:10303000182FEB0161E00E949D18209711F460E0C9
:1030400004C0CF3FD10539F461E0812FDF91CF91EA
:103050001F910C94D618E12FF0E0E553FC4FE4915A
:10306000E330F9F048F4E130B9F0E230A1F584B58D
:10307000806284BDC8BD34C0E730E9F0E83019F1A2
:10308000E43049F580918000806280938000D09385
:103090008B00C0938A0024C084B5806884BDC7BDFE
:1030A0001FC080918000806880938000D093890049
:1030B000C093880015C08091B00080688093B000F4
:1030C000C093B3000DC08091B00080628093B000C7
:1030D000C093B40005C0C038D1050CF0B5CFAFCF58
:1030E000DF91CF911F910895833081F028F48130D2
:1030F00099F08230A1F008958730A9F08830B9F0B6
:103100008430D1F4809180008F7D03C08091800055
:103110008F7780938000089584B58F7702C084B53F
:103120008F7D84BD08958091B0008F7703C080911A
:10313000B0008F7D8093B0000895CF93DF9390E02F
:10314000FC01E152FC4F2491FC01ED50FC4F8491B5
:10315000882349F190E0880F991FFC01E55EFB4F41
:10316000A591B4918F5E9B4FFC01C591D4919FB7FF
:10317000611108C0F8948C91209582238C938881EA
:1031800082230AC0623051F4F8948C91322F30952A
:1031900083238C938881822B888304C0F8948C913C
:1031A000822B8C939FBFDF91CF9108950F931F9334
:1031B000CF93DF931F92CDB7DEB7282F30E0F90110
:1031C000E553FC4F8491F901E152FC4F1491F90150
:1031D000ED50FC4F04910023C9F0882321F069834E
:1031E0000E9474186981E02FF0E0EE0FFF1FEF5E80
:1031F000FB4FA591B4919FB7F8948C91611103C0D6
:103200001095812301C0812B8C939FBF0F90DF917C
:10321000CF911F910F910895CF93DF93282F30E026
:10322000F901E553FC4F8491F901E152FC4FD4912F
:10323000F901ED50FC4FC491CC2391F081110E9413
:103240007418EC2FF0E0EE0FFF1FE95FFB4FA59124
:10325000B4912C912D2381E090E021F480E002C014
:1032600080E090E0DF91CF910895CF92DF92EF92CE
:10327000FF920F931F93CF93DF937C016A01EB01C1
:1032800000E010E00C151D0571F06991D701ED917A
:10329000FC910190F081E02DC7010995892B19F06F
:1032A0000F5F1F4FEFCFC801DF91CF911F910F919B
:1032B000FF90EF90DF90CF9008956115710581F038
:1032C000DB010D900020E9F7AD0141505109461B8B
:1032D000570BDC01ED91FC910280F381E02D099404
:1032E00080E090E00895EF92FF920F931F93CF93A9
:1032F000DF938C017B01C0E0D0E0F701EC0FFD1FF4
:103300006491662359F0F801A081B181ED91FC919F
:10331000C8010995892B11F02196EFCFCE01DF91DD
:10332000CF911F910F91FF90EF9008950C945D192C
:10333000DC01ED91FC910190F081E02D09946FE8A2
:1033400072E00C945D190F931F93CF93DF93EC0100
:103350000E9473198C01CE010E949F19800F911F4A
:10336000DF91CF911F910F9108958F929F92AF920D
:10337000BF92DF92EF92FF920F931F93CF93DF9351
:10338000CDB7DEB7A1970FB6F894DEBF0FBECDBFA5
:103390007C01F42FD52ECB0119A2223008F42AE0AB
:1033A0008E010F5D1F4F822E912CA12CB12C6F2FFF
:1033B0007D2DA50194010E94871EF22FD32ECA01F4
:1033C000015011096A3014F4E0E301C0E7E3E60FAD
:1033D000D801EC93232B242B252B49F7B801C701E7
:1033E0000E945D19A1960FB6F894DEBF0FBECDBF47
:1033F000DF91CF911F910F91FF90EF90DF90BF90E1
:10340000AF909F908F900895CF92DF92EF92FF92AE
:103410000F931F93CF93DF93EC016A017B0121157A
:10342000310579F4E881F9810190F081E02D642F74
:10343000DF91CF911F910F91FF90EF90DF90CF9090
:1034400009942A303105E9F477FF1AC06DE20E9431
:1034500098198C0144275527BA014C195D096E094A
:103460007F092AE0CE010E94B519800F911FDF91DC
:10347000CF911F910F91FF90EF90DF90CF90089523
:103480002AE0B701A601CE01DF91CF911F910F91E4
:10349000FF90EF90DF90CF900C94B5199A01AB019B
:1034A000662757FD6095762F0C94041A2115310577
:1034B00041F4DC01ED91FC910190F081E02D642F4D
:1034C00009940C94B5199A01AB0160E070E00C947A
:1034D000561A611571058105910511F00C943C1F78
:1034E0000895CF93DF9300D000D0CDB7DEB79B0116
:1034F000AC01611571058105910569F069833A8315
:103500004B835C830E94371F29813A814B815C8108
:103510000E94A91E03C060E070E0CB010F900F90E5
:103520000F900F90DF91CF9108954F925F926F921D
:103530007F92AF92BF92CF92DF92EF92FF920F9362
:103540001F93CF93DF93CDB7DEB729013A01621BFA
:10355000730B840B950B29893A894B895C892A194D
:103560003B094C095D09298B3A8B4B8B5C8B9B018A
:10357000AC0169897A898B899C890E94431EE41871
:10358000F50806091709A80197010E94A91E2A0D2E
:103590003B1D4C1D5D1DCA01B901DF91CF911F91EB
:1035A0000F91FF90EF90DF90CF90BF90AF907F9002
:1035B0006F905F904F90089508950E94BD170E94EC
:1035C000DC1A0E949602C0E0D0E00E948607209795
:1035D000E1F30E940000F9CF08955058BB27AA27B5
:1035E0000ED027C2F0D130F0F5D120F031F49F3F5A
:1035F00011F41EF4C0C10EF4E095E7FBB6C1E92F4B
:103600003AD280F3BA17620773078407950718F058
:1036100071F49EF552C20EF4E0950B2EBA2FA02D38
:103620000B01B90190010C01CA01A0011124FF276F
:10363000591B99F0593F50F4503E68F11A16F0406A
:10364000A22F232F342F4427585FF3CF4695379569
:103650002795A795F0405395C9F77EF41F16BA0B2E
:10366000620B730B840BBAF09150A1F0FF0FBB1FDC
:10367000661F771F881FC2F70EC0BA0F621F731F25
:10368000841F48F4879577956795B795F7959E3F82
:1036900008F0B3CF9395880F08F09927EE0F979510
:1036A0008795089590D158F080E891E009F49EEF55
:1036B00091D128F040E851E059F45EEF09C05BC1B8
:1036C000FCC1E92FE078D7D168F3092E052AC1F3B0
:1036D000261737074807590738F00E2E07F8E02558
:1036E00069F0E025E0640AC0EF6307F8009407FA88
:1036F000DB01B9019D01DC01CA01AD01EF934AD0A4
:1037000098D10AD05F91552331F02BED3FE049E489
:1037100050FD49EC63CF0895DF93DD27B92FBF77C4
:1037200040E85FE31616170648075B0710F4D92F29
:10373000CFD19F938F937F936F937CD2E8E6F0E095
:103740001DD177D12F913F914F915F91D4D1DD233E
:1037500049F09058A2EA2AED3FE049EC5FE3D078C7
:103760005D274DDFDF9165C1DCD008F481E008956D
:1037700039D1E3956FC10CD05CC12CD140F023D17D
:1037800030F021F45F3F19F0F0C0511197C1F3C040
:1037900072D198F39923C9F35523B1F3951B550BB7
:1037A000BB27AA2762177307840738F09F5F5F4F14
:1037B000220F331F441FAA1FA9F333D00E2E3AF055
:1037C000E0E830D091505040E695001CCAF729D06F
:1037D000FE2F27D0660F771F881FBB1F26173707BE
:1037E0004807AB07B0E809F0BB0B802DBF01FF27EE
:1037F00093585F4F2AF09E3F510568F0B6C05EC1F6
:103800005F3FECF3983EDCF3869577956795B79527
:10381000F7959F5FC9F7880F911D9695879597F942
:103820000895E1E0660F771F881FBB1F62177307BB
:103830008407BA0720F0621B730B840BBA0BEE1FD0
:1038400088F7E095089504D06894B11137C10895C0
:103850001AD188F09F5790F0B92F9927B751A0F04F
:10386000D1F0660F771F881F991F1AF0BA95C9F714
:1038700012C0B13081F021D1B1E008951EC1672F8F
:10388000782F8827B85F39F0B93FCCF386957795C4
:103890006795B395D9F73EF49095809570956195AD
:1038A0007F4F8F4F9F4F0895E89409C097FB3EF4D8
:1038B00090958095709561957F4F8F4F9F4F99237D
:1038C000A9F0F92F96E9BB279395F69587957795FB
:1038D0006795B795F111F8CFFAF4BB0F11F460FFBB
:1038E0001BC06F5F7F4F8F4F9F4F16C0882311F013
:1038F00096E911C0772321F09EE8872F762F05C027
:10390000662371F096E8862F70E060E02AF09A95C1
:10391000660F771F881FDAF7880F9695879597F9B6
:103920000895990F0008550FAA0BE0E8FEEF161650
:103930001706E807F907C0F012161306E407F507A3
:1039400098F0621B730B840B950B39F40A2661F017
:10395000232B242B252B21F408950A2609F4A140BA
:10396000A6958FEF811D811D089597F99F6780E8C7
:1039700070E060E008959FEF80EC0895DF93CF93AF
:103980001F930F93FF92EF92DF927B018C0168945B
:1039900005C0DA2EEF01AFD0FE01E894A591259184
:1039A000359145915591AEF3EF0129DEFE01970166
:1039B000A801DA9479F7DF90EF90FF900F911F91B3
:1039C000CF91DF91089500240A9416161706180661
:1039D0000906089500240A94121613061406050613
:1039E0000895C9CF50D0E8F3E894E0E0BB279F5793
:1039F000F0F02AED3FE049EC06C0EE0FBB0F661F6A
:103A0000771F881F28F0B23A62077307840728F0EF
:103A1000B25A620B730B840BE3959A9572F7803858
:103A200030F49A95BB0F661F771F881FD2F7904816
:103A300006C1092E0394000C11F4882352F0BB0F29
:103A400040F4BF2B11F460FF04C06F5F7F4F8F4FB6
:103A50009F4F0895EF93E0FF06C0A2EA2AED3FE0F2
:103A600049EC5FEBCCDDE5DF0F90039401FC90584F
:103A7000E5E9F0E0F7C057FD9058440F551F59F0A5
:103A80005F3F71F04795880F97FB991F61F09F3F4B
:103A900079F087950895121613061406551FF2CF74
:103AA0004695F1DF08C0161617061806991FF1CFC4
:103AB00086957105610508940895E894BB276627EB
:103AC0007727CB0197F908952CDF08F48FEF08953D
:103AD0009B01AC0160E070E080E89FE34CCE0BD02E
:103AE000A8CF71DF28F076DF18F0952309F03DCFDD
:103AF00042CF1124E3CFBFDFA0F3959FD1F3950F01
:103B000050E0551F629FF001729FBB27F00DB11D61
:103B1000639FAA27F00DB11DAA1F649F6627B00DF1
:103B2000A11D661F829F2227B00DA11D621F739FDA
:103B3000B00DA11D621F839FA00D611D221F749FE8
:103B40003327A00D611D231F849F600D211D822F2F
:103B5000762F6A2F11249F5750408AF0E1F0882376
:103B60004AF0EE0FFF1FBB1F661F771F881F915083
:103B70005040A9F79E3F510570F0F7CE9FCF5F3FB1
:103B8000ECF3983EDCF3869577956795B795F795B6
:103B9000E7959F5FC1F7FE2B880F911D969587953E
:103BA00097F908959F931EDF0F9007FCEE5F52CFA9
:103BB00011F40EF4E0CE41C066DFD0F39923D9F3BF
:103BC000CEF39F57550B87FF46D00024A0E640EA6E
:103BD000900180585695979528F4805C660F771F62
:103BE000881F20F026173707480730F4621B730B35
:103BF000840B202931294A2BA69517940794202558
:103C000031254A2758F7660F771F881F20F026179F
:103C10003707480730F4620B730B840B200D311DFE
:103C2000411DA09581F7B901842F9158880F969571
:103C3000879508959B01AC0152CF9F3F31F0915081
:103C400020F4879577956795B795880F911D969580
:103C5000879597F9089591505040660F771F881FF8
:103C6000D2F708959F938F937F936F93FF93EF9372
:103C70009B01AC0134DFEF91FF9180DE2F913F91EA
:103C80004F915F912CCFDB018F939F930E94C81EB1
:103C9000BF91AF91A29F800D911DA39F900DB29FE8
:103CA000900D11240895991B79E004C0991F96176F
:103CB00008F0961B881F7A95C9F780950895AA1B6E
:103CC000BB1B51E107C0AA1FBB1FA617B70710F007
:103CD000A61BB70B881F991F5A95A9F78095909539
:103CE000BC01CD01089597FB072E16F4009407D070
:103CF00077FD09D00E945F1E07FC05D03EF4909529
:103D000081959F4F0895709561957F4F0895A1E229
:103D10001A2EAA1BBB1BFD010DC0AA1FBB1FEE1F45
:103D2000FF1FA217B307E407F50720F0A21BB30B90
:103D3000E40BF50B661F771F881F991F1A9469F70C
:103D400060957095809590959B01AC01BD01CF0168
:103D50000895052E97FB1EF400940E94C01E57FD87
:103D600007D00E94871E07FC03D04EF40C94C01E9F
:103D700050954095309521953F4F4F4F5F4F089597
:103D800090958095709561957F4F8F4F9F4F0895C7
:103D90000E94D91EA59F900DB49F900DA49F800DE9
:103DA000911D11240895EE0FFF1F0590F491E02D51
:103DB0000994A29FB001B39FC001A39F700D811D04
:103DC0001124911DB29F700D811D1124911D089524
:103DD0008F929F92AF92BF92CF92DF92EF92FF921B
:103DE000CF93DF93EC01688179818A819B81611592
:103DF00071058105910521F464E279ED8BE597E089
:103E00002DE133EF41E050E00E94A91E49015A0123
:103E10009B01AC01A7EAB1E40E94C81E6B017C01C2
:103E2000ACEEB4EFA50194010E94481FC60ED71E48
:103E3000E81EF91EF7FE06C081E0C81AD108E108A5
:103E400080E8F80AC882D982EA82FB82C701B601FB
:103E50009F77DF91CF91FF90EF90DF90CF90BF9051
:103E6000AF909F908F9008950E94E81E089586E07D
:103E700091E00E94E81E0895609306017093070187
:103E800080930801909309010895B7FF0C94C81E10
:0E3E90000E94C81E821B930B0895F894FFCF6A
:103E9E0000003A058000010000000000C84200004A
:103EAE00C8420000C8420000C8420000C8420000DC
:103EBE00C8420000C8420000C8420000C8420000CC
:103ECE00C8420000C8420000C8420000C8420000BC
:103EDE00C8420000C8420000C8420000C8420000AC
:103EEE00C8420000C8420000C8420000C84200009C
:103EFE00C8420000C8420000C8420000C84200008C
:103F0E00C8420000C8420000C8420000C84200007B
:103F1E00C8420000C8420000C8420000C84200006B
:103F2E00C8420000C8420000C8420000C84200005B
:103F3E00C8420000C8420000C842646464646464FD
:103F4E0064646464CDCC4C3E01056464000064641A
:103F5E000000646400006464000064640000646433
:103F6E000000646400006464000064640000646423
:103F7E0000000000C8420000C8420000000000001F
:103F8E00C8420000C842000000000000C842000005
:103F9E00C842000000000000C8420000C8420000F5
:103FAE0000000000C8420000C842000000000000EF
:103FBE00C8420000C842000000000000C8420000D5
:103FCE00C842000000000000C8420000C8420000C5
:103FDE0000000000C8420000C842000000000000BF
:103FEE00C8420000C8420000000064646464646457
:103FFE006464646464646464646464646464010139
:10400E00010101010101010154484520454E4400C2
:10401E0000000000760F35194C4F41444552000DFB
:10402E000A006E616E00696E66006F7666002E0085
:107E0000112484B714BE81FFF0D085E080938100F7
:107E100082E08093C00088E18093C10086E0809377
:107E2000C20080E18093C4008EE0C9D0259A86E02C
:107E300020E33CEF91E0309385002093840096BBD3
:107E4000B09BFECF1D9AA8958150A9F7CC24DD24C4
:107E500088248394B5E0AB2EA1E19A2EF3E0BF2EE7
:107E6000A2D0813461F49FD0082FAFD0023811F036
:107E7000013811F484E001C083E08DD089C08234E0
:107E800011F484E103C0853419F485E0A6D080C0E4
:107E9000853579F488D0E82EFF2485D0082F10E0AE
:107EA000102F00270E291F29000F111F8ED06801E7
:107EB0006FC0863521F484E090D080E0DECF843638
:107EC00009F040C070D06FD0082F6DD080E0C81688
:107ED00080E7D80618F4F601B7BEE895C0E0D1E017
:107EE00062D089930C17E1F7F0E0CF16F0E7DF06D8
:107EF00018F0F601B7BEE89568D007B600FCFDCFD4
:107F0000A601A0E0B1E02C9130E011968C91119780
:107F100090E0982F8827822B932B1296FA010C0160
:107F200087BEE89511244E5F5F4FF1E0A038BF0790
:107F300051F7F601A7BEE89507B600FCFDCF97BE46
:107F4000E89526C08437B1F42ED02DD0F82E2BD052
:107F50003CD0F601EF2C8F010F5F1F4F84911BD097
:107F6000EA94F801C1F70894C11CD11CFA94CF0C13
:107F7000D11C0EC0853739F428D08EE10CD085E9AC
:107F80000AD08FE07ACF813511F488E018D01DD067
:107F900080E101D065CF982F8091C00085FFFCCF94
:107FA0009093C60008958091C00087FFFCCF809118
:107FB000C00084FD01C0A8958091C6000895E0E648
:107FC000F0E098E1908380830895EDDF803219F02E
:107FD00088E0F5DFFFCF84E1DECF1F93182FE3DFCA
:107FE0001150E9F7F2DF1F91089580E0E8DFEE27F6
:047FF000FF270994CA
:027FFE00040479
:0400000300007E007B
:00000001FF
