:100000000C94A0020C94C8020C94C8020C94C80270
:100010000C94C8020C94C8020C94C8020C94C80238
:100020000C94C8020C94C8020C94C8020C94AF182B
:100030000C94C8020C94C8020C94C8020C94C80218
:100040000C940C190C94C8020C94C8020C94C802AD
:100050000C94C8020C94C8020C94C8020C94C802F8
:100060000C94C8020C94C802084AD73B3BCE016EE0
:1000700084BCBFFDC12F3D6C74319ABD56833DDAFF
:100080003D00C77F11BED9E4BB4C3E916BAAAABE0E
:10009000000000803F05A84CCDB2D44EB93836A937
:1000A000020C50B9918688083CA6AAAA2ABE000074
:1000B00000803F0008080000000000665A81080820
:1000C000181818242442428108080000000000008B
:1000D000206208080000000022767EFF4024FFF026
:1000E000000000000FFFFC0FFFFFFFFFF03FE3FFEA
:1000F000FFFFFFFFFFC79FFFFFFFFFFFFFF9779E97
:10010000EEF9C279F7BA77AE4EF6DEBAEB9A6B8E9D
:100110004D77C6DB5DAA63AEAC74DEDB5DB26BA669
:10012000ED76DEBAEBBA49B6E939C279F7BABFFF64
:10013000FFFFFFFFFFFDDFFFE0FFFF07FFFBE3FE29
:100140001F1FF8F87FC7F8E1FFEFF7FF871FFE0FCB
:10015000FFF7EFFFF07FFFFFFFF7EFFFFFFFFFFF6E
:10016000FFFBDFFFFFFFFFFFFFFBDFFFFFFFFFFFE7
:10017000FE03C07FFFFFFFFFE1FBDF87FFFFFFFF05
:10018000DFF3CFFBFFFFFFFFDFF3CFFBFFFFFFFF3F
:10019000DFF3CFFBFFFFFFFFE1F3CF87FFFFFFFFA1
:1001A000FE17E87FFFFFFFFFFFE007FFFFFFFFFFF6
:1001B000FFF7EFFFFFFFFFFFFFE7E7FFFFFFFFFF97
:1001C000FFE7E7FFFFFFFFFFFFEFF7FFFFFFFFFF87
:1001D000FFEFF7FFFFFFFFFFFFEFF7FFFFFFFFFF5F
:1001E000FFDFFBFFFFFFFFFFFFBFFDFFFFFFFFFF85
:1001F000FE7FFE7FFFFFFFFFFDFFFFBFFFFF030549
:100200003F213F1208120A100A0E1C0E0C1E0C147D
:100210001A14161F161E131E1E1B1E1E1F1E3F2104
:100220003F3A2F3A173D173F213F181F02040A0497
:100230001F0E04040E1F0A1F0A0E0E1F04110E2E9D
:10024000252E2F2A2E262929021F02081F08150EE7
:1002500004040E150E15151B151B040604040C04CE
:100260000000000017000300031F0A1F16371A19A9
:1002700004130A153A000300000E11110E000A04BF
:100280000A040E04003000040404001000180403E3
:100290001F111F121F101D151711151F07041F17FF
:1002A000151D1F151D01011F1F151F17151F000A02
:1002B00000003200040A110A0A0A110A0401150298
:1002C0000E11171E051E1F150A0E110A1F110E1FF3
:1002D00015111F05010E111D1F041F111F110810FC
:1002E0000F1F041B1F10101F061F1E040F0E110EE0
:1002F0001F09060E112E1F051A121509011F011FD5
:10030000101F0F180F1F0C1F1B041B031C031915B4
:1003100013001F11030418111F00020102202020E6
:100320000001020C121E1F120C0C12120C121F0CD8
:100330001A14041E05242A1E1F021C141D1020203E
:100340001D1F0814111F101E041E1E021C0C120C6F
:100350003E0A040C123E1E040214160A020F120E6C
:10036000101E0E100E1E081E120C1226281E322AF7
:1003700026041E21001F00211E040102013F213F0F
:100380000A4E6F2053442063617264206F720A6EBC
:100390006F204C4F414445522E4845580A0A153AA1
:1003A00045786974001D20466C617368696E670A40
:1003B00020206C6F616465722E2E2E0A0A444F4E07
:1003C0002754205455524E204F464621000A0A1504
:1003D0003A49676E6F7265006D560A0A504C454186
:1003E0005345205455524E204F464620004C4F57FF
:1003F00020424154544552592120001753440016BD
:10040000137800161314001510200015201000009A
:10041000540A03E181867F3E186D830F0F0E01831E
:10042000866033186DC3198F1803C38E6033186D3F
:10043000E330CF1803C39E603630CDE360CF300683
:10044000C79E7E3E30CDB360CF300CC6F6603330F1
:10045000D9B660CF33CFCCF66061B0DB1E60CF3051
:10046000D86CE6C061B0DB1E618F19986CC6C063A2
:10047000B19B0E330F0FB078C6FF7E1F1B061E0FF9
:100480000500893008023802497868140000F6E84F
:10049000DBCFC3B8AEA49B928A827B746E68625C29
:1004A00057524E4945413E3A3734312E2C292725A3
:1004B00023211F1D1C1A1917161514131211100FC2
:1004C0000E0D0C0B0A09080706450068010000051F
:1004D00000380168010000DF04DB040101FF0301B3
:1004E00001F70300000008000201000003040700F8
:1004F00000000000000000010204081020408001FC
:10050000020408102001020408102004040404045A
:1005100004040402020202020203030303030300B1
:10052000000000230026002900000000002500280C
:10053000002B0000000000240027002A00000A0A07
:1005400011241FBECFEFD8E0DEBFCDBF12E0A0E088
:10055000B1E0E0EBF2E402C005900D92A03BB107E0
:10056000D9F725E0A0EBB2E001C01D92A635B20795
:10057000E1F715E0C0E4D5E004C02297FE010E9437
:10058000DE20CE33D107C9F70E94E61C0C94562119
:100590000C940000DC01643508F053C0403308F0CF
:1005A00050C090968C919097342F35953595359510
:1005B000E62FFF27E7FDF095242F2770823099F46E
:1005C000DF01A95BBC4F84E53802A00DB11D1124E9
:1005D0008C9190E0022E02C0959587950A94E2F7DF
:1005E0008095817009C0833039F446271C968C9120
:1005F000482740FF03C014C0811112C084E53802AF
:10060000E00DF11D1124E95BFC4F81E090E0022E2A
:1006100001C0880F0A94EAF780959081982310C052
:1006200084E53802E00DF11D1124E95BFC4F81E007
:1006300090E0022E01C0880F0A94EAF79081982B6F
:10064000908308958FEB92E00E94D0156CED70E0DE
:100650008FEB92E00E9452151092D7028FEB92E03E
:100660000C94AF118091BB0261E0680F6093BB02F4
:10067000E2EBF2E0A0E7B2E091919D9392E0EA3BD9
:10068000F907D1F791E090937202909375029AE086
:1006900090936E0290936F026B3010F4855F01C0EF
:1006A00084E18093B901633190F470E080E090E0E0
:1006B0000E945F1E2DEC3CEC4CEC5DE30E94781F29
:1006C0002DEC3CEC4CE45EE30E94F71C04C060E0BF
:1006D00070E080E090E46093B4017093B501809382
:1006E000B6019093B70108951092BA02E2EBF2E0DE
:1006F000119282E0EA3BF807D9F708950F931F9310
:10070000CF93DF936091B102615023E04091B0023A
:100710008DE093E00E94050C4091B002415023E02F
:100720006091B1028DE093E00E94E20BCAEBD1E050
:100730000BE512E0F80131976081653548F4888156
:10074000853530F0F80140818DE093E00E94CA02C7
:1007500024960E5F1F4FF1E0C23EDF0759F7DF918D
:10076000CF911F910F910895EF92FF921F93CF9316
:10077000DF9380E7E82E82E0F82EE70112E08C2F6D
:100780008E19823011F0853049F48881882319F060
:100790002EEB30E00BC024EB30E008C088818823CA
:1007A00019F022ED30E002C028EC30E048E2612F81
:1007B0008DE093E00E94C70E165F21961235F9F680
:1007C000DF91CF911F91FF90EF9008951F93CF93EA
:1007D000DF93809172028823A9F010E0DFE2C9E183
:1007E00080916E02181770F44D2F6C2F8DE093E0FE
:1007F0000E94CA02C0FF03C0CF5F1F5FF1CFC1508C
:10080000D150FBCF809175028823A9F010E0DFE280
:10081000C7E380916F02181770F44D2F6C2F8DE095
:1008200093E00E94CA02C0FF03C0CF5F1F5FF1CFF9
:10083000C150D150FBCFDF91CF911F910895AF925E
:10084000BF92CF92DF92EF92FF920F93CF93DF93FD
:1008500000D0CDB7DEB73AE5E32E32E0F32E4AEB17
:10086000C42E41E0D42E52EEA52E51E0B52EF70154
:1008700080818535C8F5F60180818535A8F120E0B5
:1008800030E040E85FE3F5016085718582859385FE
:100890000E94BD1DF501811112C0648175818681A0
:1008A00097810E942C1E062FF50160817181828143
:1008B00093810E942C1E262F48E269E111C06481B9
:1008C0007581868197810E942C1E062FF50160811B
:1008D0007181828193810E942C1E262F48E268E359
:1008E0008DE093E00E94510CF2E0EF0EF11C84E0E9
:1008F000C80ED11CECE0AE0EB11CFEE6EF16F2E025
:10090000FF0609F0B4CF9AEAE92E91E0F92E2AE029
:10091000C22E21E0D22EF70181917F01853538F575
:10092000F60164857585868597850E942C1E062FA5
:10093000F60160857185828593850E942C1E262F85
:10094000F60164817581868197812A830E942C1E1D
:10095000462FF601608171818281938149830E94D3
:100960002C1E2A8149818DE093E00E94510CF0E118
:10097000CF0ED11C84EBE81681E0F80661F60F90EB
:100980000F90DF91CF910F91FF90EF90DF90CF907C
:10099000BF90AF900895CF93DF93CCEBD1E0FE01F1
:1009A00032976081653538F42881319640818DE039
:1009B00093E00E94C90C249681E0C43ED80779F7E1
:1009C000DF91CF910895EAE5F2E020E030E09081F8
:1009D000953508F474C0813089F5809172028823BE
:1009E00009F45CC040916E02442309F457C0F90138
:1009F000EE0FFF1FE65AFD4F8091B1028083809178
:100A0000B00281838CE0829FF001839FF00D11245E
:100A1000EE51FE4F80E090E0A8ECB1E4808391833A
:100A2000A283B38380E090E0A0E8BFE38087918752
:100A3000A287B387415040936E0230C0823071F577
:100A400080917502882351F140916F02442331F166
:100A5000F901EE0FFF1FE65AFD4F8091B10280832E
:100A60008091B00281838CE0829FF001839FF00D22
:100A70001124EE51FE4F80E090E0A0E6B2E48083C6
:100A80009183A283B38380E090E0A0E0B0E480870C
:100A90009187A287B387415040936F028CE0829F79
:100AA000F001839FF00D1124EE51FE4F80E090E0A5
:100AB000A0E2B2E484839583A683B78308952F5F71
:100AC0003F4F32962A30310509F081CF0895CF92F9
:100AD000DF92EF92FF92CF93DF938091B901882349
:100AE00009F456C0EAEAF1E08191853508F43FC087
:100AF00081E0E43BF807C1F7EAEAF1E0C0E0D0E0CA
:100B00008191853578F18091B90181508093B90147
:100B100068E070E080E090E00E947A1CFE01E655FB
:100B2000FE4F608364E570E080E090E00E947A1CF4
:100B3000E4E0CC0FDD1FEA95E1F7C65FDE4F0E94CF
:100B40005F1E688379838A839B831C821D821E8239
:100B50001F82688779878A879B871C861D861E86E9
:100B60001F8616C02196CA30D10551F611C0C0901B
:100B7000B801D12CE12CF12C64E670E080E090E02B
:100B80000E947A1CC616D706E806F9060CF0B4CF08
:100B9000DF91CF91FF90EF90DF90CF9008952F924B
:100BA0003F924F925F926F927F928F929F92AF92FD
:100BB000BF92CF92DF92EF92FF920F931F93CF934A
:100BC000DF93CDB7DEB72A970FB6F894DEBF0FBE1E
:100BD000CDBF8AEB91E09A8389830DEB11E0ABE501
:100BE0002A2EA2E03A2EA2EEB1E0BA87A987F1013F
:100BF0003197B081BB83B53508F0BAC0E981FA817D
:100C00008081853508F4B4C0A985BA854D905D9082
:100C10006D907C90BB816B2F70E080E090E00E9433
:100C20005F1EA30192010E94F61C6B017C0120E073
:100C300030E0A9010E946D1FF101F081FF831816B9
:100C40005CF420E030E040E850E4C701B6010E94C7
:100C5000BD1D87FD0BC046C020E030E040E850ECF1
:100C6000C701B6010E946D1F1816E4F52F81622F8F
:100C700070E080E090E00E945F1EA985BA8514961E
:100C80002D913D914D915C9117970E94F61C4B015F
:100C90005C0120E030E0A9010E946D1F18165CF491
:100CA00020E030E040E850E4C501B4010E94BD1DE1
:100CB00087FD0BC017C020E030E040E850ECC501D4
:100CC000B4010E946D1F18166CF42B81E981FA8122
:100CD0002083F80132978F81808331961082D8016A
:100CE0001C9246C0BF816B2F70E080E090E00E94B4
:100CF0005F1EE985FA8524813581468157810E94EE
:100D0000F61CA70196010E946A1D6B017C010E94DE
:100D1000C11D20E030E040E850E40E94781F9B01B4
:100D2000AC01C301B2010E94F71CA985BA856D937D
:100D30007D938D939C931397C701B6010E94DB1F8F
:100D400020E030E040E850E40E94781F9B01AC01B5
:100D5000E985FA8564817581868197810E94F71CF7
:100D6000A985BA8514966D937D938D939C9317975F
:100D7000E981FA813496FA83E9830C5F1F4FF2E030
:100D80002F0E311C89859A850C969A87898791E068
:100D9000053E190709F02BCF8091B4019091B50160
:100DA000A091B601B091B7018B839C83AD83BE83C4
:100DB00000916E0290916F029983FAEA2F2EF1E072
:100DC0003F2EA2E1B1E0BA87A987F1011081153564
:100DD00008F0BAC0812F90E098878F83A985BA85E3
:100DE0004D905D906D907C90BAE01B9FC0011124E6
:100DF0000696BC01882777FD8095982F0E945F1E7C
:100E0000A30192010E94F61C6B017C0120E030E0FE
:100E1000A9010E946D1F18165CF420E030E040E844
:100E200050E4C701B6010E94BD1D87FD0BC044C040
:100E300020E030E040E850ECC701B6010E946D1F91
:100E40001816D4F5E985FA852481358146815781C4
:100E500060E070E080E392E40E94F61C4B015C01CC
:100E600020E030E0A9010E946D1F18165CF420E01C
:100E700030E040E850E4C501B4010E94BD1D87FD8B
:100E80000BC01AC020E030E040E850ECC501B401CE
:100E90000E946D1F181684F4EF81F885E059FD4F0C
:100EA0001082123021F0153019F4198201C000E0CF
:100EB000E4E6D101EC9348C0A985BA8514962D913A
:100EC0003D914D915C91179760E070E080E392E472
:100ED0000E94F61CA70196010E946A1D6B017C010D
:100EE0000E94C11D9B01AC016B817C818D819E8123
:100EF0000E94781F9B01AC01C301B2010E94F71C44
:100F0000E985FA856083718382839383C701B60183
:100F10000E94DB1F9B01AC016B817C818D819E81D6
:100F20000E94781F9B01AC01A985BA8514966D912A
:100F30007D918D919C9117970E94F71CE985FA8508
:100F40006483758386839783FFEF2F1A3F0A898511
:100F50009A8540969A87898794EB291691E03906FD
:100F600009F033CF00936E02A981A0936F022A96F5
:100F70000FB6F894DEBF0FBECDBFDF91CF911F91AA
:100F80000F91FF90EF90DF90CF90BF90AF909F9028
:100F90008F907F906F905F904F903F902F9008952B
:100FA000CF93DF938091BE02882371F16AEB71E0E9
:100FB0008AE592E0ECEBF1E0CDEBD1E024E641E014
:100FC000DB013C913535B8F43881311107C03081EF
:100FD000363018F43F5F308301C0488338813130A8
:100FE00051F43081332319F03150308304C0DB01D8
:100FF0002C93DC012C936C5F7F4F029634962496E1
:10100000B1E0623E7B07E1F6DF91CF9108952F9228
:101010003F924F925F926F927F928F929F92AF9288
:10102000BF92CF92DF92EF92FF920F931F93CF93D5
:10103000DF93CDB7DEB72A970FB6F894DEBF0FBEA9
:10104000CDBF8CEB91E09A878987E985FA85329745
:10105000F08094E59F1508F5A985BA851496BA879E
:10106000A987A45EB14089F72A960FB6F894DEBF2F
:101070000FBECDBFDF91CF911F910F91FF90EF90E9
:10108000DF90CF90BF90AF909F908F907F906F90A8
:101090005F904F903F902F900895A985BA856C91ED
:1010A00070E080E090E00E945F1E2B013C01E9852A
:1010B000FA853197608170E080E090E00E945F1EC9
:1010C00069837A838B839C8302E111E0BAEA2B2E39
:1010D000B1E03B2E8F2D90E0A0E0B0E08D839E83A9
:1010E000AF83B8876D817E818F8198850E945F1E56
:1010F0009B01AC01D8016D917D918D919C910E94D5
:10110000F61C4B015C0129813A814B815C81F8011D
:1011100064817581868197810E94F61C6B017C0138
:10112000A5019401C501B4010E94781F4B015C0127
:10113000A7019601C701B6010E94781F9B01AC016F
:10114000C501B4010E94F71C0E94E51F9B01AC0180
:10115000C301B2010E946D1F87FD03C0E4E6D10107
:10116000EC93005F1F4FFFEF2F1A3F0A21E0023B75
:10117000120709F0B7CF70CF8091B90181110EC06D
:10118000EAEAF1E08191853548F081E0E43BF80737
:10119000C9F70E94740381E08093BD020895E0E7DF
:1011A000F2E080E0823029F0853019F090819111D1
:1011B00007C08F5F31968830A9F782E08093BD0227
:1011C000089564E089EC92E00E943D0B882319F0B9
:1011D00081E00E94E30465E089EC92E00E943D0B0F
:1011E000882319F082E00E94E30441E060E089EC8A
:1011F00092E00E94460B882361F02091B102822F79
:1012000090E003971CF08EEF820F01C080E0809386
:10121000B10241E062E089EC92E00E94460B882333
:1012200069F02091B102822F90E0823591051CF483
:1012300082E0820F01C084E58093B10241E061E069
:1012400089EC92E00E94460B882361F02091B00265
:10125000822F90E003971CF08EEF820F01C080E098
:101260008093B00241E063E089EC92E00E94460B7B
:10127000882361F02091B002822F90E08E971CF4B9
:1012800082E0820F01C080E38093B0020E94670574
:101290000E94CF050E94D0070E9407080E947E038B
:1012A0000E94B4030E94E6030E941F040E94CB0424
:1012B0000E94BC080C94CF08CF93DF93D2E1D09367
:1012C000160384E0809317036AE772E08DE093E0F1
:1012D0000E94981BD093160380911703865F80931A
:1012E00017034AE050E06091BA028DE093E00E945B
:1012F000651CD093160380911703865F80931703B4
:1013000060E0C83048F4EC2FF0E0EE54FD4F8081EF
:1013100081116F5FCF5FF5CF4AE050E08DE093E041
:101320000E94651C0E94B403DF91CF910C94E603E8
:101330002091BC02822F8370C1F480916E028111D2
:1013400004C090916F02992381F09091BA029F5F3F
:101350009093BA02882321F0815080936E0205C0D9
:1013600080916F02815080936F02277021F58091E8
:101370006E02811120C080916F0281111CC080E03B
:1013800090E0823079F0853069F0FC01E059FD4F42
:101390002081222339F0DC01AE54BD4F21E02C9393
:1013A000108209C001968830910559F70E943203D6
:1013B0001092BD0208950E945C098091BC028F5F6B
:1013C0008093BC0208958BE18093160383E18093A0
:1013D000170367E872E08DE093E00C94981B8FEBA5
:1013E00092E00E9415138823A1F08091BE028F5FC6
:1013F00081708093BE028091BD02813031F018F07F
:10140000823029F008950C94E1080C9498090C940A
:10141000E30908951092100310920F0383E992E0FC
:1014200090930E0380930D030895CF93CFB7F89454
:1014300080914603811127C0E5E1F5E08491E1E068
:10144000F5E09491E82FF0E0EE0FFF1FED5CFA4F0E
:10145000A591B4918C91892321F461E08AE00E94E6
:10146000D81A61E08AE00E949F1A8CB580618CBD19
:101470008CB580648CBD61E08DE00E949F1A61E0B4
:101480008BE00E949F1A809146038F5F80934603F2
:10149000CFBFCF91089521E0FC012083089570E033
:1014A00085E00C94171AAF92BF92CF92DF92EF9221
:1014B000FF920F931F93CF93DF93EC0189819A8161
:1014C0002FE0289F8001299F100D112485E10E94A3
:1014D000FA19800F911F24E0969587952A95E1F7D8
:1014E0009A8389832881222391F1AC81AD80B12C2C
:1014F000C12CD12CE885F9857F0100E010E06E81D8
:101500007F819B0140E050E08617970728F0BC01DF
:10151000E817F90708F4BF0180E090E01F921F92DE
:101520001F92AF930E949E1C6B830F900F900F90A1
:101530000F9070E085E0DF91CF911F910F91FF90A8
:10154000EF90DF90CF90BF90AF900C94171ADF917F
:10155000CF911F910F91FF90EF90DF90CF90BF90B0
:10156000AF900895FC018CE39FE09383828384E035
:10157000818381E084870895CF93DF93EC018C8190
:101580009D81892B81F18C858F7151F584E10E94B9
:10159000FA19BC01882777FD8095982F0E945F1E5D
:1015A00026EE3FE34EEC50E40E94781F0E94311E6D
:1015B0009B017B836A836115710581F084E08983D7
:1015C000FE0140E0848195812817390710F4498392
:1015D0000AC04F5F32964430A9F702C08FEF89836B
:1015E0008C858F5F8C87DF91CF910895FC0188E017
:1015F000808389E0818387E0828386E0838384E03F
:10160000848382E0858381E186830895DF92EF926F
:10161000FF920F931F93CF93DF937C01EC0100E0C7
:1016200010E0DD24DA9462E088810E949F1A8881AC
:101630000E940E1BF701E00FF11F892B21F4878117
:101640008F5F878308C08781882349F08F3F11F41B
:10165000178201C0D78260E088810E949F1A0F5FC5
:101660001F4F219607301105F1F6DF91CF911F91A1
:101670000F91FF90EF90DF900895FC01E60FF11DB0
:1016800081E09781913009F080E00895262F30E0C5
:10169000FC01E20FF31F8781423028F481508E3F16
:1016A00048F080E008958F3FE1F3642F0E945C20B2
:1016B0009130B9F781E008958EBD00000DB407FEAA
:1016C000FDCF8EB508951F93CF93DF93EC01162FB6
:1016D000F89460E08F850E94D81A888918161CF447
:1016E00060E00E94D81A812F0E945C0B888918162E
:1016F0001CF461E00E94D81A7894DF91CF911F9179
:10170000089528EF31E0E7E4F3E0DF01A9011D923D
:1017100041505040E1F7DC0119961C9219971A9636
:101720001C920895DF92EF92FF920F931F93CF9335
:10173000DF93EC018C858F5F8C8787E4E82E83E054
:10174000F82ED12C6D2D6064CE010E94630B60E8F1
:10175000CE010E94630B61E08F850E94D81A8889B0
:1017600018161CF460E00E94D81A00E010E0F7019F
:10177000E00FF11F80810E945C0B0F5F1F4F04354B
:101780001105A9F7888918161CF461E00E94D81A7F
:10179000D39484E5E80EF11C86E0D812D3CF60E440
:1017A000CE01DF91CF911F910F91FF90EF90DF90CD
:1017B0000C94630BFC0160A361A30895FC0160A37A
:1017C00041A30895CF92DF92FF920F931F93CF937F
:1017D000DF931F92CDB7DEB76C01062FF42E10E019
:1017E000121754F4412F4F0D602FC60129830E9418
:1017F000CA021F5F2981F4CF0F90DF91CF911F9113
:101800000F91FF90DF90CF900895CF92DF92FF92DB
:101810000F931F93CF93DF931F92CDB7DEB76C0169
:10182000062FF42E10E0121754F4612F600F4F2D85
:10183000C60129830E94CA021F5F2981F4CF0F903D
:10184000DF91CF911F910F91FF90DF90CF9008957E
:10185000DF92EF92FF920F931F93CF93DF93EC01F0
:10186000E62ED22EF42E112707FD1095040F111D20
:1018700047FD1A958F2D992787FD90958017910721
:1018800044F42D2D4F2D6E2DCE010E94050CF394A6
:10189000F1CFDF91CF911F910F91FF90EF90DF90EB
:1018A0000895AF92BF92CF92DF92EF92FF920F9383
:1018B0001F93CF93DF93EC01162FF42EE22EA02F6F
:1018C000BB27A7FDB095A41BB10947FDB395B7FF92
:1018D00003C0B195A195B109EE2DFF27E7FDF09565
:1018E000E11BF10917FDF395F7FF03C0F195E195B1
:1018F000F109BB24B394EA17FB0714F0B12C06C01E
:101900008E2DE02E082F812F1F2DF82EE11634F496
:101910008F2DF02E082F812F1E2DE82ECE2CC11AD0
:10192000E02FFF27E7FDF095EF19F109F7FCF3959C
:10193000F7FF03C0F195E195F109AE2EDC2CC7FE4F
:1019400003C0DD24D394DC0CD594F01614F401E02C
:101950000FC00FEF0DC0BB2071F0412F6F2DCE01D6
:101960000E94CA02DA18D7FE02C0F00EDC0C1F5F1C
:10197000E1168CF703C04F2D612FF1CFDF91CF918E
:101980001F910F91FF90EF90DF90CF90BF90AF909D
:1019900008959F92AF92BF92CF92DF92EF92FF9203
:1019A0000F931F93CF93DF93EC01062FF42E122F8A
:1019B000DD24D394D21AC22EC194CC0C422F4F0DE9
:1019C0000E94CA024F2D411B602FCE010E94CA0205
:1019D000612F600F4F2DCE010E94CA02602F611B44
:1019E0004F2DCE010E94CA02E12CE1160CF044C03A
:1019F000D7FC04C01150C394C394DC0CE3948E2D27
:101A0000880F8F5FD80E9E2C900EA12EAF0C4A2D02
:101A1000692DCE010E94CA02B02EBE184A2D6B2D30
:101A2000CE010E94CA02AF2CA11A4A2D692DCE0107
:101A30000E94CA024A2D6B2DCE010E94CA02BE2C02
:101A4000BF0C4B2D912E900E692DCE010E94CA0223
:101A50004B2DB02EB11A6B2DCE010E94CA02AF2CB5
:101A6000AE184A2D692DCE010E94CA024A2D6B2D57
:101A7000CE010E94CA02B9CFDF91CF911F910F9181
:101A8000FF90EF90DF90CF90BF90AF909F90089520
:101A90008F929F92AF92BF92CF92DF92EF92FF927E
:101AA0000F931F93CF93DF93EC01E62ED42E122FCA
:101AB000CC24C394C21AB22EB194BB0CF12C802F4B
:101AC0008470A82E802F8270982E802F8870882E88
:101AD0000170F1160CF04DC0C7FC04C01150B39456
:101AE000B394CB0CF3948F2D880F8F5FC80EAA2070
:101AF00071F0412F4D0D6F2D6E0DCE010E94CA0267
:101B00004F2D4D0D612F6E0DCE010E94CA029920FE
:101B100071F04D2D411B6F2D6E0DCE010E94CA023A
:101B20004D2D4F19612F6E0DCE010E94CA028820E3
:101B300071F04F2D4D0D6E2D611BCE010E94CA021A
:101B4000412F4D0D6E2D6F19CE010E94CA02002348
:101B500009F4BFCF4D2D4F196E2D611BCE010E9490
:101B6000CA024D2D411B6E2D6F19CE010E94CA0273
:101B7000B0CFDF91CF911F910F91FF90EF90DF9049
:101B8000CF90BF90AF909F908F9008958F929F922B
:101B9000AF92BF92CF92DF92EF92FF920F931F937B
:101BA000CF93DF93EC01B62EA42E122FDD24D39415
:101BB000D21AC22EC194CC0CFF24F394802F8170D2
:101BC000882E992493949E0C02708FEF8F0D8117AD
:101BD000C4F5D7FC04C01150C394C394DC0C8F2D02
:101BE000880F8F5FD80E882099F0212F220F290DA2
:101BF0004A2D411B6F2D6B0DCE010E94E20B23E09D
:101C00002E0D4A2D4F19612F6B0DCE010E94E20B54
:101C1000002399F0212F220F290D4A2D411B6B2DF6
:101C20006F19CE010E94E20B23E02E0D4A2D4F19B1
:101C30006B2D611BCE010E94E20BF394E394E394BD
:101C4000C4CFDF91CF911F910F91FF90EF90DF9064
:101C5000CF90BF90AF909F908F9008959F92AF923A
:101C6000BF92CF92DF92EF92FF920F931F93CF9389
:101C7000DF93EC01B62EF42EA22EDE2CD194DD0CD7
:101C80009D2C920E1E2D160F292D612F0E94050CE2
:101C9000CC24CA94C00ECF0C292D4C2D612FCE011F
:101CA0000E94050CD00EFE0C2D2D4F2D6B2DCE015C
:101CB0000E94E20BBA0C6FEF6B0D2D2D4F2DCE0154
:101CC0000E94E20B01E02E2D4F2D612FCE010E94CC
:101CD000480DDE2CD094DB0C02E02E2D4F2D6D2D07
:101CE000CE010E94480DCE1804E02E2D4C2D6D2DF6
:101CF000CE010E94480D08E02E2D4C2D612FCE0103
:101D00000E94480DDF91CF911F910F91FF90EF90AE
:101D1000DF90CF90BF90AF909F900895AF92BF9209
:101D2000CF92DF92EF92FF920F931F93CF93DF93A7
:101D3000EC01A62EC42EB22EF02E1E2DE194EE0C38
:101D4000D12ED60E2E2D2B0D6D2D0E94280CFA941F
:101D5000FE0CC10E6FEF6A0D6B0D611BEF2C01E0E5
:101D6000212F4C2DCE010E94C60D02E0212F4C2DBB
:101D70006D2DCE010E94C60DDF91CF911F910F9165
:101D8000FF90EF90DF90CF90BF90AF9008956F924B
:101D90007F928F929F92AF92BF92CF92DF92EF92FB
:101DA000FF920F931F93CF93DF93F901A490319685
:101DB0005491FC01F0A064350CF00CC1BB24A7FCCD
:101DC000B094A62FBB27A7FDB095FD01EA0DFB1D22
:101DD0001E161F060CF0FEC040330CF0FBC0C52ED3
:101DE000042F112707FD1095E801C50FD11D57FDE0
:101DF000DA951C161D060CF0EDC0E901229695013E
:101E0000295F3F4F37FF02C0295F3F4F73E0359591
:101E100027957A95E1F747FF0AC0C52EC40E209F8B
:101E2000A001219F500D1124C41BD50B40E00C2DA7
:101E3000112707FD1095040F111D47FD1A95013359
:101E400011051CF070E3C72EC41A67FD60E0E5358C
:101E5000F10514F0E4E5F0E01E2FFC017485742711
:101E6000862F992787FD9095FC01EA1BFB0BDF016C
:101E70005F01F7E0AF22BB24E0E8F0E002C0F59597
:101E8000E795AA94E2F70E2FB7FD179653E0B595A4
:101E9000A7955A95E1F7AC0FBD1FE42FE77051E00D
:101EA00001C0550FEA95EAF7459545954595E4E556
:101EB0004E02800D911D1124895B9C4F40E0DD2472
:101EC000C7FCD094BB24B3943327E42FF0E0EC1587
:101ED000FD050CF07FC0FD01E490F1E0FF1219C098
:101EE000EC01A02EFD01862E881A9C2E980C9116CE
:101EF00008F067C09E2C9A2019F09880952A988245
:101F0000A69429F43196E4906894AA24A7F821961F
:101F1000ECCFF1101BC0752E7094EC01A02EFD01CA
:101F2000862E881A9C2E980C911608F04AC09E2C7A
:101F30009A2019F0988097209882A69429F43196D7
:101F4000E4906894AA24A7F82196ECCFE3E0FE166B
:101F500031F0EC01A02EFD01862E881A2EC0752EC0
:101F60007094962EEC01A02EFD019116B0F48E2CEB
:101F70008A2049F08880692C672660FE02C0852A85
:101F800001C087208882A69429F43196E490689451
:101F9000AA24A7F893942196E8CF7B2512C09E2C03
:101FA0009A2019F0988095269882A69429F4319663
:101FB000E4906894AA24A7F821969C2E980C911678
:101FC00070F3550F19F48C5A9F4F51E04F5FA20FD9
:101FD000B31F7BCFDF91CF911F910F91FF90EF90B7
:101FE000DF90CF90BF90AF909F908F907F906F9039
:101FF0000895DC01FB0184918F5F14968C931497F4
:102000003196E491EF5F1596EC9315976E5F7F4FD5
:102010005F967C936E935E970895EF920F93CF93A4
:10202000DF93EC014E876D872F87E98A088B81E06B
:10203000888788A319A28F836EEF71E0CE010E947A
:10204000F90F0E94150A8CB58F7D8CBD8CB58C7FE5
:1020500081608CBD8DB581608DBD8CB58C608CBD73
:1020600061E08E850E949F1A61E08D850E949F1A13
:1020700061E08F850E949F1A898918161CF461E01F
:102080000E949F1A888918161CF461E00E949F1A0A
:10209000898918166CF460E00E94D81A6AE070E032
:1020A00080E090E00E94851961E089890E94D81A39
:1020B0008D85992787FD9095FC01E55FFA4FE491A6
:1020C000F0E0EE0FFF1FE75DFA4F259134913D8B55
:1020D0002C8BFC01E950FB4F84918B8F8E859927C7
:1020E00087FD9095FC01E55FFA4FE491F0E0EE0F7B
:1020F000FF1FE75DFA4F259134913B8B2A8BFC0142
:10210000E950FB4F84918A8F8889992787FD9095A4
:10211000FC01E55FFA4FE491F0E0EE0FFF1FE75D91
:10212000FA4F259134913F8B2E8BFC01E950FB4FE8
:1021300084918C8F8F85992787FD9095FC01E55FB1
:10214000FA4FE491F0E0EE0FFF1FE75DFA4F2591A3
:102150003491398F288FFC01E950FB4F84918D8F8A
:1021600061E2CE010E94630B64E1CE010E94630B29
:102170008B8587FF02C08FE78B876B856068CE01F8
:102180000E94630B60E2CE010E94630B6CE0CE0103
:102190000E94630BCE01DF91CF910F91EF900C94D1
:1021A000920B6F927F928F929F92AF92BF92CF923B
:1021B000DF92EF92FF920F931F93CF93DF93EC0187
:1021C000162FF42EB02EE8A064350CF081C08FE2FB
:1021D00084170CF47DC0EC81F0E031970E9FC001B4
:1021E0000F9F900D1124860F911D67FD9A9518166B
:1021F00019060CF06DC08D81809FC0011124840FE1
:10220000911D47FD9A95181619060CF061C0A62E6F
:10221000962EC22ED12C8A2D811B992787FD909551
:102220002C8130E0821793070CF051C02150310906
:102230008217930779F0C29ED001C39EB00DD29E43
:10224000B00D1124A80FB91FEE8DFF8DEA0FFB1FF3
:10225000749001C0712C8F2C6F2C282D2F193327CF
:1022600027FD30958D8190E0281739076CF570FEB9
:1022700011C081E0B81206C0482D6A2DCE010E941F
:10228000CA021EC00B2D2B2D462D692DCE010E949A
:10229000280C16C089A198A1891791F088A381E024
:1022A000B81206C0482D6A2DCE010E94CA0207C08E
:1022B0000B2D2B2D462D692DCE010E94280CE8A256
:1022C00076946B0C8394C9CF9B0CA394A4CFE8A203
:1022D000DF91CF911F910F91FF90EF90DF90CF9002
:1022E000BF90AF909F908F907F906F9008950F93C5
:1022F000CF93DF93EC01262F6A3039F42D81988536
:102300008A85299F800D112422C06D3011F1088526
:102310004A8569850E94D11048855C812985549F32
:10232000200D112429878F81882399F0332727FDD9
:10233000309584E590E0459F80199109112482171A
:1023400093073CF49D818A85499F800D11248A87DB
:10235000198681E090E0DF91CF910F9108958F92DF
:102360009F92AF92BF92CF92DF92EF92FF92CF9364
:10237000DF93EC01CA8CDB8CC094D094E12CF12C5F
:102380000E9462194B015C010E946219A50194012F
:1023900020953095409550956095709580959095D5
:1023A0000E944C209B01AC01C701B6010E944C2049
:1023B0006B017C0189809A80A12CB12C0E9462194A
:1023C000680D791D8A1D9B1D6C0D7D1D8E1D9F1D29
:1023D000DF91CF91FF90EF90DF90CF90BF90AF90C3
:1023E0009F908F900C94721C8F929F92AF92BF928D
:1023F000CF92DF92EF92FF920F931F93CF93DF93D1
:10240000EC015C0186E8A80EB11CD5018C918823F3
:1024100009F44DC08C3018F41CE0181B01C010E00A
:10242000FE01EA5AFF4F81E080836E01BEE4CB0ECD
:10243000D11C60E0C6010E94DA0B4E01E3E58E0E6E
:10244000911CD4018C9103E0080F9DE2F92E4F2DD1
:10245000481B410F23E0E22E24E560E0C6010E9404
:102460008E0E61E0C6010E94DA0BF401808103E068
:10247000080F4F2D481B410F24E560E0C6010E9464
:102480002E0EFE01E95AFF4F84E080833196D4017D
:102490008C91181B115D1083CC57DF4F68817981B7
:1024A000C6010E94751BF501808181508083DF91F8
:1024B000CF911F910F91FF90EF90DF90CF90BF9041
:1024C000AF909F908F900895DF92EF92FF920F93BD
:1024D0001F93CF93DF93EC018C8D9D8D892B09F495
:1024E0009CC08E01025B1F4F40E061E0C8010E946A
:1024F000DE0B85E5FE01EE5AFF4F9081891B359674
:10250000808331961082698D613009F462C028F0B1
:10251000888D653008F074C06FC0CE0185960E942A
:10252000551781E0FE01EA5AFF4F80836EEF71E09C
:10253000C8010E94F90F1D8E1C8EFE01EC5AFF4F40
:10254000108238EAD32E7E018AE0E80EF11CCE011B
:102550000E9415138823D9F36DEE73E0C8010E9421
:10256000751B6A8D7B8D4AE050E0C8010E946C1C8F
:1025700068ED73E0C8010E94751B6D2D62956F7048
:1025800070E04AE050E0C8010E94501C6DEC73E01E
:10259000C8010E94751B64E0C7010E943D0B8111B8
:1025A0003CC0DA94A1F660E0CE010E944F0A83B7E6
:1025B000817F846083BF83B7816083BF83B781607D
:1025C00083BF889583B78E7F83BF83B78E7F83BF9A
:1025D000BECFCF58DF4F488159816A817B814F70D0
:1025E000552766277727483051056105710510F496
:1025F00067E009C068E707C0882379F06B5F03C014
:10260000882359F06FE2C801DF91CF911F910F919C
:10261000FF90EF90DF900C949A1BDF91CF911F9168
:102620000F91FF90EF90DF9008958F929F92AF925D
:10263000BF92EF92FF920F931F93CF93DF93EC0122
:102640007C0100E8E00EF11CF70180809180A280FF
:10265000B3800E94561995018401061B170B280BA5
:10266000390BB901A8015E011FE7A10EB11CF501EC
:10267000808190E0A0E0B0E08E0105581F4F8417E4
:102680009507A607B70750F4F80180819181A281D0
:10269000B381892B8A2B8B2B09F040C0F8018081F4
:1026A0009181A281B381892B8A2B8B2BA9F57E0185
:1026B000F5E2EF0EF11CC7010E945217C7010E94FC
:1026C000BF17C7010E948318CE010E94F411CE01EA
:1026D0000E9464127E012EE4E20EF11CC7010E94EA
:1026E000920BFE01EC5AFF4F8081811103C0C7019C
:1026F0000E94810B0E946219F801608371838283BA
:102700009383FE01EB58FF4FC958DF4F2881398171
:10271000621B730B7183608380E036C00E94561980
:10272000F5012081620F711D811D911DF7016083EC
:10273000718382839383FE01EF58FF4F4081518163
:10274000628173814F5F5F4F6F4F7F4F4083518333
:1027500062837383F80110821182128213820E94B5
:102760006219FE01E958FF4F60837183828393836E
:10277000CE010E94530ACE010A960E94060BCE019A
:1027800048960E94BC0A81E0DF91CF911F910F9182
:10279000FF90EF90BF90AF909F908F9008950F9310
:1027A0001F93CF93DF938C01EC01C25BDF4FCE010F
:1027B0000E94810B65EA73E0CE010E94751BCE0179
:1027C0000E94920B8CB583608CBD8DB58E7F8DBDC4
:1027D00087E992E0EEEFFFE30995F801EC5AFF4F2D
:1027E000108260E873E0CE010E94A51BCE010E941A
:1027F000920B065F1F4FC8010E94060B64E0C801E0
:102800000E943D0B811107C062E370E080E090E020
:102810000E948519F0CFDF91CF911F910F910895FC
:102820002F923F924F925F926F927F928F929F92E0
:10283000AF92BF92CF92DF92EF92FF920F931F93CE
:10284000CF93DF93CDB7DEB729970FB6F894DEBFED
:102850000FBECDBF998788871B012A013C0180E705
:10286000680E711CF3018081882309F402C181E0A4
:10287000E885F985EA5AFF4F8083E885F985EB5AA8
:10288000FF4F1082E885F985EC5AFF4F1082E885EA
:10289000F985108E8F01025B1F4F61E0C8010E9415
:1028A000DA0B888599858D5A9F4F9C838B83C884CA
:1028B000D98497E5C90ED11CE884F984E8E5EE0EC9
:1028C000F11C888599858E5A9F4F9A838983E88564
:1028D000F985EF58FF4FFE83ED8388849984FAE0F1
:1028E0008F0E911CA884B98485E2A80EB11C88853E
:1028F00099850E9415138823D1F3F10184918823CF
:1029000021F0EB81FC81508101C050E020E134E0F6
:1029100040E060E0C8015F830E94C70E5F81411400
:10292000510439F04CE0450F920160E0C8010E946B
:10293000C70EF60110828CE0F7018083B101C80157
:102940000E94751BE981FA819081892F880F890F78
:1029500081958D5AF6018083EB81FC819081892FCE
:10296000880F890F8195835DF7018083ED81FE815A
:10297000808184FF03C06BE074E002C067E074E014
:10298000C8010E94A51BE981FA819081892F880FD7
:10299000890F81958D5AF6018083F70180818F5FC1
:1029A0008083E885F98582A5882319F063E074E0C7
:1029B00002C06FEF73E0C8010E94A51BE981FA8194
:1029C0009081892F880F890F81958D5AF601808318
:1029D000F70180818F5F80836BEF73E0C8010E94F5
:1029E000A51B65E0C4010E943D0B882351F0E885DA
:1029F000F98562A56F5FC5010E94FF18C5010E949D
:102A0000E91864E0C4010E943D0B811113C0F30179
:102A10002081822F90E0A0E0B0E0ED81FE81408136
:102A2000518162817381481759076A077B07A8F0B3
:102A30002F3F99F08FEFF3018083088519850B5D97
:102A40001F4F60E0C8010E94FC16C8010E94D31805
:102A500081E0E885F985808F0CC066E0C4010E94A2
:102A60003D0B882309F443CF888599850E94CF13B5
:102A700034CF29960FB6F894DEBF0FBECDBFDF91DD
:102A8000CF911F910F91FF90EF90DF90CF90BF906B
:102A9000AF909F908F907F906F905F904F903F90FE
:102AA0002F900895AB016FE074E00C941014E0E8EF
:102AB000F7E72591349181E02130304C09F080E036
:102AC0000895CF93DF93EC010E9457159E01275A7A
:102AD0003F4FDE01A059BF4F882309F43CC0E6E90F
:102AE000F7E78491F9018083E7E9F7E7E491EC8364
:102AF000E8E9F7E7E491ED83E9E9F7E78591949157
:102B00009F838E83EBE9F7E7859194919987888776
:102B1000EDE9F7E7E491EBA7EEE9F7E7E491EAA73F
:102B2000EFE9F7E7E491EC93E0EAF7E78591949118
:102B30009D8F8C8FE2EAF7E7859194919F8F8E8F1E
:102B4000E4EAF7E78591949199A388A3E6EAF7E789
:102B50008591949120C08CE3F90180831C822FEF32
:102B60002D8380E293E09F838E8384ED93E09987A9
:102B7000888781E08BA78AA72C938CEA9DE09D8FA4
:102B80008C8F8EED9DE09F8F8E8F84E79EE099A3C2
:102B900088A38CE39FE09BA38AA3DF91CF91089544
:102BA000CF92DF92EF920F93CF93DF93EC01FC0172
:102BB000E158FF4F82E38083349741E050E060E0CA
:102BC00070E040835183628373833B978FEF8083F0
:102BD000CE010E946115CE010E944B0A6FEFCE011B
:102BE0000E944F0A6E018AE0C80ED11CC6010E94E5
:102BF000F60AC6010E94060BCE0148960E94B20A50
:102C00003EE0E32E0FE020E14BE06DE0CE01825B81
:102C10009F4F0E940D10A596CE010E94681665E098
:102C2000C6010E943D0B882351F060E0CE01DF9188
:102C3000CF910F91EF90DF90CF900C94FF1840E070
:102C400060E874E0CE01DF91CF910F91EF90DF90BB
:102C5000CF900C940717CF93DF9350E0FA01EE0F5B
:102C6000FF1FE80FF91F37852089E32FF22FE60FAA
:102C7000F11DE60FF11D25913491FA01EE0FFF1FB2
:102C8000E80FF91F30A3278FF90165917491FC01BA
:102C9000D481D69FC02D1124E40FF51FC1A3F901E3
:102CA000A591B4916B2F70E0EC2FF0E0DC01A40F44
:102CB000B51F6E177F0720F4F90125913491C32FBA
:102CC000CD9FC02D11249296CC93DF91CF91089582
:102CD00021E0FC01248324E020A727ED34E0308BA1
:102CE000278740E060E00E942B1661E070E083E0FF
:102CF0000E94171AE1EBF0E08081887F8160808379
:102D0000F89410928000E1E8F0E0108210928500C3
:102D10001092840088E191E090938900809388006C
:102D2000808188608083808181608083EFE6F0E02D
:102D3000808182608083789408950F93FC01862FB0
:102D4000642F011129C08230D1F048F4882391F01A
:102D5000813011F540E0CF010F910C942B16833098
:102D6000A9F08430C9F48481489F602D1124658FB7
:102D7000268F12C04B3008F06AE0668B0DC084814C
:102D8000489F602D1124618F228F06C08481489F47
:102D9000602D1124638F248F0F910895FC01211160
:102DA0000EC0648B8481489F402D1124458B15A251
:102DB00014A213A281E0878B80934B05108E089597
:102DC00080914B05882319F08091480501C080E06F
:102DD0008093B4000895FC0161110DC0178A158A13
:102DE00014A213A2108E1092480510924905109259
:102DF0004B050C94E0160895CF93DF93EC0161111D
:102E000003C00E94EB161982DF91CF9108950F93B2
:102E10001F93CF93DF93EC018B0141110EC060E053
:102E20000E94FC161E870D871B8A1A8A81E08983FF
:102E300089E08E8B198E1B8E1D8EDF91CF911F9195
:102E40000F910895CF93DF93EC01611128C0888121
:102E5000882329F18981811122C089852F81988554
:102E6000E22FF92FE80FF11DE80FF11D85919491E4
:102E70008F3F2FEF920711F4188211C09C8799277A
:102E8000880F991FEA85FB85E80FF91F65917491FA
:102E900040E0CE010E94071789858F5F8987DF9107
:102EA000CF91089560E00C94221760E00C94FC161A
:102EB0000F93CF93DF93EC0161115DC0898188236B
:102EC00009F459C08D89811156C02D853E858A89A6
:102ED0009B89880F991F820F931FFC018591949104
:102EE0000097D1F48989882321F01B8A1A8AF90175
:102EF00011C01982888160E0882331F0CE010E94E0
:102F000022178A899B8925C0CE01DF91CF910F912D
:102F10000C94EB1685919491BC0176956795769506
:102F2000679580FF1DC0AC01A6E056954795AA9510
:102F3000E1F7292F26952695269520514F716F7020
:102F400000E0CE010E949D168A899B8901969B8B89
:102F50008A8B880F991FED85FE85E80FF91FDACF60
:102F6000492F6F7320E0CE010E94CE168A899B897B
:102F700001969B8B8A8BDF91CF910F91089560E032
:102F80000C945817CF93DF93EC016111B9C08F896E
:102F9000882309F4B5C08D89811105C0CE01DF9168
:102FA000CF910C94EB1681508D8B8DA1811138C07F
:102FB0008BA19CA101969C01220F331FEF8DF8A1DC
:102FC000E20FF31F25913491422F47704EA3A901C0
:102FD00063E0569547956A95E1F7BA01769567954E
:102FE000232F269526952FA36F732C81629F602D2A
:102FF00011246DA34170409347059CA38BA329A185
:1030000030E08217930760F08AA1882329F0281BFB
:1030100031093CA32BA304C060E0CE010E94EB1653
:103020008DA181508DA3288D2F5F288F4C893FA1C2
:10303000340F8C85380F3A836B8D662361F070E016
:10304000822F992787FD90950E947C208C8D869FEA
:10305000300D11243A838A8190E0CB966BE370E0C7
:103060000E947C208A833E893B83698D662371F0B0
:10307000772767FD7095822F992787FD90950E948D
:103080007C208A8D869F300D11243B836D8D6623B5
:1030900091F0822F992787FD909570E00E947C2007
:1030A000CB0162E070E00E947C202E8D9B81289FE6
:1030B000900D11249B838B814F3339F08A300CF0B3
:1030C00089E087FD80E08B8301C01B82F894EA8150
:1030D000F0E0E257FB4FE491E0934A0598A58D811B
:1030E000989F802D11249B81899F802D11249EA162
:1030F000899F802D112480934905809348057894F9
:10310000DF91CF91089560E00C94C217609149055A
:10311000662321F180914C058F5F80934C0590913F
:103120004A058917D8F080914B0591E08927809353
:103130004B0510924C0580914705882369F09091CA
:10314000780283E4989F802D1124895B8093780214
:103150000E945C20909348050C94E01608951F92FD
:103160000F920FB60F9211242F933F934F935F93BB
:103170006F937F938F939F93AF93BF93EF93FF933F
:103180000E948618FF91EF91BF91AF919F918F910F
:103190007F916F915F914F913F912F910F900FBE53
:1031A0000F901F901895CF93DF93EC0160E00E9481
:1031B000FC168FEC94E09E878D871B8A1A8A81E02B
:1031C000898389E08E8B198E1B8E1D8EDF91CF91A6
:1031D0000895CF93DF93EC0160E00E94FC1689EC28
:1031E00094E09E878D871B8A1A8A81E0898389E013
:1031F0008E8B198E1B8E1D8EDF91CF910895FC0151
:10320000862F992787FD9095668170E06F5F7F4FCD
:103210000E947C20858308951F920F920FB60F9213
:1032200011242F933F938F939F93AF93BF938091DC
:103230004E0590914F05A0915005B09151053091E8
:103240004D0523E0230F2D3720F40196A11DB11D5C
:1032500005C026E8230F0296A11DB11D20934D0540
:1032600080934E0590934F05A0935005B093510560
:103270008091520590915305A0915405B091550548
:103280000196A11DB11D8093520590935305A09303
:103290005405B0935505BF91AF919F918F913F9188
:1032A0002F910F900FBE0F901F9018952FB7F89485
:1032B00060914E0570914F05809150059091510598
:1032C0002FBF08953FB7F894809152059091530510
:1032D000A0915405B091550526B5A89B05C02F3F78
:1032E00019F00196A11DB11D3FBF6627782F892FC8
:1032F0009A2F620F711D811D911D42E0660F771F8D
:10330000881F991F4A95D1F708958F929F92AF9287
:10331000BF92CF92DF92EF92FF926B017C010E94ED
:1033200062194B015C01C114D104E104F104F1F014
:103330000E94F51C0E946219681979098A099B0983
:10334000683E73408105910570F321E0C21AD108EF
:10335000E108F10888EE880E83E0981EA11CB11CDC
:10336000C114D104E104F10429F7DDCFFF90EF90FF
:10337000DF90CF90BF90AF909F908F9008957894FA
:1033800084B5826084BD84B5816084BD85B582606A
:1033900085BD85B5816085BDEEE6F0E08081816008
:1033A0008083E1E8F0E01082808182608083808108
:1033B00081608083E0E8F0E0808181608083E1EBE0
:1033C000F0E0808184608083E0EBF0E080818160C8
:1033D0008083EAE7F0E0808184608083808182607E
:1033E0008083808181608083808180688083109267
:1033F000C10008958E3008F08E50877020917902B8
:1034000090E4299F90011124822B80937C0080916D
:103410007A00806480937A0080917A0086FDFCCFE8
:10342000809178002091790090E0922B08951F936D
:10343000CF93DF93182FEB0161E00E949F1A209732
:1034400011F460E004C0CF3FD10539F461E0812F71
:10345000DF91CF911F910C94D81AE12FF0E0ED513C
:10346000FB4FE491E330F9F048F4E130B9F0E23099
:10347000A1F584B5806284BDC8BD34C0E730E9F0F1
:10348000E83019F1E43049F5809180008062809342
:103490008000D0938B00C0938A0024C084B58068DC
:1034A00084BDC7BD1FC0809180008068809380006C
:1034B000D0938900C093880015C08091B0008068C7
:1034C0008093B000C093B3000DC08091B0008062C3
:1034D0008093B000C093B40005C0C038D1050CF093
:1034E000B5CFAFCFDF91CF911F910895833081F099
:1034F00028F4813099F08230A1F008958730A9F046
:103500008830B9F08430D1F4809180008F7D03C081
:10351000809180008F7780938000089584B58F77A5
:1035200002C084B58F7D84BD08958091B0008F77EF
:1035300003C08091B0008F7D8093B0000895CF9339
:10354000DF9390E0FC01E950FB4F2491FC01E55F23
:10355000FA4F8491882349F190E0880F991FFC016C
:10356000ED5CFA4FA591B491875D9A4FFC01C5912E
:10357000D4919FB7611108C0F8948C912095822353
:103580008C93888182230AC0623051F4F8948C9124
:10359000322F309583238C938881822B888304C0BB
:1035A000F8948C91822B8C939FBFDF91CF910895DB
:1035B0000F931F93CF93DF931F92CDB7DEB7282FC2
:1035C00030E0F901ED51FB4F8491F901E950FB4FD7
:1035D0001491F901E55FFA4F04910023C9F08823A3
:1035E00021F069830E94761A6981E02FF0E0EE0FE6
:1035F000FF1FE75DFA4FA591B4919FB7F8948C91A6
:10360000611103C01095812301C0812B8C939FBF52
:103610000F90DF91CF911F910F910895CF93DF937A
:10362000282F30E0F901ED51FB4F8491F901E95069
:10363000FB4FD491F901E55FFA4FC491CC2391F08F
:1036400081110E94761AEC2FF0E0EE0FFF1FE15E71
:10365000FA4FA591B4912C912D2381E090E021F4B3
:1036600080E002C080E090E0DF91CF910895CF929A
:10367000DF92EF92FF920F931F93CF93DF937C0122
:103680006A01EB0100E010E00C151D0571F0699175
:10369000D701ED91FC910190F081E02DC7010995D2
:1036A000892B19F00F5F1F4FEFCFC801DF91CF912A
:1036B0001F910F91FF90EF90DF90CF9008956115CB
:1036C000710581F0DB010D900020E9F7AD0141505B
:1036D0005109461B570BDC01ED91FC910280F381EF
:1036E000E02D099480E090E00895EF92FF920F930F
:1036F0001F93CF93DF938C017B01C0E0D0E0F701F3
:10370000EC0FFD1F6491662359F0F801A081B1818F
:10371000ED91FC91C8010995892B11F02196EFCF0D
:10372000CE01DF91CF911F910F91FF90EF900895FF
:103730000C945F1BDC01ED91FC910190F081E02D78
:1037400009946EE972E00C945F1B0F931F93CF9363
:10375000DF93EC010E94751B8C01CE010E94A11B1E
:10376000800F911FDF91CF911F910F9108958F923C
:103770009F92AF92BF92DF92EF92FF920F931F93AF
:10378000CF93DF93CDB7DEB7A1970FB6F894DEBF26
:103790000FBECDBF7C01F42FD52ECB0119A2223054
:1037A00008F42AE08E010F5D1F4F822E912CA12C70
:1037B000B12C6F2F7D2DA50194010E949020F22F36
:1037C000D32ECA01015011096A3014F4E0E301C09C
:1037D000E7E3E60FD801EC93232B242B252B49F7A5
:1037E000B801C7010E945F1BA1960FB6F894DEBF17
:1037F0000FBECDBFDF91CF911F910F91FF90EF9042
:10380000DF90BF90AF909F908F900895CF92DF92FE
:10381000EF92FF920F931F93CF93DF93EC016A0116
:103820007B012115310579F4E881F9810190F0815E
:10383000E02D642FDF91CF911F910F91FF90EF90BA
:10384000DF90CF9009942A303105E9F477FF1AC050
:103850006DE20E949A1B8C0144275527BA014C192E
:103860005D096E097F092AE0CE010E94B71B800F17
:10387000911FDF91CF911F910F91FF90EF90DF90FB
:10388000CF9008952AE0B701A601CE01DF91CF9134
:103890001F910F91FF90EF90DF90CF900C94B71B8A
:1038A0009A01AB01662757FD6095762F0C94061C94
:1038B0002115310541F4DC01ED91FC910190F0817D
:1038C000E02D642F09940C94B71B9A01462F50E009
:1038D00060E070E00C94581C9A01AB0160E070E06D
:1038E0000C94581C611571058105910511F00C941B
:1038F00045210895CF93DF9300D000D0CDB7DEB738
:103900009B01AC01611571058105910569F0698321
:103910003A834B835C830E94402129813A814B8109
:103920005C810E94B22003C060E070E0CB010F9088
:103930000F900F900F90DF91CF9108954F925F926B
:103940006F927F92AF92BF92CF92DF92EF92FF92EF
:103950000F931F93CF93DF93CDB7DEB729013A01C1
:10396000621B730B840B950B29893A894B895C89FF
:103970002A193B094C095D09298B3A8B4B8B5C8BCF
:103980009B01AC0169897A898B899C890E944C20B2
:10399000E418F50806091709A80197010E94B2204A
:1039A0002A0D3B1D4C1D5D1DCA01B901DF91CF9150
:1039B0001F910F91FF90EF90DF90CF90BF90AF904D
:1039C0007F906F905F904F90089508950E94BF1967
:1039D0000E94E51C0E942203C0E0D0E00E94EF0993
:1039E0002097E1F30E940000F9CF08955058BB27BB
:1039F000AA270ED027C2F0D130F0F5D120F031F453
:103A00009F3F11F41EF4C0C10EF4E095E7FBB6C170
:103A1000E92F3AD280F3BA17620773078407950734
:103A200018F071F49EF552C20EF4E0950B2EBA2FE9
:103A3000A02D0B01B90190010C01CA01A0011124B4
:103A4000FF27591B99F0593F50F4503E68F11A1660
:103A5000F040A22F232F342F4427585FF3CF4695F1
:103A600037952795A795F0405395C9F77EF41F1613
:103A7000BA0B620B730B840BBAF09150A1F0FF0FDD
:103A8000BB1F661F771F881FC2F70EC0BA0F621FC9
:103A9000731F841F48F4879577956795B795F795B9
:103AA0009E3F08F0B3CF9395880F08F09927EE0F4B
:103AB00097958795089590D158F080E891E009F4A2
:103AC0009EEF91D128F040E851E059F45EEF09C033
:103AD0005BC1FCC1E92FE078D7D168F3092E052A34
:103AE000C1F3261737074807590738F00E2E07F895
:103AF000E02569F0E025E0640AC0EF6307F8009470
:103B000007FADB01B9019D01DC01CA01AD01EF93A8
:103B10004AD098D10AD05F91552331F02BED3FE088
:103B200049E450FD49EC63CF0895DF93DD27B92FB9
:103B3000BF7740E85FE31616170648075B0710F4E7
:103B4000D92FCFD19F938F937F936F937CD2E8E649
:103B5000F0E01DD177D12F913F914F915F91D4D15A
:103B6000DD2349F09058A2EA2AED3FE049EC5FE3FB
:103B7000D0785D274DDFDF9165C1DCD008F481E0AE
:103B8000089539D1E3956FC10CD05CC12CD140F0C0
:103B900023D130F021F45F3F19F0F0C0511197C1EB
:103BA000F3C072D198F39923C9F35523B1F3951B50
:103BB000550BBB27AA2762177307840738F09F5F4E
:103BC0005F4F220F331F441FAA1FA9F333D00E2EBD
:103BD0003AF0E0E830D091505040E695001CCAF72A
:103BE00029D0FE2F27D0660F771F881FBB1F2617EF
:103BF00037074807AB07B0E809F0BB0B802DBF01C2
:103C0000FF2793585F4F2AF09E3F510568F0B6C0DA
:103C10005EC15F3FECF3983EDCF386957795679540
:103C2000B795F7959F5FC9F7880F911D9695879572
:103C300097F90895E1E0660F771F881FBB1F621791
:103C400073078407BA0720F0621B730B840BBA0B4F
:103C5000EE1F88F7E095089504D06894B11137C13C
:103C600008951AD188F09F5790F0B92F9927B7512E
:103C7000A0F0D1F0660F771F881F991F1AF0BA9530
:103C8000C9F712C0B13081F021D1B1E008951EC151
:103C9000672F782F8827B85F39F0B93FCCF3869526
:103CA00077956795B395D9F73EF490958095709583
:103CB00061957F4F8F4F9F4F0895E89409C097FB00
:103CC0003EF490958095709561957F4F8F4F9F4FF3
:103CD0009923A9F0F92F96E9BB279395F695879537
:103CE00077956795B795F111F8CFFAF4BB0F11F4FA
:103CF00060FF1BC06F5F7F4F8F4F9F4F16C08823A1
:103D000011F096E911C0772321F09EE8872F762FD6
:103D100005C0662371F096E8862F70E060E02AF017
:103D20009A95660F771F881FDAF7880F9695879503
:103D300097F90895990F0008550FAA0BE0E8FEEFD8
:103D400016161706E807F907C0F012161306E4075F
:103D5000F50798F0621B730B840B950B39F40A2658
:103D600061F0232B242B252B21F408950A2609F436
:103D7000A140A6958FEF811D811D089597F99F673A
:103D800080E870E060E008959FEF80EC0895DF9395
:103D9000CF931F930F93FF92EF92DF927B018C01E1
:103DA000689405C0DA2EEF01AFD0FE01E894A5912A
:103DB0002591359145915591AEF3EF0129DEFE0134
:103DC0009701A801DA9479F7DF90EF90FF900F91B7
:103DD0001F91CF91DF91089500240A9416161706BB
:103DE00018060906089500240A94121613061406EC
:103DF00005060895C9CF50D0E8F3E894E0E0BB276A
:103E00009F57F0F02AED3FE049EC06C0EE0FBB0FE4
:103E1000661F771F881F28F0B23A6207730784076E
:103E200028F0B25A620B730B840BE3959A9572F7E4
:103E3000803830F49A95BB0F661F771F881FD2F722
:103E4000904806C1092E0394000C11F4882352F007
:103E5000BB0F40F4BF2B11F460FF04C06F5F7F4FB6
:103E60008F4F9F4F0895EF93E0FF06C0A2EA2AED1F
:103E70003FE049EC5FEBCCDDE5DF0F90039401FC04
:103E80009058E5E9F0E0F7C057FD9058440F551FF2
:103E900059F05F3F71F04795880F97FB991F61F0CC
:103EA0009F3F79F087950895121613061406551F43
:103EB000F2CF4695F1DF08C0161617061806991FAF
:103EC000F1CF86957105610508940895E894BB27A4
:103ED00066277727CB0197F908952CDF08F48FEF39
:103EE00008959B01AC0160E070E080E89FE34CCE58
:103EF0000BD0A8CF71DF28F076DF18F0952309F0FA
:103F00003DCF42CF1124E3CFBFDFA0F3959FD1F384
:103F1000950F50E0551F629FF001729FBB27F00D77
:103F2000B11D639FAA27F00DB11DAA1F649F6627CC
:103F3000B00DA11D661F829F2227B00DA11D621F1B
:103F4000739FB00DA11D621F839FA00D611D221FD5
:103F5000749F3327A00D611D231F849F600D211DB9
:103F6000822F762F6A2F11249F5750408AF0E1F05C
:103F700088234AF0EE0FFF1FBB1F661F771F881FA5
:103F800091505040A9F79E3F510570F0F7CE9FCF5A
:103F90005F3FECF3983EDCF3869577956795B79590
:103FA000F795E7959F5FC1F7FE2B880F911D9695BA
:103FB000879597F908959F931EDF0F9007FCEE5F9A
:103FC00052CF11F40EF4E0CE41C066DFD0F3992356
:103FD000D9F3CEF39F57550B87FF46D00024A0E6B8
:103FE00040EA900180585695979528F4805C660FBA
:103FF000771F881F20F026173707480730F4621B09
:10400000730B840B202931294A2BA695179407940A
:10401000202531254A2758F7660F771F881F20F083
:1040200026173707480730F4620B730B840B200DFB
:10403000311D411DA09581F7B901842F9158880F3A
:104040009695879508959B01AC0152CF9F3F31F023
:10405000915020F4879577956795B795880F911DB6
:104060009695879597F9089591505040660F771F60
:10407000881FD2F708959F938F937F936F93FF9339
:10408000EF939B01AC0134DFEF91FF9180DE2F9124
:104090003F914F915F912CCFDB018F939F930E94B3
:1040A000D120BF91AF91A29F800D911DA39F900D34
:1040B000B29F900D11240895991B79E004C0991FB7
:1040C000961708F0961B881F7A95C9F78095089572
:1040D000AA1BBB1B51E107C0AA1FBB1FA617B7072E
:1040E00010F0A61BB70B881F991F5A95A9F780954A
:1040F0009095BC01CD01089597FB072E16F400940E
:1041000007D077FD09D00E94682007FC05D03EF457
:10411000909581959F4F0895709561957F4F089573
:10412000A1E21A2EAA1BBB1BFD010DC0AA1FBB1FBB
:10413000EE1FFF1FA217B307E407F50720F0A21B2D
:10414000B30BE40BF50B661F771F881F991F1A949A
:1041500069F760957095809590959B01AC01BD01C4
:10416000CF010895052E97FB1EF400940E94C920EC
:1041700057FD07D00E94902007FC03D04EF40C940A
:10418000C92050954095309521953F4F4F4F5F4F37
:10419000089590958095709561957F4F8F4F9F4FB3
:1041A00008950E94E220A59F900DB49F900DA49FBA
:1041B000800D911D11240895EE0FFF1F0590F491BD
:1041C000E02D0994A29FB001B39FC001A39F700D81
:1041D000811D1124911DB29F700D811D1124911D0F
:1041E00008958F929F92AF92BF92CF92DF92EF92FB
:1041F000FF92CF93DF93EC01688179818A819B8163
:10420000611571058105910521F464E279ED8BE575
:1042100097E02DE133EF41E050E00E94B2204901E8
:104220005A019B01AC01A7EAB1E40E94D1206B01C5
:104230007C01ACEEB4EFA50194010E945121C60EA1
:10424000D71EE81EF91EF7FE06C081E0C81AD10885
:10425000E10880E8F80AC882D982EA82FB82C701B5
:10426000B6019F77DF91CF91FF90EF90DF90CF90D5
:10427000BF90AF909F908F9008950E94F120089575
:1042800086E091E00E94F12008956093060170930A
:10429000070180930801909309010895B7FF0C94DA
:1042A000D1200E94D120821B930B0895F894FFCF58
:1042B000000056058000010000000000C842000018
:1042C000C8420000C8420000C8420000C8420000C6
:1042D000C8420000C8420000C8420000C8420000B6
:1042E000C8420000C8420000C8420000C8420000A6
:1042F000C8420000C8420000C8420000C842000096
:10430000C8420000C8420000C8420000C842000085
:10431000C8420000C8420000C8420000C842000075
:10432000C8420000C8420000C8420000C842000065
:10433000C8420000C8420000C8420000C842000055
:10434000C8420000C8420000C8420000C842000045
:10435000C8420000C8420000C842646464646464E7
:1043600064646464CDCC4C3E010564640000646404
:10437000000064640000646400006464000064641D
:10438000000064640000646400006464000064640D
:1043900000000000C8420000C84200000000000009
:1043A000C8420000C842000000000000C8420000EF
:1043B000C842000000000000C8420000C8420000DF
:1043C00000000000C8420000C842000000000000D9
:1043D000C8420000C842000000000000C8420000BF
:1043E000C842000000000000C8420000C8420000AF
:1043F00000000000C8420000C842000000000000A9
:10440000C8420000C8420000000064646464646440
:1044100064646464646464646464646464640A0A10
:1044200001010101010101010101424F4E555320DB
:10443000504F494E54530054484520454E440000C7
:104440000000007711371B4C4F41444552000D0AC4
:10445000006E616E00696E66006F7666002E000069
:00000001FF
