:100000000C94DA010C9402020C9402020C94020289
:100010000C9402020C9402020C9402020C94020250
:100020000C9402020C9402020C9402020C94101024
:100030000C9402020C9402020C9402020C94020230
:100040000C946D100C9402020C9402020C940202A7
:100050000C9402020C9402020C9402020C94020210
:100060000C9402020C94020241726D616765646433
:100070006F6E0003053F213F1208120A100A0E1C82
:100080000E0C1E0C141A14161F161E131E1E1B1EF9
:100090001E1F1E3F213F3A2F3A173D173F213F18A1
:1000A0001F02040A041F0E04040E1F0A1F0A0E0E6C
:1000B0001F04110E2E252E2F2A2E262929021F025B
:1000C000081F08150E04040E150E15151B151B042C
:1000D0000604040C040000000017000300031F0ABC
:1000E0001F16371A1904130A153A000300000E11DF
:1000F000110E000A040A040E040030000404040077
:1001000010001804031F111F121F101D15171115C1
:100110001F07041F17151D1F151D01011F1F151F88
:1001200017151F000A00003200040A110A0A0A11FA
:100130000A040115020E11171E051E1F150A0E11C5
:100140000A1F110E1F15111F05010E111D1F041F7F
:10015000111F1108100F1F041B1F10101F061F1E58
:10016000040F0E110E1F09060E112E1F051A12156F
:1001700009011F011F101F0F180F1F0C1F1B041B4D
:10018000031C03191513001F11030418111F00028B
:1001900001022020200001020C121E1F120C0C1262
:1001A000120C121F0C1A14041E05242A1E1F021CF6
:1001B000141D1020201D1F0814111F101E041E1EC8
:1001C000021C0C120C3E0A040C123E1E04021416F1
:1001D0000A020F120E101E0E100E1E081E120C1216
:1001E00026281E322A26041E21001F00211E04017B
:1001F00002013F213F0A4E6F205344206361726425
:10020000206F720A6E6F204C4F414445522E484574
:10021000580A0A153A45786974001D20466C6173C6
:1002200068696E670A20206C6F616465722E2E2EDD
:100230000A0A444F4E2754205455524E204F4646EA
:1002400021000A0A153A49676E6F7265006D560AF9
:100250000A504C45415345205455524E204F464676
:1002600020004C4F57204241545445525921200000
:1002700017534400161378001613140015102000AD
:1002800015201000540A03E181867F3E186D830F0C
:100290000F0E0183866033186DC3198F1803C38E48
:1002A0006033186DE330CF1803C39E603630CDE362
:1002B00060CF3006C79E7E3E30CDB360CF300CC6D7
:1002C000F6603330D9B660CF33CFCCF66061B0DBA7
:1002D0001E60CF30D86CE6C061B0DB1E618F19980C
:1002E0006CC6C063B19B0E330F0FB078C6FF7E1F84
:1002F0001B061E0F05008930080238024978681471
:100300000000F6E8DBCFC3B8AEA49B928A827B7470
:100310006E68625C57524E4945413E3A3734312E41
:100320002C29272523211F1D1C1A191716151413F4
:100330001211100F0E0D0C0B0A0908070645006874
:10034000010000050038016801000053034F03015C
:1003500001FF030101F70300000008000201000093
:100360000304070000000000000000010204081060
:10037000204080010204081020010204081020041B
:10038000040404040404040202020202020303033C
:1003900003030300000000230026002900000000E2
:1003A00000250028002B0000000000240027002A60
:1003B0000000210211241FBECFEFD8E0DEBFCDBF69
:1003C00011E0A0E0B1E0EAEAFCE202C005900D9283
:1003D000A833B107D9F723E0A8E3B1E001C01D922B
:1003E000AF3CB207E1F713E0C4EBD3E004C02297BF
:1003F000FE010E94DB15C23BD107C9F70E941C1405
:100400000C9453160C94000088E391E00E94310D87
:1004100068E670E088E391E00E94B40C109250010D
:1004200088E391E00C94110988E391E00E94770A37
:10043000882331F06CE071E086E891E00C94F912C9
:10044000089510928901109288018CE191E09093B7
:100450008701809386010895CF93CFB7F894809158
:10046000BF01811127C0E9E8F3E08491E5E7F3E0FB
:100470009491E82FF0E0EE0FFF1FE955FC4FA59196
:10048000B4918C91892321F461E08AE00E943912B1
:1004900061E08AE00E9400128CB580618CBD8CB551
:1004A00080648CBD61E08DE00E94001261E08BE011
:1004B0000E9400128091BF018F5F8093BF01CFBF68
:1004C000CF91089521E0FC012083089570E085E03C
:1004D0000C947811AF92BF92CF92DF92EF92FF927D
:1004E0000F931F93CF93DF93EC0189819A812FE0C3
:1004F000289F8001299F100D112485E10E945B1126
:10050000800F911F24E0969587952A95E1F79A83AD
:1005100089832881222391F1AC81AD80B12CC12C3B
:10052000D12CE885F9857F0100E010E06E817F81A4
:100530009B0140E050E08617970728F0BC01E817C0
:10054000F90708F4BF0180E090E01F921F921F920C
:10055000AF930E94D4136B830F900F900F900F9066
:1005600070E085E0DF91CF911F910F91FF90EF90A8
:10057000DF90CF90BF90AF900C947811DF91CF9126
:100580001F910F91FF90EF90DF90CF90BF90AF90B1
:100590000895FC018CE39FE09383828384E0818350
:1005A00081E084870895CF93DF93EC018C819D8156
:1005B000892B81F18C858F7151F584E10E945B114B
:1005C000BC01882777FD8095982F0E945A1426EE4B
:1005D0003FE34EEC50E40E94E6140E942C149B0171
:1005E0007B836A836115710581F084E08983FE0154
:1005F00040E0848195812817390710F449830AC0A7
:100600004F5F32964430A9F702C08FEF89838C8503
:100610008F5F8C87DF91CF910895FC0188E0808304
:1006200089E0818387E0828386E0838384E084831A
:1006300082E0858381E186830895DF92EF92FF92C5
:100640000F931F93CF93DF937C01EC0100E010E048
:10065000DD24DA9462E088810E94001288810E9481
:100660006F12F701E00FF11F892B21F487818F5F53
:10067000878308C08781882349F08F3F11F4178250
:1006800001C0D78260E088810E9400120F5F1F4F77
:10069000219607301105F1F6DF91CF911F910F914F
:1006A000FF90EF90DF900895FC01E60FF11D81E0CF
:1006B0009781913009F080E008958EBD00000DB45F
:1006C00007FEFDCF8EB50895DC01643508F053C0F8
:1006D000403308F050C090968C919097342F359508
:1006E00035953595E62FFF27E7FDF095242F2770E8
:1006F000823099F4DF01A054BE4F84E53802A00D8A
:10070000B11D11248C9190E0022E02C09595879521
:100710000A94E2F78095817009C0833039F4462746
:100720001C968C91482740FF03C014C0811112C051
:1007300084E53802E00DF11D1124E054FE4F81E004
:1007400090E0022E01C0880F0A94EAF7809590810C
:10075000982310C084E53802E00DF11D1124E05407
:10076000FE4F81E090E0022E01C0880F0A94EAF764
:100770009081982B908308951F93CF93DF93EC0182
:10078000162FF89460E08F850E9439128889181618
:100790001CF460E00E943912812F0E945D03888959
:1007A00018161CF461E00E9439127894DF91CF9101
:1007B0001F91089528EF31E0E0ECF1E0DF01A9019D
:1007C0001D9241505040E1F7DC0119961C92199797
:1007D0001A961C920895DF92EF92FF920F931F9347
:1007E000CF93DF93EC018C858F5F8C8780ECE82EB4
:1007F00081E0F82ED12C6D2D6064CE010E94BC03E7
:1008000060E8CE010E94BC0361E08F850E9439122E
:10081000888918161CF460E00E94391200E010E08C
:10082000F701E00FF11F80810E945D030F5F1F4FF2
:1008300004351105A9F7888918161CF461E00E9497
:100840003912D39484E5E80EF11C86E0D812D3CF98
:1008500060E4CE01DF91CF911F910F91FF90EF9057
:10086000DF900C94BC03FC0160A361A30895FC011C
:1008700060A341A30895CF92DF92FF920F931F933D
:10088000CF93DF931F92CDB7DEB76C01062FF42E06
:1008900010E0121754F4412F4F0D602FC601298329
:1008A0000E9464031F5F2981F4CF0F90DF91CF91E5
:1008B0001F910F91FF90DF90CF900895CF92DF921C
:1008C000FF920F931F93CF93DF931F92CDB7DEB7A5
:1008D0006C01062FF42E10E0121754F4612F600FF4
:1008E0004F2DC60129830E9464031F5F2981F4CF25
:1008F0000F90DF91CF911F910F91FF90DF90CF90DC
:100900000895DF92EF92FF920F931F93CF93DF939F
:10091000EC01E62ED22EF42E112707FD1095040FC0
:10092000111D47FD1A958F2D992787FD90958017EA
:10093000910744F42D2D4F2D6E2DCE010E945E04A3
:10094000F394F1CFDF91CF911F910F91FF90EF9032
:10095000DF9008958F929F92AF92BF92CF92DF92D5
:10096000EF92FF920F931F93CF93DF93EC01E62E4C
:10097000D42E122FCC24C394C21AB22EB194BB0C25
:10098000F12C802F8470A82E802F8270982E802FBB
:100990008870882E0170F1160CF04DC0C7FC04C0A1
:1009A0001150B394B394CB0CF3948F2D880F8F5FB9
:1009B000C80EAA2071F0412F4D0D6F2D6E0DCE0186
:1009C0000E9464034F2D4D0D612F6E0DCE010E94CC
:1009D0006403992071F04D2D411B6F2D6E0DCE01DA
:1009E0000E9464034D2D4F19612F6E0DCE010E94A0
:1009F0006403882071F04F2D4D0D6E2D611BCE01CB
:100A00000E946403412F4D0D6E2D6F19CE010E947F
:100A10006403002309F4BFCF4D2D4F196E2D611BC8
:100A2000CE010E9464034D2D411B6E2D6F19CE0126
:100A30000E946403B0CFDF91CF911F910F91FF907F
:100A4000EF90DF90CF90BF90AF909F908F900895E0
:100A50008F929F92AF92BF92CF92DF92EF92FF92CE
:100A60000F931F93CF93DF93EC01B62EA42E122F7A
:100A7000DD24D394D21AC22EC194CC0CFF24F3945B
:100A8000802F8170882E992493949E0C02708FEF92
:100A90008F0D8117C4F5D7FC04C01150C394C394C3
:100AA000DC0C8F2D880F8F5FD80E882099F0212FB6
:100AB000220F290D4A2D411B6F2D6B0DCE010E9477
:100AC0003B0423E02E0D4A2D4F19612F6B0DCE01F3
:100AD0000E943B04002399F0212F220F290D4A2D5B
:100AE000411B6B2D6F19CE010E943B0423E02E0D9C
:100AF0004A2D4F196B2D611BCE010E943B04F394CC
:100B0000E394E394C4CFDF91CF911F910F91FF90B5
:100B1000EF90DF90CF90BF90AF909F908F9008950F
:100B20009F92AF92BF92CF92DF92EF92FF920F937C
:100B30001F93CF93DF93EC01B62EF42EA22EDE2C62
:100B4000D194DD0C9D2C920E1E2D160F292D612F98
:100B50000E945E04CC24CA94C00ECF0C292D4C2DCB
:100B6000612FCE010E945E04D00EFE0C2D2D4F2D64
:100B70006B2DCE010E943B04BA0C6FEF6B0D2D2D37
:100B80004F2DCE010E943B0401E02E2D4F2D612FF1
:100B9000CE010E94AA04DE2CD094DB0C02E02E2DA4
:100BA0004F2D6D2DCE010E94AA04CE1804E02E2DEB
:100BB0004C2D6D2DCE010E94AA0408E02E2D4C2D47
:100BC000612FCE010E94AA04DF91CF911F910F9156
:100BD000FF90EF90DF90CF90BF90AF909F900895DF
:100BE000AF92BF92CF92DF92EF92FF920F931F933B
:100BF000CF93DF93EC01A62EC42EB22EF02E1E2D25
:100C0000E194EE0CD12ED60E2E2D2B0D6D2D0E94C3
:100C10008104FA94FE0CC10E6FEF6A0D6B0D611B1F
:100C2000EF2C01E0212F4C2DCE010E94280502E07F
:100C3000212F4C2D6D2DCE010E942805DF91CF91E3
:100C40001F910F91FF90EF90DF90CF90BF90AF90EA
:100C500008956F927F928F929F92AF92BF92CF92A0
:100C6000DF92EF92FF920F931F93CF93DF93F901DF
:100C7000A49031965491FC01F0A064350CF00CC1A5
:100C8000BB24A7FCB094A62FBB27A7FDB095FD0100
:100C9000EA0DFB1D1E161F060CF0FEC040330CF0C3
:100CA000FBC0C52E042F112707FD1095E801C50FC5
:100CB000D11D57FDDA951C161D060CF0EDC0E9019B
:100CC00022969501295F3F4F37FF02C0295F3F4FB2
:100CD00073E0359527957A95E1F747FF0AC0C52E51
:100CE000C40E209FA001219F500D1124C41BD50BC1
:100CF00040E00C2D112707FD1095040F111D47FD35
:100D00001A95013311051CF070E3C72EC41A67FD54
:100D100060E0E535F10514F0E4E5F0E01E2FFC019C
:100D200074857427862F992787FD9095FC01EA1B0F
:100D3000FB0BDF015F01F7E0AF22BB24E0E8F0E04E
:100D400002C0F595E795AA94E2F70E2FB7FD179626
:100D500053E0B595A7955A95E1F7AC0FBD1FE42F69
:100D6000E77051E001C0550FEA95EAF745954595C2
:100D70004595E4E54E02800D911D112480549E4F4F
:100D800040E0DD24C7FCD094BB24B3943327E42F88
:100D9000F0E0EC15FD050CF07FC0FD01E490F1E002
:100DA000FF1219C0EC01A02EFD01862E881A9C2E80
:100DB000980C911608F067C09E2C9A2019F0988024
:100DC000952A9882A69429F43196E4906894AA24EE
:100DD000A7F82196ECCFF1101BC0752E7094EC0192
:100DE000A02EFD01862E881A9C2E980C911608F0D4
:100DF0004AC09E2C9A2019F0988097209882A69439
:100E000029F43196E4906894AA24A7F82196ECCFAF
:100E1000E3E0FE1631F0EC01A02EFD01862E881ACB
:100E20002EC0752E7094962EEC01A02EFD01911609
:100E3000B0F48E2C8A2049F08880692C672660FEE9
:100E400002C0852A01C087208882A69429F43196A1
:100E5000E4906894AA24A7F893942196E8CF7B2580
:100E600012C09E2C9A2019F0988095269882A694FC
:100E700029F43196E4906894AA24A7F821969C2E30
:100E8000980C911670F3550F19F48C5A9F4F51E03E
:100E90004F5FA20FB31F7BCFDF91CF911F910F91B7
:100EA000FF90EF90DF90CF90BF90AF909F908F908A
:100EB0007F906F900895DC01FB0184918F5F149601
:100EC0008C9314973196E491EF5F1596EC931597F8
:100ED0006E5F7F4F5F967C936E935E970895EF925F
:100EE0000F93CF93DF93EC014E876D872F87E98AAD
:100EF000088B81E0888788A319A28F8363E770E05D
:100F0000CE010E945B070E942C028CB58F7D8CBDA8
:100F10008CB58C7F81608CBD8DB581608DBD8CB5AD
:100F20008C608CBD61E08E850E94001261E08D8531
:100F30000E94001261E08F850E94001289891816B4
:100F40001CF461E00E940012888918161CF461E00C
:100F50000E940012898918166CF460E00E94391210
:100F60006AE070E080E090E00E94E61061E089892C
:100F70000E9439128D85992787FD9095FC01E158D3
:100F8000FC4FE491F0E0EE0FFF1FE356FC4F25917C
:100F900034913D8B2C8BFC01E559FC4F84918B8F58
:100FA0008E85992787FD9095FC01E158FC4FE491CF
:100FB000F0E0EE0FFF1FE356FC4F259134913B8B81
:100FC0002A8BFC01E559FC4F84918A8F88899927E7
:100FD00087FD9095FC01E158FC4FE491F0E0EE0FA5
:100FE000FF1FE356FC4F259134913F8B2E8BFC0164
:100FF000E559FC4F84918C8F8F85992787FD9095BB
:10100000FC01E158FC4FE491F0E0EE0FFF1FE356C6
:10101000FC4F25913491398F288FFC01E559FC4F05
:1010200084918D8F61E2CE010E94BC0364E1CE0108
:101030000E94BC038B8587FF02C08FE78B876B857F
:101040006068CE010E94BC0360E2CE010E94BC0336
:101050006CE0CE010E94BC03CE01DF91CF910F91D5
:10106000EF900C94EB036F927F928F929F92AF92CE
:10107000BF92CF92DF92EF92FF920F931F93CF9385
:10108000DF93EC01162FF42EB02EE8A064350CF09F
:1010900081C08FE284170CF47DC0EC81F0E03197C1
:1010A0000E9FC0010F9F900D1124860F911D67FDAB
:1010B0009A95181619060CF06DC08D81809FC0019D
:1010C0001124840F911D47FD9A95181619060CF0EE
:1010D00061C0A62E962EC22ED12C8A2D811B992757
:1010E00087FD90952C8130E0821793070CF051C05A
:1010F000215031098217930779F0C29ED001C39E17
:10110000B00DD29EB00D1124A80FB91FEE8DFF8D2A
:10111000EA0FFB1F749001C0712C8F2C6F2C282DAF
:101120002F19332727FD30958D8190E02817390737
:101130006CF570FE11C081E0B81206C0482D6A2D12
:10114000CE010E9464031EC00B2D2B2D462D692D50
:10115000CE010E94810416C089A198A1891791F03F
:1011600088A381E0B81206C0482D6A2DCE010E94E6
:10117000640307C00B2D2B2D462D692DCE010E9437
:101180008104E8A276946B0C8394C9CF9B0CA39442
:10119000A4CFE8A2DF91CF911F910F91FF90EF9024
:1011A000DF90CF90BF90AF909F908F907F906F9087
:1011B00008950F93CF93DF93EC01262F6A3039F413
:1011C0002D8198858A85299F800D112422C06D303C
:1011D00011F108854A8569850E94330848855C813C
:1011E0002985549F200D112429878F81882399F008
:1011F000332727FD309584E590E0459F80199109BC
:101200001124821793073CF49D818A85499F800DA4
:1012100011248A87198681E090E0DF91CF910F91A8
:1012200008958F929F92AF92BF92CF92DF92EF92EA
:10123000FF92CF93DF93EC01CA8CDB8CC094D094E7
:10124000E12CF12C0E94C3104B015C010E94C310E1
:10125000A501940120953095409550956095709525
:10126000809590950E9449159B01AC01C701B6017C
:101270000E9449156B017C0189809A80A12CB12CB8
:101280000E94C310680D791D8A1D9B1D6C0D7D1D6C
:101290008E1D9F1DDF91CF91FF90EF90DF90CF903B
:1012A000BF90AF909F908F900C94CC138F929F9291
:1012B000AF92BF92CF92DF92EF92FF920F931F9364
:1012C000CF93DF93EC015C0186E8A80EB11CD50139
:1012D0008C91882309F44DC08C3018F41CE0181B45
:1012E00001C010E0FE01EA5AFF4F81E080836E01E9
:1012F000BEE4CB0ED11C60E0C6010E9433044E0157
:10130000E3E58E0E911CD4018C9103E0080F9DE261
:10131000F92E4F2D481B410F23E0E22E24E560E01B
:10132000C6010E94F00561E0C6010E943304F40189
:10133000808103E0080F4F2D481B410F24E560E03A
:10134000C6010E949005FE01E95AFF4F84E08083A8
:101350003196D4018C91181B115D1083CC57DF4F4F
:1013600068817981C6010E94D612F5018081815081
:101370008083DF91CF911F910F91FF90EF90DF90CD
:10138000CF90BF90AF909F908F900895DF92EF9293
:10139000FF920F931F93CF93DF93EC018C8D9D8D64
:1013A000892B09F49CC08E01025B1F4F40E061E075
:1013B000C8010E94370485E5FE01EE5AFF4F908177
:1013C000891B3596808331961082698D613009F4CE
:1013D00062C028F0888D653008F074C06FC0CE01FF
:1013E00085960E94B60E81E0FE01EA5AFF4F808387
:1013F00063E770E0C8010E945B071D8E1C8EFE0132
:10140000EC5AFF4F108238EAD32E7E018AE0E80EB4
:10141000F11CCE010E94770A8823D9F362E672E0BC
:10142000C8010E94D6126A8D7B8D4AE050E0C80147
:101430000E94C6136DE472E0C8010E94D6126D2DA1
:1014400062956F7070E04AE050E0C8010E94B113ED
:1014500062E472E0C8010E94D61264E0C7010E94F3
:10146000540381113CC0DA94A1F660E0CE010E94E1
:10147000660283B7817F846083BF83B7816083BF47
:1014800083B7816083BF889583B78E7F83BF83B71F
:101490008E7F83BFBECFCF58DF4F488159816A818D
:1014A0007B814F70552766277727483051056105A6
:1014B000710510F467E009C068E707C0882379F078
:1014C0006B5F03C0882359F06FE2C801DF91CF91B1
:1014D0001F910F91FF90EF90DF900C94FB12DF9122
:1014E000CF911F910F91FF90EF90DF9008958F9211
:1014F0009F92AF92BF92EF92FF920F931F93CF9361
:10150000DF93EC017C0100E8E00EF11CF701808024
:101510009180A280B3800E94B71095018401061BC0
:10152000170B280B390BB901A8015E011FE7A10EAB
:10153000B11CF501808190E0A0E0B0E08E0105587B
:101540001F4F84179507A607B70750F4F80180814D
:101550009181A281B381892B8A2B8B2B09F040C00A
:10156000F80180819181A281B381892B8A2B8B2BF9
:10157000A9F57E01F5E2EF0EF11CC7010E94B30E42
:10158000C7010E94200FC7010E94E40FCE010E94F4
:101590005609CE010E94C6097E012EE4E20EF11C1E
:1015A000C7010E94EB03FE01EC5AFF4F80818111BD
:1015B00003C0C7010E94DA030E94C310F8016083D0
:1015C000718382839383FE01EB58FF4FC958DF4F2D
:1015D00028813981621B730B7183608380E036C080
:1015E0000E94B710F5012081620F711D811D911DB0
:1015F000F7016083718382839383FE01EF58FF4F6D
:1016000040815181628173814F5F5F4F6F4F7F4F88
:101610004083518362837383F801108211821282A6
:1016200013820E94C310FE01E958FF4F608371834B
:1016300082839383CE010E946A02CE010A960E94A1
:101640001D03CE0148960E94D30281E0DF91CF9125
:101650001F910F91FF90EF90BF90AF909F908F9050
:1016600008950F931F93CF93DF938C01EC01C25B1E
:10167000DF4FCE010E94DA036AE172E0CE010E94E0
:10168000D612CE010E94EB038CB583608CBD8DB564
:101690008E7F8DBD80E291E0EEEFFFE30995F801CA
:1016A000EC5AFF4F108265EF71E0CE010E940613E5
:1016B000CE010E94EB03065F1F4FC8010E941D036D
:1016C00064E0C8010E945403811107C062E370E026
:1016D00080E090E00E94E610F0CFDF91CF911F9163
:1016E0000F9108952F923F924F925F926F927F9247
:1016F0008F929F92AF92BF92CF92DF92EF92FF9222
:101700000F931F93CF93DF93CDB7DEB729970FB613
:10171000F894DEBF0FBECDBF998788871B012A01D1
:101720003C0180E7680E711CF3018081882309F475
:1017300002C181E0E885F985EA5AFF4F8083E88598
:10174000F985EB5AFF4F1082E885F985EC5AFF4F77
:101750001082E885F985108E8F01025B1F4F61E0D2
:10176000C8010E943304888599858D5A9F4F9C83B8
:101770008B83C884D98497E5C90ED11CE884F98489
:10178000E8E5EE0EF11C888599858E5A9F4F9A8365
:101790008983E885F985EF58FF4FFE83ED838884C0
:1017A0009984FAE08F0E911CA884B98485E2A80E72
:1017B000B11C888599850E94770A8823D1F3F101AD
:1017C0008491882321F0EB81FC81508101C050E09D
:1017D00024E832E040E060E0C8015F830E9429060F
:1017E0005F814114510439F04CE0450F920160E0F3
:1017F000C8010E942906F60110828CE0F70180835F
:10180000B101C8010E94D612E981FA819081892F25
:10181000880F890F81958D5AF6018083EB81FC81B9
:101820009081892F880F890F8195835DF7018083CF
:10183000ED81FE81808184FF03C060E872E002C018
:101840006CE772E0C8010E940613E981FA81908179
:10185000892F880F890F81958D5AF6018083F701B2
:1018600080818F5F8083E885F98582A5882319F0C0
:1018700068E772E002C064E772E0C8010E940613E4
:10188000E981FA819081892F880F890F81958D5A7E
:10189000F6018083F70180818F5F808360E772E0CB
:1018A000C8010E94061365E0C4010E945403882306
:1018B00051F0E885F98562A56F5FC5010E9460104F
:1018C000C5010E944A1064E0C4010E9454038111C2
:1018D00013C0F3012081822F90E0A0E0B0E0ED8101
:1018E000FE814081518162817381481759076A07DF
:1018F0007B07A8F02F3F99F08FEFF30180830885D5
:1019000019850B5D1F4F60E0C8010E945D0EC80184
:101910000E94341081E0E885F985808F0CC066E074
:10192000C4010E945403882309F443CF8885998514
:101930000E94310B34CF29960FB6F894DEBF0FBE4C
:10194000CDBFDF91CF911F910F91FF90EF90DF906E
:10195000CF90BF90AF909F908F907F906F905F904F
:101960004F903F902F90089540E050E00C94720B00
:10197000E0E8F7E72591349181E02130304C09F01F
:1019800080E00895CF93DF93EC010E94B80C9E0194
:10199000275A3F4FDE01A059BF4F882309F43CC0AE
:1019A000E6E9F7E78491F9018083E7E9F7E7E49155
:1019B000EC83E8E9F7E7E491ED83E9E9F7E785915E
:1019C00094919F838E83EBE9F7E7859194919987B2
:1019D0008887EDE9F7E7E491EBA7EEE9F7E7E49113
:1019E000EAA7EFE9F7E7E491EC93E0EAF7E78591FE
:1019F00094919D8F8C8FE2EAF7E7859194919F8F68
:101A00008E8FE4EAF7E78591949199A388A3E6EA9B
:101A1000F7E78591949120C08CE3F90180831C82C3
:101A20002FEF2D8380E293E09F838E8384ED93E0FC
:101A30009987888781E08BA78AA72C938CEA9DE001
:101A40009D8F8C8F8EED9DE09F8F8E8F84E79EE023
:101A500099A388A38CE39FE09BA38AA3DF91CF91F6
:101A60000895CF92DF92EF920F93CF93DF93EC0123
:101A7000FC01E158FF4F82E38083349741E050E05E
:101A800060E070E040835183628373833B978FEF04
:101A90008083CE010E94C20CCE010E9462026FEFD1
:101AA000CE010E9466026E018AE0C80ED11CC601FA
:101AB0000E940D03C6010E941D03CE0148960E949C
:101AC000C9023EE0E32E0FE020E14BE06DE0CE01E5
:101AD000825B9F4F0E946F07A596CE010E94C90DA1
:101AE00065E0C6010E945403882351F060E0CE01F6
:101AF000DF91CF910F91EF90DF90CF900C94601019
:101B000040E064EF72E0CE01DF91CF910F91EF9052
:101B1000DF90CF900C94680ECF93DF9350E0FA01E2
:101B2000EE0FFF1FE80FF91F37852089E32FF22FF3
:101B3000E60FF11DE60FF11D25913491FA01EE0F2C
:101B4000FF1FE80FF91F30A3278FF90165917491EA
:101B5000FC01D481D69FC02D1124E40FF51FC1A331
:101B6000F901A591B4916B2F70E0EC2FF0E0DC014E
:101B7000A40FB51F6E177F0720F4F901259134914A
:101B8000C32FCD9FC02D11249296CC93DF91CF917E
:101B9000089521E0FC01248324E020A72BE433E016
:101BA000308B278740E060E00E948C0D61E070E0A0
:101BB00083E00E947811E1EBF0E08081887F816012
:101BC0008083F89410928000E1E8F0E01082109297
:101BD00085001092840088E191E0909389008093C1
:101BE0008800808188608083808181608083EFE6C7
:101BF000F0E0808182608083789408950F93FC01E7
:101C0000862F642F011129C08230D1F048F4882337
:101C100091F0813011F540E0CF010F910C948C0DC3
:101C20008330A9F08430C9F48481489F602D112449
:101C3000658F268F12C04B3008F06AE0668B0DC0AE
:101C40008481489F602D1124618F228F06C084817A
:101C5000489F602D1124638F248F0F910895FC01FC
:101C600021110EC0648B8481489F402D1124458B27
:101C700015A214A213A281E0878B8093C403108E57
:101C800008958091C403882319F08091C10301C095
:101C900080E08093B4000895FC0161110DC0178AA3
:101CA000158A14A213A2108E1092C1031092C203BF
:101CB0001092C4030C94410E0895CF93DF93EC016E
:101CC000611103C00E944C0E1982DF91CF910895DB
:101CD0000F931F93CF93DF93EC018B0141110EC043
:101CE00060E00E945D0E1E870D871B8A1A8A81E0C4
:101CF000898389E08E8B198E1B8E1D8EDF91CF918B
:101D00001F910F910895CF93DF93EC01611128C0CB
:101D10008881882329F18981811122C089852F81B9
:101D20009885E22FF92FE80FF11DE80FF11D85913D
:101D300094918F3F2FEF920711F4188211C09C8766
:101D40009927880F991FEA85FB85E80FF91F659190
:101D5000749140E0CE010E94680E89858F5F89876B
:101D6000DF91CF91089560E00C94830E60E00C94B5
:101D70005D0E0F93CF93DF93EC0161115DC08981FC
:101D8000882309F459C08D89811156C02D853E855F
:101D90008A899B89880F991F820F931FFC01859167
:101DA00094910097D1F48989882321F01B8A1A8A9B
:101DB000F90111C01982888160E0882331F0CE01D9
:101DC0000E94830E8A899B8925C0CE01DF91CF9125
:101DD0000F910C944C0E85919491BC01769567956A
:101DE0007695679580FF1DC0AC01A6E05695479596
:101DF000AA95E1F7292F26952695269520514F7112
:101E00006F7000E0CE010E94FE0D8A899B890196C9
:101E10009B8B8A8B880F991FED85FE85E80FF91F34
:101E2000DACF492F6F7320E0CE010E942F0E8A89EE
:101E30009B8901969B8B8A8BDF91CF910F9108959F
:101E400060E00C94B90ECF93DF93EC016111B9C03F
:101E50008F89882309F4B5C08D89811105C0CE0111
:101E6000DF91CF910C944C0E81508D8B8DA18111FF
:101E700038C08BA19CA101969C01220F331FEF8DCE
:101E8000F8A1E20FF31F25913491422F47704EA322
:101E9000A90163E0569547956A95E1F7BA017695F1
:101EA0006795232F269526952FA36F732C81629F0C
:101EB000602D11246DA341704093C0039CA38BA39C
:101EC00029A130E08217930760F08AA1882329F0C6
:101ED000281B31093CA32BA304C060E0CE010E9463
:101EE0004C0E8DA181508DA3288D2F5F288F4C899A
:101EF0003FA1340F8C85380F3A836B8D662361F0D8
:101F000070E0822F992787FD90950E9479158C8D1E
:101F1000869F300D11243A838A8190E0CB966BE343
:101F200070E00E9479158A833E893B83698D662320
:101F300071F0772767FD7095822F992787FD90951F
:101F40000E9479158A8D869F300D11243B836D8DFB
:101F5000662391F0822F992787FD909570E00E946B
:101F60007915CB0162E070E00E9479152E8D9B817E
:101F7000289F900D11249B838B814F3339F08A3039
:101F80000CF089E087FD80E08B8301C01B82F89410
:101F9000EA81F0E0EE5FFC4FE491E093C30398A583
:101FA0008D81989F802D11249B81899F802D1124E4
:101FB0009EA1899F802D11248093C2038093C10329
:101FC0007894DF91CF91089560E00C94230F609195
:101FD000C203662321F18091C5038F5F8093C503FF
:101FE0009091C3038917D8F08091C40391E08927A9
:101FF0008093C4031092C5038091C003882369F0C5
:1020000090910A0183E4989F802D1124895B80932D
:102010000A010E9459159093C1030C94410E089532
:102020001F920F920FB60F9211242F933F934F934D
:102030005F936F937F938F939F93AF93BF93EF9330
:10204000FF930E94E70FFF91EF91BF91AF919F9196
:102050008F917F916F915F914F913F912F910F9051
:102060000FBE0F901F901895CF93DF93EC0160E0A7
:102070000E945D0E83E493E09E878D871B8A1A8AF7
:1020800081E0898389E08E8B198E1B8E1D8EDF91F6
:10209000CF910895CF93DF93EC0160E00E945D0E35
:1020A0008DE393E09E878D871B8A1A8A81E089835E
:1020B00089E08E8B198E1B8E1D8EDF91CF91089536
:1020C000FC01862F992787FD9095668170E06F5FF0
:1020D0007F4F0E947915858308951F920F920FB646
:1020E0000F9211242F933F938F939F93AF93BF939E
:1020F0008091C7039091C803A091C903B091CA030E
:102100003091C60323E0230F2D3720F40196A11D43
:10211000B11D05C026E8230F0296A11DB11D209315
:10212000C6038093C7039093C803A093C903B093D9
:10213000CA038091CB039091CC03A091CD03B091C1
:10214000CE030196A11DB11D8093CB039093CC03C8
:10215000A093CD03B093CE03BF91AF919F918F9188
:102160003F912F910F900FBE0F901F9018952FB792
:10217000F8946091C7037091C8038091C90390914E
:10218000CA032FBF08953FB7F8948091CB03909175
:10219000CC03A091CD03B091CE0326B5A89B05C07A
:1021A0002F3F19F00196A11DB11D3FBF6627782F63
:1021B000892F9A2F620F711D811D911D42E0660FBC
:1021C000771F881F991F4A95D1F708958F929F9284
:1021D000AF92BF92CF92DF92EF92FF926B017C01A0
:1021E0000E94C3104B015C01C114D104E104F1044D
:1021F000F1F00E942B140E94C310681979098A0912
:102200009B09683E73408105910570F321E0C21A75
:10221000D108E108F10888EE880E83E0981EA11C21
:10222000B11CC114D104E104F10429F7DDCFFF9002
:10223000EF90DF90CF90BF90AF909F908F900895D8
:10224000789484B5826084BD84B5816084BD85B591
:10225000826085BD85B5816085BDEEE6F0E0808158
:1022600081608083E1E8F0E0108280818260808379
:10227000808181608083E0E8F0E0808181608083FC
:10228000E1EBF0E0808184608083E0EBF0E080812E
:1022900081608083EAE7F0E08081846080838081D0
:1022A0008260808380818160808380818068808378
:1022B0001092C10008958E3008F08E5087702091E2
:1022C0000B0190E4299F90011124822B80937C00C4
:1022D00080917A00806480937A0080917A0086FDF4
:1022E000FCCF809178002091790090E0922B0895A6
:1022F0001F93CF93DF93182FEB0161E00E94001230
:10230000209711F460E004C0CF3FD10539F461E0BB
:10231000812FDF91CF911F910C943912E12FF0E0C2
:10232000E95AFC4FE491E330F9F048F4E130B9F0B8
:10233000E230A1F584B5806284BDC8BD34C0E73009
:10234000E9F0E83019F1E43049F5809180008062CD
:1023500080938000D0938B00C0938A0024C084B502
:10236000806884BDC7BD1FC0809180008068809355
:102370008000D0938900C093880015C08091B00080
:1023800080688093B000C093B3000DC08091B0000E
:1023900080628093B000C093B40005C0C038D105FE
:1023A0000CF0B5CFAFCFDF91CF911F91089583305F
:1023B00081F028F4813099F08230A1F008958730BF
:1023C000A9F08830B9F08430D1F4809180008F7DFD
:1023D00003C0809180008F7780938000089584B53A
:1023E0008F7702C084B58F7D84BD08958091B00041
:1023F0008F7703C08091B0008F7D8093B0000895E7
:10240000CF93DF9390E0FC01E559FC4F2491FC0150
:10241000E158FC4F8491882349F190E0880F991F7F
:10242000FC01E955FC4FA591B49183569C4FFC01EA
:10243000C591D4919FB7611108C0F8948C912095F3
:1024400082238C93888182230AC0623051F4F894ED
:102450008C91322F309583238C938881822B8883B3
:1024600004C0F8948C91822B8C939FBFDF91CF9105
:1024700008950F931F93CF93DF931F92CDB7DEB7CD
:10248000282F30E0F901E95AFC4F8491F901E55910
:10249000FC4F1491F901E158FC4F04910023C9F05D
:1024A000882321F069830E94D7116981E02FF0E031
:1024B000EE0FFF1FE356FC4FA591B4919FB7F89420
:1024C0008C91611103C01095812301C0812B8C93E5
:1024D0009FBF0F90DF91CF911F910F910895CF93E0
:1024E000DF93282F30E0F901E95AFC4F8491F9017C
:1024F000E559FC4FD491F901E158FC4FC491CC232C
:1025000091F081110E94D711EC2FF0E0EE0FFF1F28
:10251000ED56FC4FA591B4912C912D2381E090E0D4
:1025200021F480E002C080E090E0DF91CF91089537
:10253000CF92DF92EF92FF920F931F93CF93DF938F
:102540007C016A01EB0100E010E00C151D0571F043
:102550006991D701ED91FC910190F081E02DC701C7
:102560000995892B19F00F5F1F4FEFCFC801DF913D
:10257000CF911F910F91FF90EF90DF90CF90089532
:102580006115710581F0DB010D900020E9F7AD01C7
:1025900041505109461B570BDC01ED91FC91028023
:1025A000F381E02D099480E090E00895EF92FF928E
:1025B0000F931F93CF93DF938C017B01C0E0D0E09A
:1025C000F701EC0FFD1F6491662359F0F801A0811B
:1025D000B181ED91FC91C8010995892B11F02196EB
:1025E000EFCFCE01DF91CF911F910F91FF90EF9030
:1025F00008950C94C012DC01ED91FC910190F081E2
:10260000E02D099467E271E00C94C0120F931F93C0
:10261000CF93DF93EC010E94D6128C01CE010E9471
:102620000213800F911FDF91CF911F910F91089599
:102630008F929F92AF92BF92DF92EF92FF920F9391
:102640001F93CF93DF93CDB7DEB7A1970FB6F89462
:10265000DEBF0FBECDBF7C01F42FD52ECB0119A25A
:10266000223008F42AE08E010F5D1F4F822E912C3C
:10267000A12CB12C6F2F7D2DA50194010E948D15E9
:10268000F22FD32ECA01015011096A3014F4E0E38D
:1026900001C0E7E3E60FD801EC93232B242B252B75
:1026A00049F7B801C7010E94C012A1960FB6F8946D
:1026B000DEBF0FBECDBFDF91CF911F910F91FF9075
:1026C000EF90DF90BF90AF909F908F900895CF9242
:1026D000DF92EF92FF920F931F93CF93DF93EC0162
:1026E0006A017B012115310579F4E881F9810190B6
:1026F000F081E02D642FDF91CF911F910F91FF901A
:10270000EF90DF90CF9009942A303105E9F477FFFC
:102710001AC06DE20E94FB128C0144275527BA01B2
:102720004C195D096E097F092AE0CE010E94181339
:10273000800F911FDF91CF911F910F91FF90EF902C
:10274000DF90CF9008952AE0B701A601CE01DF9176
:10275000CF911F910F91FF90EF90DF90CF900C944D
:1027600018139A01AB01662757FD6095762F0C94DC
:1027700067132115310541F4DC01ED91FC910190C5
:10278000F081E02D642F09940C9418139A01AB0189
:1027900060E070E00C94B913611571058105910535
:1027A00011F00C94421608954F925F926F927F92AF
:1027B000AF92BF92CF92DF92EF92FF920F931F934F
:1027C000CF93DF93CDB7DEB729013A01621B730BBC
:1027D000840B950B29893A894B895C892A193B0915
:1027E0004C095D09298B3A8B4B8B5C8B9B01AC01AF
:1027F00069897A898B899C890E944915E418F508B2
:1028000006091709A80197010E94AF152A0D3B1D63
:102810004C1D5D1DCA01B901DF91CF911F910F9130
:10282000FF90EF90DF90CF90BF90AF907F906F9030
:102830005F904F90089508950E9420110E941B14EC
:102840000E940402C0E0D0E00E9414022097E1F34D
:102850000E940000F9CF089598D088F09F5790F01B
:10286000B92F9927B751A0F0D1F0660F771F881FB5
:10287000991F1AF0BA95C9F712C0B13081F09FD0F4
:10288000B1E008959CC0672F782F8827B85F39F092
:10289000B93FCCF3869577956795B395D9F73EF414
:1028A00090958095709561957F4F8F4F9F4F0895BC
:1028B000E89409C097FB3EF49095809570956195DA
:1028C0007F4F8F4F9F4F9923A9F0F92F96E9BB2790
:1028D0009395F695879577956795B795F111F8CF0C
:1028E000FAF4BB0F11F460FF1BC06F5F7F4F8F4F77
:1028F0009F4F16C0882311F096E911C0772321F06D
:102900009EE8872F762F05C0662371F096E8862F04
:1029100070E060E02AF09A95660F771F881FDAF75B
:10292000880F9695879597F9089597F99F6780E89E
:1029300070E060E008959FEF80EC089500240A9411
:102940001616170618060906089500240A9412168A
:102950001306140605060895092E0394000C11F4BD
:10296000882352F0BB0F40F4BF2B11F460FF04C06A
:102970006F5F7F4F8F4F9F4F089557FD9058440FC3
:10298000551F59F05F3F71F04795880F97FB991FCE
:1029900061F09F3F79F0879508951216130614068B
:1029A000551FF2CF4695F1DF08C016161706180618
:1029B000991FF1CF86957105610508940895E894F3
:1029C000BB2766277727CB0197F908950BD0C4CF93
:1029D000B5DF28F0BADF18F0952309F0A6CFABCF0A
:1029E0001124EECFCADFA0F3959FD1F3950F50E0ED
:1029F000551F629FF001729FBB27F00DB11D639FB1
:102A0000AA27F00DB11DAA1F649F6627B00DA11D56
:102A1000661F829F2227B00DA11D621F739FB00DFC
:102A2000A11D621F839FA00D611D221F749F33276C
:102A3000A00D611D231F849F600D211D822F762F05
:102A40006A2F11249F5750408AF0E1F088234AF002
:102A5000EE0FFF1FBB1F661F771F881F915050404E
:102A6000A9F79E3F510570F060CFAACF5F3FECF30E
:102A7000983EDCF3869577956795B795F795E7953A
:102A80009F5FC1F7FE2B880F911D9695879597F94B
:102A90000895DB018F939F930E94CE15BF91AF9154
:102AA000A29F800D911DA39F900DB29F900D1124A8
:102AB0000895991B79E004C0991F961708F0961B9A
:102AC000881F7A95C9F780950895AA1BBB1B51E111
:102AD00007C0AA1FBB1FA617B70710F0A61BB70B8E
:102AE000881F991F5A95A9F780959095BC01CD0133
:102AF000089597FB072E16F4009407D077FD09D0B0
:102B00000E94651507FC05D03EF4909581959F4F76
:102B10000895709561957F4F0895A1E21A2EAA1B22
:102B2000BB1BFD010DC0AA1FBB1FEE1FFF1FA2177D
:102B3000B307E407F50720F0A21BB30BE40BF50B7A
:102B4000661F771F881F991F1A9469F76095709503
:102B5000809590959B01AC01BD01CF010895052E94
:102B600097FB1EF400940E94C61557FD07D00E94E3
:102B70008D1507FC03D04EF40C94C6155095409566
:102B8000309521953F4F4F4F5F4F08959095809519
:102B9000709561957F4F8F4F9F4F08950E94DF156D
:102BA000A59F900DB49F900DA49F800D911D1124A1
:102BB0000895EE0FFF1F0590F491E02D0994A29F58
:102BC000B001B39FC001A39F700D811D1124911D01
:102BD000B29F700D811D1124911D08958F929F92B7
:102BE000AF92BF92CF92DF92EF92FF92CF93DF939B
:102BF000EC01688179818A819B816115710581056C
:102C0000910521F464E279ED8BE597E02DE133EF56
:102C100041E050E00E94AF1549015A019B01AC010F
:102C2000A7EAB1E40E94CE156B017C01ACEEB4EFD3
:102C3000A50194010E944E16C60ED71EE81EF91E6D
:102C4000F7FE06C081E0C81AD108E10880E8F80A5A
:102C5000C882D982EA82FB82C701B6019F77DF91E1
:102C6000CF91FF90EF90DF90CF90BF90AF909F906B
:102C70008F9008950E94EE15089586E091E00E94DD
:102C8000EE15089560930601709307018093080183
:102C9000909309010895B7FF0C94CE150E94CE15AC
:0A2CA000821B930B0895F894FFCFF8
:102CAA000000CF03800001000000010148656C6C40
:102CBA006F20776F726C640000000000D9089812C8
:102CCA004C4F41444552000D0A006E616E00696E18
:082CDA0066006F7666002E0013
:00000001FF
